{
	"Structs.sol": {
		"Struct": {
			"abi": [
				{
					"inputs": [
						{
							"internalType": "string",
							"name": "_name",
							"type": "string"
						},
						{
							"internalType": "uint256",
							"name": "",
							"type": "uint256"
						}
					],
					"name": "createTodo",
					"outputs": [],
					"stateMutability": "nonpayable",
					"type": "function"
				},
				{
					"inputs": [
						{
							"internalType": "uint256",
							"name": "",
							"type": "uint256"
						}
					],
					"name": "todos",
					"outputs": [
						{
							"internalType": "string",
							"name": "name",
							"type": "string"
						},
						{
							"internalType": "bool",
							"name": "completed",
							"type": "bool"
						}
					],
					"stateMutability": "view",
					"type": "function"
				},
				{
					"inputs": [
						{
							"internalType": "uint256",
							"name": "_index",
							"type": "uint256"
						}
					],
					"name": "toggleCompleted",
					"outputs": [],
					"stateMutability": "nonpayable",
					"type": "function"
				},
				{
					"inputs": [
						{
							"internalType": "uint256",
							"name": "_i",
							"type": "uint256"
						},
						{
							"internalType": "string",
							"name": "_name",
							"type": "string"
						}
					],
					"name": "updateTodo",
					"outputs": [],
					"stateMutability": "nonpayable",
					"type": "function"
				}
			],
			"devdoc": {
				"kind": "dev",
				"methods": {},
				"version": 1
			},
			"evm": {
				"assembly": "    /* \"Structs.sol\":61:1240  contract Struct {\r... */\n  mstore(0x40, 0x80)\n  callvalue\n  dup1\n  iszero\n  tag_1\n  jumpi\n  0x00\n  dup1\n  revert\ntag_1:\n  pop\n  dataSize(sub_0)\n  dup1\n  dataOffset(sub_0)\n  0x00\n  codecopy\n  0x00\n  return\nstop\n\nsub_0: assembly {\n        /* \"Structs.sol\":61:1240  contract Struct {\r... */\n      mstore(0x40, 0x80)\n      callvalue\n      dup1\n      iszero\n      tag_1\n      jumpi\n      0x00\n      dup1\n      revert\n    tag_1:\n      pop\n      jumpi(tag_2, lt(calldatasize, 0x04))\n      shr(0xe0, calldataload(0x00))\n      dup1\n      0x455f5024\n      eq\n      tag_3\n      jumpi\n      dup1\n      0xbc8bc2b4\n      eq\n      tag_4\n      jumpi\n      dup1\n      0xd534ee88\n      eq\n      tag_5\n      jumpi\n      dup1\n      0xece28c6c\n      eq\n      tag_6\n      jumpi\n    tag_2:\n      0x00\n      dup1\n      revert\n        /* \"Structs.sol\":1123:1237  function toggleCompleted(uint _index) public {\r... */\n    tag_3:\n      tag_7\n      0x04\n      dup1\n      calldatasize\n      sub\n      dup2\n      add\n      swap1\n      tag_8\n      swap2\n      swap1\n      tag_9\n      jump\t// in\n    tag_8:\n      tag_10\n      jump\t// in\n    tag_7:\n      stop\n        /* \"Structs.sol\":277:300  TodoItem[] public todos */\n    tag_4:\n      tag_11\n      0x04\n      dup1\n      calldatasize\n      sub\n      dup2\n      add\n      swap1\n      tag_12\n      swap2\n      swap1\n      tag_9\n      jump\t// in\n    tag_12:\n      tag_13\n      jump\t// in\n    tag_11:\n      mload(0x40)\n      tag_14\n      swap3\n      swap2\n      swap1\n      tag_15\n      jump\t// in\n    tag_14:\n      mload(0x40)\n      dup1\n      swap2\n      sub\n      swap1\n      return\n        /* \"Structs.sol\":915:1090  function updateTodo(uint _i, string memory _name) public{\r... */\n    tag_5:\n      tag_16\n      0x04\n      dup1\n      calldatasize\n      sub\n      dup2\n      add\n      swap1\n      tag_17\n      swap2\n      swap1\n      tag_18\n      jump\t// in\n    tag_17:\n      tag_19\n      jump\t// in\n    tag_16:\n      stop\n        /* \"Structs.sol\":311:871  function createTodo(string memory _name, uint ) public{\r... */\n    tag_6:\n      tag_20\n      0x04\n      dup1\n      calldatasize\n      sub\n      dup2\n      add\n      swap1\n      tag_21\n      swap2\n      swap1\n      tag_22\n      jump\t// in\n    tag_21:\n      tag_23\n      jump\t// in\n    tag_20:\n      stop\n        /* \"Structs.sol\":1123:1237  function toggleCompleted(uint _index) public {\r... */\n    tag_10:\n        /* \"Structs.sol\":1206:1211  todos */\n      0x00\n        /* \"Structs.sol\":1212:1218  _index */\n      dup2\n        /* \"Structs.sol\":1206:1219  todos[_index] */\n      dup2\n      sload\n      dup2\n      lt\n      tag_25\n      jumpi\n      tag_26\n      tag_27\n      jump\t// in\n    tag_26:\n    tag_25:\n      swap1\n      0x00\n      mstore\n      keccak256(0x00, 0x20)\n      swap1\n      0x02\n      mul\n      add\n        /* \"Structs.sol\":1206:1229  todos[_index].completed */\n      0x01\n      add\n      0x00\n      swap1\n      sload\n      swap1\n      0x0100\n      exp\n      swap1\n      div\n      0xff\n      and\n        /* \"Structs.sol\":1205:1229  !todos[_index].completed */\n      iszero\n        /* \"Structs.sol\":1179:1184  todos */\n      0x00\n        /* \"Structs.sol\":1185:1191  _index */\n      dup3\n        /* \"Structs.sol\":1179:1192  todos[_index] */\n      dup2\n      sload\n      dup2\n      lt\n      tag_29\n      jumpi\n      tag_30\n      tag_27\n      jump\t// in\n    tag_30:\n    tag_29:\n      swap1\n      0x00\n      mstore\n      keccak256(0x00, 0x20)\n      swap1\n      0x02\n      mul\n      add\n        /* \"Structs.sol\":1179:1202  todos[_index].completed */\n      0x01\n      add\n      0x00\n        /* \"Structs.sol\":1179:1229  todos[_index].completed = !todos[_index].completed */\n      0x0100\n      exp\n      dup2\n      sload\n      dup2\n      0xff\n      mul\n      not\n      and\n      swap1\n      dup4\n      iszero\n      iszero\n      mul\n      or\n      swap1\n      sstore\n      pop\n        /* \"Structs.sol\":1123:1237  function toggleCompleted(uint _index) public {\r... */\n      pop\n      jump\t// out\n        /* \"Structs.sol\":277:300  TodoItem[] public todos */\n    tag_13:\n      0x00\n      dup2\n      dup2\n      sload\n      dup2\n      lt\n      tag_32\n      jumpi\n      0x00\n      dup1\n      revert\n    tag_32:\n      swap1\n      0x00\n      mstore\n      keccak256(0x00, 0x20)\n      swap1\n      0x02\n      mul\n      add\n      0x00\n      swap2\n      pop\n      swap1\n      pop\n      dup1\n      0x00\n      add\n      dup1\n      sload\n      tag_34\n      swap1\n      tag_35\n      jump\t// in\n    tag_34:\n      dup1\n      0x1f\n      add\n      0x20\n      dup1\n      swap2\n      div\n      mul\n      0x20\n      add\n      mload(0x40)\n      swap1\n      dup2\n      add\n      0x40\n      mstore\n      dup1\n      swap3\n      swap2\n      swap1\n      dup2\n      dup2\n      mstore\n      0x20\n      add\n      dup3\n      dup1\n      sload\n      tag_36\n      swap1\n      tag_35\n      jump\t// in\n    tag_36:\n      dup1\n      iszero\n      tag_37\n      jumpi\n      dup1\n      0x1f\n      lt\n      tag_38\n      jumpi\n      0x0100\n      dup1\n      dup4\n      sload\n      div\n      mul\n      dup4\n      mstore\n      swap2\n      0x20\n      add\n      swap2\n      jump(tag_37)\n    tag_38:\n      dup3\n      add\n      swap2\n      swap1\n      0x00\n      mstore\n      keccak256(0x00, 0x20)\n      swap1\n    tag_39:\n      dup2\n      sload\n      dup2\n      mstore\n      swap1\n      0x01\n      add\n      swap1\n      0x20\n      add\n      dup1\n      dup4\n      gt\n      tag_39\n      jumpi\n      dup3\n      swap1\n      sub\n      0x1f\n      and\n      dup3\n      add\n      swap2\n    tag_37:\n      pop\n      pop\n      pop\n      pop\n      pop\n      swap1\n      dup1\n      0x01\n      add\n      0x00\n      swap1\n      sload\n      swap1\n      0x0100\n      exp\n      swap1\n      div\n      0xff\n      and\n      swap1\n      pop\n      dup3\n      jump\t// out\n        /* \"Structs.sol\":915:1090  function updateTodo(uint _i, string memory _name) public{\r... */\n    tag_19:\n        /* \"Structs.sol\":1075:1080  _name */\n      dup1\n        /* \"Structs.sol\":1058:1063  todos */\n      0x00\n        /* \"Structs.sol\":1064:1066  _i */\n      dup4\n        /* \"Structs.sol\":1058:1067  todos[_i] */\n      dup2\n      sload\n      dup2\n      lt\n      tag_41\n      jumpi\n      tag_42\n      tag_27\n      jump\t// in\n    tag_42:\n    tag_41:\n      swap1\n      0x00\n      mstore\n      keccak256(0x00, 0x20)\n      swap1\n      0x02\n      mul\n      add\n        /* \"Structs.sol\":1058:1072  todos[_i].name */\n      0x00\n      add\n        /* \"Structs.sol\":1058:1080  todos[_i].name = _name */\n      swap1\n      dup1\n      mload\n      swap1\n      0x20\n      add\n      swap1\n      tag_44\n      swap3\n      swap2\n      swap1\n      tag_45\n      jump\t// in\n    tag_44:\n      pop\n        /* \"Structs.sol\":915:1090  function updateTodo(uint _i, string memory _name) public{\r... */\n      pop\n      pop\n      jump\t// out\n        /* \"Structs.sol\":311:871  function createTodo(string memory _name, uint ) public{\r... */\n    tag_23:\n        /* \"Structs.sol\":480:485  todos */\n      0x00\n        /* \"Structs.sol\":491:513  TodoItem(_name, false) */\n      mload(0x40)\n      dup1\n      0x40\n      add\n      0x40\n      mstore\n      dup1\n        /* \"Structs.sol\":500:505  _name */\n      dup5\n        /* \"Structs.sol\":491:513  TodoItem(_name, false) */\n      dup2\n      mstore\n      0x20\n      add\n        /* \"Structs.sol\":507:512  false */\n      0x00\n        /* \"Structs.sol\":491:513  TodoItem(_name, false) */\n      iszero\n      iszero\n      dup2\n      mstore\n      pop\n        /* \"Structs.sol\":480:514  todos.push(TodoItem(_name, false)) */\n      swap1\n      dup1\n      0x01\n      dup2\n      sload\n      add\n      dup1\n      dup3\n      sstore\n      dup1\n      swap2\n      pop\n      pop\n      0x01\n      swap1\n      sub\n      swap1\n      0x00\n      mstore\n      keccak256(0x00, 0x20)\n      swap1\n      0x02\n      mul\n      add\n      0x00\n      swap1\n      swap2\n      swap1\n      swap2\n      swap1\n      swap2\n      pop\n      0x00\n      dup3\n      add\n      mload\n      dup2\n      0x00\n      add\n      swap1\n      dup1\n      mload\n      swap1\n      0x20\n      add\n      swap1\n      tag_48\n      swap3\n      swap2\n      swap1\n      tag_45\n      jump\t// in\n    tag_48:\n      pop\n      0x20\n      dup3\n      add\n      mload\n      dup2\n      0x01\n      add\n      exp(0x0100, 0x00)\n      dup2\n      sload\n      dup2\n      0xff\n      mul\n      not\n      and\n      swap1\n      dup4\n      iszero\n      iszero\n      mul\n      or\n      swap1\n      sstore\n      pop\n      pop\n      pop\n        /* \"Structs.sol\":311:871  function createTodo(string memory _name, uint ) public{\r... */\n      pop\n      pop\n      jump\t// out\n    tag_45:\n      dup3\n      dup1\n      sload\n      tag_49\n      swap1\n      tag_35\n      jump\t// in\n    tag_49:\n      swap1\n      0x00\n      mstore\n      keccak256(0x00, 0x20)\n      swap1\n      0x1f\n      add\n      0x20\n      swap1\n      div\n      dup2\n      add\n      swap3\n      dup3\n      tag_51\n      jumpi\n      0x00\n      dup6\n      sstore\n      jump(tag_50)\n    tag_51:\n      dup3\n      0x1f\n      lt\n      tag_52\n      jumpi\n      dup1\n      mload\n      not(0xff)\n      and\n      dup4\n      dup1\n      add\n      or\n      dup6\n      sstore\n      jump(tag_50)\n    tag_52:\n      dup3\n      dup1\n      add\n      0x01\n      add\n      dup6\n      sstore\n      dup3\n      iszero\n      tag_50\n      jumpi\n      swap2\n      dup3\n      add\n    tag_53:\n      dup3\n      dup2\n      gt\n      iszero\n      tag_54\n      jumpi\n      dup3\n      mload\n      dup3\n      sstore\n      swap2\n      0x20\n      add\n      swap2\n      swap1\n      0x01\n      add\n      swap1\n      jump(tag_53)\n    tag_54:\n    tag_50:\n      pop\n      swap1\n      pop\n      tag_55\n      swap2\n      swap1\n      tag_56\n      jump\t// in\n    tag_55:\n      pop\n      swap1\n      jump\t// out\n    tag_56:\n    tag_57:\n      dup1\n      dup3\n      gt\n      iszero\n      tag_58\n      jumpi\n      0x00\n      dup2\n      0x00\n      swap1\n      sstore\n      pop\n      0x01\n      add\n      jump(tag_57)\n    tag_58:\n      pop\n      swap1\n      jump\t// out\n        /* \"#utility.yul\":7:419   */\n    tag_60:\n        /* \"#utility.yul\":85:90   */\n      0x00\n        /* \"#utility.yul\":110:176   */\n      tag_62\n        /* \"#utility.yul\":126:175   */\n      tag_63\n        /* \"#utility.yul\":168:174   */\n      dup5\n        /* \"#utility.yul\":126:175   */\n      tag_64\n      jump\t// in\n    tag_63:\n        /* \"#utility.yul\":110:176   */\n      tag_65\n      jump\t// in\n    tag_62:\n        /* \"#utility.yul\":101:176   */\n      swap1\n      pop\n        /* \"#utility.yul\":199:205   */\n      dup3\n        /* \"#utility.yul\":192:197   */\n      dup2\n        /* \"#utility.yul\":185:206   */\n      mstore\n        /* \"#utility.yul\":237:241   */\n      0x20\n        /* \"#utility.yul\":230:235   */\n      dup2\n        /* \"#utility.yul\":226:242   */\n      add\n        /* \"#utility.yul\":275:278   */\n      dup5\n        /* \"#utility.yul\":266:272   */\n      dup5\n        /* \"#utility.yul\":261:264   */\n      dup5\n        /* \"#utility.yul\":257:273   */\n      add\n        /* \"#utility.yul\":254:279   */\n      gt\n        /* \"#utility.yul\":251:363   */\n      iszero\n      tag_66\n      jumpi\n        /* \"#utility.yul\":282:361   */\n      tag_67\n      tag_68\n      jump\t// in\n    tag_67:\n        /* \"#utility.yul\":251:363   */\n    tag_66:\n        /* \"#utility.yul\":372:413   */\n      tag_69\n        /* \"#utility.yul\":406:412   */\n      dup5\n        /* \"#utility.yul\":401:404   */\n      dup3\n        /* \"#utility.yul\":396:399   */\n      dup6\n        /* \"#utility.yul\":372:413   */\n      tag_70\n      jump\t// in\n    tag_69:\n        /* \"#utility.yul\":91:419   */\n      pop\n        /* \"#utility.yul\":7:419   */\n      swap4\n      swap3\n      pop\n      pop\n      pop\n      jump\t// out\n        /* \"#utility.yul\":439:779   */\n    tag_71:\n        /* \"#utility.yul\":495:500   */\n      0x00\n        /* \"#utility.yul\":544:547   */\n      dup3\n        /* \"#utility.yul\":537:541   */\n      0x1f\n        /* \"#utility.yul\":529:535   */\n      dup4\n        /* \"#utility.yul\":525:542   */\n      add\n        /* \"#utility.yul\":521:548   */\n      slt\n        /* \"#utility.yul\":511:633   */\n      tag_73\n      jumpi\n        /* \"#utility.yul\":552:631   */\n      tag_74\n      tag_75\n      jump\t// in\n    tag_74:\n        /* \"#utility.yul\":511:633   */\n    tag_73:\n        /* \"#utility.yul\":669:675   */\n      dup2\n        /* \"#utility.yul\":656:676   */\n      calldataload\n        /* \"#utility.yul\":694:773   */\n      tag_76\n        /* \"#utility.yul\":769:772   */\n      dup5\n        /* \"#utility.yul\":761:767   */\n      dup3\n        /* \"#utility.yul\":754:758   */\n      0x20\n        /* \"#utility.yul\":746:752   */\n      dup7\n        /* \"#utility.yul\":742:759   */\n      add\n        /* \"#utility.yul\":694:773   */\n      tag_60\n      jump\t// in\n    tag_76:\n        /* \"#utility.yul\":685:773   */\n      swap2\n      pop\n        /* \"#utility.yul\":501:779   */\n      pop\n        /* \"#utility.yul\":439:779   */\n      swap3\n      swap2\n      pop\n      pop\n      jump\t// out\n        /* \"#utility.yul\":785:924   */\n    tag_77:\n        /* \"#utility.yul\":831:836   */\n      0x00\n        /* \"#utility.yul\":869:875   */\n      dup2\n        /* \"#utility.yul\":856:876   */\n      calldataload\n        /* \"#utility.yul\":847:876   */\n      swap1\n      pop\n        /* \"#utility.yul\":885:918   */\n      tag_79\n        /* \"#utility.yul\":912:917   */\n      dup2\n        /* \"#utility.yul\":885:918   */\n      tag_80\n      jump\t// in\n    tag_79:\n        /* \"#utility.yul\":785:924   */\n      swap3\n      swap2\n      pop\n      pop\n      jump\t// out\n        /* \"#utility.yul\":930:1584   */\n    tag_22:\n        /* \"#utility.yul\":1008:1014   */\n      0x00\n        /* \"#utility.yul\":1016:1022   */\n      dup1\n        /* \"#utility.yul\":1065:1067   */\n      0x40\n        /* \"#utility.yul\":1053:1062   */\n      dup4\n        /* \"#utility.yul\":1044:1051   */\n      dup6\n        /* \"#utility.yul\":1040:1063   */\n      sub\n        /* \"#utility.yul\":1036:1068   */\n      slt\n        /* \"#utility.yul\":1033:1152   */\n      iszero\n      tag_82\n      jumpi\n        /* \"#utility.yul\":1071:1150   */\n      tag_83\n      tag_84\n      jump\t// in\n    tag_83:\n        /* \"#utility.yul\":1033:1152   */\n    tag_82:\n        /* \"#utility.yul\":1219:1220   */\n      0x00\n        /* \"#utility.yul\":1208:1217   */\n      dup4\n        /* \"#utility.yul\":1204:1221   */\n      add\n        /* \"#utility.yul\":1191:1222   */\n      calldataload\n        /* \"#utility.yul\":1249:1267   */\n      0xffffffffffffffff\n        /* \"#utility.yul\":1241:1247   */\n      dup2\n        /* \"#utility.yul\":1238:1268   */\n      gt\n        /* \"#utility.yul\":1235:1352   */\n      iszero\n      tag_85\n      jumpi\n        /* \"#utility.yul\":1271:1350   */\n      tag_86\n      tag_87\n      jump\t// in\n    tag_86:\n        /* \"#utility.yul\":1235:1352   */\n    tag_85:\n        /* \"#utility.yul\":1376:1439   */\n      tag_88\n        /* \"#utility.yul\":1431:1438   */\n      dup6\n        /* \"#utility.yul\":1422:1428   */\n      dup3\n        /* \"#utility.yul\":1411:1420   */\n      dup7\n        /* \"#utility.yul\":1407:1429   */\n      add\n        /* \"#utility.yul\":1376:1439   */\n      tag_71\n      jump\t// in\n    tag_88:\n        /* \"#utility.yul\":1366:1439   */\n      swap3\n      pop\n        /* \"#utility.yul\":1162:1449   */\n      pop\n        /* \"#utility.yul\":1488:1490   */\n      0x20\n        /* \"#utility.yul\":1514:1567   */\n      tag_89\n        /* \"#utility.yul\":1559:1566   */\n      dup6\n        /* \"#utility.yul\":1550:1556   */\n      dup3\n        /* \"#utility.yul\":1539:1548   */\n      dup7\n        /* \"#utility.yul\":1535:1557   */\n      add\n        /* \"#utility.yul\":1514:1567   */\n      tag_77\n      jump\t// in\n    tag_89:\n        /* \"#utility.yul\":1504:1567   */\n      swap2\n      pop\n        /* \"#utility.yul\":1459:1577   */\n      pop\n        /* \"#utility.yul\":930:1584   */\n      swap3\n      pop\n      swap3\n      swap1\n      pop\n      jump\t// out\n        /* \"#utility.yul\":1590:1919   */\n    tag_9:\n        /* \"#utility.yul\":1649:1655   */\n      0x00\n        /* \"#utility.yul\":1698:1700   */\n      0x20\n        /* \"#utility.yul\":1686:1695   */\n      dup3\n        /* \"#utility.yul\":1677:1684   */\n      dup5\n        /* \"#utility.yul\":1673:1696   */\n      sub\n        /* \"#utility.yul\":1669:1701   */\n      slt\n        /* \"#utility.yul\":1666:1785   */\n      iszero\n      tag_91\n      jumpi\n        /* \"#utility.yul\":1704:1783   */\n      tag_92\n      tag_84\n      jump\t// in\n    tag_92:\n        /* \"#utility.yul\":1666:1785   */\n    tag_91:\n        /* \"#utility.yul\":1824:1825   */\n      0x00\n        /* \"#utility.yul\":1849:1902   */\n      tag_93\n        /* \"#utility.yul\":1894:1901   */\n      dup5\n        /* \"#utility.yul\":1885:1891   */\n      dup3\n        /* \"#utility.yul\":1874:1883   */\n      dup6\n        /* \"#utility.yul\":1870:1892   */\n      add\n        /* \"#utility.yul\":1849:1902   */\n      tag_77\n      jump\t// in\n    tag_93:\n        /* \"#utility.yul\":1839:1902   */\n      swap2\n      pop\n        /* \"#utility.yul\":1795:1912   */\n      pop\n        /* \"#utility.yul\":1590:1919   */\n      swap3\n      swap2\n      pop\n      pop\n      jump\t// out\n        /* \"#utility.yul\":1925:2579   */\n    tag_18:\n        /* \"#utility.yul\":2003:2009   */\n      0x00\n        /* \"#utility.yul\":2011:2017   */\n      dup1\n        /* \"#utility.yul\":2060:2062   */\n      0x40\n        /* \"#utility.yul\":2048:2057   */\n      dup4\n        /* \"#utility.yul\":2039:2046   */\n      dup6\n        /* \"#utility.yul\":2035:2058   */\n      sub\n        /* \"#utility.yul\":2031:2063   */\n      slt\n        /* \"#utility.yul\":2028:2147   */\n      iszero\n      tag_95\n      jumpi\n        /* \"#utility.yul\":2066:2145   */\n      tag_96\n      tag_84\n      jump\t// in\n    tag_96:\n        /* \"#utility.yul\":2028:2147   */\n    tag_95:\n        /* \"#utility.yul\":2186:2187   */\n      0x00\n        /* \"#utility.yul\":2211:2264   */\n      tag_97\n        /* \"#utility.yul\":2256:2263   */\n      dup6\n        /* \"#utility.yul\":2247:2253   */\n      dup3\n        /* \"#utility.yul\":2236:2245   */\n      dup7\n        /* \"#utility.yul\":2232:2254   */\n      add\n        /* \"#utility.yul\":2211:2264   */\n      tag_77\n      jump\t// in\n    tag_97:\n        /* \"#utility.yul\":2201:2264   */\n      swap3\n      pop\n        /* \"#utility.yul\":2157:2274   */\n      pop\n        /* \"#utility.yul\":2341:2343   */\n      0x20\n        /* \"#utility.yul\":2330:2339   */\n      dup4\n        /* \"#utility.yul\":2326:2344   */\n      add\n        /* \"#utility.yul\":2313:2345   */\n      calldataload\n        /* \"#utility.yul\":2372:2390   */\n      0xffffffffffffffff\n        /* \"#utility.yul\":2364:2370   */\n      dup2\n        /* \"#utility.yul\":2361:2391   */\n      gt\n        /* \"#utility.yul\":2358:2475   */\n      iszero\n      tag_98\n      jumpi\n        /* \"#utility.yul\":2394:2473   */\n      tag_99\n      tag_87\n      jump\t// in\n    tag_99:\n        /* \"#utility.yul\":2358:2475   */\n    tag_98:\n        /* \"#utility.yul\":2499:2562   */\n      tag_100\n        /* \"#utility.yul\":2554:2561   */\n      dup6\n        /* \"#utility.yul\":2545:2551   */\n      dup3\n        /* \"#utility.yul\":2534:2543   */\n      dup7\n        /* \"#utility.yul\":2530:2552   */\n      add\n        /* \"#utility.yul\":2499:2562   */\n      tag_71\n      jump\t// in\n    tag_100:\n        /* \"#utility.yul\":2489:2562   */\n      swap2\n      pop\n        /* \"#utility.yul\":2284:2572   */\n      pop\n        /* \"#utility.yul\":1925:2579   */\n      swap3\n      pop\n      swap3\n      swap1\n      pop\n      jump\t// out\n        /* \"#utility.yul\":2585:2694   */\n    tag_101:\n        /* \"#utility.yul\":2666:2687   */\n      tag_103\n        /* \"#utility.yul\":2681:2686   */\n      dup2\n        /* \"#utility.yul\":2666:2687   */\n      tag_104\n      jump\t// in\n    tag_103:\n        /* \"#utility.yul\":2661:2664   */\n      dup3\n        /* \"#utility.yul\":2654:2688   */\n      mstore\n        /* \"#utility.yul\":2585:2694   */\n      pop\n      pop\n      jump\t// out\n        /* \"#utility.yul\":2700:3064   */\n    tag_105:\n        /* \"#utility.yul\":2788:2791   */\n      0x00\n        /* \"#utility.yul\":2816:2855   */\n      tag_107\n        /* \"#utility.yul\":2849:2854   */\n      dup3\n        /* \"#utility.yul\":2816:2855   */\n      tag_108\n      jump\t// in\n    tag_107:\n        /* \"#utility.yul\":2871:2942   */\n      tag_109\n        /* \"#utility.yul\":2935:2941   */\n      dup2\n        /* \"#utility.yul\":2930:2933   */\n      dup6\n        /* \"#utility.yul\":2871:2942   */\n      tag_110\n      jump\t// in\n    tag_109:\n        /* \"#utility.yul\":2864:2942   */\n      swap4\n      pop\n        /* \"#utility.yul\":2951:3003   */\n      tag_111\n        /* \"#utility.yul\":2996:3002   */\n      dup2\n        /* \"#utility.yul\":2991:2994   */\n      dup6\n        /* \"#utility.yul\":2984:2988   */\n      0x20\n        /* \"#utility.yul\":2977:2982   */\n      dup7\n        /* \"#utility.yul\":2973:2989   */\n      add\n        /* \"#utility.yul\":2951:3003   */\n      tag_112\n      jump\t// in\n    tag_111:\n        /* \"#utility.yul\":3028:3057   */\n      tag_113\n        /* \"#utility.yul\":3050:3056   */\n      dup2\n        /* \"#utility.yul\":3028:3057   */\n      tag_114\n      jump\t// in\n    tag_113:\n        /* \"#utility.yul\":3023:3026   */\n      dup5\n        /* \"#utility.yul\":3019:3058   */\n      add\n        /* \"#utility.yul\":3012:3058   */\n      swap2\n      pop\n        /* \"#utility.yul\":2792:3064   */\n      pop\n        /* \"#utility.yul\":2700:3064   */\n      swap3\n      swap2\n      pop\n      pop\n      jump\t// out\n        /* \"#utility.yul\":3070:3481   */\n    tag_15:\n        /* \"#utility.yul\":3205:3209   */\n      0x00\n        /* \"#utility.yul\":3243:3245   */\n      0x40\n        /* \"#utility.yul\":3232:3241   */\n      dup3\n        /* \"#utility.yul\":3228:3246   */\n      add\n        /* \"#utility.yul\":3220:3246   */\n      swap1\n      pop\n        /* \"#utility.yul\":3292:3301   */\n      dup2\n        /* \"#utility.yul\":3286:3290   */\n      dup2\n        /* \"#utility.yul\":3282:3302   */\n      sub\n        /* \"#utility.yul\":3278:3279   */\n      0x00\n        /* \"#utility.yul\":3267:3276   */\n      dup4\n        /* \"#utility.yul\":3263:3280   */\n      add\n        /* \"#utility.yul\":3256:3303   */\n      mstore\n        /* \"#utility.yul\":3320:3398   */\n      tag_116\n        /* \"#utility.yul\":3393:3397   */\n      dup2\n        /* \"#utility.yul\":3384:3390   */\n      dup6\n        /* \"#utility.yul\":3320:3398   */\n      tag_105\n      jump\t// in\n    tag_116:\n        /* \"#utility.yul\":3312:3398   */\n      swap1\n      pop\n        /* \"#utility.yul\":3408:3474   */\n      tag_117\n        /* \"#utility.yul\":3470:3472   */\n      0x20\n        /* \"#utility.yul\":3459:3468   */\n      dup4\n        /* \"#utility.yul\":3455:3473   */\n      add\n        /* \"#utility.yul\":3446:3452   */\n      dup5\n        /* \"#utility.yul\":3408:3474   */\n      tag_101\n      jump\t// in\n    tag_117:\n        /* \"#utility.yul\":3070:3481   */\n      swap4\n      swap3\n      pop\n      pop\n      pop\n      jump\t// out\n        /* \"#utility.yul\":3487:3616   */\n    tag_65:\n        /* \"#utility.yul\":3521:3527   */\n      0x00\n        /* \"#utility.yul\":3548:3568   */\n      tag_119\n      tag_120\n      jump\t// in\n    tag_119:\n        /* \"#utility.yul\":3538:3568   */\n      swap1\n      pop\n        /* \"#utility.yul\":3577:3610   */\n      tag_121\n        /* \"#utility.yul\":3605:3609   */\n      dup3\n        /* \"#utility.yul\":3597:3603   */\n      dup3\n        /* \"#utility.yul\":3577:3610   */\n      tag_122\n      jump\t// in\n    tag_121:\n        /* \"#utility.yul\":3487:3616   */\n      swap2\n      swap1\n      pop\n      jump\t// out\n        /* \"#utility.yul\":3622:3697   */\n    tag_120:\n        /* \"#utility.yul\":3655:3661   */\n      0x00\n        /* \"#utility.yul\":3688:3690   */\n      0x40\n        /* \"#utility.yul\":3682:3691   */\n      mload\n        /* \"#utility.yul\":3672:3691   */\n      swap1\n      pop\n        /* \"#utility.yul\":3622:3697   */\n      swap1\n      jump\t// out\n        /* \"#utility.yul\":3703:4011   */\n    tag_64:\n        /* \"#utility.yul\":3765:3769   */\n      0x00\n        /* \"#utility.yul\":3855:3873   */\n      0xffffffffffffffff\n        /* \"#utility.yul\":3847:3853   */\n      dup3\n        /* \"#utility.yul\":3844:3874   */\n      gt\n        /* \"#utility.yul\":3841:3897   */\n      iszero\n      tag_125\n      jumpi\n        /* \"#utility.yul\":3877:3895   */\n      tag_126\n      tag_127\n      jump\t// in\n    tag_126:\n        /* \"#utility.yul\":3841:3897   */\n    tag_125:\n        /* \"#utility.yul\":3915:3944   */\n      tag_128\n        /* \"#utility.yul\":3937:3943   */\n      dup3\n        /* \"#utility.yul\":3915:3944   */\n      tag_114\n      jump\t// in\n    tag_128:\n        /* \"#utility.yul\":3907:3944   */\n      swap1\n      pop\n        /* \"#utility.yul\":3999:4003   */\n      0x20\n        /* \"#utility.yul\":3993:3997   */\n      dup2\n        /* \"#utility.yul\":3989:4004   */\n      add\n        /* \"#utility.yul\":3981:4004   */\n      swap1\n      pop\n        /* \"#utility.yul\":3703:4011   */\n      swap2\n      swap1\n      pop\n      jump\t// out\n        /* \"#utility.yul\":4017:4116   */\n    tag_108:\n        /* \"#utility.yul\":4069:4075   */\n      0x00\n        /* \"#utility.yul\":4103:4108   */\n      dup2\n        /* \"#utility.yul\":4097:4109   */\n      mload\n        /* \"#utility.yul\":4087:4109   */\n      swap1\n      pop\n        /* \"#utility.yul\":4017:4116   */\n      swap2\n      swap1\n      pop\n      jump\t// out\n        /* \"#utility.yul\":4122:4291   */\n    tag_110:\n        /* \"#utility.yul\":4206:4217   */\n      0x00\n        /* \"#utility.yul\":4240:4246   */\n      dup3\n        /* \"#utility.yul\":4235:4238   */\n      dup3\n        /* \"#utility.yul\":4228:4247   */\n      mstore\n        /* \"#utility.yul\":4280:4284   */\n      0x20\n        /* \"#utility.yul\":4275:4278   */\n      dup3\n        /* \"#utility.yul\":4271:4285   */\n      add\n        /* \"#utility.yul\":4256:4285   */\n      swap1\n      pop\n        /* \"#utility.yul\":4122:4291   */\n      swap3\n      swap2\n      pop\n      pop\n      jump\t// out\n        /* \"#utility.yul\":4297:4387   */\n    tag_104:\n        /* \"#utility.yul\":4331:4338   */\n      0x00\n        /* \"#utility.yul\":4374:4379   */\n      dup2\n        /* \"#utility.yul\":4367:4380   */\n      iszero\n        /* \"#utility.yul\":4360:4381   */\n      iszero\n        /* \"#utility.yul\":4349:4381   */\n      swap1\n      pop\n        /* \"#utility.yul\":4297:4387   */\n      swap2\n      swap1\n      pop\n      jump\t// out\n        /* \"#utility.yul\":4393:4470   */\n    tag_132:\n        /* \"#utility.yul\":4430:4437   */\n      0x00\n        /* \"#utility.yul\":4459:4464   */\n      dup2\n        /* \"#utility.yul\":4448:4464   */\n      swap1\n      pop\n        /* \"#utility.yul\":4393:4470   */\n      swap2\n      swap1\n      pop\n      jump\t// out\n        /* \"#utility.yul\":4476:4630   */\n    tag_70:\n        /* \"#utility.yul\":4560:4566   */\n      dup3\n        /* \"#utility.yul\":4555:4558   */\n      dup2\n        /* \"#utility.yul\":4550:4553   */\n      dup4\n        /* \"#utility.yul\":4537:4567   */\n      calldatacopy\n        /* \"#utility.yul\":4622:4623   */\n      0x00\n        /* \"#utility.yul\":4613:4619   */\n      dup4\n        /* \"#utility.yul\":4608:4611   */\n      dup4\n        /* \"#utility.yul\":4604:4620   */\n      add\n        /* \"#utility.yul\":4597:4624   */\n      mstore\n        /* \"#utility.yul\":4476:4630   */\n      pop\n      pop\n      pop\n      jump\t// out\n        /* \"#utility.yul\":4636:4943   */\n    tag_112:\n        /* \"#utility.yul\":4704:4705   */\n      0x00\n        /* \"#utility.yul\":4714:4827   */\n    tag_136:\n        /* \"#utility.yul\":4728:4734   */\n      dup4\n        /* \"#utility.yul\":4725:4726   */\n      dup2\n        /* \"#utility.yul\":4722:4735   */\n      lt\n        /* \"#utility.yul\":4714:4827   */\n      iszero\n      tag_138\n      jumpi\n        /* \"#utility.yul\":4813:4814   */\n      dup1\n        /* \"#utility.yul\":4808:4811   */\n      dup3\n        /* \"#utility.yul\":4804:4815   */\n      add\n        /* \"#utility.yul\":4798:4816   */\n      mload\n        /* \"#utility.yul\":4794:4795   */\n      dup2\n        /* \"#utility.yul\":4789:4792   */\n      dup5\n        /* \"#utility.yul\":4785:4796   */\n      add\n        /* \"#utility.yul\":4778:4817   */\n      mstore\n        /* \"#utility.yul\":4750:4752   */\n      0x20\n        /* \"#utility.yul\":4747:4748   */\n      dup2\n        /* \"#utility.yul\":4743:4753   */\n      add\n        /* \"#utility.yul\":4738:4753   */\n      swap1\n      pop\n        /* \"#utility.yul\":4714:4827   */\n      jump(tag_136)\n    tag_138:\n        /* \"#utility.yul\":4845:4851   */\n      dup4\n        /* \"#utility.yul\":4842:4843   */\n      dup2\n        /* \"#utility.yul\":4839:4852   */\n      gt\n        /* \"#utility.yul\":4836:4937   */\n      iszero\n      tag_139\n      jumpi\n        /* \"#utility.yul\":4925:4926   */\n      0x00\n        /* \"#utility.yul\":4916:4922   */\n      dup5\n        /* \"#utility.yul\":4911:4914   */\n      dup5\n        /* \"#utility.yul\":4907:4923   */\n      add\n        /* \"#utility.yul\":4900:4927   */\n      mstore\n        /* \"#utility.yul\":4836:4937   */\n    tag_139:\n        /* \"#utility.yul\":4685:4943   */\n      pop\n        /* \"#utility.yul\":4636:4943   */\n      pop\n      pop\n      pop\n      jump\t// out\n        /* \"#utility.yul\":4949:5269   */\n    tag_35:\n        /* \"#utility.yul\":4993:4999   */\n      0x00\n        /* \"#utility.yul\":5030:5031   */\n      0x02\n        /* \"#utility.yul\":5024:5028   */\n      dup3\n        /* \"#utility.yul\":5020:5032   */\n      div\n        /* \"#utility.yul\":5010:5032   */\n      swap1\n      pop\n        /* \"#utility.yul\":5077:5078   */\n      0x01\n        /* \"#utility.yul\":5071:5075   */\n      dup3\n        /* \"#utility.yul\":5067:5079   */\n      and\n        /* \"#utility.yul\":5098:5116   */\n      dup1\n        /* \"#utility.yul\":5088:5169   */\n      tag_141\n      jumpi\n        /* \"#utility.yul\":5154:5158   */\n      0x7f\n        /* \"#utility.yul\":5146:5152   */\n      dup3\n        /* \"#utility.yul\":5142:5159   */\n      and\n        /* \"#utility.yul\":5132:5159   */\n      swap2\n      pop\n        /* \"#utility.yul\":5088:5169   */\n    tag_141:\n        /* \"#utility.yul\":5216:5218   */\n      0x20\n        /* \"#utility.yul\":5208:5214   */\n      dup3\n        /* \"#utility.yul\":5205:5219   */\n      lt\n        /* \"#utility.yul\":5185:5203   */\n      dup2\n        /* \"#utility.yul\":5182:5220   */\n      eq\n        /* \"#utility.yul\":5179:5263   */\n      iszero\n      tag_142\n      jumpi\n        /* \"#utility.yul\":5235:5253   */\n      tag_143\n      tag_144\n      jump\t// in\n    tag_143:\n        /* \"#utility.yul\":5179:5263   */\n    tag_142:\n        /* \"#utility.yul\":5000:5269   */\n      pop\n        /* \"#utility.yul\":4949:5269   */\n      swap2\n      swap1\n      pop\n      jump\t// out\n        /* \"#utility.yul\":5275:5556   */\n    tag_122:\n        /* \"#utility.yul\":5358:5385   */\n      tag_146\n        /* \"#utility.yul\":5380:5384   */\n      dup3\n        /* \"#utility.yul\":5358:5385   */\n      tag_114\n      jump\t// in\n    tag_146:\n        /* \"#utility.yul\":5350:5356   */\n      dup2\n        /* \"#utility.yul\":5346:5386   */\n      add\n        /* \"#utility.yul\":5488:5494   */\n      dup2\n        /* \"#utility.yul\":5476:5486   */\n      dup2\n        /* \"#utility.yul\":5473:5495   */\n      lt\n        /* \"#utility.yul\":5452:5470   */\n      0xffffffffffffffff\n        /* \"#utility.yul\":5440:5450   */\n      dup3\n        /* \"#utility.yul\":5437:5471   */\n      gt\n        /* \"#utility.yul\":5434:5496   */\n      or\n        /* \"#utility.yul\":5431:5519   */\n      iszero\n      tag_147\n      jumpi\n        /* \"#utility.yul\":5499:5517   */\n      tag_148\n      tag_127\n      jump\t// in\n    tag_148:\n        /* \"#utility.yul\":5431:5519   */\n    tag_147:\n        /* \"#utility.yul\":5539:5549   */\n      dup1\n        /* \"#utility.yul\":5535:5537   */\n      0x40\n        /* \"#utility.yul\":5528:5550   */\n      mstore\n        /* \"#utility.yul\":5318:5556   */\n      pop\n        /* \"#utility.yul\":5275:5556   */\n      pop\n      pop\n      jump\t// out\n        /* \"#utility.yul\":5562:5742   */\n    tag_144:\n        /* \"#utility.yul\":5610:5687   */\n      0x4e487b7100000000000000000000000000000000000000000000000000000000\n        /* \"#utility.yul\":5607:5608   */\n      0x00\n        /* \"#utility.yul\":5600:5688   */\n      mstore\n        /* \"#utility.yul\":5707:5711   */\n      0x22\n        /* \"#utility.yul\":5704:5705   */\n      0x04\n        /* \"#utility.yul\":5697:5712   */\n      mstore\n        /* \"#utility.yul\":5731:5735   */\n      0x24\n        /* \"#utility.yul\":5728:5729   */\n      0x00\n        /* \"#utility.yul\":5721:5736   */\n      revert\n        /* \"#utility.yul\":5748:5928   */\n    tag_27:\n        /* \"#utility.yul\":5796:5873   */\n      0x4e487b7100000000000000000000000000000000000000000000000000000000\n        /* \"#utility.yul\":5793:5794   */\n      0x00\n        /* \"#utility.yul\":5786:5874   */\n      mstore\n        /* \"#utility.yul\":5893:5897   */\n      0x32\n        /* \"#utility.yul\":5890:5891   */\n      0x04\n        /* \"#utility.yul\":5883:5898   */\n      mstore\n        /* \"#utility.yul\":5917:5921   */\n      0x24\n        /* \"#utility.yul\":5914:5915   */\n      0x00\n        /* \"#utility.yul\":5907:5922   */\n      revert\n        /* \"#utility.yul\":5934:6114   */\n    tag_127:\n        /* \"#utility.yul\":5982:6059   */\n      0x4e487b7100000000000000000000000000000000000000000000000000000000\n        /* \"#utility.yul\":5979:5980   */\n      0x00\n        /* \"#utility.yul\":5972:6060   */\n      mstore\n        /* \"#utility.yul\":6079:6083   */\n      0x41\n        /* \"#utility.yul\":6076:6077   */\n      0x04\n        /* \"#utility.yul\":6069:6084   */\n      mstore\n        /* \"#utility.yul\":6103:6107   */\n      0x24\n        /* \"#utility.yul\":6100:6101   */\n      0x00\n        /* \"#utility.yul\":6093:6108   */\n      revert\n        /* \"#utility.yul\":6120:6237   */\n    tag_75:\n        /* \"#utility.yul\":6229:6230   */\n      0x00\n        /* \"#utility.yul\":6226:6227   */\n      dup1\n        /* \"#utility.yul\":6219:6231   */\n      revert\n        /* \"#utility.yul\":6243:6360   */\n    tag_68:\n        /* \"#utility.yul\":6352:6353   */\n      0x00\n        /* \"#utility.yul\":6349:6350   */\n      dup1\n        /* \"#utility.yul\":6342:6354   */\n      revert\n        /* \"#utility.yul\":6366:6483   */\n    tag_87:\n        /* \"#utility.yul\":6475:6476   */\n      0x00\n        /* \"#utility.yul\":6472:6473   */\n      dup1\n        /* \"#utility.yul\":6465:6477   */\n      revert\n        /* \"#utility.yul\":6489:6606   */\n    tag_84:\n        /* \"#utility.yul\":6598:6599   */\n      0x00\n        /* \"#utility.yul\":6595:6596   */\n      dup1\n        /* \"#utility.yul\":6588:6600   */\n      revert\n        /* \"#utility.yul\":6612:6714   */\n    tag_114:\n        /* \"#utility.yul\":6653:6659   */\n      0x00\n        /* \"#utility.yul\":6704:6706   */\n      0x1f\n        /* \"#utility.yul\":6700:6707   */\n      not\n        /* \"#utility.yul\":6695:6697   */\n      0x1f\n        /* \"#utility.yul\":6688:6693   */\n      dup4\n        /* \"#utility.yul\":6684:6698   */\n      add\n        /* \"#utility.yul\":6680:6708   */\n      and\n        /* \"#utility.yul\":6670:6708   */\n      swap1\n      pop\n        /* \"#utility.yul\":6612:6714   */\n      swap2\n      swap1\n      pop\n      jump\t// out\n        /* \"#utility.yul\":6720:6842   */\n    tag_80:\n        /* \"#utility.yul\":6793:6817   */\n      tag_158\n        /* \"#utility.yul\":6811:6816   */\n      dup2\n        /* \"#utility.yul\":6793:6817   */\n      tag_132\n      jump\t// in\n    tag_158:\n        /* \"#utility.yul\":6786:6791   */\n      dup2\n        /* \"#utility.yul\":6783:6818   */\n      eq\n        /* \"#utility.yul\":6773:6836   */\n      tag_159\n      jumpi\n        /* \"#utility.yul\":6832:6833   */\n      0x00\n        /* \"#utility.yul\":6829:6830   */\n      dup1\n        /* \"#utility.yul\":6822:6834   */\n      revert\n        /* \"#utility.yul\":6773:6836   */\n    tag_159:\n        /* \"#utility.yul\":6720:6842   */\n      pop\n      jump\t// out\n\n    auxdata: 0xa2646970667358221220684409043739813092a953a1fb5da5debddcce231820fabc3277aef0973c650464736f6c63430008070033\n}\n",
				"bytecode": {
					"linkReferences": {},
					"object": "608060405234801561001057600080fd5b50610787806100206000396000f3fe608060405234801561001057600080fd5b506004361061004c5760003560e01c8063455f502414610051578063bc8bc2b41461006d578063d534ee881461009e578063ece28c6c146100ba575b600080fd5b61006b6004803603810190610066919061045a565b6100d6565b005b6100876004803603810190610082919061045a565b610149565b60405161009592919061052b565b60405180910390f35b6100b860048036038101906100b39190610487565b610212565b005b6100d460048036038101906100cf91906103fe565b610250565b005b600081815481106100ea576100e96106b7565b5b906000526020600020906002020160010160009054906101000a900460ff16156000828154811061011e5761011d6106b7565b5b906000526020600020906002020160010160006101000a81548160ff02191690831515021790555050565b6000818154811061015957600080fd5b906000526020600020906002020160009150905080600001805461017c90610625565b80601f01602080910402602001604051908101604052809291908181526020018280546101a890610625565b80156101f55780601f106101ca576101008083540402835291602001916101f5565b820191906000526020600020905b8154815290600101906020018083116101d857829003601f168201915b5050505050908060010160009054906101000a900460ff16905082565b8060008381548110610227576102266106b7565b5b9060005260206000209060020201600001908051906020019061024b9291906102d6565b505050565b6000604051806040016040528084815260200160001515815250908060018154018082558091505060019003906000526020600020906002020160009091909190915060008201518160000190805190602001906102af9291906102d6565b5060208201518160010160006101000a81548160ff02191690831515021790555050505050565b8280546102e290610625565b90600052602060002090601f016020900481019282610304576000855561034b565b82601f1061031d57805160ff191683800117855561034b565b8280016001018555821561034b579182015b8281111561034a57825182559160200191906001019061032f565b5b509050610358919061035c565b5090565b5b8082111561037557600081600090555060010161035d565b5090565b600061038c61038784610580565b61055b565b9050828152602081018484840111156103a8576103a761071a565b5b6103b38482856105e3565b509392505050565b600082601f8301126103d0576103cf610715565b5b81356103e0848260208601610379565b91505092915050565b6000813590506103f88161073a565b92915050565b6000806040838503121561041557610414610724565b5b600083013567ffffffffffffffff8111156104335761043261071f565b5b61043f858286016103bb565b9250506020610450858286016103e9565b9150509250929050565b6000602082840312156104705761046f610724565b5b600061047e848285016103e9565b91505092915050565b6000806040838503121561049e5761049d610724565b5b60006104ac858286016103e9565b925050602083013567ffffffffffffffff8111156104cd576104cc61071f565b5b6104d9858286016103bb565b9150509250929050565b6104ec816105cd565b82525050565b60006104fd826105b1565b61050781856105bc565b93506105178185602086016105f2565b61052081610729565b840191505092915050565b6000604082019050818103600083015261054581856104f2565b905061055460208301846104e3565b9392505050565b6000610565610576565b90506105718282610657565b919050565b6000604051905090565b600067ffffffffffffffff82111561059b5761059a6106e6565b5b6105a482610729565b9050602081019050919050565b600081519050919050565b600082825260208201905092915050565b60008115159050919050565b6000819050919050565b82818337600083830152505050565b60005b838110156106105780820151818401526020810190506105f5565b8381111561061f576000848401525b50505050565b6000600282049050600182168061063d57607f821691505b6020821081141561065157610650610688565b5b50919050565b61066082610729565b810181811067ffffffffffffffff8211171561067f5761067e6106e6565b5b80604052505050565b7f4e487b7100000000000000000000000000000000000000000000000000000000600052602260045260246000fd5b7f4e487b7100000000000000000000000000000000000000000000000000000000600052603260045260246000fd5b7f4e487b7100000000000000000000000000000000000000000000000000000000600052604160045260246000fd5b600080fd5b600080fd5b600080fd5b600080fd5b6000601f19601f8301169050919050565b610743816105d9565b811461074e57600080fd5b5056fea2646970667358221220684409043739813092a953a1fb5da5debddcce231820fabc3277aef0973c650464736f6c63430008070033",
					"opcodes": "PUSH1 0x80 PUSH1 0x40 MSTORE CALLVALUE DUP1 ISZERO PUSH2 0x10 JUMPI PUSH1 0x0 DUP1 REVERT JUMPDEST POP PUSH2 0x787 DUP1 PUSH2 0x20 PUSH1 0x0 CODECOPY PUSH1 0x0 RETURN INVALID PUSH1 0x80 PUSH1 0x40 MSTORE CALLVALUE DUP1 ISZERO PUSH2 0x10 JUMPI PUSH1 0x0 DUP1 REVERT JUMPDEST POP PUSH1 0x4 CALLDATASIZE LT PUSH2 0x4C JUMPI PUSH1 0x0 CALLDATALOAD PUSH1 0xE0 SHR DUP1 PUSH4 0x455F5024 EQ PUSH2 0x51 JUMPI DUP1 PUSH4 0xBC8BC2B4 EQ PUSH2 0x6D JUMPI DUP1 PUSH4 0xD534EE88 EQ PUSH2 0x9E JUMPI DUP1 PUSH4 0xECE28C6C EQ PUSH2 0xBA JUMPI JUMPDEST PUSH1 0x0 DUP1 REVERT JUMPDEST PUSH2 0x6B PUSH1 0x4 DUP1 CALLDATASIZE SUB DUP2 ADD SWAP1 PUSH2 0x66 SWAP2 SWAP1 PUSH2 0x45A JUMP JUMPDEST PUSH2 0xD6 JUMP JUMPDEST STOP JUMPDEST PUSH2 0x87 PUSH1 0x4 DUP1 CALLDATASIZE SUB DUP2 ADD SWAP1 PUSH2 0x82 SWAP2 SWAP1 PUSH2 0x45A JUMP JUMPDEST PUSH2 0x149 JUMP JUMPDEST PUSH1 0x40 MLOAD PUSH2 0x95 SWAP3 SWAP2 SWAP1 PUSH2 0x52B JUMP JUMPDEST PUSH1 0x40 MLOAD DUP1 SWAP2 SUB SWAP1 RETURN JUMPDEST PUSH2 0xB8 PUSH1 0x4 DUP1 CALLDATASIZE SUB DUP2 ADD SWAP1 PUSH2 0xB3 SWAP2 SWAP1 PUSH2 0x487 JUMP JUMPDEST PUSH2 0x212 JUMP JUMPDEST STOP JUMPDEST PUSH2 0xD4 PUSH1 0x4 DUP1 CALLDATASIZE SUB DUP2 ADD SWAP1 PUSH2 0xCF SWAP2 SWAP1 PUSH2 0x3FE JUMP JUMPDEST PUSH2 0x250 JUMP JUMPDEST STOP JUMPDEST PUSH1 0x0 DUP2 DUP2 SLOAD DUP2 LT PUSH2 0xEA JUMPI PUSH2 0xE9 PUSH2 0x6B7 JUMP JUMPDEST JUMPDEST SWAP1 PUSH1 0x0 MSTORE PUSH1 0x20 PUSH1 0x0 KECCAK256 SWAP1 PUSH1 0x2 MUL ADD PUSH1 0x1 ADD PUSH1 0x0 SWAP1 SLOAD SWAP1 PUSH2 0x100 EXP SWAP1 DIV PUSH1 0xFF AND ISZERO PUSH1 0x0 DUP3 DUP2 SLOAD DUP2 LT PUSH2 0x11E JUMPI PUSH2 0x11D PUSH2 0x6B7 JUMP JUMPDEST JUMPDEST SWAP1 PUSH1 0x0 MSTORE PUSH1 0x20 PUSH1 0x0 KECCAK256 SWAP1 PUSH1 0x2 MUL ADD PUSH1 0x1 ADD PUSH1 0x0 PUSH2 0x100 EXP DUP2 SLOAD DUP2 PUSH1 0xFF MUL NOT AND SWAP1 DUP4 ISZERO ISZERO MUL OR SWAP1 SSTORE POP POP JUMP JUMPDEST PUSH1 0x0 DUP2 DUP2 SLOAD DUP2 LT PUSH2 0x159 JUMPI PUSH1 0x0 DUP1 REVERT JUMPDEST SWAP1 PUSH1 0x0 MSTORE PUSH1 0x20 PUSH1 0x0 KECCAK256 SWAP1 PUSH1 0x2 MUL ADD PUSH1 0x0 SWAP2 POP SWAP1 POP DUP1 PUSH1 0x0 ADD DUP1 SLOAD PUSH2 0x17C SWAP1 PUSH2 0x625 JUMP JUMPDEST DUP1 PUSH1 0x1F ADD PUSH1 0x20 DUP1 SWAP2 DIV MUL PUSH1 0x20 ADD PUSH1 0x40 MLOAD SWAP1 DUP2 ADD PUSH1 0x40 MSTORE DUP1 SWAP3 SWAP2 SWAP1 DUP2 DUP2 MSTORE PUSH1 0x20 ADD DUP3 DUP1 SLOAD PUSH2 0x1A8 SWAP1 PUSH2 0x625 JUMP JUMPDEST DUP1 ISZERO PUSH2 0x1F5 JUMPI DUP1 PUSH1 0x1F LT PUSH2 0x1CA JUMPI PUSH2 0x100 DUP1 DUP4 SLOAD DIV MUL DUP4 MSTORE SWAP2 PUSH1 0x20 ADD SWAP2 PUSH2 0x1F5 JUMP JUMPDEST DUP3 ADD SWAP2 SWAP1 PUSH1 0x0 MSTORE PUSH1 0x20 PUSH1 0x0 KECCAK256 SWAP1 JUMPDEST DUP2 SLOAD DUP2 MSTORE SWAP1 PUSH1 0x1 ADD SWAP1 PUSH1 0x20 ADD DUP1 DUP4 GT PUSH2 0x1D8 JUMPI DUP3 SWAP1 SUB PUSH1 0x1F AND DUP3 ADD SWAP2 JUMPDEST POP POP POP POP POP SWAP1 DUP1 PUSH1 0x1 ADD PUSH1 0x0 SWAP1 SLOAD SWAP1 PUSH2 0x100 EXP SWAP1 DIV PUSH1 0xFF AND SWAP1 POP DUP3 JUMP JUMPDEST DUP1 PUSH1 0x0 DUP4 DUP2 SLOAD DUP2 LT PUSH2 0x227 JUMPI PUSH2 0x226 PUSH2 0x6B7 JUMP JUMPDEST JUMPDEST SWAP1 PUSH1 0x0 MSTORE PUSH1 0x20 PUSH1 0x0 KECCAK256 SWAP1 PUSH1 0x2 MUL ADD PUSH1 0x0 ADD SWAP1 DUP1 MLOAD SWAP1 PUSH1 0x20 ADD SWAP1 PUSH2 0x24B SWAP3 SWAP2 SWAP1 PUSH2 0x2D6 JUMP JUMPDEST POP POP POP JUMP JUMPDEST PUSH1 0x0 PUSH1 0x40 MLOAD DUP1 PUSH1 0x40 ADD PUSH1 0x40 MSTORE DUP1 DUP5 DUP2 MSTORE PUSH1 0x20 ADD PUSH1 0x0 ISZERO ISZERO DUP2 MSTORE POP SWAP1 DUP1 PUSH1 0x1 DUP2 SLOAD ADD DUP1 DUP3 SSTORE DUP1 SWAP2 POP POP PUSH1 0x1 SWAP1 SUB SWAP1 PUSH1 0x0 MSTORE PUSH1 0x20 PUSH1 0x0 KECCAK256 SWAP1 PUSH1 0x2 MUL ADD PUSH1 0x0 SWAP1 SWAP2 SWAP1 SWAP2 SWAP1 SWAP2 POP PUSH1 0x0 DUP3 ADD MLOAD DUP2 PUSH1 0x0 ADD SWAP1 DUP1 MLOAD SWAP1 PUSH1 0x20 ADD SWAP1 PUSH2 0x2AF SWAP3 SWAP2 SWAP1 PUSH2 0x2D6 JUMP JUMPDEST POP PUSH1 0x20 DUP3 ADD MLOAD DUP2 PUSH1 0x1 ADD PUSH1 0x0 PUSH2 0x100 EXP DUP2 SLOAD DUP2 PUSH1 0xFF MUL NOT AND SWAP1 DUP4 ISZERO ISZERO MUL OR SWAP1 SSTORE POP POP POP POP POP JUMP JUMPDEST DUP3 DUP1 SLOAD PUSH2 0x2E2 SWAP1 PUSH2 0x625 JUMP JUMPDEST SWAP1 PUSH1 0x0 MSTORE PUSH1 0x20 PUSH1 0x0 KECCAK256 SWAP1 PUSH1 0x1F ADD PUSH1 0x20 SWAP1 DIV DUP2 ADD SWAP3 DUP3 PUSH2 0x304 JUMPI PUSH1 0x0 DUP6 SSTORE PUSH2 0x34B JUMP JUMPDEST DUP3 PUSH1 0x1F LT PUSH2 0x31D JUMPI DUP1 MLOAD PUSH1 0xFF NOT AND DUP4 DUP1 ADD OR DUP6 SSTORE PUSH2 0x34B JUMP JUMPDEST DUP3 DUP1 ADD PUSH1 0x1 ADD DUP6 SSTORE DUP3 ISZERO PUSH2 0x34B JUMPI SWAP2 DUP3 ADD JUMPDEST DUP3 DUP2 GT ISZERO PUSH2 0x34A JUMPI DUP3 MLOAD DUP3 SSTORE SWAP2 PUSH1 0x20 ADD SWAP2 SWAP1 PUSH1 0x1 ADD SWAP1 PUSH2 0x32F JUMP JUMPDEST JUMPDEST POP SWAP1 POP PUSH2 0x358 SWAP2 SWAP1 PUSH2 0x35C JUMP JUMPDEST POP SWAP1 JUMP JUMPDEST JUMPDEST DUP1 DUP3 GT ISZERO PUSH2 0x375 JUMPI PUSH1 0x0 DUP2 PUSH1 0x0 SWAP1 SSTORE POP PUSH1 0x1 ADD PUSH2 0x35D JUMP JUMPDEST POP SWAP1 JUMP JUMPDEST PUSH1 0x0 PUSH2 0x38C PUSH2 0x387 DUP5 PUSH2 0x580 JUMP JUMPDEST PUSH2 0x55B JUMP JUMPDEST SWAP1 POP DUP3 DUP2 MSTORE PUSH1 0x20 DUP2 ADD DUP5 DUP5 DUP5 ADD GT ISZERO PUSH2 0x3A8 JUMPI PUSH2 0x3A7 PUSH2 0x71A JUMP JUMPDEST JUMPDEST PUSH2 0x3B3 DUP5 DUP3 DUP6 PUSH2 0x5E3 JUMP JUMPDEST POP SWAP4 SWAP3 POP POP POP JUMP JUMPDEST PUSH1 0x0 DUP3 PUSH1 0x1F DUP4 ADD SLT PUSH2 0x3D0 JUMPI PUSH2 0x3CF PUSH2 0x715 JUMP JUMPDEST JUMPDEST DUP2 CALLDATALOAD PUSH2 0x3E0 DUP5 DUP3 PUSH1 0x20 DUP7 ADD PUSH2 0x379 JUMP JUMPDEST SWAP2 POP POP SWAP3 SWAP2 POP POP JUMP JUMPDEST PUSH1 0x0 DUP2 CALLDATALOAD SWAP1 POP PUSH2 0x3F8 DUP2 PUSH2 0x73A JUMP JUMPDEST SWAP3 SWAP2 POP POP JUMP JUMPDEST PUSH1 0x0 DUP1 PUSH1 0x40 DUP4 DUP6 SUB SLT ISZERO PUSH2 0x415 JUMPI PUSH2 0x414 PUSH2 0x724 JUMP JUMPDEST JUMPDEST PUSH1 0x0 DUP4 ADD CALLDATALOAD PUSH8 0xFFFFFFFFFFFFFFFF DUP2 GT ISZERO PUSH2 0x433 JUMPI PUSH2 0x432 PUSH2 0x71F JUMP JUMPDEST JUMPDEST PUSH2 0x43F DUP6 DUP3 DUP7 ADD PUSH2 0x3BB JUMP JUMPDEST SWAP3 POP POP PUSH1 0x20 PUSH2 0x450 DUP6 DUP3 DUP7 ADD PUSH2 0x3E9 JUMP JUMPDEST SWAP2 POP POP SWAP3 POP SWAP3 SWAP1 POP JUMP JUMPDEST PUSH1 0x0 PUSH1 0x20 DUP3 DUP5 SUB SLT ISZERO PUSH2 0x470 JUMPI PUSH2 0x46F PUSH2 0x724 JUMP JUMPDEST JUMPDEST PUSH1 0x0 PUSH2 0x47E DUP5 DUP3 DUP6 ADD PUSH2 0x3E9 JUMP JUMPDEST SWAP2 POP POP SWAP3 SWAP2 POP POP JUMP JUMPDEST PUSH1 0x0 DUP1 PUSH1 0x40 DUP4 DUP6 SUB SLT ISZERO PUSH2 0x49E JUMPI PUSH2 0x49D PUSH2 0x724 JUMP JUMPDEST JUMPDEST PUSH1 0x0 PUSH2 0x4AC DUP6 DUP3 DUP7 ADD PUSH2 0x3E9 JUMP JUMPDEST SWAP3 POP POP PUSH1 0x20 DUP4 ADD CALLDATALOAD PUSH8 0xFFFFFFFFFFFFFFFF DUP2 GT ISZERO PUSH2 0x4CD JUMPI PUSH2 0x4CC PUSH2 0x71F JUMP JUMPDEST JUMPDEST PUSH2 0x4D9 DUP6 DUP3 DUP7 ADD PUSH2 0x3BB JUMP JUMPDEST SWAP2 POP POP SWAP3 POP SWAP3 SWAP1 POP JUMP JUMPDEST PUSH2 0x4EC DUP2 PUSH2 0x5CD JUMP JUMPDEST DUP3 MSTORE POP POP JUMP JUMPDEST PUSH1 0x0 PUSH2 0x4FD DUP3 PUSH2 0x5B1 JUMP JUMPDEST PUSH2 0x507 DUP2 DUP6 PUSH2 0x5BC JUMP JUMPDEST SWAP4 POP PUSH2 0x517 DUP2 DUP6 PUSH1 0x20 DUP7 ADD PUSH2 0x5F2 JUMP JUMPDEST PUSH2 0x520 DUP2 PUSH2 0x729 JUMP JUMPDEST DUP5 ADD SWAP2 POP POP SWAP3 SWAP2 POP POP JUMP JUMPDEST PUSH1 0x0 PUSH1 0x40 DUP3 ADD SWAP1 POP DUP2 DUP2 SUB PUSH1 0x0 DUP4 ADD MSTORE PUSH2 0x545 DUP2 DUP6 PUSH2 0x4F2 JUMP JUMPDEST SWAP1 POP PUSH2 0x554 PUSH1 0x20 DUP4 ADD DUP5 PUSH2 0x4E3 JUMP JUMPDEST SWAP4 SWAP3 POP POP POP JUMP JUMPDEST PUSH1 0x0 PUSH2 0x565 PUSH2 0x576 JUMP JUMPDEST SWAP1 POP PUSH2 0x571 DUP3 DUP3 PUSH2 0x657 JUMP JUMPDEST SWAP2 SWAP1 POP JUMP JUMPDEST PUSH1 0x0 PUSH1 0x40 MLOAD SWAP1 POP SWAP1 JUMP JUMPDEST PUSH1 0x0 PUSH8 0xFFFFFFFFFFFFFFFF DUP3 GT ISZERO PUSH2 0x59B JUMPI PUSH2 0x59A PUSH2 0x6E6 JUMP JUMPDEST JUMPDEST PUSH2 0x5A4 DUP3 PUSH2 0x729 JUMP JUMPDEST SWAP1 POP PUSH1 0x20 DUP2 ADD SWAP1 POP SWAP2 SWAP1 POP JUMP JUMPDEST PUSH1 0x0 DUP2 MLOAD SWAP1 POP SWAP2 SWAP1 POP JUMP JUMPDEST PUSH1 0x0 DUP3 DUP3 MSTORE PUSH1 0x20 DUP3 ADD SWAP1 POP SWAP3 SWAP2 POP POP JUMP JUMPDEST PUSH1 0x0 DUP2 ISZERO ISZERO SWAP1 POP SWAP2 SWAP1 POP JUMP JUMPDEST PUSH1 0x0 DUP2 SWAP1 POP SWAP2 SWAP1 POP JUMP JUMPDEST DUP3 DUP2 DUP4 CALLDATACOPY PUSH1 0x0 DUP4 DUP4 ADD MSTORE POP POP POP JUMP JUMPDEST PUSH1 0x0 JUMPDEST DUP4 DUP2 LT ISZERO PUSH2 0x610 JUMPI DUP1 DUP3 ADD MLOAD DUP2 DUP5 ADD MSTORE PUSH1 0x20 DUP2 ADD SWAP1 POP PUSH2 0x5F5 JUMP JUMPDEST DUP4 DUP2 GT ISZERO PUSH2 0x61F JUMPI PUSH1 0x0 DUP5 DUP5 ADD MSTORE JUMPDEST POP POP POP POP JUMP JUMPDEST PUSH1 0x0 PUSH1 0x2 DUP3 DIV SWAP1 POP PUSH1 0x1 DUP3 AND DUP1 PUSH2 0x63D JUMPI PUSH1 0x7F DUP3 AND SWAP2 POP JUMPDEST PUSH1 0x20 DUP3 LT DUP2 EQ ISZERO PUSH2 0x651 JUMPI PUSH2 0x650 PUSH2 0x688 JUMP JUMPDEST JUMPDEST POP SWAP2 SWAP1 POP JUMP JUMPDEST PUSH2 0x660 DUP3 PUSH2 0x729 JUMP JUMPDEST DUP2 ADD DUP2 DUP2 LT PUSH8 0xFFFFFFFFFFFFFFFF DUP3 GT OR ISZERO PUSH2 0x67F JUMPI PUSH2 0x67E PUSH2 0x6E6 JUMP JUMPDEST JUMPDEST DUP1 PUSH1 0x40 MSTORE POP POP POP JUMP JUMPDEST PUSH32 0x4E487B7100000000000000000000000000000000000000000000000000000000 PUSH1 0x0 MSTORE PUSH1 0x22 PUSH1 0x4 MSTORE PUSH1 0x24 PUSH1 0x0 REVERT JUMPDEST PUSH32 0x4E487B7100000000000000000000000000000000000000000000000000000000 PUSH1 0x0 MSTORE PUSH1 0x32 PUSH1 0x4 MSTORE PUSH1 0x24 PUSH1 0x0 REVERT JUMPDEST PUSH32 0x4E487B7100000000000000000000000000000000000000000000000000000000 PUSH1 0x0 MSTORE PUSH1 0x41 PUSH1 0x4 MSTORE PUSH1 0x24 PUSH1 0x0 REVERT JUMPDEST PUSH1 0x0 DUP1 REVERT JUMPDEST PUSH1 0x0 DUP1 REVERT JUMPDEST PUSH1 0x0 DUP1 REVERT JUMPDEST PUSH1 0x0 DUP1 REVERT JUMPDEST PUSH1 0x0 PUSH1 0x1F NOT PUSH1 0x1F DUP4 ADD AND SWAP1 POP SWAP2 SWAP1 POP JUMP JUMPDEST PUSH2 0x743 DUP2 PUSH2 0x5D9 JUMP JUMPDEST DUP2 EQ PUSH2 0x74E JUMPI PUSH1 0x0 DUP1 REVERT JUMPDEST POP JUMP INVALID LOG2 PUSH5 0x6970667358 0x22 SLT KECCAK256 PUSH9 0x4409043739813092A9 MSTORE8 LOG1 0xFB 0x5D 0xA5 0xDE 0xBD 0xDC 0xCE 0x23 XOR KECCAK256 STATICCALL 0xBC ORIGIN PUSH24 0xAEF0973C650464736F6C6343000807003300000000000000 "
				},
				"gasEstimates": {
					"creation": {
						"codeDepositCost": "385400",
						"executionCost": "424",
						"totalCost": "385824"
					},
					"external": {
						"createTodo(string,uint256)": "infinite",
						"todos(uint256)": "infinite",
						"toggleCompleted(uint256)": "31184",
						"updateTodo(uint256,string)": "infinite"
					}
				},
				"methodIdentifiers": {
					"createTodo(string,uint256)": "ece28c6c",
					"todos(uint256)": "bc8bc2b4",
					"toggleCompleted(uint256)": "455f5024",
					"updateTodo(uint256,string)": "d534ee88"
				}
			},
			"storageLayout": {
				"storage": [
					{
						"astId": 10,
						"contract": "Structs.sol:Struct",
						"label": "todos",
						"offset": 0,
						"slot": "0",
						"type": "t_array(t_struct(TodoItem)6_storage)dyn_storage"
					}
				],
				"types": {
					"t_array(t_struct(TodoItem)6_storage)dyn_storage": {
						"base": "t_struct(TodoItem)6_storage",
						"encoding": "dynamic_array",
						"label": "struct Struct.TodoItem[]",
						"numberOfBytes": "32"
					},
					"t_bool": {
						"encoding": "inplace",
						"label": "bool",
						"numberOfBytes": "1"
					},
					"t_string_storage": {
						"encoding": "bytes",
						"label": "string",
						"numberOfBytes": "32"
					},
					"t_struct(TodoItem)6_storage": {
						"encoding": "inplace",
						"label": "struct Struct.TodoItem",
						"members": [
							{
								"astId": 3,
								"contract": "Structs.sol:Struct",
								"label": "name",
								"offset": 0,
								"slot": "0",
								"type": "t_string_storage"
							},
							{
								"astId": 5,
								"contract": "Structs.sol:Struct",
								"label": "completed",
								"offset": 0,
								"slot": "1",
								"type": "t_bool"
							}
						],
						"numberOfBytes": "64"
					}
				}
			},
			"userdoc": {
				"kind": "user",
				"methods": {},
				"version": 1
			}
		}
	}
}