{
	"Mapping.sol": {
		"Mappings": {
			"abi": [
				{
					"inputs": [],
					"name": "checkBids",
					"outputs": [],
					"stateMutability": "payable",
					"type": "function"
				}
			],
			"devdoc": {
				"kind": "dev",
				"methods": {},
				"version": 1
			},
			"evm": {
				"assembly": "    /* \"Mapping.sol\":74:226  contract Mappings{\r... */\n  mstore(0x40, 0x80)\n  callvalue\n  dup1\n  iszero\n  tag_1\n  jumpi\n  0x00\n  dup1\n  revert\ntag_1:\n  pop\n  dataSize(sub_0)\n  dup1\n  dataOffset(sub_0)\n  0x00\n  codecopy\n  0x00\n  return\nstop\n\nsub_0: assembly {\n        /* \"Mapping.sol\":74:226  contract Mappings{\r... */\n      mstore(0x40, 0x80)\n      jumpi(tag_1, lt(calldatasize, 0x04))\n      shr(0xe0, calldataload(0x00))\n      dup1\n      0x75b700e1\n      eq\n      tag_2\n      jumpi\n    tag_1:\n      0x00\n      dup1\n      revert\n        /* \"Mapping.sol\":137:223  function checkBids() payable public {\r... */\n    tag_2:\n      tag_3\n      tag_4\n      jump\t// in\n    tag_3:\n      stop\n    tag_4:\n        /* \"Mapping.sol\":203:212  msg.value */\n      callvalue\n        /* \"Mapping.sol\":184:188  bids */\n      0x00\n        /* \"Mapping.sol\":184:200  bids[msg.sender] */\n      dup1\n        /* \"Mapping.sol\":189:199  msg.sender */\n      caller\n        /* \"Mapping.sol\":184:200  bids[msg.sender] */\n      0xffffffffffffffffffffffffffffffffffffffff\n      and\n      0xffffffffffffffffffffffffffffffffffffffff\n      and\n      dup2\n      mstore\n      0x20\n      add\n      swap1\n      dup2\n      mstore\n      0x20\n      add\n      0x00\n      keccak256\n        /* \"Mapping.sol\":184:212  bids[msg.sender] = msg.value */\n      dup2\n      swap1\n      sstore\n      pop\n        /* \"Mapping.sol\":137:223  function checkBids() payable public {\r... */\n      jump\t// out\n\n    auxdata: 0xa26469706673582212203a55ba9db6c76fc53987c12bacc7e7f3a8ec3984915f13c4a2d496e816124dec64736f6c63430008070033\n}\n",
				"bytecode": {
					"linkReferences": {},
					"object": "6080604052348015600f57600080fd5b5060a48061001e6000396000f3fe608060405260043610601c5760003560e01c806375b700e1146021575b600080fd5b60276029565b005b346000803373ffffffffffffffffffffffffffffffffffffffff1673ffffffffffffffffffffffffffffffffffffffff1681526020019081526020016000208190555056fea26469706673582212203a55ba9db6c76fc53987c12bacc7e7f3a8ec3984915f13c4a2d496e816124dec64736f6c63430008070033",
					"opcodes": "PUSH1 0x80 PUSH1 0x40 MSTORE CALLVALUE DUP1 ISZERO PUSH1 0xF JUMPI PUSH1 0x0 DUP1 REVERT JUMPDEST POP PUSH1 0xA4 DUP1 PUSH2 0x1E PUSH1 0x0 CODECOPY PUSH1 0x0 RETURN INVALID PUSH1 0x80 PUSH1 0x40 MSTORE PUSH1 0x4 CALLDATASIZE LT PUSH1 0x1C JUMPI PUSH1 0x0 CALLDATALOAD PUSH1 0xE0 SHR DUP1 PUSH4 0x75B700E1 EQ PUSH1 0x21 JUMPI JUMPDEST PUSH1 0x0 DUP1 REVERT JUMPDEST PUSH1 0x27 PUSH1 0x29 JUMP JUMPDEST STOP JUMPDEST CALLVALUE PUSH1 0x0 DUP1 CALLER PUSH20 0xFFFFFFFFFFFFFFFFFFFFFFFFFFFFFFFFFFFFFFFF AND PUSH20 0xFFFFFFFFFFFFFFFFFFFFFFFFFFFFFFFFFFFFFFFF AND DUP2 MSTORE PUSH1 0x20 ADD SWAP1 DUP2 MSTORE PUSH1 0x20 ADD PUSH1 0x0 KECCAK256 DUP2 SWAP1 SSTORE POP JUMP INVALID LOG2 PUSH5 0x6970667358 0x22 SLT KECCAK256 GASPRICE SSTORE 0xBA SWAP14 0xB6 0xC7 PUSH16 0xC53987C12BACC7E7F3A8EC3984915F13 0xC4 LOG2 0xD4 SWAP7 0xE8 AND SLT 0x4D 0xEC PUSH5 0x736F6C6343 STOP ADDMOD SMOD STOP CALLER "
				},
				"gasEstimates": {
					"creation": {
						"codeDepositCost": "32800",
						"executionCost": "87",
						"totalCost": "32887"
					},
					"external": {
						"checkBids()": "22300"
					}
				},
				"methodIdentifiers": {
					"checkBids()": "75b700e1"
				}
			},
			"storageLayout": {
				"storage": [
					{
						"astId": 5,
						"contract": "Mapping.sol:Mappings",
						"label": "bids",
						"offset": 0,
						"slot": "0",
						"type": "t_mapping(t_address,t_uint256)"
					}
				],
				"types": {
					"t_address": {
						"encoding": "inplace",
						"label": "address",
						"numberOfBytes": "20"
					},
					"t_mapping(t_address,t_uint256)": {
						"encoding": "mapping",
						"key": "t_address",
						"label": "mapping(address => uint256)",
						"numberOfBytes": "32",
						"value": "t_uint256"
					},
					"t_uint256": {
						"encoding": "inplace",
						"label": "uint256",
						"numberOfBytes": "32"
					}
				}
			},
			"userdoc": {
				"kind": "user",
				"methods": {},
				"version": 1
			}
		}
	}
}