{
	"Enums.sol": {
		"Enum": {
			"abi": [
				{
					"inputs": [
						{
							"internalType": "uint256",
							"name": "_state",
							"type": "uint256"
						}
					],
					"name": "setState",
					"outputs": [],
					"stateMutability": "nonpayable",
					"type": "function"
				},
				{
					"inputs": [],
					"name": "state",
					"outputs": [
						{
							"internalType": "enum Enum.States",
							"name": "",
							"type": "uint8"
						}
					],
					"stateMutability": "view",
					"type": "function"
				}
			],
			"devdoc": {
				"kind": "dev",
				"methods": {},
				"version": 1
			},
			"evm": {
				"assembly": "    /* \"Enums.sol\":74:362  contract Enum{\r... */\n  mstore(0x40, 0x80)\n  callvalue\n  dup1\n  iszero\n  tag_1\n  jumpi\n  0x00\n  dup1\n  revert\ntag_1:\n  pop\n  dataSize(sub_0)\n  dup1\n  dataOffset(sub_0)\n  0x00\n  codecopy\n  0x00\n  return\nstop\n\nsub_0: assembly {\n        /* \"Enums.sol\":74:362  contract Enum{\r... */\n      mstore(0x40, 0x80)\n      callvalue\n      dup1\n      iszero\n      tag_1\n      jumpi\n      0x00\n      dup1\n      revert\n    tag_1:\n      pop\n      jumpi(tag_2, lt(calldatasize, 0x04))\n      shr(0xe0, calldataload(0x00))\n      dup1\n      0xa9e966b7\n      eq\n      tag_3\n      jumpi\n      dup1\n      0xc19d93fb\n      eq\n      tag_4\n      jumpi\n    tag_2:\n      0x00\n      dup1\n      revert\n        /* \"Enums.sol\":303:359  function setState(uint _state) public {\r... */\n    tag_3:\n      tag_5\n      0x04\n      dup1\n      calldatasize\n      sub\n      dup2\n      add\n      swap1\n      tag_6\n      swap2\n      swap1\n      tag_7\n      jump\t// in\n    tag_6:\n      tag_8\n      jump\t// in\n    tag_5:\n      stop\n        /* \"Enums.sol\":275:294  States public state */\n    tag_4:\n      tag_9\n      tag_10\n      jump\t// in\n    tag_9:\n      mload(0x40)\n      tag_11\n      swap2\n      swap1\n      tag_12\n      jump\t// in\n    tag_11:\n      mload(0x40)\n      dup1\n      swap2\n      sub\n      swap1\n      return\n        /* \"Enums.sol\":303:359  function setState(uint _state) public {\r... */\n    tag_8:\n      pop\n      jump\t// out\n        /* \"Enums.sol\":275:294  States public state */\n    tag_10:\n      0x00\n      dup1\n      sload\n      swap1\n      0x0100\n      exp\n      swap1\n      div\n      0xff\n      and\n      dup2\n      jump\t// out\n        /* \"#utility.yul\":7:146   */\n    tag_15:\n        /* \"#utility.yul\":53:58   */\n      0x00\n        /* \"#utility.yul\":91:97   */\n      dup2\n        /* \"#utility.yul\":78:98   */\n      calldataload\n        /* \"#utility.yul\":69:98   */\n      swap1\n      pop\n        /* \"#utility.yul\":107:140   */\n      tag_17\n        /* \"#utility.yul\":134:139   */\n      dup2\n        /* \"#utility.yul\":107:140   */\n      tag_18\n      jump\t// in\n    tag_17:\n        /* \"#utility.yul\":7:146   */\n      swap3\n      swap2\n      pop\n      pop\n      jump\t// out\n        /* \"#utility.yul\":152:481   */\n    tag_7:\n        /* \"#utility.yul\":211:217   */\n      0x00\n        /* \"#utility.yul\":260:262   */\n      0x20\n        /* \"#utility.yul\":248:257   */\n      dup3\n        /* \"#utility.yul\":239:246   */\n      dup5\n        /* \"#utility.yul\":235:258   */\n      sub\n        /* \"#utility.yul\":231:263   */\n      slt\n        /* \"#utility.yul\":228:347   */\n      iszero\n      tag_20\n      jumpi\n        /* \"#utility.yul\":266:345   */\n      tag_21\n      tag_22\n      jump\t// in\n    tag_21:\n        /* \"#utility.yul\":228:347   */\n    tag_20:\n        /* \"#utility.yul\":386:387   */\n      0x00\n        /* \"#utility.yul\":411:464   */\n      tag_23\n        /* \"#utility.yul\":456:463   */\n      dup5\n        /* \"#utility.yul\":447:453   */\n      dup3\n        /* \"#utility.yul\":436:445   */\n      dup6\n        /* \"#utility.yul\":432:454   */\n      add\n        /* \"#utility.yul\":411:464   */\n      tag_15\n      jump\t// in\n    tag_23:\n        /* \"#utility.yul\":401:464   */\n      swap2\n      pop\n        /* \"#utility.yul\":357:474   */\n      pop\n        /* \"#utility.yul\":152:481   */\n      swap3\n      swap2\n      pop\n      pop\n      jump\t// out\n        /* \"#utility.yul\":487:630   */\n    tag_24:\n        /* \"#utility.yul\":580:623   */\n      tag_26\n        /* \"#utility.yul\":617:622   */\n      dup2\n        /* \"#utility.yul\":580:623   */\n      tag_27\n      jump\t// in\n    tag_26:\n        /* \"#utility.yul\":575:578   */\n      dup3\n        /* \"#utility.yul\":568:624   */\n      mstore\n        /* \"#utility.yul\":487:630   */\n      pop\n      pop\n      jump\t// out\n        /* \"#utility.yul\":636:870   */\n    tag_12:\n        /* \"#utility.yul\":735:739   */\n      0x00\n        /* \"#utility.yul\":773:775   */\n      0x20\n        /* \"#utility.yul\":762:771   */\n      dup3\n        /* \"#utility.yul\":758:776   */\n      add\n        /* \"#utility.yul\":750:776   */\n      swap1\n      pop\n        /* \"#utility.yul\":786:863   */\n      tag_29\n        /* \"#utility.yul\":860:861   */\n      0x00\n        /* \"#utility.yul\":849:858   */\n      dup4\n        /* \"#utility.yul\":845:862   */\n      add\n        /* \"#utility.yul\":836:842   */\n      dup5\n        /* \"#utility.yul\":786:863   */\n      tag_24\n      jump\t// in\n    tag_29:\n        /* \"#utility.yul\":636:870   */\n      swap3\n      swap2\n      pop\n      pop\n      jump\t// out\n        /* \"#utility.yul\":957:1084   */\n    tag_32:\n        /* \"#utility.yul\":1002:1009   */\n      0x00\n        /* \"#utility.yul\":1031:1036   */\n      dup2\n        /* \"#utility.yul\":1020:1036   */\n      swap1\n      pop\n        /* \"#utility.yul\":1037:1078   */\n      tag_34\n        /* \"#utility.yul\":1072:1077   */\n      dup3\n        /* \"#utility.yul\":1037:1078   */\n      tag_35\n      jump\t// in\n    tag_34:\n        /* \"#utility.yul\":957:1084   */\n      swap2\n      swap1\n      pop\n      jump\t// out\n        /* \"#utility.yul\":1090:1167   */\n    tag_36:\n        /* \"#utility.yul\":1127:1134   */\n      0x00\n        /* \"#utility.yul\":1156:1161   */\n      dup2\n        /* \"#utility.yul\":1145:1161   */\n      swap1\n      pop\n        /* \"#utility.yul\":1090:1167   */\n      swap2\n      swap1\n      pop\n      jump\t// out\n        /* \"#utility.yul\":1173:1300   */\n    tag_27:\n        /* \"#utility.yul\":1229:1238   */\n      0x00\n        /* \"#utility.yul\":1262:1294   */\n      tag_39\n        /* \"#utility.yul\":1288:1293   */\n      dup3\n        /* \"#utility.yul\":1262:1294   */\n      tag_32\n      jump\t// in\n    tag_39:\n        /* \"#utility.yul\":1249:1294   */\n      swap1\n      pop\n        /* \"#utility.yul\":1173:1300   */\n      swap2\n      swap1\n      pop\n      jump\t// out\n        /* \"#utility.yul\":1306:1486   */\n    tag_40:\n        /* \"#utility.yul\":1354:1431   */\n      0x4e487b7100000000000000000000000000000000000000000000000000000000\n        /* \"#utility.yul\":1351:1352   */\n      0x00\n        /* \"#utility.yul\":1344:1432   */\n      mstore\n        /* \"#utility.yul\":1451:1455   */\n      0x21\n        /* \"#utility.yul\":1448:1449   */\n      0x04\n        /* \"#utility.yul\":1441:1456   */\n      mstore\n        /* \"#utility.yul\":1475:1479   */\n      0x24\n        /* \"#utility.yul\":1472:1473   */\n      0x00\n        /* \"#utility.yul\":1465:1480   */\n      revert\n        /* \"#utility.yul\":1615:1732   */\n    tag_22:\n        /* \"#utility.yul\":1724:1725   */\n      0x00\n        /* \"#utility.yul\":1721:1722   */\n      dup1\n        /* \"#utility.yul\":1714:1726   */\n      revert\n        /* \"#utility.yul\":1738:1851   */\n    tag_35:\n        /* \"#utility.yul\":1819:1820   */\n      0x03\n        /* \"#utility.yul\":1812:1817   */\n      dup2\n        /* \"#utility.yul\":1809:1821   */\n      lt\n        /* \"#utility.yul\":1799:1845   */\n      tag_46\n      jumpi\n        /* \"#utility.yul\":1825:1843   */\n      tag_47\n      tag_40\n      jump\t// in\n    tag_47:\n        /* \"#utility.yul\":1799:1845   */\n    tag_46:\n        /* \"#utility.yul\":1738:1851   */\n      pop\n      jump\t// out\n        /* \"#utility.yul\":1857:1979   */\n    tag_18:\n        /* \"#utility.yul\":1930:1954   */\n      tag_49\n        /* \"#utility.yul\":1948:1953   */\n      dup2\n        /* \"#utility.yul\":1930:1954   */\n      tag_36\n      jump\t// in\n    tag_49:\n        /* \"#utility.yul\":1923:1928   */\n      dup2\n        /* \"#utility.yul\":1920:1955   */\n      eq\n        /* \"#utility.yul\":1910:1973   */\n      tag_50\n      jumpi\n        /* \"#utility.yul\":1969:1970   */\n      0x00\n        /* \"#utility.yul\":1966:1967   */\n      dup1\n        /* \"#utility.yul\":1959:1971   */\n      revert\n        /* \"#utility.yul\":1910:1973   */\n    tag_50:\n        /* \"#utility.yul\":1857:1979   */\n      pop\n      jump\t// out\n\n    auxdata: 0xa2646970667358221220b3402e72113b732ce4a11711e8f4648388bddca2fba3ca80be741d92a1742c2f64736f6c63430008070033\n}\n",
				"bytecode": {
					"linkReferences": {},
					"object": "608060405234801561001057600080fd5b506101b9806100206000396000f3fe608060405234801561001057600080fd5b50600436106100365760003560e01c8063a9e966b71461003b578063c19d93fb14610057575b600080fd5b6100556004803603810190610050919061009e565b610075565b005b61005f610078565b60405161006c91906100da565b60405180910390f35b50565b60008054906101000a900460ff1681565b6000813590506100988161016c565b92915050565b6000602082840312156100b4576100b3610153565b5b60006100c284828501610089565b91505092915050565b6100d481610112565b82525050565b60006020820190506100ef60008301846100cb565b92915050565b600081905061010382610158565b919050565b6000819050919050565b600061011d826100f5565b9050919050565b7f4e487b7100000000000000000000000000000000000000000000000000000000600052602160045260246000fd5b600080fd5b6003811061016957610168610124565b5b50565b61017581610108565b811461018057600080fd5b5056fea2646970667358221220b3402e72113b732ce4a11711e8f4648388bddca2fba3ca80be741d92a1742c2f64736f6c63430008070033",
					"opcodes": "PUSH1 0x80 PUSH1 0x40 MSTORE CALLVALUE DUP1 ISZERO PUSH2 0x10 JUMPI PUSH1 0x0 DUP1 REVERT JUMPDEST POP PUSH2 0x1B9 DUP1 PUSH2 0x20 PUSH1 0x0 CODECOPY PUSH1 0x0 RETURN INVALID PUSH1 0x80 PUSH1 0x40 MSTORE CALLVALUE DUP1 ISZERO PUSH2 0x10 JUMPI PUSH1 0x0 DUP1 REVERT JUMPDEST POP PUSH1 0x4 CALLDATASIZE LT PUSH2 0x36 JUMPI PUSH1 0x0 CALLDATALOAD PUSH1 0xE0 SHR DUP1 PUSH4 0xA9E966B7 EQ PUSH2 0x3B JUMPI DUP1 PUSH4 0xC19D93FB EQ PUSH2 0x57 JUMPI JUMPDEST PUSH1 0x0 DUP1 REVERT JUMPDEST PUSH2 0x55 PUSH1 0x4 DUP1 CALLDATASIZE SUB DUP2 ADD SWAP1 PUSH2 0x50 SWAP2 SWAP1 PUSH2 0x9E JUMP JUMPDEST PUSH2 0x75 JUMP JUMPDEST STOP JUMPDEST PUSH2 0x5F PUSH2 0x78 JUMP JUMPDEST PUSH1 0x40 MLOAD PUSH2 0x6C SWAP2 SWAP1 PUSH2 0xDA JUMP JUMPDEST PUSH1 0x40 MLOAD DUP1 SWAP2 SUB SWAP1 RETURN JUMPDEST POP JUMP JUMPDEST PUSH1 0x0 DUP1 SLOAD SWAP1 PUSH2 0x100 EXP SWAP1 DIV PUSH1 0xFF AND DUP2 JUMP JUMPDEST PUSH1 0x0 DUP2 CALLDATALOAD SWAP1 POP PUSH2 0x98 DUP2 PUSH2 0x16C JUMP JUMPDEST SWAP3 SWAP2 POP POP JUMP JUMPDEST PUSH1 0x0 PUSH1 0x20 DUP3 DUP5 SUB SLT ISZERO PUSH2 0xB4 JUMPI PUSH2 0xB3 PUSH2 0x153 JUMP JUMPDEST JUMPDEST PUSH1 0x0 PUSH2 0xC2 DUP5 DUP3 DUP6 ADD PUSH2 0x89 JUMP JUMPDEST SWAP2 POP POP SWAP3 SWAP2 POP POP JUMP JUMPDEST PUSH2 0xD4 DUP2 PUSH2 0x112 JUMP JUMPDEST DUP3 MSTORE POP POP JUMP JUMPDEST PUSH1 0x0 PUSH1 0x20 DUP3 ADD SWAP1 POP PUSH2 0xEF PUSH1 0x0 DUP4 ADD DUP5 PUSH2 0xCB JUMP JUMPDEST SWAP3 SWAP2 POP POP JUMP JUMPDEST PUSH1 0x0 DUP2 SWAP1 POP PUSH2 0x103 DUP3 PUSH2 0x158 JUMP JUMPDEST SWAP2 SWAP1 POP JUMP JUMPDEST PUSH1 0x0 DUP2 SWAP1 POP SWAP2 SWAP1 POP JUMP JUMPDEST PUSH1 0x0 PUSH2 0x11D DUP3 PUSH2 0xF5 JUMP JUMPDEST SWAP1 POP SWAP2 SWAP1 POP JUMP JUMPDEST PUSH32 0x4E487B7100000000000000000000000000000000000000000000000000000000 PUSH1 0x0 MSTORE PUSH1 0x21 PUSH1 0x4 MSTORE PUSH1 0x24 PUSH1 0x0 REVERT JUMPDEST PUSH1 0x0 DUP1 REVERT JUMPDEST PUSH1 0x3 DUP2 LT PUSH2 0x169 JUMPI PUSH2 0x168 PUSH2 0x124 JUMP JUMPDEST JUMPDEST POP JUMP JUMPDEST PUSH2 0x175 DUP2 PUSH2 0x108 JUMP JUMPDEST DUP2 EQ PUSH2 0x180 JUMPI PUSH1 0x0 DUP1 REVERT JUMPDEST POP JUMP INVALID LOG2 PUSH5 0x6970667358 0x22 SLT KECCAK256 0xB3 BLOCKHASH 0x2E PUSH19 0x113B732CE4A11711E8F4648388BDDCA2FBA3CA DUP1 0xBE PUSH21 0x1D92A1742C2F64736F6C6343000807003300000000 "
				},
				"gasEstimates": {
					"creation": {
						"codeDepositCost": "88200",
						"executionCost": "135",
						"totalCost": "88335"
					},
					"external": {
						"setState(uint256)": "384",
						"state()": "2557"
					}
				},
				"methodIdentifiers": {
					"setState(uint256)": "a9e966b7",
					"state()": "c19d93fb"
				}
			},
			"storageLayout": {
				"storage": [
					{
						"astId": 8,
						"contract": "Enums.sol:Enum",
						"label": "state",
						"offset": 0,
						"slot": "0",
						"type": "t_enum(States)5"
					}
				],
				"types": {
					"t_enum(States)5": {
						"encoding": "inplace",
						"label": "enum Enum.States",
						"numberOfBytes": "1"
					}
				}
			},
			"userdoc": {
				"kind": "user",
				"methods": {},
				"version": 1
			}
		}
	}
}