{
	"Mappings.sol": {
		"Mapping": {
			"abi": [
				{
					"inputs": [
						{
							"internalType": "address",
							"name": "",
							"type": "address"
						},
						{
							"internalType": "uint256",
							"name": "",
							"type": "uint256"
						}
					],
					"name": "nestedMap",
					"outputs": [
						{
							"internalType": "bool",
							"name": "",
							"type": "bool"
						}
					],
					"stateMutability": "view",
					"type": "function"
				},
				{
					"inputs": [
						{
							"internalType": "address",
							"name": "_addr",
							"type": "address"
						},
						{
							"internalType": "uint256",
							"name": "_i",
							"type": "uint256"
						},
						{
							"internalType": "bool",
							"name": "",
							"type": "bool"
						}
					],
					"name": "setMap",
					"outputs": [],
					"stateMutability": "nonpayable",
					"type": "function"
				}
			],
			"devdoc": {
				"kind": "dev",
				"methods": {},
				"version": 1
			},
			"evm": {
				"assembly": "    /* \"Mappings.sol\":74:464  contract Mapping{\r... */\n  mstore(0x40, 0x80)\n  callvalue\n  dup1\n  iszero\n  tag_1\n  jumpi\n  0x00\n  dup1\n  revert\ntag_1:\n  pop\n  dataSize(sub_0)\n  dup1\n  dataOffset(sub_0)\n  0x00\n  codecopy\n  0x00\n  return\nstop\n\nsub_0: assembly {\n        /* \"Mappings.sol\":74:464  contract Mapping{\r... */\n      mstore(0x40, 0x80)\n      callvalue\n      dup1\n      iszero\n      tag_1\n      jumpi\n      0x00\n      dup1\n      revert\n    tag_1:\n      pop\n      jumpi(tag_2, lt(calldatasize, 0x04))\n      shr(0xe0, calldataload(0x00))\n      dup1\n      0x1481d24f\n      eq\n      tag_3\n      jumpi\n      dup1\n      0xced9d61f\n      eq\n      tag_4\n      jumpi\n    tag_2:\n      0x00\n      dup1\n      revert\n        /* \"Mappings.sol\":297:355  mapping(address => mapping(uint => bool)) public nestedMap */\n    tag_3:\n      tag_5\n      0x04\n      dup1\n      calldatasize\n      sub\n      dup2\n      add\n      swap1\n      tag_6\n      swap2\n      swap1\n      tag_7\n      jump\t// in\n    tag_6:\n      tag_8\n      jump\t// in\n    tag_5:\n      mload(0x40)\n      tag_9\n      swap2\n      swap1\n      tag_10\n      jump\t// in\n    tag_9:\n      mload(0x40)\n      dup1\n      swap2\n      sub\n      swap1\n      return\n        /* \"Mappings.sol\":372:459  function setMap(address _addr, uint _i, bool ) public{\r... */\n    tag_4:\n      tag_11\n      0x04\n      dup1\n      calldatasize\n      sub\n      dup2\n      add\n      swap1\n      tag_12\n      swap2\n      swap1\n      tag_13\n      jump\t// in\n    tag_12:\n      tag_14\n      jump\t// in\n    tag_11:\n      stop\n        /* \"Mappings.sol\":297:355  mapping(address => mapping(uint => bool)) public nestedMap */\n    tag_8:\n      mstore(0x20, 0x00)\n      dup2\n      0x00\n      mstore\n      mstore(0x20, keccak256(0x00, 0x40))\n      dup1\n      0x00\n      mstore\n      keccak256(0x00, 0x40)\n      0x00\n      swap2\n      pop\n      swap2\n      pop\n      swap1\n      sload\n      swap1\n      0x0100\n      exp\n      swap1\n      div\n      0xff\n      and\n      dup2\n      jump\t// out\n        /* \"Mappings.sol\":372:459  function setMap(address _addr, uint _i, bool ) public{\r... */\n    tag_14:\n      pop\n      pop\n      pop\n      jump\t// out\n        /* \"#utility.yul\":7:146   */\n    tag_17:\n        /* \"#utility.yul\":53:58   */\n      0x00\n        /* \"#utility.yul\":91:97   */\n      dup2\n        /* \"#utility.yul\":78:98   */\n      calldataload\n        /* \"#utility.yul\":69:98   */\n      swap1\n      pop\n        /* \"#utility.yul\":107:140   */\n      tag_19\n        /* \"#utility.yul\":134:139   */\n      dup2\n        /* \"#utility.yul\":107:140   */\n      tag_20\n      jump\t// in\n    tag_19:\n        /* \"#utility.yul\":7:146   */\n      swap3\n      swap2\n      pop\n      pop\n      jump\t// out\n        /* \"#utility.yul\":152:285   */\n    tag_21:\n        /* \"#utility.yul\":195:200   */\n      0x00\n        /* \"#utility.yul\":233:239   */\n      dup2\n        /* \"#utility.yul\":220:240   */\n      calldataload\n        /* \"#utility.yul\":211:240   */\n      swap1\n      pop\n        /* \"#utility.yul\":249:279   */\n      tag_23\n        /* \"#utility.yul\":273:278   */\n      dup2\n        /* \"#utility.yul\":249:279   */\n      tag_24\n      jump\t// in\n    tag_23:\n        /* \"#utility.yul\":152:285   */\n      swap3\n      swap2\n      pop\n      pop\n      jump\t// out\n        /* \"#utility.yul\":291:430   */\n    tag_25:\n        /* \"#utility.yul\":337:342   */\n      0x00\n        /* \"#utility.yul\":375:381   */\n      dup2\n        /* \"#utility.yul\":362:382   */\n      calldataload\n        /* \"#utility.yul\":353:382   */\n      swap1\n      pop\n        /* \"#utility.yul\":391:424   */\n      tag_27\n        /* \"#utility.yul\":418:423   */\n      dup2\n        /* \"#utility.yul\":391:424   */\n      tag_28\n      jump\t// in\n    tag_27:\n        /* \"#utility.yul\":291:430   */\n      swap3\n      swap2\n      pop\n      pop\n      jump\t// out\n        /* \"#utility.yul\":436:910   */\n    tag_7:\n        /* \"#utility.yul\":504:510   */\n      0x00\n        /* \"#utility.yul\":512:518   */\n      dup1\n        /* \"#utility.yul\":561:563   */\n      0x40\n        /* \"#utility.yul\":549:558   */\n      dup4\n        /* \"#utility.yul\":540:547   */\n      dup6\n        /* \"#utility.yul\":536:559   */\n      sub\n        /* \"#utility.yul\":532:564   */\n      slt\n        /* \"#utility.yul\":529:648   */\n      iszero\n      tag_30\n      jumpi\n        /* \"#utility.yul\":567:646   */\n      tag_31\n      tag_32\n      jump\t// in\n    tag_31:\n        /* \"#utility.yul\":529:648   */\n    tag_30:\n        /* \"#utility.yul\":687:688   */\n      0x00\n        /* \"#utility.yul\":712:765   */\n      tag_33\n        /* \"#utility.yul\":757:764   */\n      dup6\n        /* \"#utility.yul\":748:754   */\n      dup3\n        /* \"#utility.yul\":737:746   */\n      dup7\n        /* \"#utility.yul\":733:755   */\n      add\n        /* \"#utility.yul\":712:765   */\n      tag_17\n      jump\t// in\n    tag_33:\n        /* \"#utility.yul\":702:765   */\n      swap3\n      pop\n        /* \"#utility.yul\":658:775   */\n      pop\n        /* \"#utility.yul\":814:816   */\n      0x20\n        /* \"#utility.yul\":840:893   */\n      tag_34\n        /* \"#utility.yul\":885:892   */\n      dup6\n        /* \"#utility.yul\":876:882   */\n      dup3\n        /* \"#utility.yul\":865:874   */\n      dup7\n        /* \"#utility.yul\":861:883   */\n      add\n        /* \"#utility.yul\":840:893   */\n      tag_25\n      jump\t// in\n    tag_34:\n        /* \"#utility.yul\":830:893   */\n      swap2\n      pop\n        /* \"#utility.yul\":785:903   */\n      pop\n        /* \"#utility.yul\":436:910   */\n      swap3\n      pop\n      swap3\n      swap1\n      pop\n      jump\t// out\n        /* \"#utility.yul\":916:1529   */\n    tag_13:\n        /* \"#utility.yul\":990:996   */\n      0x00\n        /* \"#utility.yul\":998:1004   */\n      dup1\n        /* \"#utility.yul\":1006:1012   */\n      0x00\n        /* \"#utility.yul\":1055:1057   */\n      0x60\n        /* \"#utility.yul\":1043:1052   */\n      dup5\n        /* \"#utility.yul\":1034:1041   */\n      dup7\n        /* \"#utility.yul\":1030:1053   */\n      sub\n        /* \"#utility.yul\":1026:1058   */\n      slt\n        /* \"#utility.yul\":1023:1142   */\n      iszero\n      tag_36\n      jumpi\n        /* \"#utility.yul\":1061:1140   */\n      tag_37\n      tag_32\n      jump\t// in\n    tag_37:\n        /* \"#utility.yul\":1023:1142   */\n    tag_36:\n        /* \"#utility.yul\":1181:1182   */\n      0x00\n        /* \"#utility.yul\":1206:1259   */\n      tag_38\n        /* \"#utility.yul\":1251:1258   */\n      dup7\n        /* \"#utility.yul\":1242:1248   */\n      dup3\n        /* \"#utility.yul\":1231:1240   */\n      dup8\n        /* \"#utility.yul\":1227:1249   */\n      add\n        /* \"#utility.yul\":1206:1259   */\n      tag_17\n      jump\t// in\n    tag_38:\n        /* \"#utility.yul\":1196:1259   */\n      swap4\n      pop\n        /* \"#utility.yul\":1152:1269   */\n      pop\n        /* \"#utility.yul\":1308:1310   */\n      0x20\n        /* \"#utility.yul\":1334:1387   */\n      tag_39\n        /* \"#utility.yul\":1379:1386   */\n      dup7\n        /* \"#utility.yul\":1370:1376   */\n      dup3\n        /* \"#utility.yul\":1359:1368   */\n      dup8\n        /* \"#utility.yul\":1355:1377   */\n      add\n        /* \"#utility.yul\":1334:1387   */\n      tag_25\n      jump\t// in\n    tag_39:\n        /* \"#utility.yul\":1324:1387   */\n      swap3\n      pop\n        /* \"#utility.yul\":1279:1397   */\n      pop\n        /* \"#utility.yul\":1436:1438   */\n      0x40\n        /* \"#utility.yul\":1462:1512   */\n      tag_40\n        /* \"#utility.yul\":1504:1511   */\n      dup7\n        /* \"#utility.yul\":1495:1501   */\n      dup3\n        /* \"#utility.yul\":1484:1493   */\n      dup8\n        /* \"#utility.yul\":1480:1502   */\n      add\n        /* \"#utility.yul\":1462:1512   */\n      tag_21\n      jump\t// in\n    tag_40:\n        /* \"#utility.yul\":1452:1512   */\n      swap2\n      pop\n        /* \"#utility.yul\":1407:1522   */\n      pop\n        /* \"#utility.yul\":916:1529   */\n      swap3\n      pop\n      swap3\n      pop\n      swap3\n      jump\t// out\n        /* \"#utility.yul\":1535:1644   */\n    tag_41:\n        /* \"#utility.yul\":1616:1637   */\n      tag_43\n        /* \"#utility.yul\":1631:1636   */\n      dup2\n        /* \"#utility.yul\":1616:1637   */\n      tag_44\n      jump\t// in\n    tag_43:\n        /* \"#utility.yul\":1611:1614   */\n      dup3\n        /* \"#utility.yul\":1604:1638   */\n      mstore\n        /* \"#utility.yul\":1535:1644   */\n      pop\n      pop\n      jump\t// out\n        /* \"#utility.yul\":1650:1860   */\n    tag_10:\n        /* \"#utility.yul\":1737:1741   */\n      0x00\n        /* \"#utility.yul\":1775:1777   */\n      0x20\n        /* \"#utility.yul\":1764:1773   */\n      dup3\n        /* \"#utility.yul\":1760:1778   */\n      add\n        /* \"#utility.yul\":1752:1778   */\n      swap1\n      pop\n        /* \"#utility.yul\":1788:1853   */\n      tag_46\n        /* \"#utility.yul\":1850:1851   */\n      0x00\n        /* \"#utility.yul\":1839:1848   */\n      dup4\n        /* \"#utility.yul\":1835:1852   */\n      add\n        /* \"#utility.yul\":1826:1832   */\n      dup5\n        /* \"#utility.yul\":1788:1853   */\n      tag_41\n      jump\t// in\n    tag_46:\n        /* \"#utility.yul\":1650:1860   */\n      swap3\n      swap2\n      pop\n      pop\n      jump\t// out\n        /* \"#utility.yul\":1947:2043   */\n    tag_49:\n        /* \"#utility.yul\":1984:1991   */\n      0x00\n        /* \"#utility.yul\":2013:2037   */\n      tag_51\n        /* \"#utility.yul\":2031:2036   */\n      dup3\n        /* \"#utility.yul\":2013:2037   */\n      tag_52\n      jump\t// in\n    tag_51:\n        /* \"#utility.yul\":2002:2037   */\n      swap1\n      pop\n        /* \"#utility.yul\":1947:2043   */\n      swap2\n      swap1\n      pop\n      jump\t// out\n        /* \"#utility.yul\":2049:2139   */\n    tag_44:\n        /* \"#utility.yul\":2083:2090   */\n      0x00\n        /* \"#utility.yul\":2126:2131   */\n      dup2\n        /* \"#utility.yul\":2119:2132   */\n      iszero\n        /* \"#utility.yul\":2112:2133   */\n      iszero\n        /* \"#utility.yul\":2101:2133   */\n      swap1\n      pop\n        /* \"#utility.yul\":2049:2139   */\n      swap2\n      swap1\n      pop\n      jump\t// out\n        /* \"#utility.yul\":2145:2271   */\n    tag_52:\n        /* \"#utility.yul\":2182:2189   */\n      0x00\n        /* \"#utility.yul\":2222:2264   */\n      0xffffffffffffffffffffffffffffffffffffffff\n        /* \"#utility.yul\":2215:2220   */\n      dup3\n        /* \"#utility.yul\":2211:2265   */\n      and\n        /* \"#utility.yul\":2200:2265   */\n      swap1\n      pop\n        /* \"#utility.yul\":2145:2271   */\n      swap2\n      swap1\n      pop\n      jump\t// out\n        /* \"#utility.yul\":2277:2354   */\n    tag_55:\n        /* \"#utility.yul\":2314:2321   */\n      0x00\n        /* \"#utility.yul\":2343:2348   */\n      dup2\n        /* \"#utility.yul\":2332:2348   */\n      swap1\n      pop\n        /* \"#utility.yul\":2277:2354   */\n      swap2\n      swap1\n      pop\n      jump\t// out\n        /* \"#utility.yul\":2483:2600   */\n    tag_32:\n        /* \"#utility.yul\":2592:2593   */\n      0x00\n        /* \"#utility.yul\":2589:2590   */\n      dup1\n        /* \"#utility.yul\":2582:2594   */\n      revert\n        /* \"#utility.yul\":2606:2728   */\n    tag_20:\n        /* \"#utility.yul\":2679:2703   */\n      tag_61\n        /* \"#utility.yul\":2697:2702   */\n      dup2\n        /* \"#utility.yul\":2679:2703   */\n      tag_49\n      jump\t// in\n    tag_61:\n        /* \"#utility.yul\":2672:2677   */\n      dup2\n        /* \"#utility.yul\":2669:2704   */\n      eq\n        /* \"#utility.yul\":2659:2722   */\n      tag_62\n      jumpi\n        /* \"#utility.yul\":2718:2719   */\n      0x00\n        /* \"#utility.yul\":2715:2716   */\n      dup1\n        /* \"#utility.yul\":2708:2720   */\n      revert\n        /* \"#utility.yul\":2659:2722   */\n    tag_62:\n        /* \"#utility.yul\":2606:2728   */\n      pop\n      jump\t// out\n        /* \"#utility.yul\":2734:2850   */\n    tag_24:\n        /* \"#utility.yul\":2804:2825   */\n      tag_64\n        /* \"#utility.yul\":2819:2824   */\n      dup2\n        /* \"#utility.yul\":2804:2825   */\n      tag_44\n      jump\t// in\n    tag_64:\n        /* \"#utility.yul\":2797:2802   */\n      dup2\n        /* \"#utility.yul\":2794:2826   */\n      eq\n        /* \"#utility.yul\":2784:2844   */\n      tag_65\n      jumpi\n        /* \"#utility.yul\":2840:2841   */\n      0x00\n        /* \"#utility.yul\":2837:2838   */\n      dup1\n        /* \"#utility.yul\":2830:2842   */\n      revert\n        /* \"#utility.yul\":2784:2844   */\n    tag_65:\n        /* \"#utility.yul\":2734:2850   */\n      pop\n      jump\t// out\n        /* \"#utility.yul\":2856:2978   */\n    tag_28:\n        /* \"#utility.yul\":2929:2953   */\n      tag_67\n        /* \"#utility.yul\":2947:2952   */\n      dup2\n        /* \"#utility.yul\":2929:2953   */\n      tag_55\n      jump\t// in\n    tag_67:\n        /* \"#utility.yul\":2922:2927   */\n      dup2\n        /* \"#utility.yul\":2919:2954   */\n      eq\n        /* \"#utility.yul\":2909:2972   */\n      tag_68\n      jumpi\n        /* \"#utility.yul\":2968:2969   */\n      0x00\n        /* \"#utility.yul\":2965:2966   */\n      dup1\n        /* \"#utility.yul\":2958:2970   */\n      revert\n        /* \"#utility.yul\":2909:2972   */\n    tag_68:\n        /* \"#utility.yul\":2856:2978   */\n      pop\n      jump\t// out\n\n    auxdata: 0xa264697066735822122047b2c549f5d3c8d2815c5b7cfaf9c6b1d4e2d26eef95493d8539440d4caadf9f64736f6c63430008070033\n}\n",
				"bytecode": {
					"linkReferences": {},
					"object": "608060405234801561001057600080fd5b5061027f806100206000396000f3fe608060405234801561001057600080fd5b50600436106100365760003560e01c80631481d24f1461003b578063ced9d61f1461006b575b600080fd5b610055600480360381019061005091906100fa565b610087565b604051610062919061019c565b60405180910390f35b6100856004803603810190610080919061013a565b6100b6565b005b60006020528160005260406000206020528060005260406000206000915091509054906101000a900460ff1681565b505050565b6000813590506100ca81610204565b92915050565b6000813590506100df8161021b565b92915050565b6000813590506100f481610232565b92915050565b60008060408385031215610111576101106101ff565b5b600061011f858286016100bb565b9250506020610130858286016100e5565b9150509250929050565b600080600060608486031215610153576101526101ff565b5b6000610161868287016100bb565b9350506020610172868287016100e5565b9250506040610183868287016100d0565b9150509250925092565b610196816101c9565b82525050565b60006020820190506101b1600083018461018d565b92915050565b60006101c2826101d5565b9050919050565b60008115159050919050565b600073ffffffffffffffffffffffffffffffffffffffff82169050919050565b6000819050919050565b600080fd5b61020d816101b7565b811461021857600080fd5b50565b610224816101c9565b811461022f57600080fd5b50565b61023b816101f5565b811461024657600080fd5b5056fea264697066735822122047b2c549f5d3c8d2815c5b7cfaf9c6b1d4e2d26eef95493d8539440d4caadf9f64736f6c63430008070033",
					"opcodes": "PUSH1 0x80 PUSH1 0x40 MSTORE CALLVALUE DUP1 ISZERO PUSH2 0x10 JUMPI PUSH1 0x0 DUP1 REVERT JUMPDEST POP PUSH2 0x27F DUP1 PUSH2 0x20 PUSH1 0x0 CODECOPY PUSH1 0x0 RETURN INVALID PUSH1 0x80 PUSH1 0x40 MSTORE CALLVALUE DUP1 ISZERO PUSH2 0x10 JUMPI PUSH1 0x0 DUP1 REVERT JUMPDEST POP PUSH1 0x4 CALLDATASIZE LT PUSH2 0x36 JUMPI PUSH1 0x0 CALLDATALOAD PUSH1 0xE0 SHR DUP1 PUSH4 0x1481D24F EQ PUSH2 0x3B JUMPI DUP1 PUSH4 0xCED9D61F EQ PUSH2 0x6B JUMPI JUMPDEST PUSH1 0x0 DUP1 REVERT JUMPDEST PUSH2 0x55 PUSH1 0x4 DUP1 CALLDATASIZE SUB DUP2 ADD SWAP1 PUSH2 0x50 SWAP2 SWAP1 PUSH2 0xFA JUMP JUMPDEST PUSH2 0x87 JUMP JUMPDEST PUSH1 0x40 MLOAD PUSH2 0x62 SWAP2 SWAP1 PUSH2 0x19C JUMP JUMPDEST PUSH1 0x40 MLOAD DUP1 SWAP2 SUB SWAP1 RETURN JUMPDEST PUSH2 0x85 PUSH1 0x4 DUP1 CALLDATASIZE SUB DUP2 ADD SWAP1 PUSH2 0x80 SWAP2 SWAP1 PUSH2 0x13A JUMP JUMPDEST PUSH2 0xB6 JUMP JUMPDEST STOP JUMPDEST PUSH1 0x0 PUSH1 0x20 MSTORE DUP2 PUSH1 0x0 MSTORE PUSH1 0x40 PUSH1 0x0 KECCAK256 PUSH1 0x20 MSTORE DUP1 PUSH1 0x0 MSTORE PUSH1 0x40 PUSH1 0x0 KECCAK256 PUSH1 0x0 SWAP2 POP SWAP2 POP SWAP1 SLOAD SWAP1 PUSH2 0x100 EXP SWAP1 DIV PUSH1 0xFF AND DUP2 JUMP JUMPDEST POP POP POP JUMP JUMPDEST PUSH1 0x0 DUP2 CALLDATALOAD SWAP1 POP PUSH2 0xCA DUP2 PUSH2 0x204 JUMP JUMPDEST SWAP3 SWAP2 POP POP JUMP JUMPDEST PUSH1 0x0 DUP2 CALLDATALOAD SWAP1 POP PUSH2 0xDF DUP2 PUSH2 0x21B JUMP JUMPDEST SWAP3 SWAP2 POP POP JUMP JUMPDEST PUSH1 0x0 DUP2 CALLDATALOAD SWAP1 POP PUSH2 0xF4 DUP2 PUSH2 0x232 JUMP JUMPDEST SWAP3 SWAP2 POP POP JUMP JUMPDEST PUSH1 0x0 DUP1 PUSH1 0x40 DUP4 DUP6 SUB SLT ISZERO PUSH2 0x111 JUMPI PUSH2 0x110 PUSH2 0x1FF JUMP JUMPDEST JUMPDEST PUSH1 0x0 PUSH2 0x11F DUP6 DUP3 DUP7 ADD PUSH2 0xBB JUMP JUMPDEST SWAP3 POP POP PUSH1 0x20 PUSH2 0x130 DUP6 DUP3 DUP7 ADD PUSH2 0xE5 JUMP JUMPDEST SWAP2 POP POP SWAP3 POP SWAP3 SWAP1 POP JUMP JUMPDEST PUSH1 0x0 DUP1 PUSH1 0x0 PUSH1 0x60 DUP5 DUP7 SUB SLT ISZERO PUSH2 0x153 JUMPI PUSH2 0x152 PUSH2 0x1FF JUMP JUMPDEST JUMPDEST PUSH1 0x0 PUSH2 0x161 DUP7 DUP3 DUP8 ADD PUSH2 0xBB JUMP JUMPDEST SWAP4 POP POP PUSH1 0x20 PUSH2 0x172 DUP7 DUP3 DUP8 ADD PUSH2 0xE5 JUMP JUMPDEST SWAP3 POP POP PUSH1 0x40 PUSH2 0x183 DUP7 DUP3 DUP8 ADD PUSH2 0xD0 JUMP JUMPDEST SWAP2 POP POP SWAP3 POP SWAP3 POP SWAP3 JUMP JUMPDEST PUSH2 0x196 DUP2 PUSH2 0x1C9 JUMP JUMPDEST DUP3 MSTORE POP POP JUMP JUMPDEST PUSH1 0x0 PUSH1 0x20 DUP3 ADD SWAP1 POP PUSH2 0x1B1 PUSH1 0x0 DUP4 ADD DUP5 PUSH2 0x18D JUMP JUMPDEST SWAP3 SWAP2 POP POP JUMP JUMPDEST PUSH1 0x0 PUSH2 0x1C2 DUP3 PUSH2 0x1D5 JUMP JUMPDEST SWAP1 POP SWAP2 SWAP1 POP JUMP JUMPDEST PUSH1 0x0 DUP2 ISZERO ISZERO SWAP1 POP SWAP2 SWAP1 POP JUMP JUMPDEST PUSH1 0x0 PUSH20 0xFFFFFFFFFFFFFFFFFFFFFFFFFFFFFFFFFFFFFFFF DUP3 AND SWAP1 POP SWAP2 SWAP1 POP JUMP JUMPDEST PUSH1 0x0 DUP2 SWAP1 POP SWAP2 SWAP1 POP JUMP JUMPDEST PUSH1 0x0 DUP1 REVERT JUMPDEST PUSH2 0x20D DUP2 PUSH2 0x1B7 JUMP JUMPDEST DUP2 EQ PUSH2 0x218 JUMPI PUSH1 0x0 DUP1 REVERT JUMPDEST POP JUMP JUMPDEST PUSH2 0x224 DUP2 PUSH2 0x1C9 JUMP JUMPDEST DUP2 EQ PUSH2 0x22F JUMPI PUSH1 0x0 DUP1 REVERT JUMPDEST POP JUMP JUMPDEST PUSH2 0x23B DUP2 PUSH2 0x1F5 JUMP JUMPDEST DUP2 EQ PUSH2 0x246 JUMPI PUSH1 0x0 DUP1 REVERT JUMPDEST POP JUMP INVALID LOG2 PUSH5 0x6970667358 0x22 SLT KECCAK256 SELFBALANCE 0xB2 0xC5 0x49 CREATE2 0xD3 0xC8 0xD2 DUP2 0x5C JUMPDEST PUSH29 0xFAF9C6B1D4E2D26EEF95493D8539440D4CAADF9F64736F6C6343000807 STOP CALLER "
				},
				"gasEstimates": {
					"creation": {
						"codeDepositCost": "127800",
						"executionCost": "171",
						"totalCost": "127971"
					},
					"external": {
						"nestedMap(address,uint256)": "3065",
						"setMap(address,uint256,bool)": "804"
					}
				},
				"methodIdentifiers": {
					"nestedMap(address,uint256)": "1481d24f",
					"setMap(address,uint256,bool)": "ced9d61f"
				}
			},
			"storageLayout": {
				"storage": [
					{
						"astId": 7,
						"contract": "Mappings.sol:Mapping",
						"label": "nestedMap",
						"offset": 0,
						"slot": "0",
						"type": "t_mapping(t_address,t_mapping(t_uint256,t_bool))"
					}
				],
				"types": {
					"t_address": {
						"encoding": "inplace",
						"label": "address",
						"numberOfBytes": "20"
					},
					"t_bool": {
						"encoding": "inplace",
						"label": "bool",
						"numberOfBytes": "1"
					},
					"t_mapping(t_address,t_mapping(t_uint256,t_bool))": {
						"encoding": "mapping",
						"key": "t_address",
						"label": "mapping(address => mapping(uint256 => bool))",
						"numberOfBytes": "32",
						"value": "t_mapping(t_uint256,t_bool)"
					},
					"t_mapping(t_uint256,t_bool)": {
						"encoding": "mapping",
						"key": "t_uint256",
						"label": "mapping(uint256 => bool)",
						"numberOfBytes": "32",
						"value": "t_bool"
					},
					"t_uint256": {
						"encoding": "inplace",
						"label": "uint256",
						"numberOfBytes": "32"
					}
				}
			},
			"userdoc": {
				"kind": "user",
				"methods": {},
				"version": 1
			}
		}
	}
}