{
	"Enums.sol": {
		"Enum": {
			"abi": [
				{
					"inputs": [],
					"name": "amount",
					"outputs": [
						{
							"internalType": "uint256",
							"name": "",
							"type": "uint256"
						}
					],
					"stateMutability": "view",
					"type": "function"
				},
				{
					"inputs": [],
					"name": "checkwinner",
					"outputs": [],
					"stateMutability": "nonpayable",
					"type": "function"
				},
				{
					"inputs": [],
					"name": "person",
					"outputs": [
						{
							"internalType": "enum Enum.winner",
							"name": "",
							"type": "uint8"
						}
					],
					"stateMutability": "view",
					"type": "function"
				}
			],
			"devdoc": {
				"kind": "dev",
				"methods": {},
				"version": 1
			},
			"evm": {
				"assembly": "    /* \"Enums.sol\":74:338  contract Enum{\r... */\n  mstore(0x40, 0x80)\n    /* \"Enums.sol\":177:187  winner.yes */\n  0x00\n    /* \"Enums.sol\":154:187  winner public person = winner.yes */\n  dup1\n  exp(0x0100, 0x00)\n  dup2\n  sload\n  dup2\n  0xff\n  mul\n  not\n  and\n  swap1\n  dup4\n  0x02\n  dup2\n  gt\n  iszero\n  tag_1\n  jumpi\n  tag_2\n  tag_3\n  jump\t// in\ntag_2:\ntag_1:\n  mul\n  or\n  swap1\n  sstore\n  pop\n    /* \"Enums.sol\":215:218  100 */\n  0x64\n    /* \"Enums.sol\":194:218  uint public amount = 100 */\n  0x01\n  sstore\n    /* \"Enums.sol\":74:338  contract Enum{\r... */\n  callvalue\n  dup1\n  iszero\n  tag_4\n  jumpi\n  0x00\n  dup1\n  revert\ntag_4:\n  pop\n  jump(tag_5)\n    /* \"#utility.yul\":7:187   */\ntag_3:\n    /* \"#utility.yul\":55:132   */\n  0x4e487b7100000000000000000000000000000000000000000000000000000000\n    /* \"#utility.yul\":52:53   */\n  0x00\n    /* \"#utility.yul\":45:133   */\n  mstore\n    /* \"#utility.yul\":152:156   */\n  0x21\n    /* \"#utility.yul\":149:150   */\n  0x04\n    /* \"#utility.yul\":142:157   */\n  mstore\n    /* \"#utility.yul\":176:180   */\n  0x24\n    /* \"#utility.yul\":173:174   */\n  0x00\n    /* \"#utility.yul\":166:181   */\n  revert\n    /* \"Enums.sol\":74:338  contract Enum{\r... */\ntag_5:\n  dataSize(sub_0)\n  dup1\n  dataOffset(sub_0)\n  0x00\n  codecopy\n  0x00\n  return\nstop\n\nsub_0: assembly {\n        /* \"Enums.sol\":74:338  contract Enum{\r... */\n      mstore(0x40, 0x80)\n      callvalue\n      dup1\n      iszero\n      tag_1\n      jumpi\n      0x00\n      dup1\n      revert\n    tag_1:\n      pop\n      jumpi(tag_2, lt(calldatasize, 0x04))\n      shr(0xe0, calldataload(0x00))\n      dup1\n      0x4ade6044\n      eq\n      tag_3\n      jumpi\n      dup1\n      0x77ec2b55\n      eq\n      tag_4\n      jumpi\n      dup1\n      0xaa8c217c\n      eq\n      tag_5\n      jumpi\n    tag_2:\n      0x00\n      dup1\n      revert\n        /* \"Enums.sol\":227:335  function checkwinner() public{\r... */\n    tag_3:\n      tag_6\n      tag_7\n      jump\t// in\n    tag_6:\n      stop\n        /* \"Enums.sol\":154:187  winner public person = winner.yes */\n    tag_4:\n      tag_8\n      tag_9\n      jump\t// in\n    tag_8:\n      mload(0x40)\n      tag_10\n      swap2\n      swap1\n      tag_11\n      jump\t// in\n    tag_10:\n      mload(0x40)\n      dup1\n      swap2\n      sub\n      swap1\n      return\n        /* \"Enums.sol\":194:218  uint public amount = 100 */\n    tag_5:\n      tag_12\n      tag_13\n      jump\t// in\n    tag_12:\n      mload(0x40)\n      tag_14\n      swap2\n      swap1\n      tag_15\n      jump\t// in\n    tag_14:\n      mload(0x40)\n      dup1\n      swap2\n      sub\n      swap1\n      return\n        /* \"Enums.sol\":227:335  function checkwinner() public{\r... */\n    tag_7:\n        /* \"Enums.sol\":280:290  winner.yes */\n      0x00\n        /* \"Enums.sol\":270:290  person == winner.yes */\n      0x02\n      dup2\n      gt\n      iszero\n      tag_17\n      jumpi\n      tag_18\n      tag_19\n      jump\t// in\n    tag_18:\n    tag_17:\n        /* \"Enums.sol\":270:276  person */\n      0x00\n      dup1\n      sload\n      swap1\n      0x0100\n      exp\n      swap1\n      div\n      0xff\n      and\n        /* \"Enums.sol\":270:290  person == winner.yes */\n      0x02\n      dup2\n      gt\n      iszero\n      tag_20\n      jumpi\n      tag_21\n      tag_19\n      jump\t// in\n    tag_21:\n    tag_20:\n      eq\n        /* \"Enums.sol\":267:328  if(person == winner.yes){\r... */\n      iszero\n      tag_22\n      jumpi\n        /* \"Enums.sol\":315:316  0 */\n      0x00\n        /* \"Enums.sol\":306:312  amount */\n      0x01\n        /* \"Enums.sol\":306:316  amount = 0 */\n      dup2\n      swap1\n      sstore\n      pop\n        /* \"Enums.sol\":267:328  if(person == winner.yes){\r... */\n    tag_22:\n        /* \"Enums.sol\":227:335  function checkwinner() public{\r... */\n      jump\t// out\n        /* \"Enums.sol\":154:187  winner public person = winner.yes */\n    tag_9:\n      0x00\n      dup1\n      sload\n      swap1\n      0x0100\n      exp\n      swap1\n      div\n      0xff\n      and\n      dup2\n      jump\t// out\n        /* \"Enums.sol\":194:218  uint public amount = 100 */\n    tag_13:\n      sload(0x01)\n      dup2\n      jump\t// out\n        /* \"#utility.yul\":7:150   */\n    tag_24:\n        /* \"#utility.yul\":100:143   */\n      tag_26\n        /* \"#utility.yul\":137:142   */\n      dup2\n        /* \"#utility.yul\":100:143   */\n      tag_27\n      jump\t// in\n    tag_26:\n        /* \"#utility.yul\":95:98   */\n      dup3\n        /* \"#utility.yul\":88:144   */\n      mstore\n        /* \"#utility.yul\":7:150   */\n      pop\n      pop\n      jump\t// out\n        /* \"#utility.yul\":156:274   */\n    tag_28:\n        /* \"#utility.yul\":243:267   */\n      tag_30\n        /* \"#utility.yul\":261:266   */\n      dup2\n        /* \"#utility.yul\":243:267   */\n      tag_31\n      jump\t// in\n    tag_30:\n        /* \"#utility.yul\":238:241   */\n      dup3\n        /* \"#utility.yul\":231:268   */\n      mstore\n        /* \"#utility.yul\":156:274   */\n      pop\n      pop\n      jump\t// out\n        /* \"#utility.yul\":280:514   */\n    tag_11:\n        /* \"#utility.yul\":379:383   */\n      0x00\n        /* \"#utility.yul\":417:419   */\n      0x20\n        /* \"#utility.yul\":406:415   */\n      dup3\n        /* \"#utility.yul\":402:420   */\n      add\n        /* \"#utility.yul\":394:420   */\n      swap1\n      pop\n        /* \"#utility.yul\":430:507   */\n      tag_33\n        /* \"#utility.yul\":504:505   */\n      0x00\n        /* \"#utility.yul\":493:502   */\n      dup4\n        /* \"#utility.yul\":489:506   */\n      add\n        /* \"#utility.yul\":480:486   */\n      dup5\n        /* \"#utility.yul\":430:507   */\n      tag_24\n      jump\t// in\n    tag_33:\n        /* \"#utility.yul\":280:514   */\n      swap3\n      swap2\n      pop\n      pop\n      jump\t// out\n        /* \"#utility.yul\":520:742   */\n    tag_15:\n        /* \"#utility.yul\":613:617   */\n      0x00\n        /* \"#utility.yul\":651:653   */\n      0x20\n        /* \"#utility.yul\":640:649   */\n      dup3\n        /* \"#utility.yul\":636:654   */\n      add\n        /* \"#utility.yul\":628:654   */\n      swap1\n      pop\n        /* \"#utility.yul\":664:735   */\n      tag_35\n        /* \"#utility.yul\":732:733   */\n      0x00\n        /* \"#utility.yul\":721:730   */\n      dup4\n        /* \"#utility.yul\":717:734   */\n      add\n        /* \"#utility.yul\":708:714   */\n      dup5\n        /* \"#utility.yul\":664:735   */\n      tag_28\n      jump\t// in\n    tag_35:\n        /* \"#utility.yul\":520:742   */\n      swap3\n      swap2\n      pop\n      pop\n      jump\t// out\n        /* \"#utility.yul\":748:875   */\n    tag_36:\n        /* \"#utility.yul\":793:800   */\n      0x00\n        /* \"#utility.yul\":822:827   */\n      dup2\n        /* \"#utility.yul\":811:827   */\n      swap1\n      pop\n        /* \"#utility.yul\":828:869   */\n      tag_38\n        /* \"#utility.yul\":863:868   */\n      dup3\n        /* \"#utility.yul\":828:869   */\n      tag_39\n      jump\t// in\n    tag_38:\n        /* \"#utility.yul\":748:875   */\n      swap2\n      swap1\n      pop\n      jump\t// out\n        /* \"#utility.yul\":881:958   */\n    tag_31:\n        /* \"#utility.yul\":918:925   */\n      0x00\n        /* \"#utility.yul\":947:952   */\n      dup2\n        /* \"#utility.yul\":936:952   */\n      swap1\n      pop\n        /* \"#utility.yul\":881:958   */\n      swap2\n      swap1\n      pop\n      jump\t// out\n        /* \"#utility.yul\":964:1091   */\n    tag_27:\n        /* \"#utility.yul\":1020:1029   */\n      0x00\n        /* \"#utility.yul\":1053:1085   */\n      tag_42\n        /* \"#utility.yul\":1079:1084   */\n      dup3\n        /* \"#utility.yul\":1053:1085   */\n      tag_36\n      jump\t// in\n    tag_42:\n        /* \"#utility.yul\":1040:1085   */\n      swap1\n      pop\n        /* \"#utility.yul\":964:1091   */\n      swap2\n      swap1\n      pop\n      jump\t// out\n        /* \"#utility.yul\":1097:1277   */\n    tag_19:\n        /* \"#utility.yul\":1145:1222   */\n      0x4e487b7100000000000000000000000000000000000000000000000000000000\n        /* \"#utility.yul\":1142:1143   */\n      0x00\n        /* \"#utility.yul\":1135:1223   */\n      mstore\n        /* \"#utility.yul\":1242:1246   */\n      0x21\n        /* \"#utility.yul\":1239:1240   */\n      0x04\n        /* \"#utility.yul\":1232:1247   */\n      mstore\n        /* \"#utility.yul\":1266:1270   */\n      0x24\n        /* \"#utility.yul\":1263:1264   */\n      0x00\n        /* \"#utility.yul\":1256:1271   */\n      revert\n        /* \"#utility.yul\":1283:1396   */\n    tag_39:\n        /* \"#utility.yul\":1364:1365   */\n      0x03\n        /* \"#utility.yul\":1357:1362   */\n      dup2\n        /* \"#utility.yul\":1354:1366   */\n      lt\n        /* \"#utility.yul\":1344:1390   */\n      tag_45\n      jumpi\n        /* \"#utility.yul\":1370:1388   */\n      tag_46\n      tag_19\n      jump\t// in\n    tag_46:\n        /* \"#utility.yul\":1344:1390   */\n    tag_45:\n        /* \"#utility.yul\":1283:1396   */\n      pop\n      jump\t// out\n\n    auxdata: 0xa2646970667358221220b71670c569645ccbc76186ea092aa6426750c8e68b22ccf6a172edb6b025eb6864736f6c63430008070033\n}\n",
				"bytecode": {
					"linkReferences": {},
					"object": "608060405260008060006101000a81548160ff0219169083600281111561002957610028610045565b5b0217905550606460015534801561003f57600080fd5b50610074565b7f4e487b7100000000000000000000000000000000000000000000000000000000600052602160045260246000fd5b6101e4806100836000396000f3fe608060405234801561001057600080fd5b50600436106100415760003560e01c80634ade60441461004657806377ec2b5514610050578063aa8c217c1461006e575b600080fd5b61004e61008c565b005b6100586100d1565b6040516100659190610106565b60405180910390f35b6100766100e2565b6040516100839190610121565b60405180910390f35b600060028111156100a05761009f61016b565b5b60008054906101000a900460ff1660028111156100c0576100bf61016b565b5b14156100cf5760006001819055505b565b60008054906101000a900460ff1681565b60015481565b6100f181610159565b82525050565b6101008161014f565b82525050565b600060208201905061011b60008301846100e8565b92915050565b600060208201905061013660008301846100f7565b92915050565b600081905061014a8261019a565b919050565b6000819050919050565b60006101648261013c565b9050919050565b7f4e487b7100000000000000000000000000000000000000000000000000000000600052602160045260246000fd5b600381106101ab576101aa61016b565b5b5056fea2646970667358221220b71670c569645ccbc76186ea092aa6426750c8e68b22ccf6a172edb6b025eb6864736f6c63430008070033",
					"opcodes": "PUSH1 0x80 PUSH1 0x40 MSTORE PUSH1 0x0 DUP1 PUSH1 0x0 PUSH2 0x100 EXP DUP2 SLOAD DUP2 PUSH1 0xFF MUL NOT AND SWAP1 DUP4 PUSH1 0x2 DUP2 GT ISZERO PUSH2 0x29 JUMPI PUSH2 0x28 PUSH2 0x45 JUMP JUMPDEST JUMPDEST MUL OR SWAP1 SSTORE POP PUSH1 0x64 PUSH1 0x1 SSTORE CALLVALUE DUP1 ISZERO PUSH2 0x3F JUMPI PUSH1 0x0 DUP1 REVERT JUMPDEST POP PUSH2 0x74 JUMP JUMPDEST PUSH32 0x4E487B7100000000000000000000000000000000000000000000000000000000 PUSH1 0x0 MSTORE PUSH1 0x21 PUSH1 0x4 MSTORE PUSH1 0x24 PUSH1 0x0 REVERT JUMPDEST PUSH2 0x1E4 DUP1 PUSH2 0x83 PUSH1 0x0 CODECOPY PUSH1 0x0 RETURN INVALID PUSH1 0x80 PUSH1 0x40 MSTORE CALLVALUE DUP1 ISZERO PUSH2 0x10 JUMPI PUSH1 0x0 DUP1 REVERT JUMPDEST POP PUSH1 0x4 CALLDATASIZE LT PUSH2 0x41 JUMPI PUSH1 0x0 CALLDATALOAD PUSH1 0xE0 SHR DUP1 PUSH4 0x4ADE6044 EQ PUSH2 0x46 JUMPI DUP1 PUSH4 0x77EC2B55 EQ PUSH2 0x50 JUMPI DUP1 PUSH4 0xAA8C217C EQ PUSH2 0x6E JUMPI JUMPDEST PUSH1 0x0 DUP1 REVERT JUMPDEST PUSH2 0x4E PUSH2 0x8C JUMP JUMPDEST STOP JUMPDEST PUSH2 0x58 PUSH2 0xD1 JUMP JUMPDEST PUSH1 0x40 MLOAD PUSH2 0x65 SWAP2 SWAP1 PUSH2 0x106 JUMP JUMPDEST PUSH1 0x40 MLOAD DUP1 SWAP2 SUB SWAP1 RETURN JUMPDEST PUSH2 0x76 PUSH2 0xE2 JUMP JUMPDEST PUSH1 0x40 MLOAD PUSH2 0x83 SWAP2 SWAP1 PUSH2 0x121 JUMP JUMPDEST PUSH1 0x40 MLOAD DUP1 SWAP2 SUB SWAP1 RETURN JUMPDEST PUSH1 0x0 PUSH1 0x2 DUP2 GT ISZERO PUSH2 0xA0 JUMPI PUSH2 0x9F PUSH2 0x16B JUMP JUMPDEST JUMPDEST PUSH1 0x0 DUP1 SLOAD SWAP1 PUSH2 0x100 EXP SWAP1 DIV PUSH1 0xFF AND PUSH1 0x2 DUP2 GT ISZERO PUSH2 0xC0 JUMPI PUSH2 0xBF PUSH2 0x16B JUMP JUMPDEST JUMPDEST EQ ISZERO PUSH2 0xCF JUMPI PUSH1 0x0 PUSH1 0x1 DUP2 SWAP1 SSTORE POP JUMPDEST JUMP JUMPDEST PUSH1 0x0 DUP1 SLOAD SWAP1 PUSH2 0x100 EXP SWAP1 DIV PUSH1 0xFF AND DUP2 JUMP JUMPDEST PUSH1 0x1 SLOAD DUP2 JUMP JUMPDEST PUSH2 0xF1 DUP2 PUSH2 0x159 JUMP JUMPDEST DUP3 MSTORE POP POP JUMP JUMPDEST PUSH2 0x100 DUP2 PUSH2 0x14F JUMP JUMPDEST DUP3 MSTORE POP POP JUMP JUMPDEST PUSH1 0x0 PUSH1 0x20 DUP3 ADD SWAP1 POP PUSH2 0x11B PUSH1 0x0 DUP4 ADD DUP5 PUSH2 0xE8 JUMP JUMPDEST SWAP3 SWAP2 POP POP JUMP JUMPDEST PUSH1 0x0 PUSH1 0x20 DUP3 ADD SWAP1 POP PUSH2 0x136 PUSH1 0x0 DUP4 ADD DUP5 PUSH2 0xF7 JUMP JUMPDEST SWAP3 SWAP2 POP POP JUMP JUMPDEST PUSH1 0x0 DUP2 SWAP1 POP PUSH2 0x14A DUP3 PUSH2 0x19A JUMP JUMPDEST SWAP2 SWAP1 POP JUMP JUMPDEST PUSH1 0x0 DUP2 SWAP1 POP SWAP2 SWAP1 POP JUMP JUMPDEST PUSH1 0x0 PUSH2 0x164 DUP3 PUSH2 0x13C JUMP JUMPDEST SWAP1 POP SWAP2 SWAP1 POP JUMP JUMPDEST PUSH32 0x4E487B7100000000000000000000000000000000000000000000000000000000 PUSH1 0x0 MSTORE PUSH1 0x21 PUSH1 0x4 MSTORE PUSH1 0x24 PUSH1 0x0 REVERT JUMPDEST PUSH1 0x3 DUP2 LT PUSH2 0x1AB JUMPI PUSH2 0x1AA PUSH2 0x16B JUMP JUMPDEST JUMPDEST POP JUMP INVALID LOG2 PUSH5 0x6970667358 0x22 SLT KECCAK256 0xB7 AND PUSH17 0xC569645CCBC76186EA092AA6426750C8E6 DUP12 0x22 0xCC 0xF6 LOG1 PUSH19 0xEDB6B025EB6864736F6C634300080700330000 "
				},
				"gasEstimates": {
					"creation": {
						"codeDepositCost": "96800",
						"executionCost": "46552",
						"totalCost": "143352"
					},
					"external": {
						"amount()": "2451",
						"checkwinner()": "7347",
						"person()": "2557"
					}
				},
				"methodIdentifiers": {
					"amount()": "aa8c217c",
					"checkwinner()": "4ade6044",
					"person()": "77ec2b55"
				}
			},
			"storageLayout": {
				"storage": [
					{
						"astId": 10,
						"contract": "Enums.sol:Enum",
						"label": "person",
						"offset": 0,
						"slot": "0",
						"type": "t_enum(winner)5"
					},
					{
						"astId": 13,
						"contract": "Enums.sol:Enum",
						"label": "amount",
						"offset": 0,
						"slot": "1",
						"type": "t_uint256"
					}
				],
				"types": {
					"t_enum(winner)5": {
						"encoding": "inplace",
						"label": "enum Enum.winner",
						"numberOfBytes": "1"
					},
					"t_uint256": {
						"encoding": "inplace",
						"label": "uint256",
						"numberOfBytes": "32"
					}
				}
			},
			"userdoc": {
				"kind": "user",
				"methods": {},
				"version": 1
			}
		}
	}
}