{
	"Constructor.sol": {
		"Bank": {
			"abi": [
				{
					"inputs": [],
					"name": "Id",
					"outputs": [
						{
							"internalType": "address",
							"name": "",
							"type": "address"
						}
					],
					"stateMutability": "view",
					"type": "function"
				},
				{
					"inputs": [],
					"name": "balance",
					"outputs": [
						{
							"internalType": "uint256",
							"name": "",
							"type": "uint256"
						}
					],
					"stateMutability": "view",
					"type": "function"
				},
				{
					"inputs": [],
					"name": "holder",
					"outputs": [
						{
							"internalType": "string",
							"name": "",
							"type": "string"
						}
					],
					"stateMutability": "view",
					"type": "function"
				},
				{
					"inputs": [
						{
							"internalType": "uint256",
							"name": "_balance",
							"type": "uint256"
						}
					],
					"name": "setBalance",
					"outputs": [],
					"stateMutability": "nonpayable",
					"type": "function"
				},
				{
					"inputs": [
						{
							"internalType": "string",
							"name": "_holder",
							"type": "string"
						}
					],
					"name": "setHolder",
					"outputs": [],
					"stateMutability": "nonpayable",
					"type": "function"
				}
			],
			"devdoc": {
				"kind": "dev",
				"methods": {},
				"version": 1
			},
			"evm": {
				"assembly": "    /* \"Constructor.sol\":74:359  contract Bank{\r... */\n  mstore(0x40, 0x80)\n  callvalue\n  dup1\n  iszero\n  tag_1\n  jumpi\n  0x00\n  dup1\n  revert\ntag_1:\n  pop\n  dataSize(sub_0)\n  dup1\n  dataOffset(sub_0)\n  0x00\n  codecopy\n  0x00\n  return\nstop\n\nsub_0: assembly {\n        /* \"Constructor.sol\":74:359  contract Bank{\r... */\n      mstore(0x40, 0x80)\n      callvalue\n      dup1\n      iszero\n      tag_1\n      jumpi\n      0x00\n      dup1\n      revert\n    tag_1:\n      pop\n      jumpi(tag_2, lt(calldatasize, 0x04))\n      shr(0xe0, calldataload(0x00))\n      dup1\n      0x39a090c9\n      eq\n      tag_3\n      jumpi\n      dup1\n      0x73009ea1\n      eq\n      tag_4\n      jumpi\n      dup1\n      0xb69ef8a8\n      eq\n      tag_5\n      jumpi\n      dup1\n      0xe534155d\n      eq\n      tag_6\n      jumpi\n      dup1\n      0xfb1669ca\n      eq\n      tag_7\n      jumpi\n    tag_2:\n      0x00\n      dup1\n      revert\n        /* \"Constructor.sol\":147:164  address public Id */\n    tag_3:\n      tag_8\n      tag_9\n      jump\t// in\n    tag_8:\n      mload(0x40)\n      tag_10\n      swap2\n      swap1\n      tag_11\n      jump\t// in\n    tag_10:\n      mload(0x40)\n      dup1\n      swap2\n      sub\n      swap1\n      return\n        /* \"Constructor.sol\":272:356  function setHolder(string memory _holder) public {\r... */\n    tag_4:\n      tag_12\n      0x04\n      dup1\n      calldatasize\n      sub\n      dup2\n      add\n      swap1\n      tag_13\n      swap2\n      swap1\n      tag_14\n      jump\t// in\n    tag_13:\n      tag_15\n      jump\t// in\n    tag_12:\n      stop\n        /* \"Constructor.sol\":94:113  uint public balance */\n    tag_5:\n      tag_16\n      tag_17\n      jump\t// in\n    tag_16:\n      mload(0x40)\n      tag_18\n      swap2\n      swap1\n      tag_19\n      jump\t// in\n    tag_18:\n      mload(0x40)\n      dup1\n      swap2\n      sub\n      swap1\n      return\n        /* \"Constructor.sol\":120:140  string public holder */\n    tag_6:\n      tag_20\n      tag_21\n      jump\t// in\n    tag_20:\n      mload(0x40)\n      tag_22\n      swap2\n      swap1\n      tag_23\n      jump\t// in\n    tag_22:\n      mload(0x40)\n      dup1\n      swap2\n      sub\n      swap1\n      return\n        /* \"Constructor.sol\":181:264  function setBalance(uint _balance) public {\r... */\n    tag_7:\n      tag_24\n      0x04\n      dup1\n      calldatasize\n      sub\n      dup2\n      add\n      swap1\n      tag_25\n      swap2\n      swap1\n      tag_26\n      jump\t// in\n    tag_25:\n      tag_27\n      jump\t// in\n    tag_24:\n      stop\n        /* \"Constructor.sol\":147:164  address public Id */\n    tag_9:\n      0x02\n      0x00\n      swap1\n      sload\n      swap1\n      0x0100\n      exp\n      swap1\n      div\n      0xffffffffffffffffffffffffffffffffffffffff\n      and\n      dup2\n      jump\t// out\n        /* \"Constructor.sol\":272:356  function setHolder(string memory _holder) public {\r... */\n    tag_15:\n        /* \"Constructor.sol\":341:348  _holder */\n      dup1\n        /* \"Constructor.sol\":332:338  holder */\n      0x01\n        /* \"Constructor.sol\":332:348  holder = _holder */\n      swap1\n      dup1\n      mload\n      swap1\n      0x20\n      add\n      swap1\n      tag_29\n      swap3\n      swap2\n      swap1\n      tag_30\n      jump\t// in\n    tag_29:\n      pop\n        /* \"Constructor.sol\":272:356  function setHolder(string memory _holder) public {\r... */\n      pop\n      jump\t// out\n        /* \"Constructor.sol\":94:113  uint public balance */\n    tag_17:\n      sload(0x00)\n      dup2\n      jump\t// out\n        /* \"Constructor.sol\":120:140  string public holder */\n    tag_21:\n      0x01\n      dup1\n      sload\n      tag_31\n      swap1\n      tag_32\n      jump\t// in\n    tag_31:\n      dup1\n      0x1f\n      add\n      0x20\n      dup1\n      swap2\n      div\n      mul\n      0x20\n      add\n      mload(0x40)\n      swap1\n      dup2\n      add\n      0x40\n      mstore\n      dup1\n      swap3\n      swap2\n      swap1\n      dup2\n      dup2\n      mstore\n      0x20\n      add\n      dup3\n      dup1\n      sload\n      tag_33\n      swap1\n      tag_32\n      jump\t// in\n    tag_33:\n      dup1\n      iszero\n      tag_34\n      jumpi\n      dup1\n      0x1f\n      lt\n      tag_35\n      jumpi\n      0x0100\n      dup1\n      dup4\n      sload\n      div\n      mul\n      dup4\n      mstore\n      swap2\n      0x20\n      add\n      swap2\n      jump(tag_34)\n    tag_35:\n      dup3\n      add\n      swap2\n      swap1\n      0x00\n      mstore\n      keccak256(0x00, 0x20)\n      swap1\n    tag_36:\n      dup2\n      sload\n      dup2\n      mstore\n      swap1\n      0x01\n      add\n      swap1\n      0x20\n      add\n      dup1\n      dup4\n      gt\n      tag_36\n      jumpi\n      dup3\n      swap1\n      sub\n      0x1f\n      and\n      dup3\n      add\n      swap2\n    tag_34:\n      pop\n      pop\n      pop\n      pop\n      pop\n      dup2\n      jump\t// out\n        /* \"Constructor.sol\":181:264  function setBalance(uint _balance) public {\r... */\n    tag_27:\n        /* \"Constructor.sol\":248:256  _balance */\n      dup1\n        /* \"Constructor.sol\":238:245  balance */\n      0x00\n        /* \"Constructor.sol\":238:256  balance = _balance */\n      dup2\n      swap1\n      sstore\n      pop\n        /* \"Constructor.sol\":181:264  function setBalance(uint _balance) public {\r... */\n      pop\n      jump\t// out\n    tag_30:\n      dup3\n      dup1\n      sload\n      tag_38\n      swap1\n      tag_32\n      jump\t// in\n    tag_38:\n      swap1\n      0x00\n      mstore\n      keccak256(0x00, 0x20)\n      swap1\n      0x1f\n      add\n      0x20\n      swap1\n      div\n      dup2\n      add\n      swap3\n      dup3\n      tag_40\n      jumpi\n      0x00\n      dup6\n      sstore\n      jump(tag_39)\n    tag_40:\n      dup3\n      0x1f\n      lt\n      tag_41\n      jumpi\n      dup1\n      mload\n      not(0xff)\n      and\n      dup4\n      dup1\n      add\n      or\n      dup6\n      sstore\n      jump(tag_39)\n    tag_41:\n      dup3\n      dup1\n      add\n      0x01\n      add\n      dup6\n      sstore\n      dup3\n      iszero\n      tag_39\n      jumpi\n      swap2\n      dup3\n      add\n    tag_42:\n      dup3\n      dup2\n      gt\n      iszero\n      tag_43\n      jumpi\n      dup3\n      mload\n      dup3\n      sstore\n      swap2\n      0x20\n      add\n      swap2\n      swap1\n      0x01\n      add\n      swap1\n      jump(tag_42)\n    tag_43:\n    tag_39:\n      pop\n      swap1\n      pop\n      tag_44\n      swap2\n      swap1\n      tag_45\n      jump\t// in\n    tag_44:\n      pop\n      swap1\n      jump\t// out\n    tag_45:\n    tag_46:\n      dup1\n      dup3\n      gt\n      iszero\n      tag_47\n      jumpi\n      0x00\n      dup2\n      0x00\n      swap1\n      sstore\n      pop\n      0x01\n      add\n      jump(tag_46)\n    tag_47:\n      pop\n      swap1\n      jump\t// out\n        /* \"#utility.yul\":7:419   */\n    tag_49:\n        /* \"#utility.yul\":85:90   */\n      0x00\n        /* \"#utility.yul\":110:176   */\n      tag_51\n        /* \"#utility.yul\":126:175   */\n      tag_52\n        /* \"#utility.yul\":168:174   */\n      dup5\n        /* \"#utility.yul\":126:175   */\n      tag_53\n      jump\t// in\n    tag_52:\n        /* \"#utility.yul\":110:176   */\n      tag_54\n      jump\t// in\n    tag_51:\n        /* \"#utility.yul\":101:176   */\n      swap1\n      pop\n        /* \"#utility.yul\":199:205   */\n      dup3\n        /* \"#utility.yul\":192:197   */\n      dup2\n        /* \"#utility.yul\":185:206   */\n      mstore\n        /* \"#utility.yul\":237:241   */\n      0x20\n        /* \"#utility.yul\":230:235   */\n      dup2\n        /* \"#utility.yul\":226:242   */\n      add\n        /* \"#utility.yul\":275:278   */\n      dup5\n        /* \"#utility.yul\":266:272   */\n      dup5\n        /* \"#utility.yul\":261:264   */\n      dup5\n        /* \"#utility.yul\":257:273   */\n      add\n        /* \"#utility.yul\":254:279   */\n      gt\n        /* \"#utility.yul\":251:363   */\n      iszero\n      tag_55\n      jumpi\n        /* \"#utility.yul\":282:361   */\n      tag_56\n      tag_57\n      jump\t// in\n    tag_56:\n        /* \"#utility.yul\":251:363   */\n    tag_55:\n        /* \"#utility.yul\":372:413   */\n      tag_58\n        /* \"#utility.yul\":406:412   */\n      dup5\n        /* \"#utility.yul\":401:404   */\n      dup3\n        /* \"#utility.yul\":396:399   */\n      dup6\n        /* \"#utility.yul\":372:413   */\n      tag_59\n      jump\t// in\n    tag_58:\n        /* \"#utility.yul\":91:419   */\n      pop\n        /* \"#utility.yul\":7:419   */\n      swap4\n      swap3\n      pop\n      pop\n      pop\n      jump\t// out\n        /* \"#utility.yul\":439:779   */\n    tag_60:\n        /* \"#utility.yul\":495:500   */\n      0x00\n        /* \"#utility.yul\":544:547   */\n      dup3\n        /* \"#utility.yul\":537:541   */\n      0x1f\n        /* \"#utility.yul\":529:535   */\n      dup4\n        /* \"#utility.yul\":525:542   */\n      add\n        /* \"#utility.yul\":521:548   */\n      slt\n        /* \"#utility.yul\":511:633   */\n      tag_62\n      jumpi\n        /* \"#utility.yul\":552:631   */\n      tag_63\n      tag_64\n      jump\t// in\n    tag_63:\n        /* \"#utility.yul\":511:633   */\n    tag_62:\n        /* \"#utility.yul\":669:675   */\n      dup2\n        /* \"#utility.yul\":656:676   */\n      calldataload\n        /* \"#utility.yul\":694:773   */\n      tag_65\n        /* \"#utility.yul\":769:772   */\n      dup5\n        /* \"#utility.yul\":761:767   */\n      dup3\n        /* \"#utility.yul\":754:758   */\n      0x20\n        /* \"#utility.yul\":746:752   */\n      dup7\n        /* \"#utility.yul\":742:759   */\n      add\n        /* \"#utility.yul\":694:773   */\n      tag_49\n      jump\t// in\n    tag_65:\n        /* \"#utility.yul\":685:773   */\n      swap2\n      pop\n        /* \"#utility.yul\":501:779   */\n      pop\n        /* \"#utility.yul\":439:779   */\n      swap3\n      swap2\n      pop\n      pop\n      jump\t// out\n        /* \"#utility.yul\":785:924   */\n    tag_66:\n        /* \"#utility.yul\":831:836   */\n      0x00\n        /* \"#utility.yul\":869:875   */\n      dup2\n        /* \"#utility.yul\":856:876   */\n      calldataload\n        /* \"#utility.yul\":847:876   */\n      swap1\n      pop\n        /* \"#utility.yul\":885:918   */\n      tag_68\n        /* \"#utility.yul\":912:917   */\n      dup2\n        /* \"#utility.yul\":885:918   */\n      tag_69\n      jump\t// in\n    tag_68:\n        /* \"#utility.yul\":785:924   */\n      swap3\n      swap2\n      pop\n      pop\n      jump\t// out\n        /* \"#utility.yul\":930:1439   */\n    tag_14:\n        /* \"#utility.yul\":999:1005   */\n      0x00\n        /* \"#utility.yul\":1048:1050   */\n      0x20\n        /* \"#utility.yul\":1036:1045   */\n      dup3\n        /* \"#utility.yul\":1027:1034   */\n      dup5\n        /* \"#utility.yul\":1023:1046   */\n      sub\n        /* \"#utility.yul\":1019:1051   */\n      slt\n        /* \"#utility.yul\":1016:1135   */\n      iszero\n      tag_71\n      jumpi\n        /* \"#utility.yul\":1054:1133   */\n      tag_72\n      tag_73\n      jump\t// in\n    tag_72:\n        /* \"#utility.yul\":1016:1135   */\n    tag_71:\n        /* \"#utility.yul\":1202:1203   */\n      0x00\n        /* \"#utility.yul\":1191:1200   */\n      dup3\n        /* \"#utility.yul\":1187:1204   */\n      add\n        /* \"#utility.yul\":1174:1205   */\n      calldataload\n        /* \"#utility.yul\":1232:1250   */\n      0xffffffffffffffff\n        /* \"#utility.yul\":1224:1230   */\n      dup2\n        /* \"#utility.yul\":1221:1251   */\n      gt\n        /* \"#utility.yul\":1218:1335   */\n      iszero\n      tag_74\n      jumpi\n        /* \"#utility.yul\":1254:1333   */\n      tag_75\n      tag_76\n      jump\t// in\n    tag_75:\n        /* \"#utility.yul\":1218:1335   */\n    tag_74:\n        /* \"#utility.yul\":1359:1422   */\n      tag_77\n        /* \"#utility.yul\":1414:1421   */\n      dup5\n        /* \"#utility.yul\":1405:1411   */\n      dup3\n        /* \"#utility.yul\":1394:1403   */\n      dup6\n        /* \"#utility.yul\":1390:1412   */\n      add\n        /* \"#utility.yul\":1359:1422   */\n      tag_60\n      jump\t// in\n    tag_77:\n        /* \"#utility.yul\":1349:1422   */\n      swap2\n      pop\n        /* \"#utility.yul\":1145:1432   */\n      pop\n        /* \"#utility.yul\":930:1439   */\n      swap3\n      swap2\n      pop\n      pop\n      jump\t// out\n        /* \"#utility.yul\":1445:1774   */\n    tag_26:\n        /* \"#utility.yul\":1504:1510   */\n      0x00\n        /* \"#utility.yul\":1553:1555   */\n      0x20\n        /* \"#utility.yul\":1541:1550   */\n      dup3\n        /* \"#utility.yul\":1532:1539   */\n      dup5\n        /* \"#utility.yul\":1528:1551   */\n      sub\n        /* \"#utility.yul\":1524:1556   */\n      slt\n        /* \"#utility.yul\":1521:1640   */\n      iszero\n      tag_79\n      jumpi\n        /* \"#utility.yul\":1559:1638   */\n      tag_80\n      tag_73\n      jump\t// in\n    tag_80:\n        /* \"#utility.yul\":1521:1640   */\n    tag_79:\n        /* \"#utility.yul\":1679:1680   */\n      0x00\n        /* \"#utility.yul\":1704:1757   */\n      tag_81\n        /* \"#utility.yul\":1749:1756   */\n      dup5\n        /* \"#utility.yul\":1740:1746   */\n      dup3\n        /* \"#utility.yul\":1729:1738   */\n      dup6\n        /* \"#utility.yul\":1725:1747   */\n      add\n        /* \"#utility.yul\":1704:1757   */\n      tag_66\n      jump\t// in\n    tag_81:\n        /* \"#utility.yul\":1694:1757   */\n      swap2\n      pop\n        /* \"#utility.yul\":1650:1767   */\n      pop\n        /* \"#utility.yul\":1445:1774   */\n      swap3\n      swap2\n      pop\n      pop\n      jump\t// out\n        /* \"#utility.yul\":1780:1898   */\n    tag_82:\n        /* \"#utility.yul\":1867:1891   */\n      tag_84\n        /* \"#utility.yul\":1885:1890   */\n      dup2\n        /* \"#utility.yul\":1867:1891   */\n      tag_85\n      jump\t// in\n    tag_84:\n        /* \"#utility.yul\":1862:1865   */\n      dup3\n        /* \"#utility.yul\":1855:1892   */\n      mstore\n        /* \"#utility.yul\":1780:1898   */\n      pop\n      pop\n      jump\t// out\n        /* \"#utility.yul\":1904:2268   */\n    tag_86:\n        /* \"#utility.yul\":1992:1995   */\n      0x00\n        /* \"#utility.yul\":2020:2059   */\n      tag_88\n        /* \"#utility.yul\":2053:2058   */\n      dup3\n        /* \"#utility.yul\":2020:2059   */\n      tag_89\n      jump\t// in\n    tag_88:\n        /* \"#utility.yul\":2075:2146   */\n      tag_90\n        /* \"#utility.yul\":2139:2145   */\n      dup2\n        /* \"#utility.yul\":2134:2137   */\n      dup6\n        /* \"#utility.yul\":2075:2146   */\n      tag_91\n      jump\t// in\n    tag_90:\n        /* \"#utility.yul\":2068:2146   */\n      swap4\n      pop\n        /* \"#utility.yul\":2155:2207   */\n      tag_92\n        /* \"#utility.yul\":2200:2206   */\n      dup2\n        /* \"#utility.yul\":2195:2198   */\n      dup6\n        /* \"#utility.yul\":2188:2192   */\n      0x20\n        /* \"#utility.yul\":2181:2186   */\n      dup7\n        /* \"#utility.yul\":2177:2193   */\n      add\n        /* \"#utility.yul\":2155:2207   */\n      tag_93\n      jump\t// in\n    tag_92:\n        /* \"#utility.yul\":2232:2261   */\n      tag_94\n        /* \"#utility.yul\":2254:2260   */\n      dup2\n        /* \"#utility.yul\":2232:2261   */\n      tag_95\n      jump\t// in\n    tag_94:\n        /* \"#utility.yul\":2227:2230   */\n      dup5\n        /* \"#utility.yul\":2223:2262   */\n      add\n        /* \"#utility.yul\":2216:2262   */\n      swap2\n      pop\n        /* \"#utility.yul\":1996:2268   */\n      pop\n        /* \"#utility.yul\":1904:2268   */\n      swap3\n      swap2\n      pop\n      pop\n      jump\t// out\n        /* \"#utility.yul\":2274:2392   */\n    tag_96:\n        /* \"#utility.yul\":2361:2385   */\n      tag_98\n        /* \"#utility.yul\":2379:2384   */\n      dup2\n        /* \"#utility.yul\":2361:2385   */\n      tag_99\n      jump\t// in\n    tag_98:\n        /* \"#utility.yul\":2356:2359   */\n      dup3\n        /* \"#utility.yul\":2349:2386   */\n      mstore\n        /* \"#utility.yul\":2274:2392   */\n      pop\n      pop\n      jump\t// out\n        /* \"#utility.yul\":2398:2620   */\n    tag_11:\n        /* \"#utility.yul\":2491:2495   */\n      0x00\n        /* \"#utility.yul\":2529:2531   */\n      0x20\n        /* \"#utility.yul\":2518:2527   */\n      dup3\n        /* \"#utility.yul\":2514:2532   */\n      add\n        /* \"#utility.yul\":2506:2532   */\n      swap1\n      pop\n        /* \"#utility.yul\":2542:2613   */\n      tag_101\n        /* \"#utility.yul\":2610:2611   */\n      0x00\n        /* \"#utility.yul\":2599:2608   */\n      dup4\n        /* \"#utility.yul\":2595:2612   */\n      add\n        /* \"#utility.yul\":2586:2592   */\n      dup5\n        /* \"#utility.yul\":2542:2613   */\n      tag_82\n      jump\t// in\n    tag_101:\n        /* \"#utility.yul\":2398:2620   */\n      swap3\n      swap2\n      pop\n      pop\n      jump\t// out\n        /* \"#utility.yul\":2626:2939   */\n    tag_23:\n        /* \"#utility.yul\":2739:2743   */\n      0x00\n        /* \"#utility.yul\":2777:2779   */\n      0x20\n        /* \"#utility.yul\":2766:2775   */\n      dup3\n        /* \"#utility.yul\":2762:2780   */\n      add\n        /* \"#utility.yul\":2754:2780   */\n      swap1\n      pop\n        /* \"#utility.yul\":2826:2835   */\n      dup2\n        /* \"#utility.yul\":2820:2824   */\n      dup2\n        /* \"#utility.yul\":2816:2836   */\n      sub\n        /* \"#utility.yul\":2812:2813   */\n      0x00\n        /* \"#utility.yul\":2801:2810   */\n      dup4\n        /* \"#utility.yul\":2797:2814   */\n      add\n        /* \"#utility.yul\":2790:2837   */\n      mstore\n        /* \"#utility.yul\":2854:2932   */\n      tag_103\n        /* \"#utility.yul\":2927:2931   */\n      dup2\n        /* \"#utility.yul\":2918:2924   */\n      dup5\n        /* \"#utility.yul\":2854:2932   */\n      tag_86\n      jump\t// in\n    tag_103:\n        /* \"#utility.yul\":2846:2932   */\n      swap1\n      pop\n        /* \"#utility.yul\":2626:2939   */\n      swap3\n      swap2\n      pop\n      pop\n      jump\t// out\n        /* \"#utility.yul\":2945:3167   */\n    tag_19:\n        /* \"#utility.yul\":3038:3042   */\n      0x00\n        /* \"#utility.yul\":3076:3078   */\n      0x20\n        /* \"#utility.yul\":3065:3074   */\n      dup3\n        /* \"#utility.yul\":3061:3079   */\n      add\n        /* \"#utility.yul\":3053:3079   */\n      swap1\n      pop\n        /* \"#utility.yul\":3089:3160   */\n      tag_105\n        /* \"#utility.yul\":3157:3158   */\n      0x00\n        /* \"#utility.yul\":3146:3155   */\n      dup4\n        /* \"#utility.yul\":3142:3159   */\n      add\n        /* \"#utility.yul\":3133:3139   */\n      dup5\n        /* \"#utility.yul\":3089:3160   */\n      tag_96\n      jump\t// in\n    tag_105:\n        /* \"#utility.yul\":2945:3167   */\n      swap3\n      swap2\n      pop\n      pop\n      jump\t// out\n        /* \"#utility.yul\":3173:3302   */\n    tag_54:\n        /* \"#utility.yul\":3207:3213   */\n      0x00\n        /* \"#utility.yul\":3234:3254   */\n      tag_107\n      tag_108\n      jump\t// in\n    tag_107:\n        /* \"#utility.yul\":3224:3254   */\n      swap1\n      pop\n        /* \"#utility.yul\":3263:3296   */\n      tag_109\n        /* \"#utility.yul\":3291:3295   */\n      dup3\n        /* \"#utility.yul\":3283:3289   */\n      dup3\n        /* \"#utility.yul\":3263:3296   */\n      tag_110\n      jump\t// in\n    tag_109:\n        /* \"#utility.yul\":3173:3302   */\n      swap2\n      swap1\n      pop\n      jump\t// out\n        /* \"#utility.yul\":3308:3383   */\n    tag_108:\n        /* \"#utility.yul\":3341:3347   */\n      0x00\n        /* \"#utility.yul\":3374:3376   */\n      0x40\n        /* \"#utility.yul\":3368:3377   */\n      mload\n        /* \"#utility.yul\":3358:3377   */\n      swap1\n      pop\n        /* \"#utility.yul\":3308:3383   */\n      swap1\n      jump\t// out\n        /* \"#utility.yul\":3389:3697   */\n    tag_53:\n        /* \"#utility.yul\":3451:3455   */\n      0x00\n        /* \"#utility.yul\":3541:3559   */\n      0xffffffffffffffff\n        /* \"#utility.yul\":3533:3539   */\n      dup3\n        /* \"#utility.yul\":3530:3560   */\n      gt\n        /* \"#utility.yul\":3527:3583   */\n      iszero\n      tag_113\n      jumpi\n        /* \"#utility.yul\":3563:3581   */\n      tag_114\n      tag_115\n      jump\t// in\n    tag_114:\n        /* \"#utility.yul\":3527:3583   */\n    tag_113:\n        /* \"#utility.yul\":3601:3630   */\n      tag_116\n        /* \"#utility.yul\":3623:3629   */\n      dup3\n        /* \"#utility.yul\":3601:3630   */\n      tag_95\n      jump\t// in\n    tag_116:\n        /* \"#utility.yul\":3593:3630   */\n      swap1\n      pop\n        /* \"#utility.yul\":3685:3689   */\n      0x20\n        /* \"#utility.yul\":3679:3683   */\n      dup2\n        /* \"#utility.yul\":3675:3690   */\n      add\n        /* \"#utility.yul\":3667:3690   */\n      swap1\n      pop\n        /* \"#utility.yul\":3389:3697   */\n      swap2\n      swap1\n      pop\n      jump\t// out\n        /* \"#utility.yul\":3703:3802   */\n    tag_89:\n        /* \"#utility.yul\":3755:3761   */\n      0x00\n        /* \"#utility.yul\":3789:3794   */\n      dup2\n        /* \"#utility.yul\":3783:3795   */\n      mload\n        /* \"#utility.yul\":3773:3795   */\n      swap1\n      pop\n        /* \"#utility.yul\":3703:3802   */\n      swap2\n      swap1\n      pop\n      jump\t// out\n        /* \"#utility.yul\":3808:3977   */\n    tag_91:\n        /* \"#utility.yul\":3892:3903   */\n      0x00\n        /* \"#utility.yul\":3926:3932   */\n      dup3\n        /* \"#utility.yul\":3921:3924   */\n      dup3\n        /* \"#utility.yul\":3914:3933   */\n      mstore\n        /* \"#utility.yul\":3966:3970   */\n      0x20\n        /* \"#utility.yul\":3961:3964   */\n      dup3\n        /* \"#utility.yul\":3957:3971   */\n      add\n        /* \"#utility.yul\":3942:3971   */\n      swap1\n      pop\n        /* \"#utility.yul\":3808:3977   */\n      swap3\n      swap2\n      pop\n      pop\n      jump\t// out\n        /* \"#utility.yul\":3983:4079   */\n    tag_85:\n        /* \"#utility.yul\":4020:4027   */\n      0x00\n        /* \"#utility.yul\":4049:4073   */\n      tag_120\n        /* \"#utility.yul\":4067:4072   */\n      dup3\n        /* \"#utility.yul\":4049:4073   */\n      tag_121\n      jump\t// in\n    tag_120:\n        /* \"#utility.yul\":4038:4073   */\n      swap1\n      pop\n        /* \"#utility.yul\":3983:4079   */\n      swap2\n      swap1\n      pop\n      jump\t// out\n        /* \"#utility.yul\":4085:4211   */\n    tag_121:\n        /* \"#utility.yul\":4122:4129   */\n      0x00\n        /* \"#utility.yul\":4162:4204   */\n      0xffffffffffffffffffffffffffffffffffffffff\n        /* \"#utility.yul\":4155:4160   */\n      dup3\n        /* \"#utility.yul\":4151:4205   */\n      and\n        /* \"#utility.yul\":4140:4205   */\n      swap1\n      pop\n        /* \"#utility.yul\":4085:4211   */\n      swap2\n      swap1\n      pop\n      jump\t// out\n        /* \"#utility.yul\":4217:4294   */\n    tag_99:\n        /* \"#utility.yul\":4254:4261   */\n      0x00\n        /* \"#utility.yul\":4283:4288   */\n      dup2\n        /* \"#utility.yul\":4272:4288   */\n      swap1\n      pop\n        /* \"#utility.yul\":4217:4294   */\n      swap2\n      swap1\n      pop\n      jump\t// out\n        /* \"#utility.yul\":4300:4454   */\n    tag_59:\n        /* \"#utility.yul\":4384:4390   */\n      dup3\n        /* \"#utility.yul\":4379:4382   */\n      dup2\n        /* \"#utility.yul\":4374:4377   */\n      dup4\n        /* \"#utility.yul\":4361:4391   */\n      calldatacopy\n        /* \"#utility.yul\":4446:4447   */\n      0x00\n        /* \"#utility.yul\":4437:4443   */\n      dup4\n        /* \"#utility.yul\":4432:4435   */\n      dup4\n        /* \"#utility.yul\":4428:4444   */\n      add\n        /* \"#utility.yul\":4421:4448   */\n      mstore\n        /* \"#utility.yul\":4300:4454   */\n      pop\n      pop\n      pop\n      jump\t// out\n        /* \"#utility.yul\":4460:4767   */\n    tag_93:\n        /* \"#utility.yul\":4528:4529   */\n      0x00\n        /* \"#utility.yul\":4538:4651   */\n    tag_126:\n        /* \"#utility.yul\":4552:4558   */\n      dup4\n        /* \"#utility.yul\":4549:4550   */\n      dup2\n        /* \"#utility.yul\":4546:4559   */\n      lt\n        /* \"#utility.yul\":4538:4651   */\n      iszero\n      tag_128\n      jumpi\n        /* \"#utility.yul\":4637:4638   */\n      dup1\n        /* \"#utility.yul\":4632:4635   */\n      dup3\n        /* \"#utility.yul\":4628:4639   */\n      add\n        /* \"#utility.yul\":4622:4640   */\n      mload\n        /* \"#utility.yul\":4618:4619   */\n      dup2\n        /* \"#utility.yul\":4613:4616   */\n      dup5\n        /* \"#utility.yul\":4609:4620   */\n      add\n        /* \"#utility.yul\":4602:4641   */\n      mstore\n        /* \"#utility.yul\":4574:4576   */\n      0x20\n        /* \"#utility.yul\":4571:4572   */\n      dup2\n        /* \"#utility.yul\":4567:4577   */\n      add\n        /* \"#utility.yul\":4562:4577   */\n      swap1\n      pop\n        /* \"#utility.yul\":4538:4651   */\n      jump(tag_126)\n    tag_128:\n        /* \"#utility.yul\":4669:4675   */\n      dup4\n        /* \"#utility.yul\":4666:4667   */\n      dup2\n        /* \"#utility.yul\":4663:4676   */\n      gt\n        /* \"#utility.yul\":4660:4761   */\n      iszero\n      tag_129\n      jumpi\n        /* \"#utility.yul\":4749:4750   */\n      0x00\n        /* \"#utility.yul\":4740:4746   */\n      dup5\n        /* \"#utility.yul\":4735:4738   */\n      dup5\n        /* \"#utility.yul\":4731:4747   */\n      add\n        /* \"#utility.yul\":4724:4751   */\n      mstore\n        /* \"#utility.yul\":4660:4761   */\n    tag_129:\n        /* \"#utility.yul\":4509:4767   */\n      pop\n        /* \"#utility.yul\":4460:4767   */\n      pop\n      pop\n      pop\n      jump\t// out\n        /* \"#utility.yul\":4773:5093   */\n    tag_32:\n        /* \"#utility.yul\":4817:4823   */\n      0x00\n        /* \"#utility.yul\":4854:4855   */\n      0x02\n        /* \"#utility.yul\":4848:4852   */\n      dup3\n        /* \"#utility.yul\":4844:4856   */\n      div\n        /* \"#utility.yul\":4834:4856   */\n      swap1\n      pop\n        /* \"#utility.yul\":4901:4902   */\n      0x01\n        /* \"#utility.yul\":4895:4899   */\n      dup3\n        /* \"#utility.yul\":4891:4903   */\n      and\n        /* \"#utility.yul\":4922:4940   */\n      dup1\n        /* \"#utility.yul\":4912:4993   */\n      tag_131\n      jumpi\n        /* \"#utility.yul\":4978:4982   */\n      0x7f\n        /* \"#utility.yul\":4970:4976   */\n      dup3\n        /* \"#utility.yul\":4966:4983   */\n      and\n        /* \"#utility.yul\":4956:4983   */\n      swap2\n      pop\n        /* \"#utility.yul\":4912:4993   */\n    tag_131:\n        /* \"#utility.yul\":5040:5042   */\n      0x20\n        /* \"#utility.yul\":5032:5038   */\n      dup3\n        /* \"#utility.yul\":5029:5043   */\n      lt\n        /* \"#utility.yul\":5009:5027   */\n      dup2\n        /* \"#utility.yul\":5006:5044   */\n      eq\n        /* \"#utility.yul\":5003:5087   */\n      iszero\n      tag_132\n      jumpi\n        /* \"#utility.yul\":5059:5077   */\n      tag_133\n      tag_134\n      jump\t// in\n    tag_133:\n        /* \"#utility.yul\":5003:5087   */\n    tag_132:\n        /* \"#utility.yul\":4824:5093   */\n      pop\n        /* \"#utility.yul\":4773:5093   */\n      swap2\n      swap1\n      pop\n      jump\t// out\n        /* \"#utility.yul\":5099:5380   */\n    tag_110:\n        /* \"#utility.yul\":5182:5209   */\n      tag_136\n        /* \"#utility.yul\":5204:5208   */\n      dup3\n        /* \"#utility.yul\":5182:5209   */\n      tag_95\n      jump\t// in\n    tag_136:\n        /* \"#utility.yul\":5174:5180   */\n      dup2\n        /* \"#utility.yul\":5170:5210   */\n      add\n        /* \"#utility.yul\":5312:5318   */\n      dup2\n        /* \"#utility.yul\":5300:5310   */\n      dup2\n        /* \"#utility.yul\":5297:5319   */\n      lt\n        /* \"#utility.yul\":5276:5294   */\n      0xffffffffffffffff\n        /* \"#utility.yul\":5264:5274   */\n      dup3\n        /* \"#utility.yul\":5261:5295   */\n      gt\n        /* \"#utility.yul\":5258:5320   */\n      or\n        /* \"#utility.yul\":5255:5343   */\n      iszero\n      tag_137\n      jumpi\n        /* \"#utility.yul\":5323:5341   */\n      tag_138\n      tag_115\n      jump\t// in\n    tag_138:\n        /* \"#utility.yul\":5255:5343   */\n    tag_137:\n        /* \"#utility.yul\":5363:5373   */\n      dup1\n        /* \"#utility.yul\":5359:5361   */\n      0x40\n        /* \"#utility.yul\":5352:5374   */\n      mstore\n        /* \"#utility.yul\":5142:5380   */\n      pop\n        /* \"#utility.yul\":5099:5380   */\n      pop\n      pop\n      jump\t// out\n        /* \"#utility.yul\":5386:5566   */\n    tag_134:\n        /* \"#utility.yul\":5434:5511   */\n      0x4e487b7100000000000000000000000000000000000000000000000000000000\n        /* \"#utility.yul\":5431:5432   */\n      0x00\n        /* \"#utility.yul\":5424:5512   */\n      mstore\n        /* \"#utility.yul\":5531:5535   */\n      0x22\n        /* \"#utility.yul\":5528:5529   */\n      0x04\n        /* \"#utility.yul\":5521:5536   */\n      mstore\n        /* \"#utility.yul\":5555:5559   */\n      0x24\n        /* \"#utility.yul\":5552:5553   */\n      0x00\n        /* \"#utility.yul\":5545:5560   */\n      revert\n        /* \"#utility.yul\":5572:5752   */\n    tag_115:\n        /* \"#utility.yul\":5620:5697   */\n      0x4e487b7100000000000000000000000000000000000000000000000000000000\n        /* \"#utility.yul\":5617:5618   */\n      0x00\n        /* \"#utility.yul\":5610:5698   */\n      mstore\n        /* \"#utility.yul\":5717:5721   */\n      0x41\n        /* \"#utility.yul\":5714:5715   */\n      0x04\n        /* \"#utility.yul\":5707:5722   */\n      mstore\n        /* \"#utility.yul\":5741:5745   */\n      0x24\n        /* \"#utility.yul\":5738:5739   */\n      0x00\n        /* \"#utility.yul\":5731:5746   */\n      revert\n        /* \"#utility.yul\":5758:5875   */\n    tag_64:\n        /* \"#utility.yul\":5867:5868   */\n      0x00\n        /* \"#utility.yul\":5864:5865   */\n      dup1\n        /* \"#utility.yul\":5857:5869   */\n      revert\n        /* \"#utility.yul\":5881:5998   */\n    tag_57:\n        /* \"#utility.yul\":5990:5991   */\n      0x00\n        /* \"#utility.yul\":5987:5988   */\n      dup1\n        /* \"#utility.yul\":5980:5992   */\n      revert\n        /* \"#utility.yul\":6004:6121   */\n    tag_76:\n        /* \"#utility.yul\":6113:6114   */\n      0x00\n        /* \"#utility.yul\":6110:6111   */\n      dup1\n        /* \"#utility.yul\":6103:6115   */\n      revert\n        /* \"#utility.yul\":6127:6244   */\n    tag_73:\n        /* \"#utility.yul\":6236:6237   */\n      0x00\n        /* \"#utility.yul\":6233:6234   */\n      dup1\n        /* \"#utility.yul\":6226:6238   */\n      revert\n        /* \"#utility.yul\":6250:6352   */\n    tag_95:\n        /* \"#utility.yul\":6291:6297   */\n      0x00\n        /* \"#utility.yul\":6342:6344   */\n      0x1f\n        /* \"#utility.yul\":6338:6345   */\n      not\n        /* \"#utility.yul\":6333:6335   */\n      0x1f\n        /* \"#utility.yul\":6326:6331   */\n      dup4\n        /* \"#utility.yul\":6322:6336   */\n      add\n        /* \"#utility.yul\":6318:6346   */\n      and\n        /* \"#utility.yul\":6308:6346   */\n      swap1\n      pop\n        /* \"#utility.yul\":6250:6352   */\n      swap2\n      swap1\n      pop\n      jump\t// out\n        /* \"#utility.yul\":6358:6480   */\n    tag_69:\n        /* \"#utility.yul\":6431:6455   */\n      tag_147\n        /* \"#utility.yul\":6449:6454   */\n      dup2\n        /* \"#utility.yul\":6431:6455   */\n      tag_99\n      jump\t// in\n    tag_147:\n        /* \"#utility.yul\":6424:6429   */\n      dup2\n        /* \"#utility.yul\":6421:6456   */\n      eq\n        /* \"#utility.yul\":6411:6474   */\n      tag_148\n      jumpi\n        /* \"#utility.yul\":6470:6471   */\n      0x00\n        /* \"#utility.yul\":6467:6468   */\n      dup1\n        /* \"#utility.yul\":6460:6472   */\n      revert\n        /* \"#utility.yul\":6411:6474   */\n    tag_148:\n        /* \"#utility.yul\":6358:6480   */\n      pop\n      jump\t// out\n\n    auxdata: 0xa2646970667358221220a83a1d646c81d4e22a758c986a3ff6cdb9280a20a876ee6ad8a084a62884070764736f6c63430008070033\n}\n",
				"bytecode": {
					"linkReferences": {},
					"object": "608060405234801561001057600080fd5b5061063c806100206000396000f3fe608060405234801561001057600080fd5b50600436106100575760003560e01c806339a090c91461005c57806373009ea11461007a578063b69ef8a814610096578063e534155d146100b4578063fb1669ca146100d2575b600080fd5b6100646100ee565b60405161007191906103c1565b60405180910390f35b610094600480360381019061008f91906102f4565b610114565b005b61009e61012e565b6040516100ab91906103fe565b60405180910390f35b6100bc610134565b6040516100c991906103dc565b60405180910390f35b6100ec60048036038101906100e7919061033d565b6101c2565b005b600260009054906101000a900473ffffffffffffffffffffffffffffffffffffffff1681565b806001908051906020019061012a9291906101cc565b5050565b60005481565b6001805461014190610509565b80601f016020809104026020016040519081016040528092919081815260200182805461016d90610509565b80156101ba5780601f1061018f576101008083540402835291602001916101ba565b820191906000526020600020905b81548152906001019060200180831161019d57829003601f168201915b505050505081565b8060008190555050565b8280546101d890610509565b90600052602060002090601f0160209004810192826101fa5760008555610241565b82601f1061021357805160ff1916838001178555610241565b82800160010185558215610241579182015b82811115610240578251825591602001919060010190610225565b5b50905061024e9190610252565b5090565b5b8082111561026b576000816000905550600101610253565b5090565b600061028261027d8461043e565b610419565b90508281526020810184848401111561029e5761029d6105cf565b5b6102a98482856104c7565b509392505050565b600082601f8301126102c6576102c56105ca565b5b81356102d684826020860161026f565b91505092915050565b6000813590506102ee816105ef565b92915050565b60006020828403121561030a576103096105d9565b5b600082013567ffffffffffffffff811115610328576103276105d4565b5b610334848285016102b1565b91505092915050565b600060208284031215610353576103526105d9565b5b6000610361848285016102df565b91505092915050565b6103738161048b565b82525050565b60006103848261046f565b61038e818561047a565b935061039e8185602086016104d6565b6103a7816105de565b840191505092915050565b6103bb816104bd565b82525050565b60006020820190506103d6600083018461036a565b92915050565b600060208201905081810360008301526103f68184610379565b905092915050565b600060208201905061041360008301846103b2565b92915050565b6000610423610434565b905061042f828261053b565b919050565b6000604051905090565b600067ffffffffffffffff8211156104595761045861059b565b5b610462826105de565b9050602081019050919050565b600081519050919050565b600082825260208201905092915050565b60006104968261049d565b9050919050565b600073ffffffffffffffffffffffffffffffffffffffff82169050919050565b6000819050919050565b82818337600083830152505050565b60005b838110156104f45780820151818401526020810190506104d9565b83811115610503576000848401525b50505050565b6000600282049050600182168061052157607f821691505b602082108114156105355761053461056c565b5b50919050565b610544826105de565b810181811067ffffffffffffffff821117156105635761056261059b565b5b80604052505050565b7f4e487b7100000000000000000000000000000000000000000000000000000000600052602260045260246000fd5b7f4e487b7100000000000000000000000000000000000000000000000000000000600052604160045260246000fd5b600080fd5b600080fd5b600080fd5b600080fd5b6000601f19601f8301169050919050565b6105f8816104bd565b811461060357600080fd5b5056fea2646970667358221220a83a1d646c81d4e22a758c986a3ff6cdb9280a20a876ee6ad8a084a62884070764736f6c63430008070033",
					"opcodes": "PUSH1 0x80 PUSH1 0x40 MSTORE CALLVALUE DUP1 ISZERO PUSH2 0x10 JUMPI PUSH1 0x0 DUP1 REVERT JUMPDEST POP PUSH2 0x63C DUP1 PUSH2 0x20 PUSH1 0x0 CODECOPY PUSH1 0x0 RETURN INVALID PUSH1 0x80 PUSH1 0x40 MSTORE CALLVALUE DUP1 ISZERO PUSH2 0x10 JUMPI PUSH1 0x0 DUP1 REVERT JUMPDEST POP PUSH1 0x4 CALLDATASIZE LT PUSH2 0x57 JUMPI PUSH1 0x0 CALLDATALOAD PUSH1 0xE0 SHR DUP1 PUSH4 0x39A090C9 EQ PUSH2 0x5C JUMPI DUP1 PUSH4 0x73009EA1 EQ PUSH2 0x7A JUMPI DUP1 PUSH4 0xB69EF8A8 EQ PUSH2 0x96 JUMPI DUP1 PUSH4 0xE534155D EQ PUSH2 0xB4 JUMPI DUP1 PUSH4 0xFB1669CA EQ PUSH2 0xD2 JUMPI JUMPDEST PUSH1 0x0 DUP1 REVERT JUMPDEST PUSH2 0x64 PUSH2 0xEE JUMP JUMPDEST PUSH1 0x40 MLOAD PUSH2 0x71 SWAP2 SWAP1 PUSH2 0x3C1 JUMP JUMPDEST PUSH1 0x40 MLOAD DUP1 SWAP2 SUB SWAP1 RETURN JUMPDEST PUSH2 0x94 PUSH1 0x4 DUP1 CALLDATASIZE SUB DUP2 ADD SWAP1 PUSH2 0x8F SWAP2 SWAP1 PUSH2 0x2F4 JUMP JUMPDEST PUSH2 0x114 JUMP JUMPDEST STOP JUMPDEST PUSH2 0x9E PUSH2 0x12E JUMP JUMPDEST PUSH1 0x40 MLOAD PUSH2 0xAB SWAP2 SWAP1 PUSH2 0x3FE JUMP JUMPDEST PUSH1 0x40 MLOAD DUP1 SWAP2 SUB SWAP1 RETURN JUMPDEST PUSH2 0xBC PUSH2 0x134 JUMP JUMPDEST PUSH1 0x40 MLOAD PUSH2 0xC9 SWAP2 SWAP1 PUSH2 0x3DC JUMP JUMPDEST PUSH1 0x40 MLOAD DUP1 SWAP2 SUB SWAP1 RETURN JUMPDEST PUSH2 0xEC PUSH1 0x4 DUP1 CALLDATASIZE SUB DUP2 ADD SWAP1 PUSH2 0xE7 SWAP2 SWAP1 PUSH2 0x33D JUMP JUMPDEST PUSH2 0x1C2 JUMP JUMPDEST STOP JUMPDEST PUSH1 0x2 PUSH1 0x0 SWAP1 SLOAD SWAP1 PUSH2 0x100 EXP SWAP1 DIV PUSH20 0xFFFFFFFFFFFFFFFFFFFFFFFFFFFFFFFFFFFFFFFF AND DUP2 JUMP JUMPDEST DUP1 PUSH1 0x1 SWAP1 DUP1 MLOAD SWAP1 PUSH1 0x20 ADD SWAP1 PUSH2 0x12A SWAP3 SWAP2 SWAP1 PUSH2 0x1CC JUMP JUMPDEST POP POP JUMP JUMPDEST PUSH1 0x0 SLOAD DUP2 JUMP JUMPDEST PUSH1 0x1 DUP1 SLOAD PUSH2 0x141 SWAP1 PUSH2 0x509 JUMP JUMPDEST DUP1 PUSH1 0x1F ADD PUSH1 0x20 DUP1 SWAP2 DIV MUL PUSH1 0x20 ADD PUSH1 0x40 MLOAD SWAP1 DUP2 ADD PUSH1 0x40 MSTORE DUP1 SWAP3 SWAP2 SWAP1 DUP2 DUP2 MSTORE PUSH1 0x20 ADD DUP3 DUP1 SLOAD PUSH2 0x16D SWAP1 PUSH2 0x509 JUMP JUMPDEST DUP1 ISZERO PUSH2 0x1BA JUMPI DUP1 PUSH1 0x1F LT PUSH2 0x18F JUMPI PUSH2 0x100 DUP1 DUP4 SLOAD DIV MUL DUP4 MSTORE SWAP2 PUSH1 0x20 ADD SWAP2 PUSH2 0x1BA JUMP JUMPDEST DUP3 ADD SWAP2 SWAP1 PUSH1 0x0 MSTORE PUSH1 0x20 PUSH1 0x0 KECCAK256 SWAP1 JUMPDEST DUP2 SLOAD DUP2 MSTORE SWAP1 PUSH1 0x1 ADD SWAP1 PUSH1 0x20 ADD DUP1 DUP4 GT PUSH2 0x19D JUMPI DUP3 SWAP1 SUB PUSH1 0x1F AND DUP3 ADD SWAP2 JUMPDEST POP POP POP POP POP DUP2 JUMP JUMPDEST DUP1 PUSH1 0x0 DUP2 SWAP1 SSTORE POP POP JUMP JUMPDEST DUP3 DUP1 SLOAD PUSH2 0x1D8 SWAP1 PUSH2 0x509 JUMP JUMPDEST SWAP1 PUSH1 0x0 MSTORE PUSH1 0x20 PUSH1 0x0 KECCAK256 SWAP1 PUSH1 0x1F ADD PUSH1 0x20 SWAP1 DIV DUP2 ADD SWAP3 DUP3 PUSH2 0x1FA JUMPI PUSH1 0x0 DUP6 SSTORE PUSH2 0x241 JUMP JUMPDEST DUP3 PUSH1 0x1F LT PUSH2 0x213 JUMPI DUP1 MLOAD PUSH1 0xFF NOT AND DUP4 DUP1 ADD OR DUP6 SSTORE PUSH2 0x241 JUMP JUMPDEST DUP3 DUP1 ADD PUSH1 0x1 ADD DUP6 SSTORE DUP3 ISZERO PUSH2 0x241 JUMPI SWAP2 DUP3 ADD JUMPDEST DUP3 DUP2 GT ISZERO PUSH2 0x240 JUMPI DUP3 MLOAD DUP3 SSTORE SWAP2 PUSH1 0x20 ADD SWAP2 SWAP1 PUSH1 0x1 ADD SWAP1 PUSH2 0x225 JUMP JUMPDEST JUMPDEST POP SWAP1 POP PUSH2 0x24E SWAP2 SWAP1 PUSH2 0x252 JUMP JUMPDEST POP SWAP1 JUMP JUMPDEST JUMPDEST DUP1 DUP3 GT ISZERO PUSH2 0x26B JUMPI PUSH1 0x0 DUP2 PUSH1 0x0 SWAP1 SSTORE POP PUSH1 0x1 ADD PUSH2 0x253 JUMP JUMPDEST POP SWAP1 JUMP JUMPDEST PUSH1 0x0 PUSH2 0x282 PUSH2 0x27D DUP5 PUSH2 0x43E JUMP JUMPDEST PUSH2 0x419 JUMP JUMPDEST SWAP1 POP DUP3 DUP2 MSTORE PUSH1 0x20 DUP2 ADD DUP5 DUP5 DUP5 ADD GT ISZERO PUSH2 0x29E JUMPI PUSH2 0x29D PUSH2 0x5CF JUMP JUMPDEST JUMPDEST PUSH2 0x2A9 DUP5 DUP3 DUP6 PUSH2 0x4C7 JUMP JUMPDEST POP SWAP4 SWAP3 POP POP POP JUMP JUMPDEST PUSH1 0x0 DUP3 PUSH1 0x1F DUP4 ADD SLT PUSH2 0x2C6 JUMPI PUSH2 0x2C5 PUSH2 0x5CA JUMP JUMPDEST JUMPDEST DUP2 CALLDATALOAD PUSH2 0x2D6 DUP5 DUP3 PUSH1 0x20 DUP7 ADD PUSH2 0x26F JUMP JUMPDEST SWAP2 POP POP SWAP3 SWAP2 POP POP JUMP JUMPDEST PUSH1 0x0 DUP2 CALLDATALOAD SWAP1 POP PUSH2 0x2EE DUP2 PUSH2 0x5EF JUMP JUMPDEST SWAP3 SWAP2 POP POP JUMP JUMPDEST PUSH1 0x0 PUSH1 0x20 DUP3 DUP5 SUB SLT ISZERO PUSH2 0x30A JUMPI PUSH2 0x309 PUSH2 0x5D9 JUMP JUMPDEST JUMPDEST PUSH1 0x0 DUP3 ADD CALLDATALOAD PUSH8 0xFFFFFFFFFFFFFFFF DUP2 GT ISZERO PUSH2 0x328 JUMPI PUSH2 0x327 PUSH2 0x5D4 JUMP JUMPDEST JUMPDEST PUSH2 0x334 DUP5 DUP3 DUP6 ADD PUSH2 0x2B1 JUMP JUMPDEST SWAP2 POP POP SWAP3 SWAP2 POP POP JUMP JUMPDEST PUSH1 0x0 PUSH1 0x20 DUP3 DUP5 SUB SLT ISZERO PUSH2 0x353 JUMPI PUSH2 0x352 PUSH2 0x5D9 JUMP JUMPDEST JUMPDEST PUSH1 0x0 PUSH2 0x361 DUP5 DUP3 DUP6 ADD PUSH2 0x2DF JUMP JUMPDEST SWAP2 POP POP SWAP3 SWAP2 POP POP JUMP JUMPDEST PUSH2 0x373 DUP2 PUSH2 0x48B JUMP JUMPDEST DUP3 MSTORE POP POP JUMP JUMPDEST PUSH1 0x0 PUSH2 0x384 DUP3 PUSH2 0x46F JUMP JUMPDEST PUSH2 0x38E DUP2 DUP6 PUSH2 0x47A JUMP JUMPDEST SWAP4 POP PUSH2 0x39E DUP2 DUP6 PUSH1 0x20 DUP7 ADD PUSH2 0x4D6 JUMP JUMPDEST PUSH2 0x3A7 DUP2 PUSH2 0x5DE JUMP JUMPDEST DUP5 ADD SWAP2 POP POP SWAP3 SWAP2 POP POP JUMP JUMPDEST PUSH2 0x3BB DUP2 PUSH2 0x4BD JUMP JUMPDEST DUP3 MSTORE POP POP JUMP JUMPDEST PUSH1 0x0 PUSH1 0x20 DUP3 ADD SWAP1 POP PUSH2 0x3D6 PUSH1 0x0 DUP4 ADD DUP5 PUSH2 0x36A JUMP JUMPDEST SWAP3 SWAP2 POP POP JUMP JUMPDEST PUSH1 0x0 PUSH1 0x20 DUP3 ADD SWAP1 POP DUP2 DUP2 SUB PUSH1 0x0 DUP4 ADD MSTORE PUSH2 0x3F6 DUP2 DUP5 PUSH2 0x379 JUMP JUMPDEST SWAP1 POP SWAP3 SWAP2 POP POP JUMP JUMPDEST PUSH1 0x0 PUSH1 0x20 DUP3 ADD SWAP1 POP PUSH2 0x413 PUSH1 0x0 DUP4 ADD DUP5 PUSH2 0x3B2 JUMP JUMPDEST SWAP3 SWAP2 POP POP JUMP JUMPDEST PUSH1 0x0 PUSH2 0x423 PUSH2 0x434 JUMP JUMPDEST SWAP1 POP PUSH2 0x42F DUP3 DUP3 PUSH2 0x53B JUMP JUMPDEST SWAP2 SWAP1 POP JUMP JUMPDEST PUSH1 0x0 PUSH1 0x40 MLOAD SWAP1 POP SWAP1 JUMP JUMPDEST PUSH1 0x0 PUSH8 0xFFFFFFFFFFFFFFFF DUP3 GT ISZERO PUSH2 0x459 JUMPI PUSH2 0x458 PUSH2 0x59B JUMP JUMPDEST JUMPDEST PUSH2 0x462 DUP3 PUSH2 0x5DE JUMP JUMPDEST SWAP1 POP PUSH1 0x20 DUP2 ADD SWAP1 POP SWAP2 SWAP1 POP JUMP JUMPDEST PUSH1 0x0 DUP2 MLOAD SWAP1 POP SWAP2 SWAP1 POP JUMP JUMPDEST PUSH1 0x0 DUP3 DUP3 MSTORE PUSH1 0x20 DUP3 ADD SWAP1 POP SWAP3 SWAP2 POP POP JUMP JUMPDEST PUSH1 0x0 PUSH2 0x496 DUP3 PUSH2 0x49D JUMP JUMPDEST SWAP1 POP SWAP2 SWAP1 POP JUMP JUMPDEST PUSH1 0x0 PUSH20 0xFFFFFFFFFFFFFFFFFFFFFFFFFFFFFFFFFFFFFFFF DUP3 AND SWAP1 POP SWAP2 SWAP1 POP JUMP JUMPDEST PUSH1 0x0 DUP2 SWAP1 POP SWAP2 SWAP1 POP JUMP JUMPDEST DUP3 DUP2 DUP4 CALLDATACOPY PUSH1 0x0 DUP4 DUP4 ADD MSTORE POP POP POP JUMP JUMPDEST PUSH1 0x0 JUMPDEST DUP4 DUP2 LT ISZERO PUSH2 0x4F4 JUMPI DUP1 DUP3 ADD MLOAD DUP2 DUP5 ADD MSTORE PUSH1 0x20 DUP2 ADD SWAP1 POP PUSH2 0x4D9 JUMP JUMPDEST DUP4 DUP2 GT ISZERO PUSH2 0x503 JUMPI PUSH1 0x0 DUP5 DUP5 ADD MSTORE JUMPDEST POP POP POP POP JUMP JUMPDEST PUSH1 0x0 PUSH1 0x2 DUP3 DIV SWAP1 POP PUSH1 0x1 DUP3 AND DUP1 PUSH2 0x521 JUMPI PUSH1 0x7F DUP3 AND SWAP2 POP JUMPDEST PUSH1 0x20 DUP3 LT DUP2 EQ ISZERO PUSH2 0x535 JUMPI PUSH2 0x534 PUSH2 0x56C JUMP JUMPDEST JUMPDEST POP SWAP2 SWAP1 POP JUMP JUMPDEST PUSH2 0x544 DUP3 PUSH2 0x5DE JUMP JUMPDEST DUP2 ADD DUP2 DUP2 LT PUSH8 0xFFFFFFFFFFFFFFFF DUP3 GT OR ISZERO PUSH2 0x563 JUMPI PUSH2 0x562 PUSH2 0x59B JUMP JUMPDEST JUMPDEST DUP1 PUSH1 0x40 MSTORE POP POP POP JUMP JUMPDEST PUSH32 0x4E487B7100000000000000000000000000000000000000000000000000000000 PUSH1 0x0 MSTORE PUSH1 0x22 PUSH1 0x4 MSTORE PUSH1 0x24 PUSH1 0x0 REVERT JUMPDEST PUSH32 0x4E487B7100000000000000000000000000000000000000000000000000000000 PUSH1 0x0 MSTORE PUSH1 0x41 PUSH1 0x4 MSTORE PUSH1 0x24 PUSH1 0x0 REVERT JUMPDEST PUSH1 0x0 DUP1 REVERT JUMPDEST PUSH1 0x0 DUP1 REVERT JUMPDEST PUSH1 0x0 DUP1 REVERT JUMPDEST PUSH1 0x0 DUP1 REVERT JUMPDEST PUSH1 0x0 PUSH1 0x1F NOT PUSH1 0x1F DUP4 ADD AND SWAP1 POP SWAP2 SWAP1 POP JUMP JUMPDEST PUSH2 0x5F8 DUP2 PUSH2 0x4BD JUMP JUMPDEST DUP2 EQ PUSH2 0x603 JUMPI PUSH1 0x0 DUP1 REVERT JUMPDEST POP JUMP INVALID LOG2 PUSH5 0x6970667358 0x22 SLT KECCAK256 0xA8 GASPRICE SAR PUSH5 0x6C81D4E22A PUSH22 0x8C986A3FF6CDB9280A20A876EE6AD8A084A628840707 PUSH5 0x736F6C6343 STOP ADDMOD SMOD STOP CALLER "
				},
				"gasEstimates": {
					"creation": {
						"codeDepositCost": "319200",
						"executionCost": "355",
						"totalCost": "319555"
					},
					"external": {
						"Id()": "2492",
						"balance()": "2451",
						"holder()": "infinite",
						"setBalance(uint256)": "22586",
						"setHolder(string)": "infinite"
					}
				},
				"methodIdentifiers": {
					"Id()": "39a090c9",
					"balance()": "b69ef8a8",
					"holder()": "e534155d",
					"setBalance(uint256)": "fb1669ca",
					"setHolder(string)": "73009ea1"
				}
			},
			"storageLayout": {
				"storage": [
					{
						"astId": 3,
						"contract": "Constructor.sol:Bank",
						"label": "balance",
						"offset": 0,
						"slot": "0",
						"type": "t_uint256"
					},
					{
						"astId": 5,
						"contract": "Constructor.sol:Bank",
						"label": "holder",
						"offset": 0,
						"slot": "1",
						"type": "t_string_storage"
					},
					{
						"astId": 7,
						"contract": "Constructor.sol:Bank",
						"label": "Id",
						"offset": 0,
						"slot": "2",
						"type": "t_address"
					}
				],
				"types": {
					"t_address": {
						"encoding": "inplace",
						"label": "address",
						"numberOfBytes": "20"
					},
					"t_string_storage": {
						"encoding": "bytes",
						"label": "string",
						"numberOfBytes": "32"
					},
					"t_uint256": {
						"encoding": "inplace",
						"label": "uint256",
						"numberOfBytes": "32"
					}
				}
			},
			"userdoc": {
				"kind": "user",
				"methods": {},
				"version": 1
			}
		}
	}
}