{
	"Structs.sol": {
		"Struct": {
			"abi": [
				{
					"inputs": [
						{
							"internalType": "string",
							"name": "_name",
							"type": "string"
						}
					],
					"name": "createTodo",
					"outputs": [],
					"stateMutability": "nonpayable",
					"type": "function"
				},
				{
					"inputs": [
						{
							"internalType": "uint256",
							"name": "",
							"type": "uint256"
						}
					],
					"name": "todos",
					"outputs": [
						{
							"internalType": "string",
							"name": "name",
							"type": "string"
						},
						{
							"internalType": "bool",
							"name": "completed",
							"type": "bool"
						}
					],
					"stateMutability": "view",
					"type": "function"
				},
				{
					"inputs": [
						{
							"internalType": "uint256",
							"name": "_i",
							"type": "uint256"
						},
						{
							"internalType": "string",
							"name": "_name",
							"type": "string"
						}
					],
					"name": "updateTodo",
					"outputs": [],
					"stateMutability": "nonpayable",
					"type": "function"
				}
			],
			"devdoc": {
				"kind": "dev",
				"methods": {},
				"version": 1
			},
			"evm": {
				"assembly": "    /* \"Structs.sol\":61:1114  contract Struct {\r... */\n  mstore(0x40, 0x80)\n  callvalue\n  dup1\n  iszero\n  tag_1\n  jumpi\n  0x00\n  dup1\n  revert\ntag_1:\n  pop\n  dataSize(sub_0)\n  dup1\n  dataOffset(sub_0)\n  0x00\n  codecopy\n  0x00\n  return\nstop\n\nsub_0: assembly {\n        /* \"Structs.sol\":61:1114  contract Struct {\r... */\n      mstore(0x40, 0x80)\n      callvalue\n      dup1\n      iszero\n      tag_1\n      jumpi\n      0x00\n      dup1\n      revert\n    tag_1:\n      pop\n      jumpi(tag_2, lt(calldatasize, 0x04))\n      shr(0xe0, calldataload(0x00))\n      dup1\n      0xbc8bc2b4\n      eq\n      tag_3\n      jumpi\n      dup1\n      0xd534ee88\n      eq\n      tag_4\n      jumpi\n      dup1\n      0xe34f1221\n      eq\n      tag_5\n      jumpi\n    tag_2:\n      0x00\n      dup1\n      revert\n        /* \"Structs.sol\":279:302  TodoItem[] public todos */\n    tag_3:\n      tag_6\n      0x04\n      dup1\n      calldatasize\n      sub\n      dup2\n      add\n      swap1\n      tag_7\n      swap2\n      swap1\n      tag_8\n      jump\t// in\n    tag_7:\n      tag_9\n      jump\t// in\n    tag_6:\n      mload(0x40)\n      tag_10\n      swap3\n      swap2\n      swap1\n      tag_11\n      jump\t// in\n    tag_10:\n      mload(0x40)\n      dup1\n      swap2\n      sub\n      swap1\n      return\n        /* \"Structs.sol\":909:1084  function updateTodo(uint _i, string memory _name) public{\r... */\n    tag_4:\n      tag_12\n      0x04\n      dup1\n      calldatasize\n      sub\n      dup2\n      add\n      swap1\n      tag_13\n      swap2\n      swap1\n      tag_14\n      jump\t// in\n    tag_13:\n      tag_15\n      jump\t// in\n    tag_12:\n      stop\n        /* \"Structs.sol\":313:865  function createTodo(string memory _name) public{\r... */\n    tag_5:\n      tag_16\n      0x04\n      dup1\n      calldatasize\n      sub\n      dup2\n      add\n      swap1\n      tag_17\n      swap2\n      swap1\n      tag_18\n      jump\t// in\n    tag_17:\n      tag_19\n      jump\t// in\n    tag_16:\n      stop\n        /* \"Structs.sol\":279:302  TodoItem[] public todos */\n    tag_9:\n      0x00\n      dup2\n      dup2\n      sload\n      dup2\n      lt\n      tag_20\n      jumpi\n      0x00\n      dup1\n      revert\n    tag_20:\n      swap1\n      0x00\n      mstore\n      keccak256(0x00, 0x20)\n      swap1\n      0x02\n      mul\n      add\n      0x00\n      swap2\n      pop\n      swap1\n      pop\n      dup1\n      0x00\n      add\n      dup1\n      sload\n      tag_22\n      swap1\n      tag_23\n      jump\t// in\n    tag_22:\n      dup1\n      0x1f\n      add\n      0x20\n      dup1\n      swap2\n      div\n      mul\n      0x20\n      add\n      mload(0x40)\n      swap1\n      dup2\n      add\n      0x40\n      mstore\n      dup1\n      swap3\n      swap2\n      swap1\n      dup2\n      dup2\n      mstore\n      0x20\n      add\n      dup3\n      dup1\n      sload\n      tag_24\n      swap1\n      tag_23\n      jump\t// in\n    tag_24:\n      dup1\n      iszero\n      tag_25\n      jumpi\n      dup1\n      0x1f\n      lt\n      tag_26\n      jumpi\n      0x0100\n      dup1\n      dup4\n      sload\n      div\n      mul\n      dup4\n      mstore\n      swap2\n      0x20\n      add\n      swap2\n      jump(tag_25)\n    tag_26:\n      dup3\n      add\n      swap2\n      swap1\n      0x00\n      mstore\n      keccak256(0x00, 0x20)\n      swap1\n    tag_27:\n      dup2\n      sload\n      dup2\n      mstore\n      swap1\n      0x01\n      add\n      swap1\n      0x20\n      add\n      dup1\n      dup4\n      gt\n      tag_27\n      jumpi\n      dup3\n      swap1\n      sub\n      0x1f\n      and\n      dup3\n      add\n      swap2\n    tag_25:\n      pop\n      pop\n      pop\n      pop\n      pop\n      swap1\n      dup1\n      0x01\n      add\n      0x00\n      swap1\n      sload\n      swap1\n      0x0100\n      exp\n      swap1\n      div\n      0xff\n      and\n      swap1\n      pop\n      dup3\n      jump\t// out\n        /* \"Structs.sol\":909:1084  function updateTodo(uint _i, string memory _name) public{\r... */\n    tag_15:\n        /* \"Structs.sol\":1069:1074  _name */\n      dup1\n        /* \"Structs.sol\":1052:1057  todos */\n      0x00\n        /* \"Structs.sol\":1058:1060  _i */\n      dup4\n        /* \"Structs.sol\":1052:1061  todos[_i] */\n      dup2\n      sload\n      dup2\n      lt\n      tag_29\n      jumpi\n      tag_30\n      tag_31\n      jump\t// in\n    tag_30:\n    tag_29:\n      swap1\n      0x00\n      mstore\n      keccak256(0x00, 0x20)\n      swap1\n      0x02\n      mul\n      add\n        /* \"Structs.sol\":1052:1066  todos[_i].name */\n      0x00\n      add\n        /* \"Structs.sol\":1052:1074  todos[_i].name = _name */\n      swap1\n      dup1\n      mload\n      swap1\n      0x20\n      add\n      swap1\n      tag_33\n      swap3\n      swap2\n      swap1\n      tag_34\n      jump\t// in\n    tag_33:\n      pop\n        /* \"Structs.sol\":909:1084  function updateTodo(uint _i, string memory _name) public{\r... */\n      pop\n      pop\n      jump\t// out\n        /* \"Structs.sol\":313:865  function createTodo(string memory _name) public{\r... */\n    tag_19:\n        /* \"Structs.sol\":475:480  todos */\n      0x00\n        /* \"Structs.sol\":486:507  TodoItem(_name, true) */\n      mload(0x40)\n      dup1\n      0x40\n      add\n      0x40\n      mstore\n      dup1\n        /* \"Structs.sol\":495:500  _name */\n      dup4\n        /* \"Structs.sol\":486:507  TodoItem(_name, true) */\n      dup2\n      mstore\n      0x20\n      add\n        /* \"Structs.sol\":502:506  true */\n      0x01\n        /* \"Structs.sol\":486:507  TodoItem(_name, true) */\n      iszero\n      iszero\n      dup2\n      mstore\n      pop\n        /* \"Structs.sol\":475:508  todos.push(TodoItem(_name, true)) */\n      swap1\n      dup1\n      0x01\n      dup2\n      sload\n      add\n      dup1\n      dup3\n      sstore\n      dup1\n      swap2\n      pop\n      pop\n      0x01\n      swap1\n      sub\n      swap1\n      0x00\n      mstore\n      keccak256(0x00, 0x20)\n      swap1\n      0x02\n      mul\n      add\n      0x00\n      swap1\n      swap2\n      swap1\n      swap2\n      swap1\n      swap2\n      pop\n      0x00\n      dup3\n      add\n      mload\n      dup2\n      0x00\n      add\n      swap1\n      dup1\n      mload\n      swap1\n      0x20\n      add\n      swap1\n      tag_37\n      swap3\n      swap2\n      swap1\n      tag_34\n      jump\t// in\n    tag_37:\n      pop\n      0x20\n      dup3\n      add\n      mload\n      dup2\n      0x01\n      add\n      exp(0x0100, 0x00)\n      dup2\n      sload\n      dup2\n      0xff\n      mul\n      not\n      and\n      swap1\n      dup4\n      iszero\n      iszero\n      mul\n      or\n      swap1\n      sstore\n      pop\n      pop\n      pop\n        /* \"Structs.sol\":313:865  function createTodo(string memory _name) public{\r... */\n      pop\n      jump\t// out\n    tag_34:\n      dup3\n      dup1\n      sload\n      tag_38\n      swap1\n      tag_23\n      jump\t// in\n    tag_38:\n      swap1\n      0x00\n      mstore\n      keccak256(0x00, 0x20)\n      swap1\n      0x1f\n      add\n      0x20\n      swap1\n      div\n      dup2\n      add\n      swap3\n      dup3\n      tag_40\n      jumpi\n      0x00\n      dup6\n      sstore\n      jump(tag_39)\n    tag_40:\n      dup3\n      0x1f\n      lt\n      tag_41\n      jumpi\n      dup1\n      mload\n      not(0xff)\n      and\n      dup4\n      dup1\n      add\n      or\n      dup6\n      sstore\n      jump(tag_39)\n    tag_41:\n      dup3\n      dup1\n      add\n      0x01\n      add\n      dup6\n      sstore\n      dup3\n      iszero\n      tag_39\n      jumpi\n      swap2\n      dup3\n      add\n    tag_42:\n      dup3\n      dup2\n      gt\n      iszero\n      tag_43\n      jumpi\n      dup3\n      mload\n      dup3\n      sstore\n      swap2\n      0x20\n      add\n      swap2\n      swap1\n      0x01\n      add\n      swap1\n      jump(tag_42)\n    tag_43:\n    tag_39:\n      pop\n      swap1\n      pop\n      tag_44\n      swap2\n      swap1\n      tag_45\n      jump\t// in\n    tag_44:\n      pop\n      swap1\n      jump\t// out\n    tag_45:\n    tag_46:\n      dup1\n      dup3\n      gt\n      iszero\n      tag_47\n      jumpi\n      0x00\n      dup2\n      0x00\n      swap1\n      sstore\n      pop\n      0x01\n      add\n      jump(tag_46)\n    tag_47:\n      pop\n      swap1\n      jump\t// out\n        /* \"#utility.yul\":7:419   */\n    tag_49:\n        /* \"#utility.yul\":85:90   */\n      0x00\n        /* \"#utility.yul\":110:176   */\n      tag_51\n        /* \"#utility.yul\":126:175   */\n      tag_52\n        /* \"#utility.yul\":168:174   */\n      dup5\n        /* \"#utility.yul\":126:175   */\n      tag_53\n      jump\t// in\n    tag_52:\n        /* \"#utility.yul\":110:176   */\n      tag_54\n      jump\t// in\n    tag_51:\n        /* \"#utility.yul\":101:176   */\n      swap1\n      pop\n        /* \"#utility.yul\":199:205   */\n      dup3\n        /* \"#utility.yul\":192:197   */\n      dup2\n        /* \"#utility.yul\":185:206   */\n      mstore\n        /* \"#utility.yul\":237:241   */\n      0x20\n        /* \"#utility.yul\":230:235   */\n      dup2\n        /* \"#utility.yul\":226:242   */\n      add\n        /* \"#utility.yul\":275:278   */\n      dup5\n        /* \"#utility.yul\":266:272   */\n      dup5\n        /* \"#utility.yul\":261:264   */\n      dup5\n        /* \"#utility.yul\":257:273   */\n      add\n        /* \"#utility.yul\":254:279   */\n      gt\n        /* \"#utility.yul\":251:363   */\n      iszero\n      tag_55\n      jumpi\n        /* \"#utility.yul\":282:361   */\n      tag_56\n      tag_57\n      jump\t// in\n    tag_56:\n        /* \"#utility.yul\":251:363   */\n    tag_55:\n        /* \"#utility.yul\":372:413   */\n      tag_58\n        /* \"#utility.yul\":406:412   */\n      dup5\n        /* \"#utility.yul\":401:404   */\n      dup3\n        /* \"#utility.yul\":396:399   */\n      dup6\n        /* \"#utility.yul\":372:413   */\n      tag_59\n      jump\t// in\n    tag_58:\n        /* \"#utility.yul\":91:419   */\n      pop\n        /* \"#utility.yul\":7:419   */\n      swap4\n      swap3\n      pop\n      pop\n      pop\n      jump\t// out\n        /* \"#utility.yul\":439:779   */\n    tag_60:\n        /* \"#utility.yul\":495:500   */\n      0x00\n        /* \"#utility.yul\":544:547   */\n      dup3\n        /* \"#utility.yul\":537:541   */\n      0x1f\n        /* \"#utility.yul\":529:535   */\n      dup4\n        /* \"#utility.yul\":525:542   */\n      add\n        /* \"#utility.yul\":521:548   */\n      slt\n        /* \"#utility.yul\":511:633   */\n      tag_62\n      jumpi\n        /* \"#utility.yul\":552:631   */\n      tag_63\n      tag_64\n      jump\t// in\n    tag_63:\n        /* \"#utility.yul\":511:633   */\n    tag_62:\n        /* \"#utility.yul\":669:675   */\n      dup2\n        /* \"#utility.yul\":656:676   */\n      calldataload\n        /* \"#utility.yul\":694:773   */\n      tag_65\n        /* \"#utility.yul\":769:772   */\n      dup5\n        /* \"#utility.yul\":761:767   */\n      dup3\n        /* \"#utility.yul\":754:758   */\n      0x20\n        /* \"#utility.yul\":746:752   */\n      dup7\n        /* \"#utility.yul\":742:759   */\n      add\n        /* \"#utility.yul\":694:773   */\n      tag_49\n      jump\t// in\n    tag_65:\n        /* \"#utility.yul\":685:773   */\n      swap2\n      pop\n        /* \"#utility.yul\":501:779   */\n      pop\n        /* \"#utility.yul\":439:779   */\n      swap3\n      swap2\n      pop\n      pop\n      jump\t// out\n        /* \"#utility.yul\":785:924   */\n    tag_66:\n        /* \"#utility.yul\":831:836   */\n      0x00\n        /* \"#utility.yul\":869:875   */\n      dup2\n        /* \"#utility.yul\":856:876   */\n      calldataload\n        /* \"#utility.yul\":847:876   */\n      swap1\n      pop\n        /* \"#utility.yul\":885:918   */\n      tag_68\n        /* \"#utility.yul\":912:917   */\n      dup2\n        /* \"#utility.yul\":885:918   */\n      tag_69\n      jump\t// in\n    tag_68:\n        /* \"#utility.yul\":785:924   */\n      swap3\n      swap2\n      pop\n      pop\n      jump\t// out\n        /* \"#utility.yul\":930:1439   */\n    tag_18:\n        /* \"#utility.yul\":999:1005   */\n      0x00\n        /* \"#utility.yul\":1048:1050   */\n      0x20\n        /* \"#utility.yul\":1036:1045   */\n      dup3\n        /* \"#utility.yul\":1027:1034   */\n      dup5\n        /* \"#utility.yul\":1023:1046   */\n      sub\n        /* \"#utility.yul\":1019:1051   */\n      slt\n        /* \"#utility.yul\":1016:1135   */\n      iszero\n      tag_71\n      jumpi\n        /* \"#utility.yul\":1054:1133   */\n      tag_72\n      tag_73\n      jump\t// in\n    tag_72:\n        /* \"#utility.yul\":1016:1135   */\n    tag_71:\n        /* \"#utility.yul\":1202:1203   */\n      0x00\n        /* \"#utility.yul\":1191:1200   */\n      dup3\n        /* \"#utility.yul\":1187:1204   */\n      add\n        /* \"#utility.yul\":1174:1205   */\n      calldataload\n        /* \"#utility.yul\":1232:1250   */\n      0xffffffffffffffff\n        /* \"#utility.yul\":1224:1230   */\n      dup2\n        /* \"#utility.yul\":1221:1251   */\n      gt\n        /* \"#utility.yul\":1218:1335   */\n      iszero\n      tag_74\n      jumpi\n        /* \"#utility.yul\":1254:1333   */\n      tag_75\n      tag_76\n      jump\t// in\n    tag_75:\n        /* \"#utility.yul\":1218:1335   */\n    tag_74:\n        /* \"#utility.yul\":1359:1422   */\n      tag_77\n        /* \"#utility.yul\":1414:1421   */\n      dup5\n        /* \"#utility.yul\":1405:1411   */\n      dup3\n        /* \"#utility.yul\":1394:1403   */\n      dup6\n        /* \"#utility.yul\":1390:1412   */\n      add\n        /* \"#utility.yul\":1359:1422   */\n      tag_60\n      jump\t// in\n    tag_77:\n        /* \"#utility.yul\":1349:1422   */\n      swap2\n      pop\n        /* \"#utility.yul\":1145:1432   */\n      pop\n        /* \"#utility.yul\":930:1439   */\n      swap3\n      swap2\n      pop\n      pop\n      jump\t// out\n        /* \"#utility.yul\":1445:1774   */\n    tag_8:\n        /* \"#utility.yul\":1504:1510   */\n      0x00\n        /* \"#utility.yul\":1553:1555   */\n      0x20\n        /* \"#utility.yul\":1541:1550   */\n      dup3\n        /* \"#utility.yul\":1532:1539   */\n      dup5\n        /* \"#utility.yul\":1528:1551   */\n      sub\n        /* \"#utility.yul\":1524:1556   */\n      slt\n        /* \"#utility.yul\":1521:1640   */\n      iszero\n      tag_79\n      jumpi\n        /* \"#utility.yul\":1559:1638   */\n      tag_80\n      tag_73\n      jump\t// in\n    tag_80:\n        /* \"#utility.yul\":1521:1640   */\n    tag_79:\n        /* \"#utility.yul\":1679:1680   */\n      0x00\n        /* \"#utility.yul\":1704:1757   */\n      tag_81\n        /* \"#utility.yul\":1749:1756   */\n      dup5\n        /* \"#utility.yul\":1740:1746   */\n      dup3\n        /* \"#utility.yul\":1729:1738   */\n      dup6\n        /* \"#utility.yul\":1725:1747   */\n      add\n        /* \"#utility.yul\":1704:1757   */\n      tag_66\n      jump\t// in\n    tag_81:\n        /* \"#utility.yul\":1694:1757   */\n      swap2\n      pop\n        /* \"#utility.yul\":1650:1767   */\n      pop\n        /* \"#utility.yul\":1445:1774   */\n      swap3\n      swap2\n      pop\n      pop\n      jump\t// out\n        /* \"#utility.yul\":1780:2434   */\n    tag_14:\n        /* \"#utility.yul\":1858:1864   */\n      0x00\n        /* \"#utility.yul\":1866:1872   */\n      dup1\n        /* \"#utility.yul\":1915:1917   */\n      0x40\n        /* \"#utility.yul\":1903:1912   */\n      dup4\n        /* \"#utility.yul\":1894:1901   */\n      dup6\n        /* \"#utility.yul\":1890:1913   */\n      sub\n        /* \"#utility.yul\":1886:1918   */\n      slt\n        /* \"#utility.yul\":1883:2002   */\n      iszero\n      tag_83\n      jumpi\n        /* \"#utility.yul\":1921:2000   */\n      tag_84\n      tag_73\n      jump\t// in\n    tag_84:\n        /* \"#utility.yul\":1883:2002   */\n    tag_83:\n        /* \"#utility.yul\":2041:2042   */\n      0x00\n        /* \"#utility.yul\":2066:2119   */\n      tag_85\n        /* \"#utility.yul\":2111:2118   */\n      dup6\n        /* \"#utility.yul\":2102:2108   */\n      dup3\n        /* \"#utility.yul\":2091:2100   */\n      dup7\n        /* \"#utility.yul\":2087:2109   */\n      add\n        /* \"#utility.yul\":2066:2119   */\n      tag_66\n      jump\t// in\n    tag_85:\n        /* \"#utility.yul\":2056:2119   */\n      swap3\n      pop\n        /* \"#utility.yul\":2012:2129   */\n      pop\n        /* \"#utility.yul\":2196:2198   */\n      0x20\n        /* \"#utility.yul\":2185:2194   */\n      dup4\n        /* \"#utility.yul\":2181:2199   */\n      add\n        /* \"#utility.yul\":2168:2200   */\n      calldataload\n        /* \"#utility.yul\":2227:2245   */\n      0xffffffffffffffff\n        /* \"#utility.yul\":2219:2225   */\n      dup2\n        /* \"#utility.yul\":2216:2246   */\n      gt\n        /* \"#utility.yul\":2213:2330   */\n      iszero\n      tag_86\n      jumpi\n        /* \"#utility.yul\":2249:2328   */\n      tag_87\n      tag_76\n      jump\t// in\n    tag_87:\n        /* \"#utility.yul\":2213:2330   */\n    tag_86:\n        /* \"#utility.yul\":2354:2417   */\n      tag_88\n        /* \"#utility.yul\":2409:2416   */\n      dup6\n        /* \"#utility.yul\":2400:2406   */\n      dup3\n        /* \"#utility.yul\":2389:2398   */\n      dup7\n        /* \"#utility.yul\":2385:2407   */\n      add\n        /* \"#utility.yul\":2354:2417   */\n      tag_60\n      jump\t// in\n    tag_88:\n        /* \"#utility.yul\":2344:2417   */\n      swap2\n      pop\n        /* \"#utility.yul\":2139:2427   */\n      pop\n        /* \"#utility.yul\":1780:2434   */\n      swap3\n      pop\n      swap3\n      swap1\n      pop\n      jump\t// out\n        /* \"#utility.yul\":2440:2549   */\n    tag_89:\n        /* \"#utility.yul\":2521:2542   */\n      tag_91\n        /* \"#utility.yul\":2536:2541   */\n      dup2\n        /* \"#utility.yul\":2521:2542   */\n      tag_92\n      jump\t// in\n    tag_91:\n        /* \"#utility.yul\":2516:2519   */\n      dup3\n        /* \"#utility.yul\":2509:2543   */\n      mstore\n        /* \"#utility.yul\":2440:2549   */\n      pop\n      pop\n      jump\t// out\n        /* \"#utility.yul\":2555:2919   */\n    tag_93:\n        /* \"#utility.yul\":2643:2646   */\n      0x00\n        /* \"#utility.yul\":2671:2710   */\n      tag_95\n        /* \"#utility.yul\":2704:2709   */\n      dup3\n        /* \"#utility.yul\":2671:2710   */\n      tag_96\n      jump\t// in\n    tag_95:\n        /* \"#utility.yul\":2726:2797   */\n      tag_97\n        /* \"#utility.yul\":2790:2796   */\n      dup2\n        /* \"#utility.yul\":2785:2788   */\n      dup6\n        /* \"#utility.yul\":2726:2797   */\n      tag_98\n      jump\t// in\n    tag_97:\n        /* \"#utility.yul\":2719:2797   */\n      swap4\n      pop\n        /* \"#utility.yul\":2806:2858   */\n      tag_99\n        /* \"#utility.yul\":2851:2857   */\n      dup2\n        /* \"#utility.yul\":2846:2849   */\n      dup6\n        /* \"#utility.yul\":2839:2843   */\n      0x20\n        /* \"#utility.yul\":2832:2837   */\n      dup7\n        /* \"#utility.yul\":2828:2844   */\n      add\n        /* \"#utility.yul\":2806:2858   */\n      tag_100\n      jump\t// in\n    tag_99:\n        /* \"#utility.yul\":2883:2912   */\n      tag_101\n        /* \"#utility.yul\":2905:2911   */\n      dup2\n        /* \"#utility.yul\":2883:2912   */\n      tag_102\n      jump\t// in\n    tag_101:\n        /* \"#utility.yul\":2878:2881   */\n      dup5\n        /* \"#utility.yul\":2874:2913   */\n      add\n        /* \"#utility.yul\":2867:2913   */\n      swap2\n      pop\n        /* \"#utility.yul\":2647:2919   */\n      pop\n        /* \"#utility.yul\":2555:2919   */\n      swap3\n      swap2\n      pop\n      pop\n      jump\t// out\n        /* \"#utility.yul\":2925:3336   */\n    tag_11:\n        /* \"#utility.yul\":3060:3064   */\n      0x00\n        /* \"#utility.yul\":3098:3100   */\n      0x40\n        /* \"#utility.yul\":3087:3096   */\n      dup3\n        /* \"#utility.yul\":3083:3101   */\n      add\n        /* \"#utility.yul\":3075:3101   */\n      swap1\n      pop\n        /* \"#utility.yul\":3147:3156   */\n      dup2\n        /* \"#utility.yul\":3141:3145   */\n      dup2\n        /* \"#utility.yul\":3137:3157   */\n      sub\n        /* \"#utility.yul\":3133:3134   */\n      0x00\n        /* \"#utility.yul\":3122:3131   */\n      dup4\n        /* \"#utility.yul\":3118:3135   */\n      add\n        /* \"#utility.yul\":3111:3158   */\n      mstore\n        /* \"#utility.yul\":3175:3253   */\n      tag_104\n        /* \"#utility.yul\":3248:3252   */\n      dup2\n        /* \"#utility.yul\":3239:3245   */\n      dup6\n        /* \"#utility.yul\":3175:3253   */\n      tag_93\n      jump\t// in\n    tag_104:\n        /* \"#utility.yul\":3167:3253   */\n      swap1\n      pop\n        /* \"#utility.yul\":3263:3329   */\n      tag_105\n        /* \"#utility.yul\":3325:3327   */\n      0x20\n        /* \"#utility.yul\":3314:3323   */\n      dup4\n        /* \"#utility.yul\":3310:3328   */\n      add\n        /* \"#utility.yul\":3301:3307   */\n      dup5\n        /* \"#utility.yul\":3263:3329   */\n      tag_89\n      jump\t// in\n    tag_105:\n        /* \"#utility.yul\":2925:3336   */\n      swap4\n      swap3\n      pop\n      pop\n      pop\n      jump\t// out\n        /* \"#utility.yul\":3342:3471   */\n    tag_54:\n        /* \"#utility.yul\":3376:3382   */\n      0x00\n        /* \"#utility.yul\":3403:3423   */\n      tag_107\n      tag_108\n      jump\t// in\n    tag_107:\n        /* \"#utility.yul\":3393:3423   */\n      swap1\n      pop\n        /* \"#utility.yul\":3432:3465   */\n      tag_109\n        /* \"#utility.yul\":3460:3464   */\n      dup3\n        /* \"#utility.yul\":3452:3458   */\n      dup3\n        /* \"#utility.yul\":3432:3465   */\n      tag_110\n      jump\t// in\n    tag_109:\n        /* \"#utility.yul\":3342:3471   */\n      swap2\n      swap1\n      pop\n      jump\t// out\n        /* \"#utility.yul\":3477:3552   */\n    tag_108:\n        /* \"#utility.yul\":3510:3516   */\n      0x00\n        /* \"#utility.yul\":3543:3545   */\n      0x40\n        /* \"#utility.yul\":3537:3546   */\n      mload\n        /* \"#utility.yul\":3527:3546   */\n      swap1\n      pop\n        /* \"#utility.yul\":3477:3552   */\n      swap1\n      jump\t// out\n        /* \"#utility.yul\":3558:3866   */\n    tag_53:\n        /* \"#utility.yul\":3620:3624   */\n      0x00\n        /* \"#utility.yul\":3710:3728   */\n      0xffffffffffffffff\n        /* \"#utility.yul\":3702:3708   */\n      dup3\n        /* \"#utility.yul\":3699:3729   */\n      gt\n        /* \"#utility.yul\":3696:3752   */\n      iszero\n      tag_113\n      jumpi\n        /* \"#utility.yul\":3732:3750   */\n      tag_114\n      tag_115\n      jump\t// in\n    tag_114:\n        /* \"#utility.yul\":3696:3752   */\n    tag_113:\n        /* \"#utility.yul\":3770:3799   */\n      tag_116\n        /* \"#utility.yul\":3792:3798   */\n      dup3\n        /* \"#utility.yul\":3770:3799   */\n      tag_102\n      jump\t// in\n    tag_116:\n        /* \"#utility.yul\":3762:3799   */\n      swap1\n      pop\n        /* \"#utility.yul\":3854:3858   */\n      0x20\n        /* \"#utility.yul\":3848:3852   */\n      dup2\n        /* \"#utility.yul\":3844:3859   */\n      add\n        /* \"#utility.yul\":3836:3859   */\n      swap1\n      pop\n        /* \"#utility.yul\":3558:3866   */\n      swap2\n      swap1\n      pop\n      jump\t// out\n        /* \"#utility.yul\":3872:3971   */\n    tag_96:\n        /* \"#utility.yul\":3924:3930   */\n      0x00\n        /* \"#utility.yul\":3958:3963   */\n      dup2\n        /* \"#utility.yul\":3952:3964   */\n      mload\n        /* \"#utility.yul\":3942:3964   */\n      swap1\n      pop\n        /* \"#utility.yul\":3872:3971   */\n      swap2\n      swap1\n      pop\n      jump\t// out\n        /* \"#utility.yul\":3977:4146   */\n    tag_98:\n        /* \"#utility.yul\":4061:4072   */\n      0x00\n        /* \"#utility.yul\":4095:4101   */\n      dup3\n        /* \"#utility.yul\":4090:4093   */\n      dup3\n        /* \"#utility.yul\":4083:4102   */\n      mstore\n        /* \"#utility.yul\":4135:4139   */\n      0x20\n        /* \"#utility.yul\":4130:4133   */\n      dup3\n        /* \"#utility.yul\":4126:4140   */\n      add\n        /* \"#utility.yul\":4111:4140   */\n      swap1\n      pop\n        /* \"#utility.yul\":3977:4146   */\n      swap3\n      swap2\n      pop\n      pop\n      jump\t// out\n        /* \"#utility.yul\":4152:4242   */\n    tag_92:\n        /* \"#utility.yul\":4186:4193   */\n      0x00\n        /* \"#utility.yul\":4229:4234   */\n      dup2\n        /* \"#utility.yul\":4222:4235   */\n      iszero\n        /* \"#utility.yul\":4215:4236   */\n      iszero\n        /* \"#utility.yul\":4204:4236   */\n      swap1\n      pop\n        /* \"#utility.yul\":4152:4242   */\n      swap2\n      swap1\n      pop\n      jump\t// out\n        /* \"#utility.yul\":4248:4325   */\n    tag_120:\n        /* \"#utility.yul\":4285:4292   */\n      0x00\n        /* \"#utility.yul\":4314:4319   */\n      dup2\n        /* \"#utility.yul\":4303:4319   */\n      swap1\n      pop\n        /* \"#utility.yul\":4248:4325   */\n      swap2\n      swap1\n      pop\n      jump\t// out\n        /* \"#utility.yul\":4331:4485   */\n    tag_59:\n        /* \"#utility.yul\":4415:4421   */\n      dup3\n        /* \"#utility.yul\":4410:4413   */\n      dup2\n        /* \"#utility.yul\":4405:4408   */\n      dup4\n        /* \"#utility.yul\":4392:4422   */\n      calldatacopy\n        /* \"#utility.yul\":4477:4478   */\n      0x00\n        /* \"#utility.yul\":4468:4474   */\n      dup4\n        /* \"#utility.yul\":4463:4466   */\n      dup4\n        /* \"#utility.yul\":4459:4475   */\n      add\n        /* \"#utility.yul\":4452:4479   */\n      mstore\n        /* \"#utility.yul\":4331:4485   */\n      pop\n      pop\n      pop\n      jump\t// out\n        /* \"#utility.yul\":4491:4798   */\n    tag_100:\n        /* \"#utility.yul\":4559:4560   */\n      0x00\n        /* \"#utility.yul\":4569:4682   */\n    tag_124:\n        /* \"#utility.yul\":4583:4589   */\n      dup4\n        /* \"#utility.yul\":4580:4581   */\n      dup2\n        /* \"#utility.yul\":4577:4590   */\n      lt\n        /* \"#utility.yul\":4569:4682   */\n      iszero\n      tag_126\n      jumpi\n        /* \"#utility.yul\":4668:4669   */\n      dup1\n        /* \"#utility.yul\":4663:4666   */\n      dup3\n        /* \"#utility.yul\":4659:4670   */\n      add\n        /* \"#utility.yul\":4653:4671   */\n      mload\n        /* \"#utility.yul\":4649:4650   */\n      dup2\n        /* \"#utility.yul\":4644:4647   */\n      dup5\n        /* \"#utility.yul\":4640:4651   */\n      add\n        /* \"#utility.yul\":4633:4672   */\n      mstore\n        /* \"#utility.yul\":4605:4607   */\n      0x20\n        /* \"#utility.yul\":4602:4603   */\n      dup2\n        /* \"#utility.yul\":4598:4608   */\n      add\n        /* \"#utility.yul\":4593:4608   */\n      swap1\n      pop\n        /* \"#utility.yul\":4569:4682   */\n      jump(tag_124)\n    tag_126:\n        /* \"#utility.yul\":4700:4706   */\n      dup4\n        /* \"#utility.yul\":4697:4698   */\n      dup2\n        /* \"#utility.yul\":4694:4707   */\n      gt\n        /* \"#utility.yul\":4691:4792   */\n      iszero\n      tag_127\n      jumpi\n        /* \"#utility.yul\":4780:4781   */\n      0x00\n        /* \"#utility.yul\":4771:4777   */\n      dup5\n        /* \"#utility.yul\":4766:4769   */\n      dup5\n        /* \"#utility.yul\":4762:4778   */\n      add\n        /* \"#utility.yul\":4755:4782   */\n      mstore\n        /* \"#utility.yul\":4691:4792   */\n    tag_127:\n        /* \"#utility.yul\":4540:4798   */\n      pop\n        /* \"#utility.yul\":4491:4798   */\n      pop\n      pop\n      pop\n      jump\t// out\n        /* \"#utility.yul\":4804:5124   */\n    tag_23:\n        /* \"#utility.yul\":4848:4854   */\n      0x00\n        /* \"#utility.yul\":4885:4886   */\n      0x02\n        /* \"#utility.yul\":4879:4883   */\n      dup3\n        /* \"#utility.yul\":4875:4887   */\n      div\n        /* \"#utility.yul\":4865:4887   */\n      swap1\n      pop\n        /* \"#utility.yul\":4932:4933   */\n      0x01\n        /* \"#utility.yul\":4926:4930   */\n      dup3\n        /* \"#utility.yul\":4922:4934   */\n      and\n        /* \"#utility.yul\":4953:4971   */\n      dup1\n        /* \"#utility.yul\":4943:5024   */\n      tag_129\n      jumpi\n        /* \"#utility.yul\":5009:5013   */\n      0x7f\n        /* \"#utility.yul\":5001:5007   */\n      dup3\n        /* \"#utility.yul\":4997:5014   */\n      and\n        /* \"#utility.yul\":4987:5014   */\n      swap2\n      pop\n        /* \"#utility.yul\":4943:5024   */\n    tag_129:\n        /* \"#utility.yul\":5071:5073   */\n      0x20\n        /* \"#utility.yul\":5063:5069   */\n      dup3\n        /* \"#utility.yul\":5060:5074   */\n      lt\n        /* \"#utility.yul\":5040:5058   */\n      dup2\n        /* \"#utility.yul\":5037:5075   */\n      eq\n        /* \"#utility.yul\":5034:5118   */\n      iszero\n      tag_130\n      jumpi\n        /* \"#utility.yul\":5090:5108   */\n      tag_131\n      tag_132\n      jump\t// in\n    tag_131:\n        /* \"#utility.yul\":5034:5118   */\n    tag_130:\n        /* \"#utility.yul\":4855:5124   */\n      pop\n        /* \"#utility.yul\":4804:5124   */\n      swap2\n      swap1\n      pop\n      jump\t// out\n        /* \"#utility.yul\":5130:5411   */\n    tag_110:\n        /* \"#utility.yul\":5213:5240   */\n      tag_134\n        /* \"#utility.yul\":5235:5239   */\n      dup3\n        /* \"#utility.yul\":5213:5240   */\n      tag_102\n      jump\t// in\n    tag_134:\n        /* \"#utility.yul\":5205:5211   */\n      dup2\n        /* \"#utility.yul\":5201:5241   */\n      add\n        /* \"#utility.yul\":5343:5349   */\n      dup2\n        /* \"#utility.yul\":5331:5341   */\n      dup2\n        /* \"#utility.yul\":5328:5350   */\n      lt\n        /* \"#utility.yul\":5307:5325   */\n      0xffffffffffffffff\n        /* \"#utility.yul\":5295:5305   */\n      dup3\n        /* \"#utility.yul\":5292:5326   */\n      gt\n        /* \"#utility.yul\":5289:5351   */\n      or\n        /* \"#utility.yul\":5286:5374   */\n      iszero\n      tag_135\n      jumpi\n        /* \"#utility.yul\":5354:5372   */\n      tag_136\n      tag_115\n      jump\t// in\n    tag_136:\n        /* \"#utility.yul\":5286:5374   */\n    tag_135:\n        /* \"#utility.yul\":5394:5404   */\n      dup1\n        /* \"#utility.yul\":5390:5392   */\n      0x40\n        /* \"#utility.yul\":5383:5405   */\n      mstore\n        /* \"#utility.yul\":5173:5411   */\n      pop\n        /* \"#utility.yul\":5130:5411   */\n      pop\n      pop\n      jump\t// out\n        /* \"#utility.yul\":5417:5597   */\n    tag_132:\n        /* \"#utility.yul\":5465:5542   */\n      0x4e487b7100000000000000000000000000000000000000000000000000000000\n        /* \"#utility.yul\":5462:5463   */\n      0x00\n        /* \"#utility.yul\":5455:5543   */\n      mstore\n        /* \"#utility.yul\":5562:5566   */\n      0x22\n        /* \"#utility.yul\":5559:5560   */\n      0x04\n        /* \"#utility.yul\":5552:5567   */\n      mstore\n        /* \"#utility.yul\":5586:5590   */\n      0x24\n        /* \"#utility.yul\":5583:5584   */\n      0x00\n        /* \"#utility.yul\":5576:5591   */\n      revert\n        /* \"#utility.yul\":5603:5783   */\n    tag_31:\n        /* \"#utility.yul\":5651:5728   */\n      0x4e487b7100000000000000000000000000000000000000000000000000000000\n        /* \"#utility.yul\":5648:5649   */\n      0x00\n        /* \"#utility.yul\":5641:5729   */\n      mstore\n        /* \"#utility.yul\":5748:5752   */\n      0x32\n        /* \"#utility.yul\":5745:5746   */\n      0x04\n        /* \"#utility.yul\":5738:5753   */\n      mstore\n        /* \"#utility.yul\":5772:5776   */\n      0x24\n        /* \"#utility.yul\":5769:5770   */\n      0x00\n        /* \"#utility.yul\":5762:5777   */\n      revert\n        /* \"#utility.yul\":5789:5969   */\n    tag_115:\n        /* \"#utility.yul\":5837:5914   */\n      0x4e487b7100000000000000000000000000000000000000000000000000000000\n        /* \"#utility.yul\":5834:5835   */\n      0x00\n        /* \"#utility.yul\":5827:5915   */\n      mstore\n        /* \"#utility.yul\":5934:5938   */\n      0x41\n        /* \"#utility.yul\":5931:5932   */\n      0x04\n        /* \"#utility.yul\":5924:5939   */\n      mstore\n        /* \"#utility.yul\":5958:5962   */\n      0x24\n        /* \"#utility.yul\":5955:5956   */\n      0x00\n        /* \"#utility.yul\":5948:5963   */\n      revert\n        /* \"#utility.yul\":5975:6092   */\n    tag_64:\n        /* \"#utility.yul\":6084:6085   */\n      0x00\n        /* \"#utility.yul\":6081:6082   */\n      dup1\n        /* \"#utility.yul\":6074:6086   */\n      revert\n        /* \"#utility.yul\":6098:6215   */\n    tag_57:\n        /* \"#utility.yul\":6207:6208   */\n      0x00\n        /* \"#utility.yul\":6204:6205   */\n      dup1\n        /* \"#utility.yul\":6197:6209   */\n      revert\n        /* \"#utility.yul\":6221:6338   */\n    tag_76:\n        /* \"#utility.yul\":6330:6331   */\n      0x00\n        /* \"#utility.yul\":6327:6328   */\n      dup1\n        /* \"#utility.yul\":6320:6332   */\n      revert\n        /* \"#utility.yul\":6344:6461   */\n    tag_73:\n        /* \"#utility.yul\":6453:6454   */\n      0x00\n        /* \"#utility.yul\":6450:6451   */\n      dup1\n        /* \"#utility.yul\":6443:6455   */\n      revert\n        /* \"#utility.yul\":6467:6569   */\n    tag_102:\n        /* \"#utility.yul\":6508:6514   */\n      0x00\n        /* \"#utility.yul\":6559:6561   */\n      0x1f\n        /* \"#utility.yul\":6555:6562   */\n      not\n        /* \"#utility.yul\":6550:6552   */\n      0x1f\n        /* \"#utility.yul\":6543:6548   */\n      dup4\n        /* \"#utility.yul\":6539:6553   */\n      add\n        /* \"#utility.yul\":6535:6563   */\n      and\n        /* \"#utility.yul\":6525:6563   */\n      swap1\n      pop\n        /* \"#utility.yul\":6467:6569   */\n      swap2\n      swap1\n      pop\n      jump\t// out\n        /* \"#utility.yul\":6575:6697   */\n    tag_69:\n        /* \"#utility.yul\":6648:6672   */\n      tag_146\n        /* \"#utility.yul\":6666:6671   */\n      dup2\n        /* \"#utility.yul\":6648:6672   */\n      tag_120\n      jump\t// in\n    tag_146:\n        /* \"#utility.yul\":6641:6646   */\n      dup2\n        /* \"#utility.yul\":6638:6673   */\n      eq\n        /* \"#utility.yul\":6628:6691   */\n      tag_147\n      jumpi\n        /* \"#utility.yul\":6687:6688   */\n      0x00\n        /* \"#utility.yul\":6684:6685   */\n      dup1\n        /* \"#utility.yul\":6677:6689   */\n      revert\n        /* \"#utility.yul\":6628:6691   */\n    tag_147:\n        /* \"#utility.yul\":6575:6697   */\n      pop\n      jump\t// out\n\n    auxdata: 0xa26469706673582212208a2e2d977c0a07ab9b0ca7a378f0c57b98de0ff8241175eb434708be175ec27c64736f6c63430008070033\n}\n",
				"bytecode": {
					"linkReferences": {},
					"object": "608060405234801561001057600080fd5b506106d9806100206000396000f3fe608060405234801561001057600080fd5b50600436106100415760003560e01c8063bc8bc2b414610046578063d534ee8814610077578063e34f122114610093575b600080fd5b610060600480360381019061005b91906103ac565b6100af565b60405161006e92919061047d565b60405180910390f35b610091600480360381019061008c91906103d9565b610178565b005b6100ad60048036038101906100a89190610363565b6101b6565b005b600081815481106100bf57600080fd5b90600052602060002090600202016000915090508060000180546100e290610577565b80601f016020809104026020016040519081016040528092919081815260200182805461010e90610577565b801561015b5780601f106101305761010080835404028352916020019161015b565b820191906000526020600020905b81548152906001019060200180831161013e57829003601f168201915b5050505050908060010160009054906101000a900460ff16905082565b806000838154811061018d5761018c610609565b5b906000526020600020906002020160000190805190602001906101b192919061023b565b505050565b60006040518060400160405280838152602001600115158152509080600181540180825580915050600190039060005260206000209060020201600090919091909150600082015181600001908051906020019061021592919061023b565b5060208201518160010160006101000a81548160ff021916908315150217905550505050565b82805461024790610577565b90600052602060002090601f01602090048101928261026957600085556102b0565b82601f1061028257805160ff19168380011785556102b0565b828001600101855582156102b0579182015b828111156102af578251825591602001919060010190610294565b5b5090506102bd91906102c1565b5090565b5b808211156102da5760008160009055506001016102c2565b5090565b60006102f16102ec846104d2565b6104ad565b90508281526020810184848401111561030d5761030c61066c565b5b610318848285610535565b509392505050565b600082601f83011261033557610334610667565b5b81356103458482602086016102de565b91505092915050565b60008135905061035d8161068c565b92915050565b60006020828403121561037957610378610676565b5b600082013567ffffffffffffffff81111561039757610396610671565b5b6103a384828501610320565b91505092915050565b6000602082840312156103c2576103c1610676565b5b60006103d08482850161034e565b91505092915050565b600080604083850312156103f0576103ef610676565b5b60006103fe8582860161034e565b925050602083013567ffffffffffffffff81111561041f5761041e610671565b5b61042b85828601610320565b9150509250929050565b61043e8161051f565b82525050565b600061044f82610503565b610459818561050e565b9350610469818560208601610544565b6104728161067b565b840191505092915050565b600060408201905081810360008301526104978185610444565b90506104a66020830184610435565b9392505050565b60006104b76104c8565b90506104c382826105a9565b919050565b6000604051905090565b600067ffffffffffffffff8211156104ed576104ec610638565b5b6104f68261067b565b9050602081019050919050565b600081519050919050565b600082825260208201905092915050565b60008115159050919050565b6000819050919050565b82818337600083830152505050565b60005b83811015610562578082015181840152602081019050610547565b83811115610571576000848401525b50505050565b6000600282049050600182168061058f57607f821691505b602082108114156105a3576105a26105da565b5b50919050565b6105b28261067b565b810181811067ffffffffffffffff821117156105d1576105d0610638565b5b80604052505050565b7f4e487b7100000000000000000000000000000000000000000000000000000000600052602260045260246000fd5b7f4e487b7100000000000000000000000000000000000000000000000000000000600052603260045260246000fd5b7f4e487b7100000000000000000000000000000000000000000000000000000000600052604160045260246000fd5b600080fd5b600080fd5b600080fd5b600080fd5b6000601f19601f8301169050919050565b6106958161052b565b81146106a057600080fd5b5056fea26469706673582212208a2e2d977c0a07ab9b0ca7a378f0c57b98de0ff8241175eb434708be175ec27c64736f6c63430008070033",
					"opcodes": "PUSH1 0x80 PUSH1 0x40 MSTORE CALLVALUE DUP1 ISZERO PUSH2 0x10 JUMPI PUSH1 0x0 DUP1 REVERT JUMPDEST POP PUSH2 0x6D9 DUP1 PUSH2 0x20 PUSH1 0x0 CODECOPY PUSH1 0x0 RETURN INVALID PUSH1 0x80 PUSH1 0x40 MSTORE CALLVALUE DUP1 ISZERO PUSH2 0x10 JUMPI PUSH1 0x0 DUP1 REVERT JUMPDEST POP PUSH1 0x4 CALLDATASIZE LT PUSH2 0x41 JUMPI PUSH1 0x0 CALLDATALOAD PUSH1 0xE0 SHR DUP1 PUSH4 0xBC8BC2B4 EQ PUSH2 0x46 JUMPI DUP1 PUSH4 0xD534EE88 EQ PUSH2 0x77 JUMPI DUP1 PUSH4 0xE34F1221 EQ PUSH2 0x93 JUMPI JUMPDEST PUSH1 0x0 DUP1 REVERT JUMPDEST PUSH2 0x60 PUSH1 0x4 DUP1 CALLDATASIZE SUB DUP2 ADD SWAP1 PUSH2 0x5B SWAP2 SWAP1 PUSH2 0x3AC JUMP JUMPDEST PUSH2 0xAF JUMP JUMPDEST PUSH1 0x40 MLOAD PUSH2 0x6E SWAP3 SWAP2 SWAP1 PUSH2 0x47D JUMP JUMPDEST PUSH1 0x40 MLOAD DUP1 SWAP2 SUB SWAP1 RETURN JUMPDEST PUSH2 0x91 PUSH1 0x4 DUP1 CALLDATASIZE SUB DUP2 ADD SWAP1 PUSH2 0x8C SWAP2 SWAP1 PUSH2 0x3D9 JUMP JUMPDEST PUSH2 0x178 JUMP JUMPDEST STOP JUMPDEST PUSH2 0xAD PUSH1 0x4 DUP1 CALLDATASIZE SUB DUP2 ADD SWAP1 PUSH2 0xA8 SWAP2 SWAP1 PUSH2 0x363 JUMP JUMPDEST PUSH2 0x1B6 JUMP JUMPDEST STOP JUMPDEST PUSH1 0x0 DUP2 DUP2 SLOAD DUP2 LT PUSH2 0xBF JUMPI PUSH1 0x0 DUP1 REVERT JUMPDEST SWAP1 PUSH1 0x0 MSTORE PUSH1 0x20 PUSH1 0x0 KECCAK256 SWAP1 PUSH1 0x2 MUL ADD PUSH1 0x0 SWAP2 POP SWAP1 POP DUP1 PUSH1 0x0 ADD DUP1 SLOAD PUSH2 0xE2 SWAP1 PUSH2 0x577 JUMP JUMPDEST DUP1 PUSH1 0x1F ADD PUSH1 0x20 DUP1 SWAP2 DIV MUL PUSH1 0x20 ADD PUSH1 0x40 MLOAD SWAP1 DUP2 ADD PUSH1 0x40 MSTORE DUP1 SWAP3 SWAP2 SWAP1 DUP2 DUP2 MSTORE PUSH1 0x20 ADD DUP3 DUP1 SLOAD PUSH2 0x10E SWAP1 PUSH2 0x577 JUMP JUMPDEST DUP1 ISZERO PUSH2 0x15B JUMPI DUP1 PUSH1 0x1F LT PUSH2 0x130 JUMPI PUSH2 0x100 DUP1 DUP4 SLOAD DIV MUL DUP4 MSTORE SWAP2 PUSH1 0x20 ADD SWAP2 PUSH2 0x15B JUMP JUMPDEST DUP3 ADD SWAP2 SWAP1 PUSH1 0x0 MSTORE PUSH1 0x20 PUSH1 0x0 KECCAK256 SWAP1 JUMPDEST DUP2 SLOAD DUP2 MSTORE SWAP1 PUSH1 0x1 ADD SWAP1 PUSH1 0x20 ADD DUP1 DUP4 GT PUSH2 0x13E JUMPI DUP3 SWAP1 SUB PUSH1 0x1F AND DUP3 ADD SWAP2 JUMPDEST POP POP POP POP POP SWAP1 DUP1 PUSH1 0x1 ADD PUSH1 0x0 SWAP1 SLOAD SWAP1 PUSH2 0x100 EXP SWAP1 DIV PUSH1 0xFF AND SWAP1 POP DUP3 JUMP JUMPDEST DUP1 PUSH1 0x0 DUP4 DUP2 SLOAD DUP2 LT PUSH2 0x18D JUMPI PUSH2 0x18C PUSH2 0x609 JUMP JUMPDEST JUMPDEST SWAP1 PUSH1 0x0 MSTORE PUSH1 0x20 PUSH1 0x0 KECCAK256 SWAP1 PUSH1 0x2 MUL ADD PUSH1 0x0 ADD SWAP1 DUP1 MLOAD SWAP1 PUSH1 0x20 ADD SWAP1 PUSH2 0x1B1 SWAP3 SWAP2 SWAP1 PUSH2 0x23B JUMP JUMPDEST POP POP POP JUMP JUMPDEST PUSH1 0x0 PUSH1 0x40 MLOAD DUP1 PUSH1 0x40 ADD PUSH1 0x40 MSTORE DUP1 DUP4 DUP2 MSTORE PUSH1 0x20 ADD PUSH1 0x1 ISZERO ISZERO DUP2 MSTORE POP SWAP1 DUP1 PUSH1 0x1 DUP2 SLOAD ADD DUP1 DUP3 SSTORE DUP1 SWAP2 POP POP PUSH1 0x1 SWAP1 SUB SWAP1 PUSH1 0x0 MSTORE PUSH1 0x20 PUSH1 0x0 KECCAK256 SWAP1 PUSH1 0x2 MUL ADD PUSH1 0x0 SWAP1 SWAP2 SWAP1 SWAP2 SWAP1 SWAP2 POP PUSH1 0x0 DUP3 ADD MLOAD DUP2 PUSH1 0x0 ADD SWAP1 DUP1 MLOAD SWAP1 PUSH1 0x20 ADD SWAP1 PUSH2 0x215 SWAP3 SWAP2 SWAP1 PUSH2 0x23B JUMP JUMPDEST POP PUSH1 0x20 DUP3 ADD MLOAD DUP2 PUSH1 0x1 ADD PUSH1 0x0 PUSH2 0x100 EXP DUP2 SLOAD DUP2 PUSH1 0xFF MUL NOT AND SWAP1 DUP4 ISZERO ISZERO MUL OR SWAP1 SSTORE POP POP POP POP JUMP JUMPDEST DUP3 DUP1 SLOAD PUSH2 0x247 SWAP1 PUSH2 0x577 JUMP JUMPDEST SWAP1 PUSH1 0x0 MSTORE PUSH1 0x20 PUSH1 0x0 KECCAK256 SWAP1 PUSH1 0x1F ADD PUSH1 0x20 SWAP1 DIV DUP2 ADD SWAP3 DUP3 PUSH2 0x269 JUMPI PUSH1 0x0 DUP6 SSTORE PUSH2 0x2B0 JUMP JUMPDEST DUP3 PUSH1 0x1F LT PUSH2 0x282 JUMPI DUP1 MLOAD PUSH1 0xFF NOT AND DUP4 DUP1 ADD OR DUP6 SSTORE PUSH2 0x2B0 JUMP JUMPDEST DUP3 DUP1 ADD PUSH1 0x1 ADD DUP6 SSTORE DUP3 ISZERO PUSH2 0x2B0 JUMPI SWAP2 DUP3 ADD JUMPDEST DUP3 DUP2 GT ISZERO PUSH2 0x2AF JUMPI DUP3 MLOAD DUP3 SSTORE SWAP2 PUSH1 0x20 ADD SWAP2 SWAP1 PUSH1 0x1 ADD SWAP1 PUSH2 0x294 JUMP JUMPDEST JUMPDEST POP SWAP1 POP PUSH2 0x2BD SWAP2 SWAP1 PUSH2 0x2C1 JUMP JUMPDEST POP SWAP1 JUMP JUMPDEST JUMPDEST DUP1 DUP3 GT ISZERO PUSH2 0x2DA JUMPI PUSH1 0x0 DUP2 PUSH1 0x0 SWAP1 SSTORE POP PUSH1 0x1 ADD PUSH2 0x2C2 JUMP JUMPDEST POP SWAP1 JUMP JUMPDEST PUSH1 0x0 PUSH2 0x2F1 PUSH2 0x2EC DUP5 PUSH2 0x4D2 JUMP JUMPDEST PUSH2 0x4AD JUMP JUMPDEST SWAP1 POP DUP3 DUP2 MSTORE PUSH1 0x20 DUP2 ADD DUP5 DUP5 DUP5 ADD GT ISZERO PUSH2 0x30D JUMPI PUSH2 0x30C PUSH2 0x66C JUMP JUMPDEST JUMPDEST PUSH2 0x318 DUP5 DUP3 DUP6 PUSH2 0x535 JUMP JUMPDEST POP SWAP4 SWAP3 POP POP POP JUMP JUMPDEST PUSH1 0x0 DUP3 PUSH1 0x1F DUP4 ADD SLT PUSH2 0x335 JUMPI PUSH2 0x334 PUSH2 0x667 JUMP JUMPDEST JUMPDEST DUP2 CALLDATALOAD PUSH2 0x345 DUP5 DUP3 PUSH1 0x20 DUP7 ADD PUSH2 0x2DE JUMP JUMPDEST SWAP2 POP POP SWAP3 SWAP2 POP POP JUMP JUMPDEST PUSH1 0x0 DUP2 CALLDATALOAD SWAP1 POP PUSH2 0x35D DUP2 PUSH2 0x68C JUMP JUMPDEST SWAP3 SWAP2 POP POP JUMP JUMPDEST PUSH1 0x0 PUSH1 0x20 DUP3 DUP5 SUB SLT ISZERO PUSH2 0x379 JUMPI PUSH2 0x378 PUSH2 0x676 JUMP JUMPDEST JUMPDEST PUSH1 0x0 DUP3 ADD CALLDATALOAD PUSH8 0xFFFFFFFFFFFFFFFF DUP2 GT ISZERO PUSH2 0x397 JUMPI PUSH2 0x396 PUSH2 0x671 JUMP JUMPDEST JUMPDEST PUSH2 0x3A3 DUP5 DUP3 DUP6 ADD PUSH2 0x320 JUMP JUMPDEST SWAP2 POP POP SWAP3 SWAP2 POP POP JUMP JUMPDEST PUSH1 0x0 PUSH1 0x20 DUP3 DUP5 SUB SLT ISZERO PUSH2 0x3C2 JUMPI PUSH2 0x3C1 PUSH2 0x676 JUMP JUMPDEST JUMPDEST PUSH1 0x0 PUSH2 0x3D0 DUP5 DUP3 DUP6 ADD PUSH2 0x34E JUMP JUMPDEST SWAP2 POP POP SWAP3 SWAP2 POP POP JUMP JUMPDEST PUSH1 0x0 DUP1 PUSH1 0x40 DUP4 DUP6 SUB SLT ISZERO PUSH2 0x3F0 JUMPI PUSH2 0x3EF PUSH2 0x676 JUMP JUMPDEST JUMPDEST PUSH1 0x0 PUSH2 0x3FE DUP6 DUP3 DUP7 ADD PUSH2 0x34E JUMP JUMPDEST SWAP3 POP POP PUSH1 0x20 DUP4 ADD CALLDATALOAD PUSH8 0xFFFFFFFFFFFFFFFF DUP2 GT ISZERO PUSH2 0x41F JUMPI PUSH2 0x41E PUSH2 0x671 JUMP JUMPDEST JUMPDEST PUSH2 0x42B DUP6 DUP3 DUP7 ADD PUSH2 0x320 JUMP JUMPDEST SWAP2 POP POP SWAP3 POP SWAP3 SWAP1 POP JUMP JUMPDEST PUSH2 0x43E DUP2 PUSH2 0x51F JUMP JUMPDEST DUP3 MSTORE POP POP JUMP JUMPDEST PUSH1 0x0 PUSH2 0x44F DUP3 PUSH2 0x503 JUMP JUMPDEST PUSH2 0x459 DUP2 DUP6 PUSH2 0x50E JUMP JUMPDEST SWAP4 POP PUSH2 0x469 DUP2 DUP6 PUSH1 0x20 DUP7 ADD PUSH2 0x544 JUMP JUMPDEST PUSH2 0x472 DUP2 PUSH2 0x67B JUMP JUMPDEST DUP5 ADD SWAP2 POP POP SWAP3 SWAP2 POP POP JUMP JUMPDEST PUSH1 0x0 PUSH1 0x40 DUP3 ADD SWAP1 POP DUP2 DUP2 SUB PUSH1 0x0 DUP4 ADD MSTORE PUSH2 0x497 DUP2 DUP6 PUSH2 0x444 JUMP JUMPDEST SWAP1 POP PUSH2 0x4A6 PUSH1 0x20 DUP4 ADD DUP5 PUSH2 0x435 JUMP JUMPDEST SWAP4 SWAP3 POP POP POP JUMP JUMPDEST PUSH1 0x0 PUSH2 0x4B7 PUSH2 0x4C8 JUMP JUMPDEST SWAP1 POP PUSH2 0x4C3 DUP3 DUP3 PUSH2 0x5A9 JUMP JUMPDEST SWAP2 SWAP1 POP JUMP JUMPDEST PUSH1 0x0 PUSH1 0x40 MLOAD SWAP1 POP SWAP1 JUMP JUMPDEST PUSH1 0x0 PUSH8 0xFFFFFFFFFFFFFFFF DUP3 GT ISZERO PUSH2 0x4ED JUMPI PUSH2 0x4EC PUSH2 0x638 JUMP JUMPDEST JUMPDEST PUSH2 0x4F6 DUP3 PUSH2 0x67B JUMP JUMPDEST SWAP1 POP PUSH1 0x20 DUP2 ADD SWAP1 POP SWAP2 SWAP1 POP JUMP JUMPDEST PUSH1 0x0 DUP2 MLOAD SWAP1 POP SWAP2 SWAP1 POP JUMP JUMPDEST PUSH1 0x0 DUP3 DUP3 MSTORE PUSH1 0x20 DUP3 ADD SWAP1 POP SWAP3 SWAP2 POP POP JUMP JUMPDEST PUSH1 0x0 DUP2 ISZERO ISZERO SWAP1 POP SWAP2 SWAP1 POP JUMP JUMPDEST PUSH1 0x0 DUP2 SWAP1 POP SWAP2 SWAP1 POP JUMP JUMPDEST DUP3 DUP2 DUP4 CALLDATACOPY PUSH1 0x0 DUP4 DUP4 ADD MSTORE POP POP POP JUMP JUMPDEST PUSH1 0x0 JUMPDEST DUP4 DUP2 LT ISZERO PUSH2 0x562 JUMPI DUP1 DUP3 ADD MLOAD DUP2 DUP5 ADD MSTORE PUSH1 0x20 DUP2 ADD SWAP1 POP PUSH2 0x547 JUMP JUMPDEST DUP4 DUP2 GT ISZERO PUSH2 0x571 JUMPI PUSH1 0x0 DUP5 DUP5 ADD MSTORE JUMPDEST POP POP POP POP JUMP JUMPDEST PUSH1 0x0 PUSH1 0x2 DUP3 DIV SWAP1 POP PUSH1 0x1 DUP3 AND DUP1 PUSH2 0x58F JUMPI PUSH1 0x7F DUP3 AND SWAP2 POP JUMPDEST PUSH1 0x20 DUP3 LT DUP2 EQ ISZERO PUSH2 0x5A3 JUMPI PUSH2 0x5A2 PUSH2 0x5DA JUMP JUMPDEST JUMPDEST POP SWAP2 SWAP1 POP JUMP JUMPDEST PUSH2 0x5B2 DUP3 PUSH2 0x67B JUMP JUMPDEST DUP2 ADD DUP2 DUP2 LT PUSH8 0xFFFFFFFFFFFFFFFF DUP3 GT OR ISZERO PUSH2 0x5D1 JUMPI PUSH2 0x5D0 PUSH2 0x638 JUMP JUMPDEST JUMPDEST DUP1 PUSH1 0x40 MSTORE POP POP POP JUMP JUMPDEST PUSH32 0x4E487B7100000000000000000000000000000000000000000000000000000000 PUSH1 0x0 MSTORE PUSH1 0x22 PUSH1 0x4 MSTORE PUSH1 0x24 PUSH1 0x0 REVERT JUMPDEST PUSH32 0x4E487B7100000000000000000000000000000000000000000000000000000000 PUSH1 0x0 MSTORE PUSH1 0x32 PUSH1 0x4 MSTORE PUSH1 0x24 PUSH1 0x0 REVERT JUMPDEST PUSH32 0x4E487B7100000000000000000000000000000000000000000000000000000000 PUSH1 0x0 MSTORE PUSH1 0x41 PUSH1 0x4 MSTORE PUSH1 0x24 PUSH1 0x0 REVERT JUMPDEST PUSH1 0x0 DUP1 REVERT JUMPDEST PUSH1 0x0 DUP1 REVERT JUMPDEST PUSH1 0x0 DUP1 REVERT JUMPDEST PUSH1 0x0 DUP1 REVERT JUMPDEST PUSH1 0x0 PUSH1 0x1F NOT PUSH1 0x1F DUP4 ADD AND SWAP1 POP SWAP2 SWAP1 POP JUMP JUMPDEST PUSH2 0x695 DUP2 PUSH2 0x52B JUMP JUMPDEST DUP2 EQ PUSH2 0x6A0 JUMPI PUSH1 0x0 DUP1 REVERT JUMPDEST POP JUMP INVALID LOG2 PUSH5 0x6970667358 0x22 SLT KECCAK256 DUP11 0x2E 0x2D SWAP8 PUSH29 0xA07AB9B0CA7A378F0C57B98DE0FF8241175EB434708BE175EC27C6473 PUSH16 0x6C634300080700330000000000000000 "
				},
				"gasEstimates": {
					"creation": {
						"codeDepositCost": "350600",
						"executionCost": "386",
						"totalCost": "350986"
					},
					"external": {
						"createTodo(string)": "infinite",
						"todos(uint256)": "infinite",
						"updateTodo(uint256,string)": "infinite"
					}
				},
				"methodIdentifiers": {
					"createTodo(string)": "e34f1221",
					"todos(uint256)": "bc8bc2b4",
					"updateTodo(uint256,string)": "d534ee88"
				}
			},
			"storageLayout": {
				"storage": [
					{
						"astId": 10,
						"contract": "Structs.sol:Struct",
						"label": "todos",
						"offset": 0,
						"slot": "0",
						"type": "t_array(t_struct(TodoItem)6_storage)dyn_storage"
					}
				],
				"types": {
					"t_array(t_struct(TodoItem)6_storage)dyn_storage": {
						"base": "t_struct(TodoItem)6_storage",
						"encoding": "dynamic_array",
						"label": "struct Struct.TodoItem[]",
						"numberOfBytes": "32"
					},
					"t_bool": {
						"encoding": "inplace",
						"label": "bool",
						"numberOfBytes": "1"
					},
					"t_string_storage": {
						"encoding": "bytes",
						"label": "string",
						"numberOfBytes": "32"
					},
					"t_struct(TodoItem)6_storage": {
						"encoding": "inplace",
						"label": "struct Struct.TodoItem",
						"members": [
							{
								"astId": 3,
								"contract": "Structs.sol:Struct",
								"label": "name",
								"offset": 0,
								"slot": "0",
								"type": "t_string_storage"
							},
							{
								"astId": 5,
								"contract": "Structs.sol:Struct",
								"label": "completed",
								"offset": 0,
								"slot": "1",
								"type": "t_bool"
							}
						],
						"numberOfBytes": "64"
					}
				}
			},
			"userdoc": {
				"kind": "user",
				"methods": {},
				"version": 1
			}
		}
	}
}