{
	"Mappings.sol": {
		"Mapping": {
			"abi": [
				{
					"inputs": [
						{
							"internalType": "address",
							"name": "_addr",
							"type": "address"
						},
						{
							"internalType": "uint256",
							"name": "_i",
							"type": "uint256"
						},
						{
							"internalType": "bool",
							"name": "_bool",
							"type": "bool"
						}
					],
					"name": "setMap",
					"outputs": [],
					"stateMutability": "nonpayable",
					"type": "function"
				}
			],
			"devdoc": {
				"kind": "dev",
				"methods": {},
				"version": 1
			},
			"evm": {
				"assembly": "    /* \"Mappings.sol\":74:493  contract Mapping{\r... */\n  mstore(0x40, 0x80)\n  callvalue\n  dup1\n  iszero\n  tag_1\n  jumpi\n  0x00\n  dup1\n  revert\ntag_1:\n  pop\n  dataSize(sub_0)\n  dup1\n  dataOffset(sub_0)\n  0x00\n  codecopy\n  0x00\n  return\nstop\n\nsub_0: assembly {\n        /* \"Mappings.sol\":74:493  contract Mapping{\r... */\n      mstore(0x40, 0x80)\n      callvalue\n      dup1\n      iszero\n      tag_1\n      jumpi\n      0x00\n      dup1\n      revert\n    tag_1:\n      pop\n      jumpi(tag_2, lt(calldatasize, 0x04))\n      shr(0xe0, calldataload(0x00))\n      dup1\n      0xced9d61f\n      eq\n      tag_3\n      jumpi\n    tag_2:\n      0x00\n      dup1\n      revert\n        /* \"Mappings.sol\":364:488  function setMap(address _addr, uint _i, bool _bool) public{\r... */\n    tag_3:\n      tag_4\n      0x04\n      dup1\n      calldatasize\n      sub\n      dup2\n      add\n      swap1\n      tag_5\n      swap2\n      swap1\n      tag_6\n      jump\t// in\n    tag_5:\n      tag_7\n      jump\t// in\n    tag_4:\n      stop\n    tag_7:\n        /* \"Mappings.sol\":467:472  _bool */\n      dup1\n        /* \"Mappings.sol\":444:453  nestedMap */\n      0x00\n        /* \"Mappings.sol\":444:460  nestedMap[_addr] */\n      dup1\n        /* \"Mappings.sol\":454:459  _addr */\n      dup6\n        /* \"Mappings.sol\":444:460  nestedMap[_addr] */\n      0xffffffffffffffffffffffffffffffffffffffff\n      and\n      0xffffffffffffffffffffffffffffffffffffffff\n      and\n      dup2\n      mstore\n      0x20\n      add\n      swap1\n      dup2\n      mstore\n      0x20\n      add\n      0x00\n      keccak256\n        /* \"Mappings.sol\":444:464  nestedMap[_addr][_i] */\n      0x00\n        /* \"Mappings.sol\":461:463  _i */\n      dup5\n        /* \"Mappings.sol\":444:464  nestedMap[_addr][_i] */\n      dup2\n      mstore\n      0x20\n      add\n      swap1\n      dup2\n      mstore\n      0x20\n      add\n      0x00\n      keccak256\n      0x00\n        /* \"Mappings.sol\":444:472  nestedMap[_addr][_i] = _bool */\n      0x0100\n      exp\n      dup2\n      sload\n      dup2\n      0xff\n      mul\n      not\n      and\n      swap1\n      dup4\n      iszero\n      iszero\n      mul\n      or\n      swap1\n      sstore\n      pop\n        /* \"Mappings.sol\":364:488  function setMap(address _addr, uint _i, bool _bool) public{\r... */\n      pop\n      pop\n      pop\n      jump\t// out\n        /* \"#utility.yul\":7:146   */\n    tag_10:\n        /* \"#utility.yul\":53:58   */\n      0x00\n        /* \"#utility.yul\":91:97   */\n      dup2\n        /* \"#utility.yul\":78:98   */\n      calldataload\n        /* \"#utility.yul\":69:98   */\n      swap1\n      pop\n        /* \"#utility.yul\":107:140   */\n      tag_12\n        /* \"#utility.yul\":134:139   */\n      dup2\n        /* \"#utility.yul\":107:140   */\n      tag_13\n      jump\t// in\n    tag_12:\n        /* \"#utility.yul\":7:146   */\n      swap3\n      swap2\n      pop\n      pop\n      jump\t// out\n        /* \"#utility.yul\":152:285   */\n    tag_14:\n        /* \"#utility.yul\":195:200   */\n      0x00\n        /* \"#utility.yul\":233:239   */\n      dup2\n        /* \"#utility.yul\":220:240   */\n      calldataload\n        /* \"#utility.yul\":211:240   */\n      swap1\n      pop\n        /* \"#utility.yul\":249:279   */\n      tag_16\n        /* \"#utility.yul\":273:278   */\n      dup2\n        /* \"#utility.yul\":249:279   */\n      tag_17\n      jump\t// in\n    tag_16:\n        /* \"#utility.yul\":152:285   */\n      swap3\n      swap2\n      pop\n      pop\n      jump\t// out\n        /* \"#utility.yul\":291:430   */\n    tag_18:\n        /* \"#utility.yul\":337:342   */\n      0x00\n        /* \"#utility.yul\":375:381   */\n      dup2\n        /* \"#utility.yul\":362:382   */\n      calldataload\n        /* \"#utility.yul\":353:382   */\n      swap1\n      pop\n        /* \"#utility.yul\":391:424   */\n      tag_20\n        /* \"#utility.yul\":418:423   */\n      dup2\n        /* \"#utility.yul\":391:424   */\n      tag_21\n      jump\t// in\n    tag_20:\n        /* \"#utility.yul\":291:430   */\n      swap3\n      swap2\n      pop\n      pop\n      jump\t// out\n        /* \"#utility.yul\":436:1049   */\n    tag_6:\n        /* \"#utility.yul\":510:516   */\n      0x00\n        /* \"#utility.yul\":518:524   */\n      dup1\n        /* \"#utility.yul\":526:532   */\n      0x00\n        /* \"#utility.yul\":575:577   */\n      0x60\n        /* \"#utility.yul\":563:572   */\n      dup5\n        /* \"#utility.yul\":554:561   */\n      dup7\n        /* \"#utility.yul\":550:573   */\n      sub\n        /* \"#utility.yul\":546:578   */\n      slt\n        /* \"#utility.yul\":543:662   */\n      iszero\n      tag_23\n      jumpi\n        /* \"#utility.yul\":581:660   */\n      tag_24\n      tag_25\n      jump\t// in\n    tag_24:\n        /* \"#utility.yul\":543:662   */\n    tag_23:\n        /* \"#utility.yul\":701:702   */\n      0x00\n        /* \"#utility.yul\":726:779   */\n      tag_26\n        /* \"#utility.yul\":771:778   */\n      dup7\n        /* \"#utility.yul\":762:768   */\n      dup3\n        /* \"#utility.yul\":751:760   */\n      dup8\n        /* \"#utility.yul\":747:769   */\n      add\n        /* \"#utility.yul\":726:779   */\n      tag_10\n      jump\t// in\n    tag_26:\n        /* \"#utility.yul\":716:779   */\n      swap4\n      pop\n        /* \"#utility.yul\":672:789   */\n      pop\n        /* \"#utility.yul\":828:830   */\n      0x20\n        /* \"#utility.yul\":854:907   */\n      tag_27\n        /* \"#utility.yul\":899:906   */\n      dup7\n        /* \"#utility.yul\":890:896   */\n      dup3\n        /* \"#utility.yul\":879:888   */\n      dup8\n        /* \"#utility.yul\":875:897   */\n      add\n        /* \"#utility.yul\":854:907   */\n      tag_18\n      jump\t// in\n    tag_27:\n        /* \"#utility.yul\":844:907   */\n      swap3\n      pop\n        /* \"#utility.yul\":799:917   */\n      pop\n        /* \"#utility.yul\":956:958   */\n      0x40\n        /* \"#utility.yul\":982:1032   */\n      tag_28\n        /* \"#utility.yul\":1024:1031   */\n      dup7\n        /* \"#utility.yul\":1015:1021   */\n      dup3\n        /* \"#utility.yul\":1004:1013   */\n      dup8\n        /* \"#utility.yul\":1000:1022   */\n      add\n        /* \"#utility.yul\":982:1032   */\n      tag_14\n      jump\t// in\n    tag_28:\n        /* \"#utility.yul\":972:1032   */\n      swap2\n      pop\n        /* \"#utility.yul\":927:1042   */\n      pop\n        /* \"#utility.yul\":436:1049   */\n      swap3\n      pop\n      swap3\n      pop\n      swap3\n      jump\t// out\n        /* \"#utility.yul\":1136:1232   */\n    tag_31:\n        /* \"#utility.yul\":1173:1180   */\n      0x00\n        /* \"#utility.yul\":1202:1226   */\n      tag_33\n        /* \"#utility.yul\":1220:1225   */\n      dup3\n        /* \"#utility.yul\":1202:1226   */\n      tag_34\n      jump\t// in\n    tag_33:\n        /* \"#utility.yul\":1191:1226   */\n      swap1\n      pop\n        /* \"#utility.yul\":1136:1232   */\n      swap2\n      swap1\n      pop\n      jump\t// out\n        /* \"#utility.yul\":1238:1328   */\n    tag_35:\n        /* \"#utility.yul\":1272:1279   */\n      0x00\n        /* \"#utility.yul\":1315:1320   */\n      dup2\n        /* \"#utility.yul\":1308:1321   */\n      iszero\n        /* \"#utility.yul\":1301:1322   */\n      iszero\n        /* \"#utility.yul\":1290:1322   */\n      swap1\n      pop\n        /* \"#utility.yul\":1238:1328   */\n      swap2\n      swap1\n      pop\n      jump\t// out\n        /* \"#utility.yul\":1334:1460   */\n    tag_34:\n        /* \"#utility.yul\":1371:1378   */\n      0x00\n        /* \"#utility.yul\":1411:1453   */\n      0xffffffffffffffffffffffffffffffffffffffff\n        /* \"#utility.yul\":1404:1409   */\n      dup3\n        /* \"#utility.yul\":1400:1454   */\n      and\n        /* \"#utility.yul\":1389:1454   */\n      swap1\n      pop\n        /* \"#utility.yul\":1334:1460   */\n      swap2\n      swap1\n      pop\n      jump\t// out\n        /* \"#utility.yul\":1466:1543   */\n    tag_38:\n        /* \"#utility.yul\":1503:1510   */\n      0x00\n        /* \"#utility.yul\":1532:1537   */\n      dup2\n        /* \"#utility.yul\":1521:1537   */\n      swap1\n      pop\n        /* \"#utility.yul\":1466:1543   */\n      swap2\n      swap1\n      pop\n      jump\t// out\n        /* \"#utility.yul\":1672:1789   */\n    tag_25:\n        /* \"#utility.yul\":1781:1782   */\n      0x00\n        /* \"#utility.yul\":1778:1779   */\n      dup1\n        /* \"#utility.yul\":1771:1783   */\n      revert\n        /* \"#utility.yul\":1795:1917   */\n    tag_13:\n        /* \"#utility.yul\":1868:1892   */\n      tag_44\n        /* \"#utility.yul\":1886:1891   */\n      dup2\n        /* \"#utility.yul\":1868:1892   */\n      tag_31\n      jump\t// in\n    tag_44:\n        /* \"#utility.yul\":1861:1866   */\n      dup2\n        /* \"#utility.yul\":1858:1893   */\n      eq\n        /* \"#utility.yul\":1848:1911   */\n      tag_45\n      jumpi\n        /* \"#utility.yul\":1907:1908   */\n      0x00\n        /* \"#utility.yul\":1904:1905   */\n      dup1\n        /* \"#utility.yul\":1897:1909   */\n      revert\n        /* \"#utility.yul\":1848:1911   */\n    tag_45:\n        /* \"#utility.yul\":1795:1917   */\n      pop\n      jump\t// out\n        /* \"#utility.yul\":1923:2039   */\n    tag_17:\n        /* \"#utility.yul\":1993:2014   */\n      tag_47\n        /* \"#utility.yul\":2008:2013   */\n      dup2\n        /* \"#utility.yul\":1993:2014   */\n      tag_35\n      jump\t// in\n    tag_47:\n        /* \"#utility.yul\":1986:1991   */\n      dup2\n        /* \"#utility.yul\":1983:2015   */\n      eq\n        /* \"#utility.yul\":1973:2033   */\n      tag_48\n      jumpi\n        /* \"#utility.yul\":2029:2030   */\n      0x00\n        /* \"#utility.yul\":2026:2027   */\n      dup1\n        /* \"#utility.yul\":2019:2031   */\n      revert\n        /* \"#utility.yul\":1973:2033   */\n    tag_48:\n        /* \"#utility.yul\":1923:2039   */\n      pop\n      jump\t// out\n        /* \"#utility.yul\":2045:2167   */\n    tag_21:\n        /* \"#utility.yul\":2118:2142   */\n      tag_50\n        /* \"#utility.yul\":2136:2141   */\n      dup2\n        /* \"#utility.yul\":2118:2142   */\n      tag_38\n      jump\t// in\n    tag_50:\n        /* \"#utility.yul\":2111:2116   */\n      dup2\n        /* \"#utility.yul\":2108:2143   */\n      eq\n        /* \"#utility.yul\":2098:2161   */\n      tag_51\n      jumpi\n        /* \"#utility.yul\":2157:2158   */\n      0x00\n        /* \"#utility.yul\":2154:2155   */\n      dup1\n        /* \"#utility.yul\":2147:2159   */\n      revert\n        /* \"#utility.yul\":2098:2161   */\n    tag_51:\n        /* \"#utility.yul\":2045:2167   */\n      pop\n      jump\t// out\n\n    auxdata: 0xa2646970667358221220bf1ee3cd3177266dae1758be5150dd28a3b4b0db9853876e70615e1ff22b458d64736f6c63430008070033\n}\n",
				"bytecode": {
					"linkReferences": {},
					"object": "608060405234801561001057600080fd5b50610212806100206000396000f3fe608060405234801561001057600080fd5b506004361061002b5760003560e01c8063ced9d61f14610030575b600080fd5b61004a600480360381019061004591906100f7565b61004c565b005b806000808573ffffffffffffffffffffffffffffffffffffffff1673ffffffffffffffffffffffffffffffffffffffff168152602001908152602001600020600084815260200190815260200160002060006101000a81548160ff021916908315150217905550505050565b6000813590506100c781610197565b92915050565b6000813590506100dc816101ae565b92915050565b6000813590506100f1816101c5565b92915050565b6000806000606084860312156101105761010f610192565b5b600061011e868287016100b8565b935050602061012f868287016100e2565b9250506040610140868287016100cd565b9150509250925092565b600061015582610168565b9050919050565b60008115159050919050565b600073ffffffffffffffffffffffffffffffffffffffff82169050919050565b6000819050919050565b600080fd5b6101a08161014a565b81146101ab57600080fd5b50565b6101b78161015c565b81146101c257600080fd5b50565b6101ce81610188565b81146101d957600080fd5b5056fea2646970667358221220bf1ee3cd3177266dae1758be5150dd28a3b4b0db9853876e70615e1ff22b458d64736f6c63430008070033",
					"opcodes": "PUSH1 0x80 PUSH1 0x40 MSTORE CALLVALUE DUP1 ISZERO PUSH2 0x10 JUMPI PUSH1 0x0 DUP1 REVERT JUMPDEST POP PUSH2 0x212 DUP1 PUSH2 0x20 PUSH1 0x0 CODECOPY PUSH1 0x0 RETURN INVALID PUSH1 0x80 PUSH1 0x40 MSTORE CALLVALUE DUP1 ISZERO PUSH2 0x10 JUMPI PUSH1 0x0 DUP1 REVERT JUMPDEST POP PUSH1 0x4 CALLDATASIZE LT PUSH2 0x2B JUMPI PUSH1 0x0 CALLDATALOAD PUSH1 0xE0 SHR DUP1 PUSH4 0xCED9D61F EQ PUSH2 0x30 JUMPI JUMPDEST PUSH1 0x0 DUP1 REVERT JUMPDEST PUSH2 0x4A PUSH1 0x4 DUP1 CALLDATASIZE SUB DUP2 ADD SWAP1 PUSH2 0x45 SWAP2 SWAP1 PUSH2 0xF7 JUMP JUMPDEST PUSH2 0x4C JUMP JUMPDEST STOP JUMPDEST DUP1 PUSH1 0x0 DUP1 DUP6 PUSH20 0xFFFFFFFFFFFFFFFFFFFFFFFFFFFFFFFFFFFFFFFF AND PUSH20 0xFFFFFFFFFFFFFFFFFFFFFFFFFFFFFFFFFFFFFFFF AND DUP2 MSTORE PUSH1 0x20 ADD SWAP1 DUP2 MSTORE PUSH1 0x20 ADD PUSH1 0x0 KECCAK256 PUSH1 0x0 DUP5 DUP2 MSTORE PUSH1 0x20 ADD SWAP1 DUP2 MSTORE PUSH1 0x20 ADD PUSH1 0x0 KECCAK256 PUSH1 0x0 PUSH2 0x100 EXP DUP2 SLOAD DUP2 PUSH1 0xFF MUL NOT AND SWAP1 DUP4 ISZERO ISZERO MUL OR SWAP1 SSTORE POP POP POP POP JUMP JUMPDEST PUSH1 0x0 DUP2 CALLDATALOAD SWAP1 POP PUSH2 0xC7 DUP2 PUSH2 0x197 JUMP JUMPDEST SWAP3 SWAP2 POP POP JUMP JUMPDEST PUSH1 0x0 DUP2 CALLDATALOAD SWAP1 POP PUSH2 0xDC DUP2 PUSH2 0x1AE JUMP JUMPDEST SWAP3 SWAP2 POP POP JUMP JUMPDEST PUSH1 0x0 DUP2 CALLDATALOAD SWAP1 POP PUSH2 0xF1 DUP2 PUSH2 0x1C5 JUMP JUMPDEST SWAP3 SWAP2 POP POP JUMP JUMPDEST PUSH1 0x0 DUP1 PUSH1 0x0 PUSH1 0x60 DUP5 DUP7 SUB SLT ISZERO PUSH2 0x110 JUMPI PUSH2 0x10F PUSH2 0x192 JUMP JUMPDEST JUMPDEST PUSH1 0x0 PUSH2 0x11E DUP7 DUP3 DUP8 ADD PUSH2 0xB8 JUMP JUMPDEST SWAP4 POP POP PUSH1 0x20 PUSH2 0x12F DUP7 DUP3 DUP8 ADD PUSH2 0xE2 JUMP JUMPDEST SWAP3 POP POP PUSH1 0x40 PUSH2 0x140 DUP7 DUP3 DUP8 ADD PUSH2 0xCD JUMP JUMPDEST SWAP2 POP POP SWAP3 POP SWAP3 POP SWAP3 JUMP JUMPDEST PUSH1 0x0 PUSH2 0x155 DUP3 PUSH2 0x168 JUMP JUMPDEST SWAP1 POP SWAP2 SWAP1 POP JUMP JUMPDEST PUSH1 0x0 DUP2 ISZERO ISZERO SWAP1 POP SWAP2 SWAP1 POP JUMP JUMPDEST PUSH1 0x0 PUSH20 0xFFFFFFFFFFFFFFFFFFFFFFFFFFFFFFFFFFFFFFFF DUP3 AND SWAP1 POP SWAP2 SWAP1 POP JUMP JUMPDEST PUSH1 0x0 DUP2 SWAP1 POP SWAP2 SWAP1 POP JUMP JUMPDEST PUSH1 0x0 DUP1 REVERT JUMPDEST PUSH2 0x1A0 DUP2 PUSH2 0x14A JUMP JUMPDEST DUP2 EQ PUSH2 0x1AB JUMPI PUSH1 0x0 DUP1 REVERT JUMPDEST POP JUMP JUMPDEST PUSH2 0x1B7 DUP2 PUSH2 0x15C JUMP JUMPDEST DUP2 EQ PUSH2 0x1C2 JUMPI PUSH1 0x0 DUP1 REVERT JUMPDEST POP JUMP JUMPDEST PUSH2 0x1CE DUP2 PUSH2 0x188 JUMP JUMPDEST DUP2 EQ PUSH2 0x1D9 JUMPI PUSH1 0x0 DUP1 REVERT JUMPDEST POP JUMP INVALID LOG2 PUSH5 0x6970667358 0x22 SLT KECCAK256 0xBF 0x1E 0xE3 0xCD BALANCE PUSH24 0x266DAE1758BE5150DD28A3B4B0DB9853876E70615E1FF22B GASLIMIT DUP14 PUSH5 0x736F6C6343 STOP ADDMOD SMOD STOP CALLER "
				},
				"gasEstimates": {
					"creation": {
						"codeDepositCost": "106000",
						"executionCost": "153",
						"totalCost": "106153"
					},
					"external": {
						"setMap(address,uint256,bool)": "25217"
					}
				},
				"methodIdentifiers": {
					"setMap(address,uint256,bool)": "ced9d61f"
				}
			},
			"storageLayout": {
				"storage": [
					{
						"astId": 7,
						"contract": "Mappings.sol:Mapping",
						"label": "nestedMap",
						"offset": 0,
						"slot": "0",
						"type": "t_mapping(t_address,t_mapping(t_uint256,t_bool))"
					}
				],
				"types": {
					"t_address": {
						"encoding": "inplace",
						"label": "address",
						"numberOfBytes": "20"
					},
					"t_bool": {
						"encoding": "inplace",
						"label": "bool",
						"numberOfBytes": "1"
					},
					"t_mapping(t_address,t_mapping(t_uint256,t_bool))": {
						"encoding": "mapping",
						"key": "t_address",
						"label": "mapping(address => mapping(uint256 => bool))",
						"numberOfBytes": "32",
						"value": "t_mapping(t_uint256,t_bool)"
					},
					"t_mapping(t_uint256,t_bool)": {
						"encoding": "mapping",
						"key": "t_uint256",
						"label": "mapping(uint256 => bool)",
						"numberOfBytes": "32",
						"value": "t_bool"
					},
					"t_uint256": {
						"encoding": "inplace",
						"label": "uint256",
						"numberOfBytes": "32"
					}
				}
			},
			"userdoc": {
				"kind": "user",
				"methods": {},
				"version": 1
			}
		}
	}
}