{
	"Constructor.sol": {
		"Bank": {
			"abi": [
				{
					"inputs": [],
					"name": "Id",
					"outputs": [
						{
							"internalType": "address",
							"name": "",
							"type": "address"
						}
					],
					"stateMutability": "view",
					"type": "function"
				},
				{
					"inputs": [],
					"name": "balance",
					"outputs": [
						{
							"internalType": "uint256",
							"name": "",
							"type": "uint256"
						}
					],
					"stateMutability": "view",
					"type": "function"
				},
				{
					"inputs": [],
					"name": "holder",
					"outputs": [
						{
							"internalType": "string",
							"name": "",
							"type": "string"
						}
					],
					"stateMutability": "view",
					"type": "function"
				},
				{
					"inputs": [],
					"name": "setBalance",
					"outputs": [],
					"stateMutability": "nonpayable",
					"type": "function"
				}
			],
			"devdoc": {
				"kind": "dev",
				"methods": {},
				"version": 1
			},
			"evm": {
				"assembly": "    /* \"Constructor.sol\":74:233  contract Bank{\r... */\n  mstore(0x40, 0x80)\n  callvalue\n  dup1\n  iszero\n  tag_1\n  jumpi\n  0x00\n  dup1\n  revert\ntag_1:\n  pop\n  dataSize(sub_0)\n  dup1\n  dataOffset(sub_0)\n  0x00\n  codecopy\n  0x00\n  return\nstop\n\nsub_0: assembly {\n        /* \"Constructor.sol\":74:233  contract Bank{\r... */\n      mstore(0x40, 0x80)\n      callvalue\n      dup1\n      iszero\n      tag_1\n      jumpi\n      0x00\n      dup1\n      revert\n    tag_1:\n      pop\n      jumpi(tag_2, lt(calldatasize, 0x04))\n      shr(0xe0, calldataload(0x00))\n      dup1\n      0x1a61746e\n      eq\n      tag_3\n      jumpi\n      dup1\n      0x39a090c9\n      eq\n      tag_4\n      jumpi\n      dup1\n      0xb69ef8a8\n      eq\n      tag_5\n      jumpi\n      dup1\n      0xe534155d\n      eq\n      tag_6\n      jumpi\n    tag_2:\n      0x00\n      dup1\n      revert\n        /* \"Constructor.sol\":183:230  function setBalance() public {\r... */\n    tag_3:\n      tag_7\n      tag_8\n      jump\t// in\n    tag_7:\n      stop\n        /* \"Constructor.sol\":147:164  address public Id */\n    tag_4:\n      tag_9\n      tag_10\n      jump\t// in\n    tag_9:\n      mload(0x40)\n      tag_11\n      swap2\n      swap1\n      tag_12\n      jump\t// in\n    tag_11:\n      mload(0x40)\n      dup1\n      swap2\n      sub\n      swap1\n      return\n        /* \"Constructor.sol\":94:113  uint public balance */\n    tag_5:\n      tag_13\n      tag_14\n      jump\t// in\n    tag_13:\n      mload(0x40)\n      tag_15\n      swap2\n      swap1\n      tag_16\n      jump\t// in\n    tag_15:\n      mload(0x40)\n      dup1\n      swap2\n      sub\n      swap1\n      return\n        /* \"Constructor.sol\":120:140  string public holder */\n    tag_6:\n      tag_17\n      tag_18\n      jump\t// in\n    tag_17:\n      mload(0x40)\n      tag_19\n      swap2\n      swap1\n      tag_20\n      jump\t// in\n    tag_19:\n      mload(0x40)\n      dup1\n      swap2\n      sub\n      swap1\n      return\n        /* \"Constructor.sol\":183:230  function setBalance() public {\r... */\n    tag_8:\n      jump\t// out\n        /* \"Constructor.sol\":147:164  address public Id */\n    tag_10:\n      0x02\n      0x00\n      swap1\n      sload\n      swap1\n      0x0100\n      exp\n      swap1\n      div\n      0xffffffffffffffffffffffffffffffffffffffff\n      and\n      dup2\n      jump\t// out\n        /* \"Constructor.sol\":94:113  uint public balance */\n    tag_14:\n      sload(0x00)\n      dup2\n      jump\t// out\n        /* \"Constructor.sol\":120:140  string public holder */\n    tag_18:\n      0x01\n      dup1\n      sload\n      tag_22\n      swap1\n      tag_23\n      jump\t// in\n    tag_22:\n      dup1\n      0x1f\n      add\n      0x20\n      dup1\n      swap2\n      div\n      mul\n      0x20\n      add\n      mload(0x40)\n      swap1\n      dup2\n      add\n      0x40\n      mstore\n      dup1\n      swap3\n      swap2\n      swap1\n      dup2\n      dup2\n      mstore\n      0x20\n      add\n      dup3\n      dup1\n      sload\n      tag_24\n      swap1\n      tag_23\n      jump\t// in\n    tag_24:\n      dup1\n      iszero\n      tag_25\n      jumpi\n      dup1\n      0x1f\n      lt\n      tag_26\n      jumpi\n      0x0100\n      dup1\n      dup4\n      sload\n      div\n      mul\n      dup4\n      mstore\n      swap2\n      0x20\n      add\n      swap2\n      jump(tag_25)\n    tag_26:\n      dup3\n      add\n      swap2\n      swap1\n      0x00\n      mstore\n      keccak256(0x00, 0x20)\n      swap1\n    tag_27:\n      dup2\n      sload\n      dup2\n      mstore\n      swap1\n      0x01\n      add\n      swap1\n      0x20\n      add\n      dup1\n      dup4\n      gt\n      tag_27\n      jumpi\n      dup3\n      swap1\n      sub\n      0x1f\n      and\n      dup3\n      add\n      swap2\n    tag_25:\n      pop\n      pop\n      pop\n      pop\n      pop\n      dup2\n      jump\t// out\n        /* \"#utility.yul\":7:125   */\n    tag_29:\n        /* \"#utility.yul\":94:118   */\n      tag_31\n        /* \"#utility.yul\":112:117   */\n      dup2\n        /* \"#utility.yul\":94:118   */\n      tag_32\n      jump\t// in\n    tag_31:\n        /* \"#utility.yul\":89:92   */\n      dup3\n        /* \"#utility.yul\":82:119   */\n      mstore\n        /* \"#utility.yul\":7:125   */\n      pop\n      pop\n      jump\t// out\n        /* \"#utility.yul\":131:495   */\n    tag_33:\n        /* \"#utility.yul\":219:222   */\n      0x00\n        /* \"#utility.yul\":247:286   */\n      tag_35\n        /* \"#utility.yul\":280:285   */\n      dup3\n        /* \"#utility.yul\":247:286   */\n      tag_36\n      jump\t// in\n    tag_35:\n        /* \"#utility.yul\":302:373   */\n      tag_37\n        /* \"#utility.yul\":366:372   */\n      dup2\n        /* \"#utility.yul\":361:364   */\n      dup6\n        /* \"#utility.yul\":302:373   */\n      tag_38\n      jump\t// in\n    tag_37:\n        /* \"#utility.yul\":295:373   */\n      swap4\n      pop\n        /* \"#utility.yul\":382:434   */\n      tag_39\n        /* \"#utility.yul\":427:433   */\n      dup2\n        /* \"#utility.yul\":422:425   */\n      dup6\n        /* \"#utility.yul\":415:419   */\n      0x20\n        /* \"#utility.yul\":408:413   */\n      dup7\n        /* \"#utility.yul\":404:420   */\n      add\n        /* \"#utility.yul\":382:434   */\n      tag_40\n      jump\t// in\n    tag_39:\n        /* \"#utility.yul\":459:488   */\n      tag_41\n        /* \"#utility.yul\":481:487   */\n      dup2\n        /* \"#utility.yul\":459:488   */\n      tag_42\n      jump\t// in\n    tag_41:\n        /* \"#utility.yul\":454:457   */\n      dup5\n        /* \"#utility.yul\":450:489   */\n      add\n        /* \"#utility.yul\":443:489   */\n      swap2\n      pop\n        /* \"#utility.yul\":223:495   */\n      pop\n        /* \"#utility.yul\":131:495   */\n      swap3\n      swap2\n      pop\n      pop\n      jump\t// out\n        /* \"#utility.yul\":501:619   */\n    tag_43:\n        /* \"#utility.yul\":588:612   */\n      tag_45\n        /* \"#utility.yul\":606:611   */\n      dup2\n        /* \"#utility.yul\":588:612   */\n      tag_46\n      jump\t// in\n    tag_45:\n        /* \"#utility.yul\":583:586   */\n      dup3\n        /* \"#utility.yul\":576:613   */\n      mstore\n        /* \"#utility.yul\":501:619   */\n      pop\n      pop\n      jump\t// out\n        /* \"#utility.yul\":625:847   */\n    tag_12:\n        /* \"#utility.yul\":718:722   */\n      0x00\n        /* \"#utility.yul\":756:758   */\n      0x20\n        /* \"#utility.yul\":745:754   */\n      dup3\n        /* \"#utility.yul\":741:759   */\n      add\n        /* \"#utility.yul\":733:759   */\n      swap1\n      pop\n        /* \"#utility.yul\":769:840   */\n      tag_48\n        /* \"#utility.yul\":837:838   */\n      0x00\n        /* \"#utility.yul\":826:835   */\n      dup4\n        /* \"#utility.yul\":822:839   */\n      add\n        /* \"#utility.yul\":813:819   */\n      dup5\n        /* \"#utility.yul\":769:840   */\n      tag_29\n      jump\t// in\n    tag_48:\n        /* \"#utility.yul\":625:847   */\n      swap3\n      swap2\n      pop\n      pop\n      jump\t// out\n        /* \"#utility.yul\":853:1166   */\n    tag_20:\n        /* \"#utility.yul\":966:970   */\n      0x00\n        /* \"#utility.yul\":1004:1006   */\n      0x20\n        /* \"#utility.yul\":993:1002   */\n      dup3\n        /* \"#utility.yul\":989:1007   */\n      add\n        /* \"#utility.yul\":981:1007   */\n      swap1\n      pop\n        /* \"#utility.yul\":1053:1062   */\n      dup2\n        /* \"#utility.yul\":1047:1051   */\n      dup2\n        /* \"#utility.yul\":1043:1063   */\n      sub\n        /* \"#utility.yul\":1039:1040   */\n      0x00\n        /* \"#utility.yul\":1028:1037   */\n      dup4\n        /* \"#utility.yul\":1024:1041   */\n      add\n        /* \"#utility.yul\":1017:1064   */\n      mstore\n        /* \"#utility.yul\":1081:1159   */\n      tag_50\n        /* \"#utility.yul\":1154:1158   */\n      dup2\n        /* \"#utility.yul\":1145:1151   */\n      dup5\n        /* \"#utility.yul\":1081:1159   */\n      tag_33\n      jump\t// in\n    tag_50:\n        /* \"#utility.yul\":1073:1159   */\n      swap1\n      pop\n        /* \"#utility.yul\":853:1166   */\n      swap3\n      swap2\n      pop\n      pop\n      jump\t// out\n        /* \"#utility.yul\":1172:1394   */\n    tag_16:\n        /* \"#utility.yul\":1265:1269   */\n      0x00\n        /* \"#utility.yul\":1303:1305   */\n      0x20\n        /* \"#utility.yul\":1292:1301   */\n      dup3\n        /* \"#utility.yul\":1288:1306   */\n      add\n        /* \"#utility.yul\":1280:1306   */\n      swap1\n      pop\n        /* \"#utility.yul\":1316:1387   */\n      tag_52\n        /* \"#utility.yul\":1384:1385   */\n      0x00\n        /* \"#utility.yul\":1373:1382   */\n      dup4\n        /* \"#utility.yul\":1369:1386   */\n      add\n        /* \"#utility.yul\":1360:1366   */\n      dup5\n        /* \"#utility.yul\":1316:1387   */\n      tag_43\n      jump\t// in\n    tag_52:\n        /* \"#utility.yul\":1172:1394   */\n      swap3\n      swap2\n      pop\n      pop\n      jump\t// out\n        /* \"#utility.yul\":1400:1499   */\n    tag_36:\n        /* \"#utility.yul\":1452:1458   */\n      0x00\n        /* \"#utility.yul\":1486:1491   */\n      dup2\n        /* \"#utility.yul\":1480:1492   */\n      mload\n        /* \"#utility.yul\":1470:1492   */\n      swap1\n      pop\n        /* \"#utility.yul\":1400:1499   */\n      swap2\n      swap1\n      pop\n      jump\t// out\n        /* \"#utility.yul\":1505:1674   */\n    tag_38:\n        /* \"#utility.yul\":1589:1600   */\n      0x00\n        /* \"#utility.yul\":1623:1629   */\n      dup3\n        /* \"#utility.yul\":1618:1621   */\n      dup3\n        /* \"#utility.yul\":1611:1630   */\n      mstore\n        /* \"#utility.yul\":1663:1667   */\n      0x20\n        /* \"#utility.yul\":1658:1661   */\n      dup3\n        /* \"#utility.yul\":1654:1668   */\n      add\n        /* \"#utility.yul\":1639:1668   */\n      swap1\n      pop\n        /* \"#utility.yul\":1505:1674   */\n      swap3\n      swap2\n      pop\n      pop\n      jump\t// out\n        /* \"#utility.yul\":1680:1776   */\n    tag_32:\n        /* \"#utility.yul\":1717:1724   */\n      0x00\n        /* \"#utility.yul\":1746:1770   */\n      tag_56\n        /* \"#utility.yul\":1764:1769   */\n      dup3\n        /* \"#utility.yul\":1746:1770   */\n      tag_57\n      jump\t// in\n    tag_56:\n        /* \"#utility.yul\":1735:1770   */\n      swap1\n      pop\n        /* \"#utility.yul\":1680:1776   */\n      swap2\n      swap1\n      pop\n      jump\t// out\n        /* \"#utility.yul\":1782:1908   */\n    tag_57:\n        /* \"#utility.yul\":1819:1826   */\n      0x00\n        /* \"#utility.yul\":1859:1901   */\n      0xffffffffffffffffffffffffffffffffffffffff\n        /* \"#utility.yul\":1852:1857   */\n      dup3\n        /* \"#utility.yul\":1848:1902   */\n      and\n        /* \"#utility.yul\":1837:1902   */\n      swap1\n      pop\n        /* \"#utility.yul\":1782:1908   */\n      swap2\n      swap1\n      pop\n      jump\t// out\n        /* \"#utility.yul\":1914:1991   */\n    tag_46:\n        /* \"#utility.yul\":1951:1958   */\n      0x00\n        /* \"#utility.yul\":1980:1985   */\n      dup2\n        /* \"#utility.yul\":1969:1985   */\n      swap1\n      pop\n        /* \"#utility.yul\":1914:1991   */\n      swap2\n      swap1\n      pop\n      jump\t// out\n        /* \"#utility.yul\":1997:2304   */\n    tag_40:\n        /* \"#utility.yul\":2065:2066   */\n      0x00\n        /* \"#utility.yul\":2075:2188   */\n    tag_61:\n        /* \"#utility.yul\":2089:2095   */\n      dup4\n        /* \"#utility.yul\":2086:2087   */\n      dup2\n        /* \"#utility.yul\":2083:2096   */\n      lt\n        /* \"#utility.yul\":2075:2188   */\n      iszero\n      tag_63\n      jumpi\n        /* \"#utility.yul\":2174:2175   */\n      dup1\n        /* \"#utility.yul\":2169:2172   */\n      dup3\n        /* \"#utility.yul\":2165:2176   */\n      add\n        /* \"#utility.yul\":2159:2177   */\n      mload\n        /* \"#utility.yul\":2155:2156   */\n      dup2\n        /* \"#utility.yul\":2150:2153   */\n      dup5\n        /* \"#utility.yul\":2146:2157   */\n      add\n        /* \"#utility.yul\":2139:2178   */\n      mstore\n        /* \"#utility.yul\":2111:2113   */\n      0x20\n        /* \"#utility.yul\":2108:2109   */\n      dup2\n        /* \"#utility.yul\":2104:2114   */\n      add\n        /* \"#utility.yul\":2099:2114   */\n      swap1\n      pop\n        /* \"#utility.yul\":2075:2188   */\n      jump(tag_61)\n    tag_63:\n        /* \"#utility.yul\":2206:2212   */\n      dup4\n        /* \"#utility.yul\":2203:2204   */\n      dup2\n        /* \"#utility.yul\":2200:2213   */\n      gt\n        /* \"#utility.yul\":2197:2298   */\n      iszero\n      tag_64\n      jumpi\n        /* \"#utility.yul\":2286:2287   */\n      0x00\n        /* \"#utility.yul\":2277:2283   */\n      dup5\n        /* \"#utility.yul\":2272:2275   */\n      dup5\n        /* \"#utility.yul\":2268:2284   */\n      add\n        /* \"#utility.yul\":2261:2288   */\n      mstore\n        /* \"#utility.yul\":2197:2298   */\n    tag_64:\n        /* \"#utility.yul\":2046:2304   */\n      pop\n        /* \"#utility.yul\":1997:2304   */\n      pop\n      pop\n      pop\n      jump\t// out\n        /* \"#utility.yul\":2310:2630   */\n    tag_23:\n        /* \"#utility.yul\":2354:2360   */\n      0x00\n        /* \"#utility.yul\":2391:2392   */\n      0x02\n        /* \"#utility.yul\":2385:2389   */\n      dup3\n        /* \"#utility.yul\":2381:2393   */\n      div\n        /* \"#utility.yul\":2371:2393   */\n      swap1\n      pop\n        /* \"#utility.yul\":2438:2439   */\n      0x01\n        /* \"#utility.yul\":2432:2436   */\n      dup3\n        /* \"#utility.yul\":2428:2440   */\n      and\n        /* \"#utility.yul\":2459:2477   */\n      dup1\n        /* \"#utility.yul\":2449:2530   */\n      tag_66\n      jumpi\n        /* \"#utility.yul\":2515:2519   */\n      0x7f\n        /* \"#utility.yul\":2507:2513   */\n      dup3\n        /* \"#utility.yul\":2503:2520   */\n      and\n        /* \"#utility.yul\":2493:2520   */\n      swap2\n      pop\n        /* \"#utility.yul\":2449:2530   */\n    tag_66:\n        /* \"#utility.yul\":2577:2579   */\n      0x20\n        /* \"#utility.yul\":2569:2575   */\n      dup3\n        /* \"#utility.yul\":2566:2580   */\n      lt\n        /* \"#utility.yul\":2546:2564   */\n      dup2\n        /* \"#utility.yul\":2543:2581   */\n      eq\n        /* \"#utility.yul\":2540:2624   */\n      iszero\n      tag_67\n      jumpi\n        /* \"#utility.yul\":2596:2614   */\n      tag_68\n      tag_69\n      jump\t// in\n    tag_68:\n        /* \"#utility.yul\":2540:2624   */\n    tag_67:\n        /* \"#utility.yul\":2361:2630   */\n      pop\n        /* \"#utility.yul\":2310:2630   */\n      swap2\n      swap1\n      pop\n      jump\t// out\n        /* \"#utility.yul\":2636:2816   */\n    tag_69:\n        /* \"#utility.yul\":2684:2761   */\n      0x4e487b7100000000000000000000000000000000000000000000000000000000\n        /* \"#utility.yul\":2681:2682   */\n      0x00\n        /* \"#utility.yul\":2674:2762   */\n      mstore\n        /* \"#utility.yul\":2781:2785   */\n      0x22\n        /* \"#utility.yul\":2778:2779   */\n      0x04\n        /* \"#utility.yul\":2771:2786   */\n      mstore\n        /* \"#utility.yul\":2805:2809   */\n      0x24\n        /* \"#utility.yul\":2802:2803   */\n      0x00\n        /* \"#utility.yul\":2795:2810   */\n      revert\n        /* \"#utility.yul\":2822:2924   */\n    tag_42:\n        /* \"#utility.yul\":2863:2869   */\n      0x00\n        /* \"#utility.yul\":2914:2916   */\n      0x1f\n        /* \"#utility.yul\":2910:2917   */\n      not\n        /* \"#utility.yul\":2905:2907   */\n      0x1f\n        /* \"#utility.yul\":2898:2903   */\n      dup4\n        /* \"#utility.yul\":2894:2908   */\n      add\n        /* \"#utility.yul\":2890:2918   */\n      and\n        /* \"#utility.yul\":2880:2918   */\n      swap1\n      pop\n        /* \"#utility.yul\":2822:2924   */\n      swap2\n      swap1\n      pop\n      jump\t// out\n\n    auxdata: 0xa2646970667358221220e1b875fcce55fbff58b1771513c99631c27cca9a1d95fab599eef4bc36296c0964736f6c63430008070033\n}\n",
				"bytecode": {
					"linkReferences": {},
					"object": "608060405234801561001057600080fd5b50610353806100206000396000f3fe608060405234801561001057600080fd5b506004361061004c5760003560e01c80631a61746e1461005157806339a090c91461005b578063b69ef8a814610079578063e534155d14610097575b600080fd5b6100596100b5565b005b6100636100b7565b60405161007091906101c8565b60405180910390f35b6100816100dd565b60405161008e9190610205565b60405180910390f35b61009f6100e3565b6040516100ac91906101e3565b60405180910390f35b565b600260009054906101000a900473ffffffffffffffffffffffffffffffffffffffff1681565b60005481565b600180546100f0906102ab565b80601f016020809104026020016040519081016040528092919081815260200182805461011c906102ab565b80156101695780601f1061013e57610100808354040283529160200191610169565b820191906000526020600020905b81548152906001019060200180831161014c57829003601f168201915b505050505081565b61017a8161023c565b82525050565b600061018b82610220565b610195818561022b565b93506101a5818560208601610278565b6101ae8161030c565b840191505092915050565b6101c28161026e565b82525050565b60006020820190506101dd6000830184610171565b92915050565b600060208201905081810360008301526101fd8184610180565b905092915050565b600060208201905061021a60008301846101b9565b92915050565b600081519050919050565b600082825260208201905092915050565b60006102478261024e565b9050919050565b600073ffffffffffffffffffffffffffffffffffffffff82169050919050565b6000819050919050565b60005b8381101561029657808201518184015260208101905061027b565b838111156102a5576000848401525b50505050565b600060028204905060018216806102c357607f821691505b602082108114156102d7576102d66102dd565b5b50919050565b7f4e487b7100000000000000000000000000000000000000000000000000000000600052602260045260246000fd5b6000601f19601f830116905091905056fea2646970667358221220e1b875fcce55fbff58b1771513c99631c27cca9a1d95fab599eef4bc36296c0964736f6c63430008070033",
					"opcodes": "PUSH1 0x80 PUSH1 0x40 MSTORE CALLVALUE DUP1 ISZERO PUSH2 0x10 JUMPI PUSH1 0x0 DUP1 REVERT JUMPDEST POP PUSH2 0x353 DUP1 PUSH2 0x20 PUSH1 0x0 CODECOPY PUSH1 0x0 RETURN INVALID PUSH1 0x80 PUSH1 0x40 MSTORE CALLVALUE DUP1 ISZERO PUSH2 0x10 JUMPI PUSH1 0x0 DUP1 REVERT JUMPDEST POP PUSH1 0x4 CALLDATASIZE LT PUSH2 0x4C JUMPI PUSH1 0x0 CALLDATALOAD PUSH1 0xE0 SHR DUP1 PUSH4 0x1A61746E EQ PUSH2 0x51 JUMPI DUP1 PUSH4 0x39A090C9 EQ PUSH2 0x5B JUMPI DUP1 PUSH4 0xB69EF8A8 EQ PUSH2 0x79 JUMPI DUP1 PUSH4 0xE534155D EQ PUSH2 0x97 JUMPI JUMPDEST PUSH1 0x0 DUP1 REVERT JUMPDEST PUSH2 0x59 PUSH2 0xB5 JUMP JUMPDEST STOP JUMPDEST PUSH2 0x63 PUSH2 0xB7 JUMP JUMPDEST PUSH1 0x40 MLOAD PUSH2 0x70 SWAP2 SWAP1 PUSH2 0x1C8 JUMP JUMPDEST PUSH1 0x40 MLOAD DUP1 SWAP2 SUB SWAP1 RETURN JUMPDEST PUSH2 0x81 PUSH2 0xDD JUMP JUMPDEST PUSH1 0x40 MLOAD PUSH2 0x8E SWAP2 SWAP1 PUSH2 0x205 JUMP JUMPDEST PUSH1 0x40 MLOAD DUP1 SWAP2 SUB SWAP1 RETURN JUMPDEST PUSH2 0x9F PUSH2 0xE3 JUMP JUMPDEST PUSH1 0x40 MLOAD PUSH2 0xAC SWAP2 SWAP1 PUSH2 0x1E3 JUMP JUMPDEST PUSH1 0x40 MLOAD DUP1 SWAP2 SUB SWAP1 RETURN JUMPDEST JUMP JUMPDEST PUSH1 0x2 PUSH1 0x0 SWAP1 SLOAD SWAP1 PUSH2 0x100 EXP SWAP1 DIV PUSH20 0xFFFFFFFFFFFFFFFFFFFFFFFFFFFFFFFFFFFFFFFF AND DUP2 JUMP JUMPDEST PUSH1 0x0 SLOAD DUP2 JUMP JUMPDEST PUSH1 0x1 DUP1 SLOAD PUSH2 0xF0 SWAP1 PUSH2 0x2AB JUMP JUMPDEST DUP1 PUSH1 0x1F ADD PUSH1 0x20 DUP1 SWAP2 DIV MUL PUSH1 0x20 ADD PUSH1 0x40 MLOAD SWAP1 DUP2 ADD PUSH1 0x40 MSTORE DUP1 SWAP3 SWAP2 SWAP1 DUP2 DUP2 MSTORE PUSH1 0x20 ADD DUP3 DUP1 SLOAD PUSH2 0x11C SWAP1 PUSH2 0x2AB JUMP JUMPDEST DUP1 ISZERO PUSH2 0x169 JUMPI DUP1 PUSH1 0x1F LT PUSH2 0x13E JUMPI PUSH2 0x100 DUP1 DUP4 SLOAD DIV MUL DUP4 MSTORE SWAP2 PUSH1 0x20 ADD SWAP2 PUSH2 0x169 JUMP JUMPDEST DUP3 ADD SWAP2 SWAP1 PUSH1 0x0 MSTORE PUSH1 0x20 PUSH1 0x0 KECCAK256 SWAP1 JUMPDEST DUP2 SLOAD DUP2 MSTORE SWAP1 PUSH1 0x1 ADD SWAP1 PUSH1 0x20 ADD DUP1 DUP4 GT PUSH2 0x14C JUMPI DUP3 SWAP1 SUB PUSH1 0x1F AND DUP3 ADD SWAP2 JUMPDEST POP POP POP POP POP DUP2 JUMP JUMPDEST PUSH2 0x17A DUP2 PUSH2 0x23C JUMP JUMPDEST DUP3 MSTORE POP POP JUMP JUMPDEST PUSH1 0x0 PUSH2 0x18B DUP3 PUSH2 0x220 JUMP JUMPDEST PUSH2 0x195 DUP2 DUP6 PUSH2 0x22B JUMP JUMPDEST SWAP4 POP PUSH2 0x1A5 DUP2 DUP6 PUSH1 0x20 DUP7 ADD PUSH2 0x278 JUMP JUMPDEST PUSH2 0x1AE DUP2 PUSH2 0x30C JUMP JUMPDEST DUP5 ADD SWAP2 POP POP SWAP3 SWAP2 POP POP JUMP JUMPDEST PUSH2 0x1C2 DUP2 PUSH2 0x26E JUMP JUMPDEST DUP3 MSTORE POP POP JUMP JUMPDEST PUSH1 0x0 PUSH1 0x20 DUP3 ADD SWAP1 POP PUSH2 0x1DD PUSH1 0x0 DUP4 ADD DUP5 PUSH2 0x171 JUMP JUMPDEST SWAP3 SWAP2 POP POP JUMP JUMPDEST PUSH1 0x0 PUSH1 0x20 DUP3 ADD SWAP1 POP DUP2 DUP2 SUB PUSH1 0x0 DUP4 ADD MSTORE PUSH2 0x1FD DUP2 DUP5 PUSH2 0x180 JUMP JUMPDEST SWAP1 POP SWAP3 SWAP2 POP POP JUMP JUMPDEST PUSH1 0x0 PUSH1 0x20 DUP3 ADD SWAP1 POP PUSH2 0x21A PUSH1 0x0 DUP4 ADD DUP5 PUSH2 0x1B9 JUMP JUMPDEST SWAP3 SWAP2 POP POP JUMP JUMPDEST PUSH1 0x0 DUP2 MLOAD SWAP1 POP SWAP2 SWAP1 POP JUMP JUMPDEST PUSH1 0x0 DUP3 DUP3 MSTORE PUSH1 0x20 DUP3 ADD SWAP1 POP SWAP3 SWAP2 POP POP JUMP JUMPDEST PUSH1 0x0 PUSH2 0x247 DUP3 PUSH2 0x24E JUMP JUMPDEST SWAP1 POP SWAP2 SWAP1 POP JUMP JUMPDEST PUSH1 0x0 PUSH20 0xFFFFFFFFFFFFFFFFFFFFFFFFFFFFFFFFFFFFFFFF DUP3 AND SWAP1 POP SWAP2 SWAP1 POP JUMP JUMPDEST PUSH1 0x0 DUP2 SWAP1 POP SWAP2 SWAP1 POP JUMP JUMPDEST PUSH1 0x0 JUMPDEST DUP4 DUP2 LT ISZERO PUSH2 0x296 JUMPI DUP1 DUP3 ADD MLOAD DUP2 DUP5 ADD MSTORE PUSH1 0x20 DUP2 ADD SWAP1 POP PUSH2 0x27B JUMP JUMPDEST DUP4 DUP2 GT ISZERO PUSH2 0x2A5 JUMPI PUSH1 0x0 DUP5 DUP5 ADD MSTORE JUMPDEST POP POP POP POP JUMP JUMPDEST PUSH1 0x0 PUSH1 0x2 DUP3 DIV SWAP1 POP PUSH1 0x1 DUP3 AND DUP1 PUSH2 0x2C3 JUMPI PUSH1 0x7F DUP3 AND SWAP2 POP JUMPDEST PUSH1 0x20 DUP3 LT DUP2 EQ ISZERO PUSH2 0x2D7 JUMPI PUSH2 0x2D6 PUSH2 0x2DD JUMP JUMPDEST JUMPDEST POP SWAP2 SWAP1 POP JUMP JUMPDEST PUSH32 0x4E487B7100000000000000000000000000000000000000000000000000000000 PUSH1 0x0 MSTORE PUSH1 0x22 PUSH1 0x4 MSTORE PUSH1 0x24 PUSH1 0x0 REVERT JUMPDEST PUSH1 0x0 PUSH1 0x1F NOT PUSH1 0x1F DUP4 ADD AND SWAP1 POP SWAP2 SWAP1 POP JUMP INVALID LOG2 PUSH5 0x6970667358 0x22 SLT KECCAK256 0xE1 0xB8 PUSH22 0xFCCE55FBFF58B1771513C99631C27CCA9A1D95FAB599 0xEE DELEGATECALL 0xBC CALLDATASIZE 0x29 PUSH13 0x964736F6C6343000807003300 "
				},
				"gasEstimates": {
					"creation": {
						"codeDepositCost": "170200",
						"executionCost": "214",
						"totalCost": "170414"
					},
					"external": {
						"Id()": "2514",
						"balance()": "2451",
						"holder()": "infinite",
						"setBalance()": "122"
					}
				},
				"methodIdentifiers": {
					"Id()": "39a090c9",
					"balance()": "b69ef8a8",
					"holder()": "e534155d",
					"setBalance()": "1a61746e"
				}
			},
			"storageLayout": {
				"storage": [
					{
						"astId": 3,
						"contract": "Constructor.sol:Bank",
						"label": "balance",
						"offset": 0,
						"slot": "0",
						"type": "t_uint256"
					},
					{
						"astId": 5,
						"contract": "Constructor.sol:Bank",
						"label": "holder",
						"offset": 0,
						"slot": "1",
						"type": "t_string_storage"
					},
					{
						"astId": 7,
						"contract": "Constructor.sol:Bank",
						"label": "Id",
						"offset": 0,
						"slot": "2",
						"type": "t_address"
					}
				],
				"types": {
					"t_address": {
						"encoding": "inplace",
						"label": "address",
						"numberOfBytes": "20"
					},
					"t_string_storage": {
						"encoding": "bytes",
						"label": "string",
						"numberOfBytes": "32"
					},
					"t_uint256": {
						"encoding": "inplace",
						"label": "uint256",
						"numberOfBytes": "32"
					}
				}
			},
			"userdoc": {
				"kind": "user",
				"methods": {},
				"version": 1
			}
		}
	}
}