{
	"Mappings.sol": {
		"Mapping": {
			"abi": [
				{
					"inputs": [
						{
							"internalType": "address",
							"name": "_addr",
							"type": "address"
						},
						{
							"internalType": "uint256",
							"name": "_i",
							"type": "uint256"
						},
						{
							"internalType": "bool",
							"name": "_bool",
							"type": "bool"
						}
					],
					"name": "getMap",
					"outputs": [
						{
							"internalType": "bool",
							"name": "",
							"type": "bool"
						}
					],
					"stateMutability": "view",
					"type": "function"
				},
				{
					"inputs": [
						{
							"internalType": "address",
							"name": "_addr",
							"type": "address"
						},
						{
							"internalType": "uint256",
							"name": "_i",
							"type": "uint256"
						},
						{
							"internalType": "bool",
							"name": "_bool",
							"type": "bool"
						}
					],
					"name": "setMap",
					"outputs": [],
					"stateMutability": "nonpayable",
					"type": "function"
				}
			],
			"devdoc": {
				"kind": "dev",
				"methods": {},
				"version": 1
			},
			"evm": {
				"assembly": "    /* \"Mappings.sol\":74:647  contract Mapping{\r... */\n  mstore(0x40, 0x80)\n  callvalue\n  dup1\n  iszero\n  tag_1\n  jumpi\n  0x00\n  dup1\n  revert\ntag_1:\n  pop\n  dataSize(sub_0)\n  dup1\n  dataOffset(sub_0)\n  0x00\n  codecopy\n  0x00\n  return\nstop\n\nsub_0: assembly {\n        /* \"Mappings.sol\":74:647  contract Mapping{\r... */\n      mstore(0x40, 0x80)\n      callvalue\n      dup1\n      iszero\n      tag_1\n      jumpi\n      0x00\n      dup1\n      revert\n    tag_1:\n      pop\n      jumpi(tag_2, lt(calldatasize, 0x04))\n      shr(0xe0, calldataload(0x00))\n      dup1\n      0x0b50a681\n      eq\n      tag_3\n      jumpi\n      dup1\n      0xced9d61f\n      eq\n      tag_4\n      jumpi\n    tag_2:\n      0x00\n      dup1\n      revert\n        /* \"Mappings.sol\":363:502  function getMap(address _addr, uint _i, bool _bool) public view returns(bool){\r... */\n    tag_3:\n      tag_5\n      0x04\n      dup1\n      calldatasize\n      sub\n      dup2\n      add\n      swap1\n      tag_6\n      swap2\n      swap1\n      tag_7\n      jump\t// in\n    tag_6:\n      tag_8\n      jump\t// in\n    tag_5:\n      mload(0x40)\n      tag_9\n      swap2\n      swap1\n      tag_10\n      jump\t// in\n    tag_9:\n      mload(0x40)\n      dup1\n      swap2\n      sub\n      swap1\n      return\n        /* \"Mappings.sol\":518:642  function setMap(address _addr, uint _i, bool _bool) public{\r... */\n    tag_4:\n      tag_11\n      0x04\n      dup1\n      calldatasize\n      sub\n      dup2\n      add\n      swap1\n      tag_12\n      swap2\n      swap1\n      tag_7\n      jump\t// in\n    tag_12:\n      tag_13\n      jump\t// in\n    tag_11:\n      stop\n        /* \"Mappings.sol\":363:502  function getMap(address _addr, uint _i, bool _bool) public view returns(bool){\r... */\n    tag_8:\n        /* \"Mappings.sol\":435:439  bool */\n      0x00\n        /* \"Mappings.sol\":466:475  nestedMap */\n      dup1\n        /* \"Mappings.sol\":466:482  nestedMap[_addr] */\n      0x00\n        /* \"Mappings.sol\":476:481  _addr */\n      dup6\n        /* \"Mappings.sol\":466:482  nestedMap[_addr] */\n      0xffffffffffffffffffffffffffffffffffffffff\n      and\n      0xffffffffffffffffffffffffffffffffffffffff\n      and\n      dup2\n      mstore\n      0x20\n      add\n      swap1\n      dup2\n      mstore\n      0x20\n      add\n      0x00\n      keccak256\n        /* \"Mappings.sol\":466:486  nestedMap[_addr][_i] */\n      0x00\n        /* \"Mappings.sol\":483:485  _i */\n      dup5\n        /* \"Mappings.sol\":466:486  nestedMap[_addr][_i] */\n      dup2\n      mstore\n      0x20\n      add\n      swap1\n      dup2\n      mstore\n      0x20\n      add\n      0x00\n      keccak256\n      0x00\n      swap1\n      sload\n      swap1\n      0x0100\n      exp\n      swap1\n      div\n      0xff\n      and\n        /* \"Mappings.sol\":459:486  return nestedMap[_addr][_i] */\n      swap1\n      pop\n        /* \"Mappings.sol\":363:502  function getMap(address _addr, uint _i, bool _bool) public view returns(bool){\r... */\n      swap4\n      swap3\n      pop\n      pop\n      pop\n      jump\t// out\n        /* \"Mappings.sol\":518:642  function setMap(address _addr, uint _i, bool _bool) public{\r... */\n    tag_13:\n        /* \"Mappings.sol\":621:626  _bool */\n      dup1\n        /* \"Mappings.sol\":598:607  nestedMap */\n      0x00\n        /* \"Mappings.sol\":598:614  nestedMap[_addr] */\n      dup1\n        /* \"Mappings.sol\":608:613  _addr */\n      dup6\n        /* \"Mappings.sol\":598:614  nestedMap[_addr] */\n      0xffffffffffffffffffffffffffffffffffffffff\n      and\n      0xffffffffffffffffffffffffffffffffffffffff\n      and\n      dup2\n      mstore\n      0x20\n      add\n      swap1\n      dup2\n      mstore\n      0x20\n      add\n      0x00\n      keccak256\n        /* \"Mappings.sol\":598:618  nestedMap[_addr][_i] */\n      0x00\n        /* \"Mappings.sol\":615:617  _i */\n      dup5\n        /* \"Mappings.sol\":598:618  nestedMap[_addr][_i] */\n      dup2\n      mstore\n      0x20\n      add\n      swap1\n      dup2\n      mstore\n      0x20\n      add\n      0x00\n      keccak256\n      0x00\n        /* \"Mappings.sol\":598:626  nestedMap[_addr][_i] = _bool */\n      0x0100\n      exp\n      dup2\n      sload\n      dup2\n      0xff\n      mul\n      not\n      and\n      swap1\n      dup4\n      iszero\n      iszero\n      mul\n      or\n      swap1\n      sstore\n      pop\n        /* \"Mappings.sol\":518:642  function setMap(address _addr, uint _i, bool _bool) public{\r... */\n      pop\n      pop\n      pop\n      jump\t// out\n        /* \"#utility.yul\":7:146   */\n    tag_17:\n        /* \"#utility.yul\":53:58   */\n      0x00\n        /* \"#utility.yul\":91:97   */\n      dup2\n        /* \"#utility.yul\":78:98   */\n      calldataload\n        /* \"#utility.yul\":69:98   */\n      swap1\n      pop\n        /* \"#utility.yul\":107:140   */\n      tag_19\n        /* \"#utility.yul\":134:139   */\n      dup2\n        /* \"#utility.yul\":107:140   */\n      tag_20\n      jump\t// in\n    tag_19:\n        /* \"#utility.yul\":7:146   */\n      swap3\n      swap2\n      pop\n      pop\n      jump\t// out\n        /* \"#utility.yul\":152:285   */\n    tag_21:\n        /* \"#utility.yul\":195:200   */\n      0x00\n        /* \"#utility.yul\":233:239   */\n      dup2\n        /* \"#utility.yul\":220:240   */\n      calldataload\n        /* \"#utility.yul\":211:240   */\n      swap1\n      pop\n        /* \"#utility.yul\":249:279   */\n      tag_23\n        /* \"#utility.yul\":273:278   */\n      dup2\n        /* \"#utility.yul\":249:279   */\n      tag_24\n      jump\t// in\n    tag_23:\n        /* \"#utility.yul\":152:285   */\n      swap3\n      swap2\n      pop\n      pop\n      jump\t// out\n        /* \"#utility.yul\":291:430   */\n    tag_25:\n        /* \"#utility.yul\":337:342   */\n      0x00\n        /* \"#utility.yul\":375:381   */\n      dup2\n        /* \"#utility.yul\":362:382   */\n      calldataload\n        /* \"#utility.yul\":353:382   */\n      swap1\n      pop\n        /* \"#utility.yul\":391:424   */\n      tag_27\n        /* \"#utility.yul\":418:423   */\n      dup2\n        /* \"#utility.yul\":391:424   */\n      tag_28\n      jump\t// in\n    tag_27:\n        /* \"#utility.yul\":291:430   */\n      swap3\n      swap2\n      pop\n      pop\n      jump\t// out\n        /* \"#utility.yul\":436:1049   */\n    tag_7:\n        /* \"#utility.yul\":510:516   */\n      0x00\n        /* \"#utility.yul\":518:524   */\n      dup1\n        /* \"#utility.yul\":526:532   */\n      0x00\n        /* \"#utility.yul\":575:577   */\n      0x60\n        /* \"#utility.yul\":563:572   */\n      dup5\n        /* \"#utility.yul\":554:561   */\n      dup7\n        /* \"#utility.yul\":550:573   */\n      sub\n        /* \"#utility.yul\":546:578   */\n      slt\n        /* \"#utility.yul\":543:662   */\n      iszero\n      tag_30\n      jumpi\n        /* \"#utility.yul\":581:660   */\n      tag_31\n      tag_32\n      jump\t// in\n    tag_31:\n        /* \"#utility.yul\":543:662   */\n    tag_30:\n        /* \"#utility.yul\":701:702   */\n      0x00\n        /* \"#utility.yul\":726:779   */\n      tag_33\n        /* \"#utility.yul\":771:778   */\n      dup7\n        /* \"#utility.yul\":762:768   */\n      dup3\n        /* \"#utility.yul\":751:760   */\n      dup8\n        /* \"#utility.yul\":747:769   */\n      add\n        /* \"#utility.yul\":726:779   */\n      tag_17\n      jump\t// in\n    tag_33:\n        /* \"#utility.yul\":716:779   */\n      swap4\n      pop\n        /* \"#utility.yul\":672:789   */\n      pop\n        /* \"#utility.yul\":828:830   */\n      0x20\n        /* \"#utility.yul\":854:907   */\n      tag_34\n        /* \"#utility.yul\":899:906   */\n      dup7\n        /* \"#utility.yul\":890:896   */\n      dup3\n        /* \"#utility.yul\":879:888   */\n      dup8\n        /* \"#utility.yul\":875:897   */\n      add\n        /* \"#utility.yul\":854:907   */\n      tag_25\n      jump\t// in\n    tag_34:\n        /* \"#utility.yul\":844:907   */\n      swap3\n      pop\n        /* \"#utility.yul\":799:917   */\n      pop\n        /* \"#utility.yul\":956:958   */\n      0x40\n        /* \"#utility.yul\":982:1032   */\n      tag_35\n        /* \"#utility.yul\":1024:1031   */\n      dup7\n        /* \"#utility.yul\":1015:1021   */\n      dup3\n        /* \"#utility.yul\":1004:1013   */\n      dup8\n        /* \"#utility.yul\":1000:1022   */\n      add\n        /* \"#utility.yul\":982:1032   */\n      tag_21\n      jump\t// in\n    tag_35:\n        /* \"#utility.yul\":972:1032   */\n      swap2\n      pop\n        /* \"#utility.yul\":927:1042   */\n      pop\n        /* \"#utility.yul\":436:1049   */\n      swap3\n      pop\n      swap3\n      pop\n      swap3\n      jump\t// out\n        /* \"#utility.yul\":1055:1164   */\n    tag_36:\n        /* \"#utility.yul\":1136:1157   */\n      tag_38\n        /* \"#utility.yul\":1151:1156   */\n      dup2\n        /* \"#utility.yul\":1136:1157   */\n      tag_39\n      jump\t// in\n    tag_38:\n        /* \"#utility.yul\":1131:1134   */\n      dup3\n        /* \"#utility.yul\":1124:1158   */\n      mstore\n        /* \"#utility.yul\":1055:1164   */\n      pop\n      pop\n      jump\t// out\n        /* \"#utility.yul\":1170:1380   */\n    tag_10:\n        /* \"#utility.yul\":1257:1261   */\n      0x00\n        /* \"#utility.yul\":1295:1297   */\n      0x20\n        /* \"#utility.yul\":1284:1293   */\n      dup3\n        /* \"#utility.yul\":1280:1298   */\n      add\n        /* \"#utility.yul\":1272:1298   */\n      swap1\n      pop\n        /* \"#utility.yul\":1308:1373   */\n      tag_41\n        /* \"#utility.yul\":1370:1371   */\n      0x00\n        /* \"#utility.yul\":1359:1368   */\n      dup4\n        /* \"#utility.yul\":1355:1372   */\n      add\n        /* \"#utility.yul\":1346:1352   */\n      dup5\n        /* \"#utility.yul\":1308:1373   */\n      tag_36\n      jump\t// in\n    tag_41:\n        /* \"#utility.yul\":1170:1380   */\n      swap3\n      swap2\n      pop\n      pop\n      jump\t// out\n        /* \"#utility.yul\":1467:1563   */\n    tag_44:\n        /* \"#utility.yul\":1504:1511   */\n      0x00\n        /* \"#utility.yul\":1533:1557   */\n      tag_46\n        /* \"#utility.yul\":1551:1556   */\n      dup3\n        /* \"#utility.yul\":1533:1557   */\n      tag_47\n      jump\t// in\n    tag_46:\n        /* \"#utility.yul\":1522:1557   */\n      swap1\n      pop\n        /* \"#utility.yul\":1467:1563   */\n      swap2\n      swap1\n      pop\n      jump\t// out\n        /* \"#utility.yul\":1569:1659   */\n    tag_39:\n        /* \"#utility.yul\":1603:1610   */\n      0x00\n        /* \"#utility.yul\":1646:1651   */\n      dup2\n        /* \"#utility.yul\":1639:1652   */\n      iszero\n        /* \"#utility.yul\":1632:1653   */\n      iszero\n        /* \"#utility.yul\":1621:1653   */\n      swap1\n      pop\n        /* \"#utility.yul\":1569:1659   */\n      swap2\n      swap1\n      pop\n      jump\t// out\n        /* \"#utility.yul\":1665:1791   */\n    tag_47:\n        /* \"#utility.yul\":1702:1709   */\n      0x00\n        /* \"#utility.yul\":1742:1784   */\n      0xffffffffffffffffffffffffffffffffffffffff\n        /* \"#utility.yul\":1735:1740   */\n      dup3\n        /* \"#utility.yul\":1731:1785   */\n      and\n        /* \"#utility.yul\":1720:1785   */\n      swap1\n      pop\n        /* \"#utility.yul\":1665:1791   */\n      swap2\n      swap1\n      pop\n      jump\t// out\n        /* \"#utility.yul\":1797:1874   */\n    tag_50:\n        /* \"#utility.yul\":1834:1841   */\n      0x00\n        /* \"#utility.yul\":1863:1868   */\n      dup2\n        /* \"#utility.yul\":1852:1868   */\n      swap1\n      pop\n        /* \"#utility.yul\":1797:1874   */\n      swap2\n      swap1\n      pop\n      jump\t// out\n        /* \"#utility.yul\":2003:2120   */\n    tag_32:\n        /* \"#utility.yul\":2112:2113   */\n      0x00\n        /* \"#utility.yul\":2109:2110   */\n      dup1\n        /* \"#utility.yul\":2102:2114   */\n      revert\n        /* \"#utility.yul\":2126:2248   */\n    tag_20:\n        /* \"#utility.yul\":2199:2223   */\n      tag_56\n        /* \"#utility.yul\":2217:2222   */\n      dup2\n        /* \"#utility.yul\":2199:2223   */\n      tag_44\n      jump\t// in\n    tag_56:\n        /* \"#utility.yul\":2192:2197   */\n      dup2\n        /* \"#utility.yul\":2189:2224   */\n      eq\n        /* \"#utility.yul\":2179:2242   */\n      tag_57\n      jumpi\n        /* \"#utility.yul\":2238:2239   */\n      0x00\n        /* \"#utility.yul\":2235:2236   */\n      dup1\n        /* \"#utility.yul\":2228:2240   */\n      revert\n        /* \"#utility.yul\":2179:2242   */\n    tag_57:\n        /* \"#utility.yul\":2126:2248   */\n      pop\n      jump\t// out\n        /* \"#utility.yul\":2254:2370   */\n    tag_24:\n        /* \"#utility.yul\":2324:2345   */\n      tag_59\n        /* \"#utility.yul\":2339:2344   */\n      dup2\n        /* \"#utility.yul\":2324:2345   */\n      tag_39\n      jump\t// in\n    tag_59:\n        /* \"#utility.yul\":2317:2322   */\n      dup2\n        /* \"#utility.yul\":2314:2346   */\n      eq\n        /* \"#utility.yul\":2304:2364   */\n      tag_60\n      jumpi\n        /* \"#utility.yul\":2360:2361   */\n      0x00\n        /* \"#utility.yul\":2357:2358   */\n      dup1\n        /* \"#utility.yul\":2350:2362   */\n      revert\n        /* \"#utility.yul\":2304:2364   */\n    tag_60:\n        /* \"#utility.yul\":2254:2370   */\n      pop\n      jump\t// out\n        /* \"#utility.yul\":2376:2498   */\n    tag_28:\n        /* \"#utility.yul\":2449:2473   */\n      tag_62\n        /* \"#utility.yul\":2467:2472   */\n      dup2\n        /* \"#utility.yul\":2449:2473   */\n      tag_50\n      jump\t// in\n    tag_62:\n        /* \"#utility.yul\":2442:2447   */\n      dup2\n        /* \"#utility.yul\":2439:2474   */\n      eq\n        /* \"#utility.yul\":2429:2492   */\n      tag_63\n      jumpi\n        /* \"#utility.yul\":2488:2489   */\n      0x00\n        /* \"#utility.yul\":2485:2486   */\n      dup1\n        /* \"#utility.yul\":2478:2490   */\n      revert\n        /* \"#utility.yul\":2429:2492   */\n    tag_63:\n        /* \"#utility.yul\":2376:2498   */\n      pop\n      jump\t// out\n\n    auxdata: 0xa26469706673582212204910166f63c0c05b5e927d573dca64d7f938757257de48844c0c2142a862464864736f6c63430008070033\n}\n",
				"bytecode": {
					"linkReferences": {},
					"object": "608060405234801561001057600080fd5b506102df806100206000396000f3fe608060405234801561001057600080fd5b50600436106100365760003560e01c80630b50a6811461003b578063ced9d61f1461006b575b600080fd5b6100556004803603810190610050919061019a565b610087565b60405161006291906101fc565b60405180910390f35b6100856004803603810190610080919061019a565b6100ef565b005b60008060008573ffffffffffffffffffffffffffffffffffffffff1673ffffffffffffffffffffffffffffffffffffffff168152602001908152602001600020600084815260200190815260200160002060009054906101000a900460ff1690509392505050565b806000808573ffffffffffffffffffffffffffffffffffffffff1673ffffffffffffffffffffffffffffffffffffffff168152602001908152602001600020600084815260200190815260200160002060006101000a81548160ff021916908315150217905550505050565b60008135905061016a81610264565b92915050565b60008135905061017f8161027b565b92915050565b60008135905061019481610292565b92915050565b6000806000606084860312156101b3576101b261025f565b5b60006101c18682870161015b565b93505060206101d286828701610185565b92505060406101e386828701610170565b9150509250925092565b6101f681610229565b82525050565b600060208201905061021160008301846101ed565b92915050565b600061022282610235565b9050919050565b60008115159050919050565b600073ffffffffffffffffffffffffffffffffffffffff82169050919050565b6000819050919050565b600080fd5b61026d81610217565b811461027857600080fd5b50565b61028481610229565b811461028f57600080fd5b50565b61029b81610255565b81146102a657600080fd5b5056fea26469706673582212204910166f63c0c05b5e927d573dca64d7f938757257de48844c0c2142a862464864736f6c63430008070033",
					"opcodes": "PUSH1 0x80 PUSH1 0x40 MSTORE CALLVALUE DUP1 ISZERO PUSH2 0x10 JUMPI PUSH1 0x0 DUP1 REVERT JUMPDEST POP PUSH2 0x2DF DUP1 PUSH2 0x20 PUSH1 0x0 CODECOPY PUSH1 0x0 RETURN INVALID PUSH1 0x80 PUSH1 0x40 MSTORE CALLVALUE DUP1 ISZERO PUSH2 0x10 JUMPI PUSH1 0x0 DUP1 REVERT JUMPDEST POP PUSH1 0x4 CALLDATASIZE LT PUSH2 0x36 JUMPI PUSH1 0x0 CALLDATALOAD PUSH1 0xE0 SHR DUP1 PUSH4 0xB50A681 EQ PUSH2 0x3B JUMPI DUP1 PUSH4 0xCED9D61F EQ PUSH2 0x6B JUMPI JUMPDEST PUSH1 0x0 DUP1 REVERT JUMPDEST PUSH2 0x55 PUSH1 0x4 DUP1 CALLDATASIZE SUB DUP2 ADD SWAP1 PUSH2 0x50 SWAP2 SWAP1 PUSH2 0x19A JUMP JUMPDEST PUSH2 0x87 JUMP JUMPDEST PUSH1 0x40 MLOAD PUSH2 0x62 SWAP2 SWAP1 PUSH2 0x1FC JUMP JUMPDEST PUSH1 0x40 MLOAD DUP1 SWAP2 SUB SWAP1 RETURN JUMPDEST PUSH2 0x85 PUSH1 0x4 DUP1 CALLDATASIZE SUB DUP2 ADD SWAP1 PUSH2 0x80 SWAP2 SWAP1 PUSH2 0x19A JUMP JUMPDEST PUSH2 0xEF JUMP JUMPDEST STOP JUMPDEST PUSH1 0x0 DUP1 PUSH1 0x0 DUP6 PUSH20 0xFFFFFFFFFFFFFFFFFFFFFFFFFFFFFFFFFFFFFFFF AND PUSH20 0xFFFFFFFFFFFFFFFFFFFFFFFFFFFFFFFFFFFFFFFF AND DUP2 MSTORE PUSH1 0x20 ADD SWAP1 DUP2 MSTORE PUSH1 0x20 ADD PUSH1 0x0 KECCAK256 PUSH1 0x0 DUP5 DUP2 MSTORE PUSH1 0x20 ADD SWAP1 DUP2 MSTORE PUSH1 0x20 ADD PUSH1 0x0 KECCAK256 PUSH1 0x0 SWAP1 SLOAD SWAP1 PUSH2 0x100 EXP SWAP1 DIV PUSH1 0xFF AND SWAP1 POP SWAP4 SWAP3 POP POP POP JUMP JUMPDEST DUP1 PUSH1 0x0 DUP1 DUP6 PUSH20 0xFFFFFFFFFFFFFFFFFFFFFFFFFFFFFFFFFFFFFFFF AND PUSH20 0xFFFFFFFFFFFFFFFFFFFFFFFFFFFFFFFFFFFFFFFF AND DUP2 MSTORE PUSH1 0x20 ADD SWAP1 DUP2 MSTORE PUSH1 0x20 ADD PUSH1 0x0 KECCAK256 PUSH1 0x0 DUP5 DUP2 MSTORE PUSH1 0x20 ADD SWAP1 DUP2 MSTORE PUSH1 0x20 ADD PUSH1 0x0 KECCAK256 PUSH1 0x0 PUSH2 0x100 EXP DUP2 SLOAD DUP2 PUSH1 0xFF MUL NOT AND SWAP1 DUP4 ISZERO ISZERO MUL OR SWAP1 SSTORE POP POP POP POP JUMP JUMPDEST PUSH1 0x0 DUP2 CALLDATALOAD SWAP1 POP PUSH2 0x16A DUP2 PUSH2 0x264 JUMP JUMPDEST SWAP3 SWAP2 POP POP JUMP JUMPDEST PUSH1 0x0 DUP2 CALLDATALOAD SWAP1 POP PUSH2 0x17F DUP2 PUSH2 0x27B JUMP JUMPDEST SWAP3 SWAP2 POP POP JUMP JUMPDEST PUSH1 0x0 DUP2 CALLDATALOAD SWAP1 POP PUSH2 0x194 DUP2 PUSH2 0x292 JUMP JUMPDEST SWAP3 SWAP2 POP POP JUMP JUMPDEST PUSH1 0x0 DUP1 PUSH1 0x0 PUSH1 0x60 DUP5 DUP7 SUB SLT ISZERO PUSH2 0x1B3 JUMPI PUSH2 0x1B2 PUSH2 0x25F JUMP JUMPDEST JUMPDEST PUSH1 0x0 PUSH2 0x1C1 DUP7 DUP3 DUP8 ADD PUSH2 0x15B JUMP JUMPDEST SWAP4 POP POP PUSH1 0x20 PUSH2 0x1D2 DUP7 DUP3 DUP8 ADD PUSH2 0x185 JUMP JUMPDEST SWAP3 POP POP PUSH1 0x40 PUSH2 0x1E3 DUP7 DUP3 DUP8 ADD PUSH2 0x170 JUMP JUMPDEST SWAP2 POP POP SWAP3 POP SWAP3 POP SWAP3 JUMP JUMPDEST PUSH2 0x1F6 DUP2 PUSH2 0x229 JUMP JUMPDEST DUP3 MSTORE POP POP JUMP JUMPDEST PUSH1 0x0 PUSH1 0x20 DUP3 ADD SWAP1 POP PUSH2 0x211 PUSH1 0x0 DUP4 ADD DUP5 PUSH2 0x1ED JUMP JUMPDEST SWAP3 SWAP2 POP POP JUMP JUMPDEST PUSH1 0x0 PUSH2 0x222 DUP3 PUSH2 0x235 JUMP JUMPDEST SWAP1 POP SWAP2 SWAP1 POP JUMP JUMPDEST PUSH1 0x0 DUP2 ISZERO ISZERO SWAP1 POP SWAP2 SWAP1 POP JUMP JUMPDEST PUSH1 0x0 PUSH20 0xFFFFFFFFFFFFFFFFFFFFFFFFFFFFFFFFFFFFFFFF DUP3 AND SWAP1 POP SWAP2 SWAP1 POP JUMP JUMPDEST PUSH1 0x0 DUP2 SWAP1 POP SWAP2 SWAP1 POP JUMP JUMPDEST PUSH1 0x0 DUP1 REVERT JUMPDEST PUSH2 0x26D DUP2 PUSH2 0x217 JUMP JUMPDEST DUP2 EQ PUSH2 0x278 JUMPI PUSH1 0x0 DUP1 REVERT JUMPDEST POP JUMP JUMPDEST PUSH2 0x284 DUP2 PUSH2 0x229 JUMP JUMPDEST DUP2 EQ PUSH2 0x28F JUMPI PUSH1 0x0 DUP1 REVERT JUMPDEST POP JUMP JUMPDEST PUSH2 0x29B DUP2 PUSH2 0x255 JUMP JUMPDEST DUP2 EQ PUSH2 0x2A6 JUMPI PUSH1 0x0 DUP1 REVERT JUMPDEST POP JUMP INVALID LOG2 PUSH5 0x6970667358 0x22 SLT KECCAK256 0x49 LT AND PUSH16 0x63C0C05B5E927D573DCA64D7F9387572 JUMPI 0xDE BASEFEE DUP5 0x4C 0xC 0x21 TIMESTAMP 0xA8 PUSH3 0x464864 PUSH20 0x6F6C634300080700330000000000000000000000 "
				},
				"gasEstimates": {
					"creation": {
						"codeDepositCost": "147000",
						"executionCost": "190",
						"totalCost": "147190"
					},
					"external": {
						"getMap(address,uint256,bool)": "infinite",
						"setMap(address,uint256,bool)": "25239"
					}
				},
				"methodIdentifiers": {
					"getMap(address,uint256,bool)": "0b50a681",
					"setMap(address,uint256,bool)": "ced9d61f"
				}
			},
			"storageLayout": {
				"storage": [
					{
						"astId": 7,
						"contract": "Mappings.sol:Mapping",
						"label": "nestedMap",
						"offset": 0,
						"slot": "0",
						"type": "t_mapping(t_address,t_mapping(t_uint256,t_bool))"
					}
				],
				"types": {
					"t_address": {
						"encoding": "inplace",
						"label": "address",
						"numberOfBytes": "20"
					},
					"t_bool": {
						"encoding": "inplace",
						"label": "bool",
						"numberOfBytes": "1"
					},
					"t_mapping(t_address,t_mapping(t_uint256,t_bool))": {
						"encoding": "mapping",
						"key": "t_address",
						"label": "mapping(address => mapping(uint256 => bool))",
						"numberOfBytes": "32",
						"value": "t_mapping(t_uint256,t_bool)"
					},
					"t_mapping(t_uint256,t_bool)": {
						"encoding": "mapping",
						"key": "t_uint256",
						"label": "mapping(uint256 => bool)",
						"numberOfBytes": "32",
						"value": "t_bool"
					},
					"t_uint256": {
						"encoding": "inplace",
						"label": "uint256",
						"numberOfBytes": "32"
					}
				}
			},
			"userdoc": {
				"kind": "user",
				"methods": {},
				"version": 1
			}
		}
	}
}