{
	"Structs&Ennum.sol": {
		"Customer": {
			"abi": [
				{
					"inputs": [
						{
							"internalType": "string",
							"name": "_name",
							"type": "string"
						},
						{
							"internalType": "uint256",
							"name": "_value",
							"type": "uint256"
						},
						{
							"internalType": "address",
							"name": "_addr",
							"type": "address"
						}
					],
					"stateMutability": "nonpayable",
					"type": "constructor"
				},
				{
					"inputs": [],
					"name": "subBusiness",
					"outputs": [
						{
							"internalType": "string",
							"name": "name",
							"type": "string"
						},
						{
							"internalType": "uint256",
							"name": "value",
							"type": "uint256"
						},
						{
							"internalType": "address",
							"name": "addr",
							"type": "address"
						}
					],
					"stateMutability": "view",
					"type": "function"
				}
			],
			"devdoc": {
				"kind": "dev",
				"methods": {},
				"version": 1
			},
			"evm": {
				"assembly": "    /* \"Structs&Ennum.sol\":152:564  contract Customer {\r... */\n  mstore(0x40, 0x80)\n    /* \"Structs&Ennum.sol\":339:511  constructor( string memory _name, uint _value, address _addr ){\r... */\n  callvalue\n  dup1\n  iszero\n  tag_1\n  jumpi\n  0x00\n  dup1\n  revert\ntag_1:\n  pop\n  mload(0x40)\n  sub(codesize, bytecodeSize)\n  dup1\n  bytecodeSize\n  dup4\n  codecopy\n  dup2\n  dup2\n  add\n  0x40\n  mstore\n  dup2\n  add\n  swap1\n  tag_2\n  swap2\n  swap1\n  tag_3\n  jump\t// in\ntag_2:\n    /* \"Structs&Ennum.sol\":429:434  _name */\n  dup3\n    /* \"Structs&Ennum.sol\":410:421  subBusiness */\n  0x00\n    /* \"Structs&Ennum.sol\":410:426  subBusiness.name */\n  dup1\n  add\n    /* \"Structs&Ennum.sol\":410:434  subBusiness.name = _name */\n  swap1\n  dup1\n  mload\n  swap1\n  0x20\n  add\n  swap1\n  tag_6\n  swap3\n  swap2\n  swap1\n  tag_7\n  jump\t// in\ntag_6:\n  pop\n    /* \"Structs&Ennum.sol\":463:469  _value */\n  dup2\n    /* \"Structs&Ennum.sol\":443:454  subBusiness */\n  0x00\n    /* \"Structs&Ennum.sol\":443:460  subBusiness.value */\n  0x01\n  add\n    /* \"Structs&Ennum.sol\":443:469  subBusiness.value = _value */\n  dup2\n  swap1\n  sstore\n  pop\n    /* \"Structs&Ennum.sol\":497:502  _addr */\n  dup1\n    /* \"Structs&Ennum.sol\":478:489  subBusiness */\n  0x00\n    /* \"Structs&Ennum.sol\":478:494  subBusiness.addr */\n  0x02\n  add\n  0x00\n    /* \"Structs&Ennum.sol\":478:502  subBusiness.addr = _addr */\n  0x0100\n  exp\n  dup2\n  sload\n  dup2\n  0xffffffffffffffffffffffffffffffffffffffff\n  mul\n  not\n  and\n  swap1\n  dup4\n  0xffffffffffffffffffffffffffffffffffffffff\n  and\n  mul\n  or\n  swap1\n  sstore\n  pop\n    /* \"Structs&Ennum.sol\":339:511  constructor( string memory _name, uint _value, address _addr ){\r... */\n  pop\n  pop\n  pop\n    /* \"Structs&Ennum.sol\":152:564  contract Customer {\r... */\n  jump(tag_8)\ntag_7:\n  dup3\n  dup1\n  sload\n  tag_9\n  swap1\n  tag_10\n  jump\t// in\ntag_9:\n  swap1\n  0x00\n  mstore\n  keccak256(0x00, 0x20)\n  swap1\n  0x1f\n  add\n  0x20\n  swap1\n  div\n  dup2\n  add\n  swap3\n  dup3\n  tag_12\n  jumpi\n  0x00\n  dup6\n  sstore\n  jump(tag_11)\ntag_12:\n  dup3\n  0x1f\n  lt\n  tag_13\n  jumpi\n  dup1\n  mload\n  not(0xff)\n  and\n  dup4\n  dup1\n  add\n  or\n  dup6\n  sstore\n  jump(tag_11)\ntag_13:\n  dup3\n  dup1\n  add\n  0x01\n  add\n  dup6\n  sstore\n  dup3\n  iszero\n  tag_11\n  jumpi\n  swap2\n  dup3\n  add\ntag_14:\n  dup3\n  dup2\n  gt\n  iszero\n  tag_15\n  jumpi\n  dup3\n  mload\n  dup3\n  sstore\n  swap2\n  0x20\n  add\n  swap2\n  swap1\n  0x01\n  add\n  swap1\n  jump(tag_14)\ntag_15:\ntag_11:\n  pop\n  swap1\n  pop\n  tag_16\n  swap2\n  swap1\n  tag_17\n  jump\t// in\ntag_16:\n  pop\n  swap1\n  jump\t// out\ntag_17:\ntag_18:\n  dup1\n  dup3\n  gt\n  iszero\n  tag_19\n  jumpi\n  0x00\n  dup2\n  0x00\n  swap1\n  sstore\n  pop\n  0x01\n  add\n  jump(tag_18)\ntag_19:\n  pop\n  swap1\n  jump\t// out\n    /* \"#utility.yul\":7:428   */\ntag_21:\n    /* \"#utility.yul\":96:101   */\n  0x00\n    /* \"#utility.yul\":121:187   */\n  tag_23\n    /* \"#utility.yul\":137:186   */\n  tag_24\n    /* \"#utility.yul\":179:185   */\n  dup5\n    /* \"#utility.yul\":137:186   */\n  tag_25\n  jump\t// in\ntag_24:\n    /* \"#utility.yul\":121:187   */\n  tag_26\n  jump\t// in\ntag_23:\n    /* \"#utility.yul\":112:187   */\n  swap1\n  pop\n    /* \"#utility.yul\":210:216   */\n  dup3\n    /* \"#utility.yul\":203:208   */\n  dup2\n    /* \"#utility.yul\":196:217   */\n  mstore\n    /* \"#utility.yul\":248:252   */\n  0x20\n    /* \"#utility.yul\":241:246   */\n  dup2\n    /* \"#utility.yul\":237:253   */\n  add\n    /* \"#utility.yul\":286:289   */\n  dup5\n    /* \"#utility.yul\":277:283   */\n  dup5\n    /* \"#utility.yul\":272:275   */\n  dup5\n    /* \"#utility.yul\":268:284   */\n  add\n    /* \"#utility.yul\":265:290   */\n  gt\n    /* \"#utility.yul\":262:374   */\n  iszero\n  tag_27\n  jumpi\n    /* \"#utility.yul\":293:372   */\n  tag_28\n  tag_29\n  jump\t// in\ntag_28:\n    /* \"#utility.yul\":262:374   */\ntag_27:\n    /* \"#utility.yul\":383:422   */\n  tag_30\n    /* \"#utility.yul\":415:421   */\n  dup5\n    /* \"#utility.yul\":410:413   */\n  dup3\n    /* \"#utility.yul\":405:408   */\n  dup6\n    /* \"#utility.yul\":383:422   */\n  tag_31\n  jump\t// in\ntag_30:\n    /* \"#utility.yul\":102:428   */\n  pop\n    /* \"#utility.yul\":7:428   */\n  swap4\n  swap3\n  pop\n  pop\n  pop\n  jump\t// out\n    /* \"#utility.yul\":434:577   */\ntag_32:\n    /* \"#utility.yul\":491:496   */\n  0x00\n    /* \"#utility.yul\":522:528   */\n  dup2\n    /* \"#utility.yul\":516:529   */\n  mload\n    /* \"#utility.yul\":507:529   */\n  swap1\n  pop\n    /* \"#utility.yul\":538:571   */\n  tag_34\n    /* \"#utility.yul\":565:570   */\n  dup2\n    /* \"#utility.yul\":538:571   */\n  tag_35\n  jump\t// in\ntag_34:\n    /* \"#utility.yul\":434:577   */\n  swap3\n  swap2\n  pop\n  pop\n  jump\t// out\n    /* \"#utility.yul\":597:952   */\ntag_36:\n    /* \"#utility.yul\":664:669   */\n  0x00\n    /* \"#utility.yul\":713:716   */\n  dup3\n    /* \"#utility.yul\":706:710   */\n  0x1f\n    /* \"#utility.yul\":698:704   */\n  dup4\n    /* \"#utility.yul\":694:711   */\n  add\n    /* \"#utility.yul\":690:717   */\n  slt\n    /* \"#utility.yul\":680:802   */\n  tag_38\n  jumpi\n    /* \"#utility.yul\":721:800   */\n  tag_39\n  tag_40\n  jump\t// in\ntag_39:\n    /* \"#utility.yul\":680:802   */\ntag_38:\n    /* \"#utility.yul\":831:837   */\n  dup2\n    /* \"#utility.yul\":825:838   */\n  mload\n    /* \"#utility.yul\":856:946   */\n  tag_41\n    /* \"#utility.yul\":942:945   */\n  dup5\n    /* \"#utility.yul\":934:940   */\n  dup3\n    /* \"#utility.yul\":927:931   */\n  0x20\n    /* \"#utility.yul\":919:925   */\n  dup7\n    /* \"#utility.yul\":915:932   */\n  add\n    /* \"#utility.yul\":856:946   */\n  tag_21\n  jump\t// in\ntag_41:\n    /* \"#utility.yul\":847:946   */\n  swap2\n  pop\n    /* \"#utility.yul\":670:952   */\n  pop\n    /* \"#utility.yul\":597:952   */\n  swap3\n  swap2\n  pop\n  pop\n  jump\t// out\n    /* \"#utility.yul\":958:1101   */\ntag_42:\n    /* \"#utility.yul\":1015:1020   */\n  0x00\n    /* \"#utility.yul\":1046:1052   */\n  dup2\n    /* \"#utility.yul\":1040:1053   */\n  mload\n    /* \"#utility.yul\":1031:1053   */\n  swap1\n  pop\n    /* \"#utility.yul\":1062:1095   */\n  tag_44\n    /* \"#utility.yul\":1089:1094   */\n  dup2\n    /* \"#utility.yul\":1062:1095   */\n  tag_45\n  jump\t// in\ntag_44:\n    /* \"#utility.yul\":958:1101   */\n  swap3\n  swap2\n  pop\n  pop\n  jump\t// out\n    /* \"#utility.yul\":1107:1943   */\ntag_3:\n    /* \"#utility.yul\":1205:1211   */\n  0x00\n    /* \"#utility.yul\":1213:1219   */\n  dup1\n    /* \"#utility.yul\":1221:1227   */\n  0x00\n    /* \"#utility.yul\":1270:1272   */\n  0x60\n    /* \"#utility.yul\":1258:1267   */\n  dup5\n    /* \"#utility.yul\":1249:1256   */\n  dup7\n    /* \"#utility.yul\":1245:1268   */\n  sub\n    /* \"#utility.yul\":1241:1273   */\n  slt\n    /* \"#utility.yul\":1238:1357   */\n  iszero\n  tag_47\n  jumpi\n    /* \"#utility.yul\":1276:1355   */\n  tag_48\n  tag_49\n  jump\t// in\ntag_48:\n    /* \"#utility.yul\":1238:1357   */\ntag_47:\n    /* \"#utility.yul\":1417:1418   */\n  0x00\n    /* \"#utility.yul\":1406:1415   */\n  dup5\n    /* \"#utility.yul\":1402:1419   */\n  add\n    /* \"#utility.yul\":1396:1420   */\n  mload\n    /* \"#utility.yul\":1447:1465   */\n  0xffffffffffffffff\n    /* \"#utility.yul\":1439:1445   */\n  dup2\n    /* \"#utility.yul\":1436:1466   */\n  gt\n    /* \"#utility.yul\":1433:1550   */\n  iszero\n  tag_50\n  jumpi\n    /* \"#utility.yul\":1469:1548   */\n  tag_51\n  tag_52\n  jump\t// in\ntag_51:\n    /* \"#utility.yul\":1433:1550   */\ntag_50:\n    /* \"#utility.yul\":1574:1648   */\n  tag_53\n    /* \"#utility.yul\":1640:1647   */\n  dup7\n    /* \"#utility.yul\":1631:1637   */\n  dup3\n    /* \"#utility.yul\":1620:1629   */\n  dup8\n    /* \"#utility.yul\":1616:1638   */\n  add\n    /* \"#utility.yul\":1574:1648   */\n  tag_36\n  jump\t// in\ntag_53:\n    /* \"#utility.yul\":1564:1648   */\n  swap4\n  pop\n    /* \"#utility.yul\":1367:1658   */\n  pop\n    /* \"#utility.yul\":1697:1699   */\n  0x20\n    /* \"#utility.yul\":1723:1787   */\n  tag_54\n    /* \"#utility.yul\":1779:1786   */\n  dup7\n    /* \"#utility.yul\":1770:1776   */\n  dup3\n    /* \"#utility.yul\":1759:1768   */\n  dup8\n    /* \"#utility.yul\":1755:1777   */\n  add\n    /* \"#utility.yul\":1723:1787   */\n  tag_42\n  jump\t// in\ntag_54:\n    /* \"#utility.yul\":1713:1787   */\n  swap3\n  pop\n    /* \"#utility.yul\":1668:1797   */\n  pop\n    /* \"#utility.yul\":1836:1838   */\n  0x40\n    /* \"#utility.yul\":1862:1926   */\n  tag_55\n    /* \"#utility.yul\":1918:1925   */\n  dup7\n    /* \"#utility.yul\":1909:1915   */\n  dup3\n    /* \"#utility.yul\":1898:1907   */\n  dup8\n    /* \"#utility.yul\":1894:1916   */\n  add\n    /* \"#utility.yul\":1862:1926   */\n  tag_32\n  jump\t// in\ntag_55:\n    /* \"#utility.yul\":1852:1926   */\n  swap2\n  pop\n    /* \"#utility.yul\":1807:1936   */\n  pop\n    /* \"#utility.yul\":1107:1943   */\n  swap3\n  pop\n  swap3\n  pop\n  swap3\n  jump\t// out\n    /* \"#utility.yul\":1949:2078   */\ntag_26:\n    /* \"#utility.yul\":1983:1989   */\n  0x00\n    /* \"#utility.yul\":2010:2030   */\n  tag_57\n  tag_58\n  jump\t// in\ntag_57:\n    /* \"#utility.yul\":2000:2030   */\n  swap1\n  pop\n    /* \"#utility.yul\":2039:2072   */\n  tag_59\n    /* \"#utility.yul\":2067:2071   */\n  dup3\n    /* \"#utility.yul\":2059:2065   */\n  dup3\n    /* \"#utility.yul\":2039:2072   */\n  tag_60\n  jump\t// in\ntag_59:\n    /* \"#utility.yul\":1949:2078   */\n  swap2\n  swap1\n  pop\n  jump\t// out\n    /* \"#utility.yul\":2084:2159   */\ntag_58:\n    /* \"#utility.yul\":2117:2123   */\n  0x00\n    /* \"#utility.yul\":2150:2152   */\n  0x40\n    /* \"#utility.yul\":2144:2153   */\n  mload\n    /* \"#utility.yul\":2134:2153   */\n  swap1\n  pop\n    /* \"#utility.yul\":2084:2159   */\n  swap1\n  jump\t// out\n    /* \"#utility.yul\":2165:2473   */\ntag_25:\n    /* \"#utility.yul\":2227:2231   */\n  0x00\n    /* \"#utility.yul\":2317:2335   */\n  0xffffffffffffffff\n    /* \"#utility.yul\":2309:2315   */\n  dup3\n    /* \"#utility.yul\":2306:2336   */\n  gt\n    /* \"#utility.yul\":2303:2359   */\n  iszero\n  tag_63\n  jumpi\n    /* \"#utility.yul\":2339:2357   */\n  tag_64\n  tag_65\n  jump\t// in\ntag_64:\n    /* \"#utility.yul\":2303:2359   */\ntag_63:\n    /* \"#utility.yul\":2377:2406   */\n  tag_66\n    /* \"#utility.yul\":2399:2405   */\n  dup3\n    /* \"#utility.yul\":2377:2406   */\n  tag_67\n  jump\t// in\ntag_66:\n    /* \"#utility.yul\":2369:2406   */\n  swap1\n  pop\n    /* \"#utility.yul\":2461:2465   */\n  0x20\n    /* \"#utility.yul\":2455:2459   */\n  dup2\n    /* \"#utility.yul\":2451:2466   */\n  add\n    /* \"#utility.yul\":2443:2466   */\n  swap1\n  pop\n    /* \"#utility.yul\":2165:2473   */\n  swap2\n  swap1\n  pop\n  jump\t// out\n    /* \"#utility.yul\":2479:2575   */\ntag_68:\n    /* \"#utility.yul\":2516:2523   */\n  0x00\n    /* \"#utility.yul\":2545:2569   */\n  tag_70\n    /* \"#utility.yul\":2563:2568   */\n  dup3\n    /* \"#utility.yul\":2545:2569   */\n  tag_71\n  jump\t// in\ntag_70:\n    /* \"#utility.yul\":2534:2569   */\n  swap1\n  pop\n    /* \"#utility.yul\":2479:2575   */\n  swap2\n  swap1\n  pop\n  jump\t// out\n    /* \"#utility.yul\":2581:2707   */\ntag_71:\n    /* \"#utility.yul\":2618:2625   */\n  0x00\n    /* \"#utility.yul\":2658:2700   */\n  0xffffffffffffffffffffffffffffffffffffffff\n    /* \"#utility.yul\":2651:2656   */\n  dup3\n    /* \"#utility.yul\":2647:2701   */\n  and\n    /* \"#utility.yul\":2636:2701   */\n  swap1\n  pop\n    /* \"#utility.yul\":2581:2707   */\n  swap2\n  swap1\n  pop\n  jump\t// out\n    /* \"#utility.yul\":2713:2790   */\ntag_73:\n    /* \"#utility.yul\":2750:2757   */\n  0x00\n    /* \"#utility.yul\":2779:2784   */\n  dup2\n    /* \"#utility.yul\":2768:2784   */\n  swap1\n  pop\n    /* \"#utility.yul\":2713:2790   */\n  swap2\n  swap1\n  pop\n  jump\t// out\n    /* \"#utility.yul\":2796:3103   */\ntag_31:\n    /* \"#utility.yul\":2864:2865   */\n  0x00\n    /* \"#utility.yul\":2874:2987   */\ntag_76:\n    /* \"#utility.yul\":2888:2894   */\n  dup4\n    /* \"#utility.yul\":2885:2886   */\n  dup2\n    /* \"#utility.yul\":2882:2895   */\n  lt\n    /* \"#utility.yul\":2874:2987   */\n  iszero\n  tag_78\n  jumpi\n    /* \"#utility.yul\":2973:2974   */\n  dup1\n    /* \"#utility.yul\":2968:2971   */\n  dup3\n    /* \"#utility.yul\":2964:2975   */\n  add\n    /* \"#utility.yul\":2958:2976   */\n  mload\n    /* \"#utility.yul\":2954:2955   */\n  dup2\n    /* \"#utility.yul\":2949:2952   */\n  dup5\n    /* \"#utility.yul\":2945:2956   */\n  add\n    /* \"#utility.yul\":2938:2977   */\n  mstore\n    /* \"#utility.yul\":2910:2912   */\n  0x20\n    /* \"#utility.yul\":2907:2908   */\n  dup2\n    /* \"#utility.yul\":2903:2913   */\n  add\n    /* \"#utility.yul\":2898:2913   */\n  swap1\n  pop\n    /* \"#utility.yul\":2874:2987   */\n  jump(tag_76)\ntag_78:\n    /* \"#utility.yul\":3005:3011   */\n  dup4\n    /* \"#utility.yul\":3002:3003   */\n  dup2\n    /* \"#utility.yul\":2999:3012   */\n  gt\n    /* \"#utility.yul\":2996:3097   */\n  iszero\n  tag_79\n  jumpi\n    /* \"#utility.yul\":3085:3086   */\n  0x00\n    /* \"#utility.yul\":3076:3082   */\n  dup5\n    /* \"#utility.yul\":3071:3074   */\n  dup5\n    /* \"#utility.yul\":3067:3083   */\n  add\n    /* \"#utility.yul\":3060:3087   */\n  mstore\n    /* \"#utility.yul\":2996:3097   */\ntag_79:\n    /* \"#utility.yul\":2845:3103   */\n  pop\n    /* \"#utility.yul\":2796:3103   */\n  pop\n  pop\n  pop\n  jump\t// out\n    /* \"#utility.yul\":3109:3429   */\ntag_10:\n    /* \"#utility.yul\":3153:3159   */\n  0x00\n    /* \"#utility.yul\":3190:3191   */\n  0x02\n    /* \"#utility.yul\":3184:3188   */\n  dup3\n    /* \"#utility.yul\":3180:3192   */\n  div\n    /* \"#utility.yul\":3170:3192   */\n  swap1\n  pop\n    /* \"#utility.yul\":3237:3238   */\n  0x01\n    /* \"#utility.yul\":3231:3235   */\n  dup3\n    /* \"#utility.yul\":3227:3239   */\n  and\n    /* \"#utility.yul\":3258:3276   */\n  dup1\n    /* \"#utility.yul\":3248:3329   */\n  tag_81\n  jumpi\n    /* \"#utility.yul\":3314:3318   */\n  0x7f\n    /* \"#utility.yul\":3306:3312   */\n  dup3\n    /* \"#utility.yul\":3302:3319   */\n  and\n    /* \"#utility.yul\":3292:3319   */\n  swap2\n  pop\n    /* \"#utility.yul\":3248:3329   */\ntag_81:\n    /* \"#utility.yul\":3376:3378   */\n  0x20\n    /* \"#utility.yul\":3368:3374   */\n  dup3\n    /* \"#utility.yul\":3365:3379   */\n  lt\n    /* \"#utility.yul\":3345:3363   */\n  dup2\n    /* \"#utility.yul\":3342:3380   */\n  eq\n    /* \"#utility.yul\":3339:3423   */\n  iszero\n  tag_82\n  jumpi\n    /* \"#utility.yul\":3395:3413   */\n  tag_83\n  tag_84\n  jump\t// in\ntag_83:\n    /* \"#utility.yul\":3339:3423   */\ntag_82:\n    /* \"#utility.yul\":3160:3429   */\n  pop\n    /* \"#utility.yul\":3109:3429   */\n  swap2\n  swap1\n  pop\n  jump\t// out\n    /* \"#utility.yul\":3435:3716   */\ntag_60:\n    /* \"#utility.yul\":3518:3545   */\n  tag_86\n    /* \"#utility.yul\":3540:3544   */\n  dup3\n    /* \"#utility.yul\":3518:3545   */\n  tag_67\n  jump\t// in\ntag_86:\n    /* \"#utility.yul\":3510:3516   */\n  dup2\n    /* \"#utility.yul\":3506:3546   */\n  add\n    /* \"#utility.yul\":3648:3654   */\n  dup2\n    /* \"#utility.yul\":3636:3646   */\n  dup2\n    /* \"#utility.yul\":3633:3655   */\n  lt\n    /* \"#utility.yul\":3612:3630   */\n  0xffffffffffffffff\n    /* \"#utility.yul\":3600:3610   */\n  dup3\n    /* \"#utility.yul\":3597:3631   */\n  gt\n    /* \"#utility.yul\":3594:3656   */\n  or\n    /* \"#utility.yul\":3591:3679   */\n  iszero\n  tag_87\n  jumpi\n    /* \"#utility.yul\":3659:3677   */\n  tag_88\n  tag_65\n  jump\t// in\ntag_88:\n    /* \"#utility.yul\":3591:3679   */\ntag_87:\n    /* \"#utility.yul\":3699:3709   */\n  dup1\n    /* \"#utility.yul\":3695:3697   */\n  0x40\n    /* \"#utility.yul\":3688:3710   */\n  mstore\n    /* \"#utility.yul\":3478:3716   */\n  pop\n    /* \"#utility.yul\":3435:3716   */\n  pop\n  pop\n  jump\t// out\n    /* \"#utility.yul\":3722:3902   */\ntag_84:\n    /* \"#utility.yul\":3770:3847   */\n  0x4e487b7100000000000000000000000000000000000000000000000000000000\n    /* \"#utility.yul\":3767:3768   */\n  0x00\n    /* \"#utility.yul\":3760:3848   */\n  mstore\n    /* \"#utility.yul\":3867:3871   */\n  0x22\n    /* \"#utility.yul\":3864:3865   */\n  0x04\n    /* \"#utility.yul\":3857:3872   */\n  mstore\n    /* \"#utility.yul\":3891:3895   */\n  0x24\n    /* \"#utility.yul\":3888:3889   */\n  0x00\n    /* \"#utility.yul\":3881:3896   */\n  revert\n    /* \"#utility.yul\":3908:4088   */\ntag_65:\n    /* \"#utility.yul\":3956:4033   */\n  0x4e487b7100000000000000000000000000000000000000000000000000000000\n    /* \"#utility.yul\":3953:3954   */\n  0x00\n    /* \"#utility.yul\":3946:4034   */\n  mstore\n    /* \"#utility.yul\":4053:4057   */\n  0x41\n    /* \"#utility.yul\":4050:4051   */\n  0x04\n    /* \"#utility.yul\":4043:4058   */\n  mstore\n    /* \"#utility.yul\":4077:4081   */\n  0x24\n    /* \"#utility.yul\":4074:4075   */\n  0x00\n    /* \"#utility.yul\":4067:4082   */\n  revert\n    /* \"#utility.yul\":4094:4211   */\ntag_40:\n    /* \"#utility.yul\":4203:4204   */\n  0x00\n    /* \"#utility.yul\":4200:4201   */\n  dup1\n    /* \"#utility.yul\":4193:4205   */\n  revert\n    /* \"#utility.yul\":4217:4334   */\ntag_29:\n    /* \"#utility.yul\":4326:4327   */\n  0x00\n    /* \"#utility.yul\":4323:4324   */\n  dup1\n    /* \"#utility.yul\":4316:4328   */\n  revert\n    /* \"#utility.yul\":4340:4457   */\ntag_52:\n    /* \"#utility.yul\":4449:4450   */\n  0x00\n    /* \"#utility.yul\":4446:4447   */\n  dup1\n    /* \"#utility.yul\":4439:4451   */\n  revert\n    /* \"#utility.yul\":4463:4580   */\ntag_49:\n    /* \"#utility.yul\":4572:4573   */\n  0x00\n    /* \"#utility.yul\":4569:4570   */\n  dup1\n    /* \"#utility.yul\":4562:4574   */\n  revert\n    /* \"#utility.yul\":4586:4688   */\ntag_67:\n    /* \"#utility.yul\":4627:4633   */\n  0x00\n    /* \"#utility.yul\":4678:4680   */\n  0x1f\n    /* \"#utility.yul\":4674:4681   */\n  not\n    /* \"#utility.yul\":4669:4671   */\n  0x1f\n    /* \"#utility.yul\":4662:4667   */\n  dup4\n    /* \"#utility.yul\":4658:4672   */\n  add\n    /* \"#utility.yul\":4654:4682   */\n  and\n    /* \"#utility.yul\":4644:4682   */\n  swap1\n  pop\n    /* \"#utility.yul\":4586:4688   */\n  swap2\n  swap1\n  pop\n  jump\t// out\n    /* \"#utility.yul\":4694:4816   */\ntag_35:\n    /* \"#utility.yul\":4767:4791   */\n  tag_97\n    /* \"#utility.yul\":4785:4790   */\n  dup2\n    /* \"#utility.yul\":4767:4791   */\n  tag_68\n  jump\t// in\ntag_97:\n    /* \"#utility.yul\":4760:4765   */\n  dup2\n    /* \"#utility.yul\":4757:4792   */\n  eq\n    /* \"#utility.yul\":4747:4810   */\n  tag_98\n  jumpi\n    /* \"#utility.yul\":4806:4807   */\n  0x00\n    /* \"#utility.yul\":4803:4804   */\n  dup1\n    /* \"#utility.yul\":4796:4808   */\n  revert\n    /* \"#utility.yul\":4747:4810   */\ntag_98:\n    /* \"#utility.yul\":4694:4816   */\n  pop\n  jump\t// out\n    /* \"#utility.yul\":4822:4944   */\ntag_45:\n    /* \"#utility.yul\":4895:4919   */\n  tag_100\n    /* \"#utility.yul\":4913:4918   */\n  dup2\n    /* \"#utility.yul\":4895:4919   */\n  tag_73\n  jump\t// in\ntag_100:\n    /* \"#utility.yul\":4888:4893   */\n  dup2\n    /* \"#utility.yul\":4885:4920   */\n  eq\n    /* \"#utility.yul\":4875:4938   */\n  tag_101\n  jumpi\n    /* \"#utility.yul\":4934:4935   */\n  0x00\n    /* \"#utility.yul\":4931:4932   */\n  dup1\n    /* \"#utility.yul\":4924:4936   */\n  revert\n    /* \"#utility.yul\":4875:4938   */\ntag_101:\n    /* \"#utility.yul\":4822:4944   */\n  pop\n  jump\t// out\n    /* \"Structs&Ennum.sol\":152:564  contract Customer {\r... */\ntag_8:\n  dataSize(sub_0)\n  dup1\n  dataOffset(sub_0)\n  0x00\n  codecopy\n  0x00\n  return\nstop\n\nsub_0: assembly {\n        /* \"Structs&Ennum.sol\":152:564  contract Customer {\r... */\n      mstore(0x40, 0x80)\n      callvalue\n      dup1\n      iszero\n      tag_1\n      jumpi\n      0x00\n      dup1\n      revert\n    tag_1:\n      pop\n      jumpi(tag_2, lt(calldatasize, 0x04))\n      shr(0xe0, calldataload(0x00))\n      dup1\n      0x46372ebd\n      eq\n      tag_3\n      jumpi\n    tag_2:\n      0x00\n      dup1\n      revert\n        /* \"Structs&Ennum.sol\":228:255  Business public subBusiness */\n    tag_3:\n      tag_4\n      tag_5\n      jump\t// in\n    tag_4:\n      mload(0x40)\n      tag_6\n      swap4\n      swap3\n      swap2\n      swap1\n      tag_7\n      jump\t// in\n    tag_6:\n      mload(0x40)\n      dup1\n      swap2\n      sub\n      swap1\n      return\n    tag_5:\n      0x00\n      dup1\n      0x00\n      add\n      dup1\n      sload\n      tag_8\n      swap1\n      tag_9\n      jump\t// in\n    tag_8:\n      dup1\n      0x1f\n      add\n      0x20\n      dup1\n      swap2\n      div\n      mul\n      0x20\n      add\n      mload(0x40)\n      swap1\n      dup2\n      add\n      0x40\n      mstore\n      dup1\n      swap3\n      swap2\n      swap1\n      dup2\n      dup2\n      mstore\n      0x20\n      add\n      dup3\n      dup1\n      sload\n      tag_10\n      swap1\n      tag_9\n      jump\t// in\n    tag_10:\n      dup1\n      iszero\n      tag_11\n      jumpi\n      dup1\n      0x1f\n      lt\n      tag_12\n      jumpi\n      0x0100\n      dup1\n      dup4\n      sload\n      div\n      mul\n      dup4\n      mstore\n      swap2\n      0x20\n      add\n      swap2\n      jump(tag_11)\n    tag_12:\n      dup3\n      add\n      swap2\n      swap1\n      0x00\n      mstore\n      keccak256(0x00, 0x20)\n      swap1\n    tag_13:\n      dup2\n      sload\n      dup2\n      mstore\n      swap1\n      0x01\n      add\n      swap1\n      0x20\n      add\n      dup1\n      dup4\n      gt\n      tag_13\n      jumpi\n      dup3\n      swap1\n      sub\n      0x1f\n      and\n      dup3\n      add\n      swap2\n    tag_11:\n      pop\n      pop\n      pop\n      pop\n      pop\n      swap1\n      dup1\n      0x01\n      add\n      sload\n      swap1\n      dup1\n      0x02\n      add\n      0x00\n      swap1\n      sload\n      swap1\n      0x0100\n      exp\n      swap1\n      div\n      0xffffffffffffffffffffffffffffffffffffffff\n      and\n      swap1\n      pop\n      dup4\n      jump\t// out\n        /* \"#utility.yul\":7:125   */\n    tag_15:\n        /* \"#utility.yul\":94:118   */\n      tag_17\n        /* \"#utility.yul\":112:117   */\n      dup2\n        /* \"#utility.yul\":94:118   */\n      tag_18\n      jump\t// in\n    tag_17:\n        /* \"#utility.yul\":89:92   */\n      dup3\n        /* \"#utility.yul\":82:119   */\n      mstore\n        /* \"#utility.yul\":7:125   */\n      pop\n      pop\n      jump\t// out\n        /* \"#utility.yul\":131:495   */\n    tag_19:\n        /* \"#utility.yul\":219:222   */\n      0x00\n        /* \"#utility.yul\":247:286   */\n      tag_21\n        /* \"#utility.yul\":280:285   */\n      dup3\n        /* \"#utility.yul\":247:286   */\n      tag_22\n      jump\t// in\n    tag_21:\n        /* \"#utility.yul\":302:373   */\n      tag_23\n        /* \"#utility.yul\":366:372   */\n      dup2\n        /* \"#utility.yul\":361:364   */\n      dup6\n        /* \"#utility.yul\":302:373   */\n      tag_24\n      jump\t// in\n    tag_23:\n        /* \"#utility.yul\":295:373   */\n      swap4\n      pop\n        /* \"#utility.yul\":382:434   */\n      tag_25\n        /* \"#utility.yul\":427:433   */\n      dup2\n        /* \"#utility.yul\":422:425   */\n      dup6\n        /* \"#utility.yul\":415:419   */\n      0x20\n        /* \"#utility.yul\":408:413   */\n      dup7\n        /* \"#utility.yul\":404:420   */\n      add\n        /* \"#utility.yul\":382:434   */\n      tag_26\n      jump\t// in\n    tag_25:\n        /* \"#utility.yul\":459:488   */\n      tag_27\n        /* \"#utility.yul\":481:487   */\n      dup2\n        /* \"#utility.yul\":459:488   */\n      tag_28\n      jump\t// in\n    tag_27:\n        /* \"#utility.yul\":454:457   */\n      dup5\n        /* \"#utility.yul\":450:489   */\n      add\n        /* \"#utility.yul\":443:489   */\n      swap2\n      pop\n        /* \"#utility.yul\":223:495   */\n      pop\n        /* \"#utility.yul\":131:495   */\n      swap3\n      swap2\n      pop\n      pop\n      jump\t// out\n        /* \"#utility.yul\":501:619   */\n    tag_29:\n        /* \"#utility.yul\":588:612   */\n      tag_31\n        /* \"#utility.yul\":606:611   */\n      dup2\n        /* \"#utility.yul\":588:612   */\n      tag_32\n      jump\t// in\n    tag_31:\n        /* \"#utility.yul\":583:586   */\n      dup3\n        /* \"#utility.yul\":576:613   */\n      mstore\n        /* \"#utility.yul\":501:619   */\n      pop\n      pop\n      jump\t// out\n        /* \"#utility.yul\":625:1158   */\n    tag_7:\n        /* \"#utility.yul\":794:798   */\n      0x00\n        /* \"#utility.yul\":832:834   */\n      0x60\n        /* \"#utility.yul\":821:830   */\n      dup3\n        /* \"#utility.yul\":817:835   */\n      add\n        /* \"#utility.yul\":809:835   */\n      swap1\n      pop\n        /* \"#utility.yul\":881:890   */\n      dup2\n        /* \"#utility.yul\":875:879   */\n      dup2\n        /* \"#utility.yul\":871:891   */\n      sub\n        /* \"#utility.yul\":867:868   */\n      0x00\n        /* \"#utility.yul\":856:865   */\n      dup4\n        /* \"#utility.yul\":852:869   */\n      add\n        /* \"#utility.yul\":845:892   */\n      mstore\n        /* \"#utility.yul\":909:987   */\n      tag_34\n        /* \"#utility.yul\":982:986   */\n      dup2\n        /* \"#utility.yul\":973:979   */\n      dup7\n        /* \"#utility.yul\":909:987   */\n      tag_19\n      jump\t// in\n    tag_34:\n        /* \"#utility.yul\":901:987   */\n      swap1\n      pop\n        /* \"#utility.yul\":997:1069   */\n      tag_35\n        /* \"#utility.yul\":1065:1067   */\n      0x20\n        /* \"#utility.yul\":1054:1063   */\n      dup4\n        /* \"#utility.yul\":1050:1068   */\n      add\n        /* \"#utility.yul\":1041:1047   */\n      dup6\n        /* \"#utility.yul\":997:1069   */\n      tag_29\n      jump\t// in\n    tag_35:\n        /* \"#utility.yul\":1079:1151   */\n      tag_36\n        /* \"#utility.yul\":1147:1149   */\n      0x40\n        /* \"#utility.yul\":1136:1145   */\n      dup4\n        /* \"#utility.yul\":1132:1150   */\n      add\n        /* \"#utility.yul\":1123:1129   */\n      dup5\n        /* \"#utility.yul\":1079:1151   */\n      tag_15\n      jump\t// in\n    tag_36:\n        /* \"#utility.yul\":625:1158   */\n      swap5\n      swap4\n      pop\n      pop\n      pop\n      pop\n      jump\t// out\n        /* \"#utility.yul\":1164:1263   */\n    tag_22:\n        /* \"#utility.yul\":1216:1222   */\n      0x00\n        /* \"#utility.yul\":1250:1255   */\n      dup2\n        /* \"#utility.yul\":1244:1256   */\n      mload\n        /* \"#utility.yul\":1234:1256   */\n      swap1\n      pop\n        /* \"#utility.yul\":1164:1263   */\n      swap2\n      swap1\n      pop\n      jump\t// out\n        /* \"#utility.yul\":1269:1438   */\n    tag_24:\n        /* \"#utility.yul\":1353:1364   */\n      0x00\n        /* \"#utility.yul\":1387:1393   */\n      dup3\n        /* \"#utility.yul\":1382:1385   */\n      dup3\n        /* \"#utility.yul\":1375:1394   */\n      mstore\n        /* \"#utility.yul\":1427:1431   */\n      0x20\n        /* \"#utility.yul\":1422:1425   */\n      dup3\n        /* \"#utility.yul\":1418:1432   */\n      add\n        /* \"#utility.yul\":1403:1432   */\n      swap1\n      pop\n        /* \"#utility.yul\":1269:1438   */\n      swap3\n      swap2\n      pop\n      pop\n      jump\t// out\n        /* \"#utility.yul\":1444:1540   */\n    tag_18:\n        /* \"#utility.yul\":1481:1488   */\n      0x00\n        /* \"#utility.yul\":1510:1534   */\n      tag_40\n        /* \"#utility.yul\":1528:1533   */\n      dup3\n        /* \"#utility.yul\":1510:1534   */\n      tag_41\n      jump\t// in\n    tag_40:\n        /* \"#utility.yul\":1499:1534   */\n      swap1\n      pop\n        /* \"#utility.yul\":1444:1540   */\n      swap2\n      swap1\n      pop\n      jump\t// out\n        /* \"#utility.yul\":1546:1672   */\n    tag_41:\n        /* \"#utility.yul\":1583:1590   */\n      0x00\n        /* \"#utility.yul\":1623:1665   */\n      0xffffffffffffffffffffffffffffffffffffffff\n        /* \"#utility.yul\":1616:1621   */\n      dup3\n        /* \"#utility.yul\":1612:1666   */\n      and\n        /* \"#utility.yul\":1601:1666   */\n      swap1\n      pop\n        /* \"#utility.yul\":1546:1672   */\n      swap2\n      swap1\n      pop\n      jump\t// out\n        /* \"#utility.yul\":1678:1755   */\n    tag_32:\n        /* \"#utility.yul\":1715:1722   */\n      0x00\n        /* \"#utility.yul\":1744:1749   */\n      dup2\n        /* \"#utility.yul\":1733:1749   */\n      swap1\n      pop\n        /* \"#utility.yul\":1678:1755   */\n      swap2\n      swap1\n      pop\n      jump\t// out\n        /* \"#utility.yul\":1761:2068   */\n    tag_26:\n        /* \"#utility.yul\":1829:1830   */\n      0x00\n        /* \"#utility.yul\":1839:1952   */\n    tag_45:\n        /* \"#utility.yul\":1853:1859   */\n      dup4\n        /* \"#utility.yul\":1850:1851   */\n      dup2\n        /* \"#utility.yul\":1847:1860   */\n      lt\n        /* \"#utility.yul\":1839:1952   */\n      iszero\n      tag_47\n      jumpi\n        /* \"#utility.yul\":1938:1939   */\n      dup1\n        /* \"#utility.yul\":1933:1936   */\n      dup3\n        /* \"#utility.yul\":1929:1940   */\n      add\n        /* \"#utility.yul\":1923:1941   */\n      mload\n        /* \"#utility.yul\":1919:1920   */\n      dup2\n        /* \"#utility.yul\":1914:1917   */\n      dup5\n        /* \"#utility.yul\":1910:1921   */\n      add\n        /* \"#utility.yul\":1903:1942   */\n      mstore\n        /* \"#utility.yul\":1875:1877   */\n      0x20\n        /* \"#utility.yul\":1872:1873   */\n      dup2\n        /* \"#utility.yul\":1868:1878   */\n      add\n        /* \"#utility.yul\":1863:1878   */\n      swap1\n      pop\n        /* \"#utility.yul\":1839:1952   */\n      jump(tag_45)\n    tag_47:\n        /* \"#utility.yul\":1970:1976   */\n      dup4\n        /* \"#utility.yul\":1967:1968   */\n      dup2\n        /* \"#utility.yul\":1964:1977   */\n      gt\n        /* \"#utility.yul\":1961:2062   */\n      iszero\n      tag_48\n      jumpi\n        /* \"#utility.yul\":2050:2051   */\n      0x00\n        /* \"#utility.yul\":2041:2047   */\n      dup5\n        /* \"#utility.yul\":2036:2039   */\n      dup5\n        /* \"#utility.yul\":2032:2048   */\n      add\n        /* \"#utility.yul\":2025:2052   */\n      mstore\n        /* \"#utility.yul\":1961:2062   */\n    tag_48:\n        /* \"#utility.yul\":1810:2068   */\n      pop\n        /* \"#utility.yul\":1761:2068   */\n      pop\n      pop\n      pop\n      jump\t// out\n        /* \"#utility.yul\":2074:2394   */\n    tag_9:\n        /* \"#utility.yul\":2118:2124   */\n      0x00\n        /* \"#utility.yul\":2155:2156   */\n      0x02\n        /* \"#utility.yul\":2149:2153   */\n      dup3\n        /* \"#utility.yul\":2145:2157   */\n      div\n        /* \"#utility.yul\":2135:2157   */\n      swap1\n      pop\n        /* \"#utility.yul\":2202:2203   */\n      0x01\n        /* \"#utility.yul\":2196:2200   */\n      dup3\n        /* \"#utility.yul\":2192:2204   */\n      and\n        /* \"#utility.yul\":2223:2241   */\n      dup1\n        /* \"#utility.yul\":2213:2294   */\n      tag_50\n      jumpi\n        /* \"#utility.yul\":2279:2283   */\n      0x7f\n        /* \"#utility.yul\":2271:2277   */\n      dup3\n        /* \"#utility.yul\":2267:2284   */\n      and\n        /* \"#utility.yul\":2257:2284   */\n      swap2\n      pop\n        /* \"#utility.yul\":2213:2294   */\n    tag_50:\n        /* \"#utility.yul\":2341:2343   */\n      0x20\n        /* \"#utility.yul\":2333:2339   */\n      dup3\n        /* \"#utility.yul\":2330:2344   */\n      lt\n        /* \"#utility.yul\":2310:2328   */\n      dup2\n        /* \"#utility.yul\":2307:2345   */\n      eq\n        /* \"#utility.yul\":2304:2388   */\n      iszero\n      tag_51\n      jumpi\n        /* \"#utility.yul\":2360:2378   */\n      tag_52\n      tag_53\n      jump\t// in\n    tag_52:\n        /* \"#utility.yul\":2304:2388   */\n    tag_51:\n        /* \"#utility.yul\":2125:2394   */\n      pop\n        /* \"#utility.yul\":2074:2394   */\n      swap2\n      swap1\n      pop\n      jump\t// out\n        /* \"#utility.yul\":2400:2580   */\n    tag_53:\n        /* \"#utility.yul\":2448:2525   */\n      0x4e487b7100000000000000000000000000000000000000000000000000000000\n        /* \"#utility.yul\":2445:2446   */\n      0x00\n        /* \"#utility.yul\":2438:2526   */\n      mstore\n        /* \"#utility.yul\":2545:2549   */\n      0x22\n        /* \"#utility.yul\":2542:2543   */\n      0x04\n        /* \"#utility.yul\":2535:2550   */\n      mstore\n        /* \"#utility.yul\":2569:2573   */\n      0x24\n        /* \"#utility.yul\":2566:2567   */\n      0x00\n        /* \"#utility.yul\":2559:2574   */\n      revert\n        /* \"#utility.yul\":2586:2688   */\n    tag_28:\n        /* \"#utility.yul\":2627:2633   */\n      0x00\n        /* \"#utility.yul\":2678:2680   */\n      0x1f\n        /* \"#utility.yul\":2674:2681   */\n      not\n        /* \"#utility.yul\":2669:2671   */\n      0x1f\n        /* \"#utility.yul\":2662:2667   */\n      dup4\n        /* \"#utility.yul\":2658:2672   */\n      add\n        /* \"#utility.yul\":2654:2682   */\n      and\n        /* \"#utility.yul\":2644:2682   */\n      swap1\n      pop\n        /* \"#utility.yul\":2586:2688   */\n      swap2\n      swap1\n      pop\n      jump\t// out\n\n    auxdata: 0xa26469706673582212202c708412860a908f673a7b378e51d91f35537d11c3a6440996d3efdb4dd2da1e64736f6c63430008070033\n}\n",
				"bytecode": {
					"linkReferences": {},
					"object": "608060405234801561001057600080fd5b5060405161070d38038061070d833981810160405281019061003291906101de565b8260008001908051906020019061004a9291906100a1565b508160006001018190555080600060020160006101000a81548173ffffffffffffffffffffffffffffffffffffffff021916908373ffffffffffffffffffffffffffffffffffffffff160217905550505050610426565b8280546100ad90610312565b90600052602060002090601f0160209004810192826100cf5760008555610116565b82601f106100e857805160ff1916838001178555610116565b82800160010185558215610116579182015b828111156101155782518255916020019190600101906100fa565b5b5090506101239190610127565b5090565b5b80821115610140576000816000905550600101610128565b5090565b600061015761015284610272565b61024d565b905082815260208101848484011115610173576101726103d8565b5b61017e8482856102df565b509392505050565b600081519050610195816103f8565b92915050565b600082601f8301126101b0576101af6103d3565b5b81516101c0848260208601610144565b91505092915050565b6000815190506101d88161040f565b92915050565b6000806000606084860312156101f7576101f66103e2565b5b600084015167ffffffffffffffff811115610215576102146103dd565b5b6102218682870161019b565b9350506020610232868287016101c9565b925050604061024386828701610186565b9150509250925092565b6000610257610268565b90506102638282610344565b919050565b6000604051905090565b600067ffffffffffffffff82111561028d5761028c6103a4565b5b610296826103e7565b9050602081019050919050565b60006102ae826102b5565b9050919050565b600073ffffffffffffffffffffffffffffffffffffffff82169050919050565b6000819050919050565b60005b838110156102fd5780820151818401526020810190506102e2565b8381111561030c576000848401525b50505050565b6000600282049050600182168061032a57607f821691505b6020821081141561033e5761033d610375565b5b50919050565b61034d826103e7565b810181811067ffffffffffffffff8211171561036c5761036b6103a4565b5b80604052505050565b7f4e487b7100000000000000000000000000000000000000000000000000000000600052602260045260246000fd5b7f4e487b7100000000000000000000000000000000000000000000000000000000600052604160045260246000fd5b600080fd5b600080fd5b600080fd5b600080fd5b6000601f19601f8301169050919050565b610401816102a3565b811461040c57600080fd5b50565b610418816102d5565b811461042357600080fd5b50565b6102d8806104356000396000f3fe608060405234801561001057600080fd5b506004361061002b5760003560e01c806346372ebd14610030575b600080fd5b610038610050565b60405161004793929190610167565b60405180910390f35b600080600001805461006190610230565b80601f016020809104026020016040519081016040528092919081815260200182805461008d90610230565b80156100da5780601f106100af576101008083540402835291602001916100da565b820191906000526020600020905b8154815290600101906020018083116100bd57829003601f168201915b5050505050908060010154908060020160009054906101000a900473ffffffffffffffffffffffffffffffffffffffff16905083565b610119816101c1565b82525050565b600061012a826101a5565b61013481856101b0565b93506101448185602086016101fd565b61014d81610291565b840191505092915050565b610161816101f3565b82525050565b60006060820190508181036000830152610181818661011f565b90506101906020830185610158565b61019d6040830184610110565b949350505050565b600081519050919050565b600082825260208201905092915050565b60006101cc826101d3565b9050919050565b600073ffffffffffffffffffffffffffffffffffffffff82169050919050565b6000819050919050565b60005b8381101561021b578082015181840152602081019050610200565b8381111561022a576000848401525b50505050565b6000600282049050600182168061024857607f821691505b6020821081141561025c5761025b610262565b5b50919050565b7f4e487b7100000000000000000000000000000000000000000000000000000000600052602260045260246000fd5b6000601f19601f830116905091905056fea26469706673582212202c708412860a908f673a7b378e51d91f35537d11c3a6440996d3efdb4dd2da1e64736f6c63430008070033",
					"opcodes": "PUSH1 0x80 PUSH1 0x40 MSTORE CALLVALUE DUP1 ISZERO PUSH2 0x10 JUMPI PUSH1 0x0 DUP1 REVERT JUMPDEST POP PUSH1 0x40 MLOAD PUSH2 0x70D CODESIZE SUB DUP1 PUSH2 0x70D DUP4 CODECOPY DUP2 DUP2 ADD PUSH1 0x40 MSTORE DUP2 ADD SWAP1 PUSH2 0x32 SWAP2 SWAP1 PUSH2 0x1DE JUMP JUMPDEST DUP3 PUSH1 0x0 DUP1 ADD SWAP1 DUP1 MLOAD SWAP1 PUSH1 0x20 ADD SWAP1 PUSH2 0x4A SWAP3 SWAP2 SWAP1 PUSH2 0xA1 JUMP JUMPDEST POP DUP2 PUSH1 0x0 PUSH1 0x1 ADD DUP2 SWAP1 SSTORE POP DUP1 PUSH1 0x0 PUSH1 0x2 ADD PUSH1 0x0 PUSH2 0x100 EXP DUP2 SLOAD DUP2 PUSH20 0xFFFFFFFFFFFFFFFFFFFFFFFFFFFFFFFFFFFFFFFF MUL NOT AND SWAP1 DUP4 PUSH20 0xFFFFFFFFFFFFFFFFFFFFFFFFFFFFFFFFFFFFFFFF AND MUL OR SWAP1 SSTORE POP POP POP POP PUSH2 0x426 JUMP JUMPDEST DUP3 DUP1 SLOAD PUSH2 0xAD SWAP1 PUSH2 0x312 JUMP JUMPDEST SWAP1 PUSH1 0x0 MSTORE PUSH1 0x20 PUSH1 0x0 KECCAK256 SWAP1 PUSH1 0x1F ADD PUSH1 0x20 SWAP1 DIV DUP2 ADD SWAP3 DUP3 PUSH2 0xCF JUMPI PUSH1 0x0 DUP6 SSTORE PUSH2 0x116 JUMP JUMPDEST DUP3 PUSH1 0x1F LT PUSH2 0xE8 JUMPI DUP1 MLOAD PUSH1 0xFF NOT AND DUP4 DUP1 ADD OR DUP6 SSTORE PUSH2 0x116 JUMP JUMPDEST DUP3 DUP1 ADD PUSH1 0x1 ADD DUP6 SSTORE DUP3 ISZERO PUSH2 0x116 JUMPI SWAP2 DUP3 ADD JUMPDEST DUP3 DUP2 GT ISZERO PUSH2 0x115 JUMPI DUP3 MLOAD DUP3 SSTORE SWAP2 PUSH1 0x20 ADD SWAP2 SWAP1 PUSH1 0x1 ADD SWAP1 PUSH2 0xFA JUMP JUMPDEST JUMPDEST POP SWAP1 POP PUSH2 0x123 SWAP2 SWAP1 PUSH2 0x127 JUMP JUMPDEST POP SWAP1 JUMP JUMPDEST JUMPDEST DUP1 DUP3 GT ISZERO PUSH2 0x140 JUMPI PUSH1 0x0 DUP2 PUSH1 0x0 SWAP1 SSTORE POP PUSH1 0x1 ADD PUSH2 0x128 JUMP JUMPDEST POP SWAP1 JUMP JUMPDEST PUSH1 0x0 PUSH2 0x157 PUSH2 0x152 DUP5 PUSH2 0x272 JUMP JUMPDEST PUSH2 0x24D JUMP JUMPDEST SWAP1 POP DUP3 DUP2 MSTORE PUSH1 0x20 DUP2 ADD DUP5 DUP5 DUP5 ADD GT ISZERO PUSH2 0x173 JUMPI PUSH2 0x172 PUSH2 0x3D8 JUMP JUMPDEST JUMPDEST PUSH2 0x17E DUP5 DUP3 DUP6 PUSH2 0x2DF JUMP JUMPDEST POP SWAP4 SWAP3 POP POP POP JUMP JUMPDEST PUSH1 0x0 DUP2 MLOAD SWAP1 POP PUSH2 0x195 DUP2 PUSH2 0x3F8 JUMP JUMPDEST SWAP3 SWAP2 POP POP JUMP JUMPDEST PUSH1 0x0 DUP3 PUSH1 0x1F DUP4 ADD SLT PUSH2 0x1B0 JUMPI PUSH2 0x1AF PUSH2 0x3D3 JUMP JUMPDEST JUMPDEST DUP2 MLOAD PUSH2 0x1C0 DUP5 DUP3 PUSH1 0x20 DUP7 ADD PUSH2 0x144 JUMP JUMPDEST SWAP2 POP POP SWAP3 SWAP2 POP POP JUMP JUMPDEST PUSH1 0x0 DUP2 MLOAD SWAP1 POP PUSH2 0x1D8 DUP2 PUSH2 0x40F JUMP JUMPDEST SWAP3 SWAP2 POP POP JUMP JUMPDEST PUSH1 0x0 DUP1 PUSH1 0x0 PUSH1 0x60 DUP5 DUP7 SUB SLT ISZERO PUSH2 0x1F7 JUMPI PUSH2 0x1F6 PUSH2 0x3E2 JUMP JUMPDEST JUMPDEST PUSH1 0x0 DUP5 ADD MLOAD PUSH8 0xFFFFFFFFFFFFFFFF DUP2 GT ISZERO PUSH2 0x215 JUMPI PUSH2 0x214 PUSH2 0x3DD JUMP JUMPDEST JUMPDEST PUSH2 0x221 DUP7 DUP3 DUP8 ADD PUSH2 0x19B JUMP JUMPDEST SWAP4 POP POP PUSH1 0x20 PUSH2 0x232 DUP7 DUP3 DUP8 ADD PUSH2 0x1C9 JUMP JUMPDEST SWAP3 POP POP PUSH1 0x40 PUSH2 0x243 DUP7 DUP3 DUP8 ADD PUSH2 0x186 JUMP JUMPDEST SWAP2 POP POP SWAP3 POP SWAP3 POP SWAP3 JUMP JUMPDEST PUSH1 0x0 PUSH2 0x257 PUSH2 0x268 JUMP JUMPDEST SWAP1 POP PUSH2 0x263 DUP3 DUP3 PUSH2 0x344 JUMP JUMPDEST SWAP2 SWAP1 POP JUMP JUMPDEST PUSH1 0x0 PUSH1 0x40 MLOAD SWAP1 POP SWAP1 JUMP JUMPDEST PUSH1 0x0 PUSH8 0xFFFFFFFFFFFFFFFF DUP3 GT ISZERO PUSH2 0x28D JUMPI PUSH2 0x28C PUSH2 0x3A4 JUMP JUMPDEST JUMPDEST PUSH2 0x296 DUP3 PUSH2 0x3E7 JUMP JUMPDEST SWAP1 POP PUSH1 0x20 DUP2 ADD SWAP1 POP SWAP2 SWAP1 POP JUMP JUMPDEST PUSH1 0x0 PUSH2 0x2AE DUP3 PUSH2 0x2B5 JUMP JUMPDEST SWAP1 POP SWAP2 SWAP1 POP JUMP JUMPDEST PUSH1 0x0 PUSH20 0xFFFFFFFFFFFFFFFFFFFFFFFFFFFFFFFFFFFFFFFF DUP3 AND SWAP1 POP SWAP2 SWAP1 POP JUMP JUMPDEST PUSH1 0x0 DUP2 SWAP1 POP SWAP2 SWAP1 POP JUMP JUMPDEST PUSH1 0x0 JUMPDEST DUP4 DUP2 LT ISZERO PUSH2 0x2FD JUMPI DUP1 DUP3 ADD MLOAD DUP2 DUP5 ADD MSTORE PUSH1 0x20 DUP2 ADD SWAP1 POP PUSH2 0x2E2 JUMP JUMPDEST DUP4 DUP2 GT ISZERO PUSH2 0x30C JUMPI PUSH1 0x0 DUP5 DUP5 ADD MSTORE JUMPDEST POP POP POP POP JUMP JUMPDEST PUSH1 0x0 PUSH1 0x2 DUP3 DIV SWAP1 POP PUSH1 0x1 DUP3 AND DUP1 PUSH2 0x32A JUMPI PUSH1 0x7F DUP3 AND SWAP2 POP JUMPDEST PUSH1 0x20 DUP3 LT DUP2 EQ ISZERO PUSH2 0x33E JUMPI PUSH2 0x33D PUSH2 0x375 JUMP JUMPDEST JUMPDEST POP SWAP2 SWAP1 POP JUMP JUMPDEST PUSH2 0x34D DUP3 PUSH2 0x3E7 JUMP JUMPDEST DUP2 ADD DUP2 DUP2 LT PUSH8 0xFFFFFFFFFFFFFFFF DUP3 GT OR ISZERO PUSH2 0x36C JUMPI PUSH2 0x36B PUSH2 0x3A4 JUMP JUMPDEST JUMPDEST DUP1 PUSH1 0x40 MSTORE POP POP POP JUMP JUMPDEST PUSH32 0x4E487B7100000000000000000000000000000000000000000000000000000000 PUSH1 0x0 MSTORE PUSH1 0x22 PUSH1 0x4 MSTORE PUSH1 0x24 PUSH1 0x0 REVERT JUMPDEST PUSH32 0x4E487B7100000000000000000000000000000000000000000000000000000000 PUSH1 0x0 MSTORE PUSH1 0x41 PUSH1 0x4 MSTORE PUSH1 0x24 PUSH1 0x0 REVERT JUMPDEST PUSH1 0x0 DUP1 REVERT JUMPDEST PUSH1 0x0 DUP1 REVERT JUMPDEST PUSH1 0x0 DUP1 REVERT JUMPDEST PUSH1 0x0 DUP1 REVERT JUMPDEST PUSH1 0x0 PUSH1 0x1F NOT PUSH1 0x1F DUP4 ADD AND SWAP1 POP SWAP2 SWAP1 POP JUMP JUMPDEST PUSH2 0x401 DUP2 PUSH2 0x2A3 JUMP JUMPDEST DUP2 EQ PUSH2 0x40C JUMPI PUSH1 0x0 DUP1 REVERT JUMPDEST POP JUMP JUMPDEST PUSH2 0x418 DUP2 PUSH2 0x2D5 JUMP JUMPDEST DUP2 EQ PUSH2 0x423 JUMPI PUSH1 0x0 DUP1 REVERT JUMPDEST POP JUMP JUMPDEST PUSH2 0x2D8 DUP1 PUSH2 0x435 PUSH1 0x0 CODECOPY PUSH1 0x0 RETURN INVALID PUSH1 0x80 PUSH1 0x40 MSTORE CALLVALUE DUP1 ISZERO PUSH2 0x10 JUMPI PUSH1 0x0 DUP1 REVERT JUMPDEST POP PUSH1 0x4 CALLDATASIZE LT PUSH2 0x2B JUMPI PUSH1 0x0 CALLDATALOAD PUSH1 0xE0 SHR DUP1 PUSH4 0x46372EBD EQ PUSH2 0x30 JUMPI JUMPDEST PUSH1 0x0 DUP1 REVERT JUMPDEST PUSH2 0x38 PUSH2 0x50 JUMP JUMPDEST PUSH1 0x40 MLOAD PUSH2 0x47 SWAP4 SWAP3 SWAP2 SWAP1 PUSH2 0x167 JUMP JUMPDEST PUSH1 0x40 MLOAD DUP1 SWAP2 SUB SWAP1 RETURN JUMPDEST PUSH1 0x0 DUP1 PUSH1 0x0 ADD DUP1 SLOAD PUSH2 0x61 SWAP1 PUSH2 0x230 JUMP JUMPDEST DUP1 PUSH1 0x1F ADD PUSH1 0x20 DUP1 SWAP2 DIV MUL PUSH1 0x20 ADD PUSH1 0x40 MLOAD SWAP1 DUP2 ADD PUSH1 0x40 MSTORE DUP1 SWAP3 SWAP2 SWAP1 DUP2 DUP2 MSTORE PUSH1 0x20 ADD DUP3 DUP1 SLOAD PUSH2 0x8D SWAP1 PUSH2 0x230 JUMP JUMPDEST DUP1 ISZERO PUSH2 0xDA JUMPI DUP1 PUSH1 0x1F LT PUSH2 0xAF JUMPI PUSH2 0x100 DUP1 DUP4 SLOAD DIV MUL DUP4 MSTORE SWAP2 PUSH1 0x20 ADD SWAP2 PUSH2 0xDA JUMP JUMPDEST DUP3 ADD SWAP2 SWAP1 PUSH1 0x0 MSTORE PUSH1 0x20 PUSH1 0x0 KECCAK256 SWAP1 JUMPDEST DUP2 SLOAD DUP2 MSTORE SWAP1 PUSH1 0x1 ADD SWAP1 PUSH1 0x20 ADD DUP1 DUP4 GT PUSH2 0xBD JUMPI DUP3 SWAP1 SUB PUSH1 0x1F AND DUP3 ADD SWAP2 JUMPDEST POP POP POP POP POP SWAP1 DUP1 PUSH1 0x1 ADD SLOAD SWAP1 DUP1 PUSH1 0x2 ADD PUSH1 0x0 SWAP1 SLOAD SWAP1 PUSH2 0x100 EXP SWAP1 DIV PUSH20 0xFFFFFFFFFFFFFFFFFFFFFFFFFFFFFFFFFFFFFFFF AND SWAP1 POP DUP4 JUMP JUMPDEST PUSH2 0x119 DUP2 PUSH2 0x1C1 JUMP JUMPDEST DUP3 MSTORE POP POP JUMP JUMPDEST PUSH1 0x0 PUSH2 0x12A DUP3 PUSH2 0x1A5 JUMP JUMPDEST PUSH2 0x134 DUP2 DUP6 PUSH2 0x1B0 JUMP JUMPDEST SWAP4 POP PUSH2 0x144 DUP2 DUP6 PUSH1 0x20 DUP7 ADD PUSH2 0x1FD JUMP JUMPDEST PUSH2 0x14D DUP2 PUSH2 0x291 JUMP JUMPDEST DUP5 ADD SWAP2 POP POP SWAP3 SWAP2 POP POP JUMP JUMPDEST PUSH2 0x161 DUP2 PUSH2 0x1F3 JUMP JUMPDEST DUP3 MSTORE POP POP JUMP JUMPDEST PUSH1 0x0 PUSH1 0x60 DUP3 ADD SWAP1 POP DUP2 DUP2 SUB PUSH1 0x0 DUP4 ADD MSTORE PUSH2 0x181 DUP2 DUP7 PUSH2 0x11F JUMP JUMPDEST SWAP1 POP PUSH2 0x190 PUSH1 0x20 DUP4 ADD DUP6 PUSH2 0x158 JUMP JUMPDEST PUSH2 0x19D PUSH1 0x40 DUP4 ADD DUP5 PUSH2 0x110 JUMP JUMPDEST SWAP5 SWAP4 POP POP POP POP JUMP JUMPDEST PUSH1 0x0 DUP2 MLOAD SWAP1 POP SWAP2 SWAP1 POP JUMP JUMPDEST PUSH1 0x0 DUP3 DUP3 MSTORE PUSH1 0x20 DUP3 ADD SWAP1 POP SWAP3 SWAP2 POP POP JUMP JUMPDEST PUSH1 0x0 PUSH2 0x1CC DUP3 PUSH2 0x1D3 JUMP JUMPDEST SWAP1 POP SWAP2 SWAP1 POP JUMP JUMPDEST PUSH1 0x0 PUSH20 0xFFFFFFFFFFFFFFFFFFFFFFFFFFFFFFFFFFFFFFFF DUP3 AND SWAP1 POP SWAP2 SWAP1 POP JUMP JUMPDEST PUSH1 0x0 DUP2 SWAP1 POP SWAP2 SWAP1 POP JUMP JUMPDEST PUSH1 0x0 JUMPDEST DUP4 DUP2 LT ISZERO PUSH2 0x21B JUMPI DUP1 DUP3 ADD MLOAD DUP2 DUP5 ADD MSTORE PUSH1 0x20 DUP2 ADD SWAP1 POP PUSH2 0x200 JUMP JUMPDEST DUP4 DUP2 GT ISZERO PUSH2 0x22A JUMPI PUSH1 0x0 DUP5 DUP5 ADD MSTORE JUMPDEST POP POP POP POP JUMP JUMPDEST PUSH1 0x0 PUSH1 0x2 DUP3 DIV SWAP1 POP PUSH1 0x1 DUP3 AND DUP1 PUSH2 0x248 JUMPI PUSH1 0x7F DUP3 AND SWAP2 POP JUMPDEST PUSH1 0x20 DUP3 LT DUP2 EQ ISZERO PUSH2 0x25C JUMPI PUSH2 0x25B PUSH2 0x262 JUMP JUMPDEST JUMPDEST POP SWAP2 SWAP1 POP JUMP JUMPDEST PUSH32 0x4E487B7100000000000000000000000000000000000000000000000000000000 PUSH1 0x0 MSTORE PUSH1 0x22 PUSH1 0x4 MSTORE PUSH1 0x24 PUSH1 0x0 REVERT JUMPDEST PUSH1 0x0 PUSH1 0x1F NOT PUSH1 0x1F DUP4 ADD AND SWAP1 POP SWAP2 SWAP1 POP JUMP INVALID LOG2 PUSH5 0x6970667358 0x22 SLT KECCAK256 0x2C PUSH17 0x8412860A908F673A7B378E51D91F35537D GT 0xC3 0xA6 DIFFICULTY MULMOD SWAP7 0xD3 0xEF 0xDB 0x4D 0xD2 0xDA 0x1E PUSH5 0x736F6C6343 STOP ADDMOD SMOD STOP CALLER "
				},
				"gasEstimates": {
					"creation": {
						"codeDepositCost": "145600",
						"executionCost": "infinite",
						"totalCost": "infinite"
					},
					"external": {
						"subBusiness()": "infinite"
					}
				},
				"methodIdentifiers": {
					"subBusiness()": "46372ebd"
				}
			},
			"storageLayout": {
				"storage": [
					{
						"astId": 11,
						"contract": "Structs&Ennum.sol:Customer",
						"label": "subBusiness",
						"offset": 0,
						"slot": "0",
						"type": "t_struct(Business)8_storage"
					}
				],
				"types": {
					"t_address": {
						"encoding": "inplace",
						"label": "address",
						"numberOfBytes": "20"
					},
					"t_string_storage": {
						"encoding": "bytes",
						"label": "string",
						"numberOfBytes": "32"
					},
					"t_struct(Business)8_storage": {
						"encoding": "inplace",
						"label": "struct Business",
						"members": [
							{
								"astId": 3,
								"contract": "Structs&Ennum.sol:Customer",
								"label": "name",
								"offset": 0,
								"slot": "0",
								"type": "t_string_storage"
							},
							{
								"astId": 5,
								"contract": "Structs&Ennum.sol:Customer",
								"label": "value",
								"offset": 0,
								"slot": "1",
								"type": "t_uint256"
							},
							{
								"astId": 7,
								"contract": "Structs&Ennum.sol:Customer",
								"label": "addr",
								"offset": 0,
								"slot": "2",
								"type": "t_address"
							}
						],
						"numberOfBytes": "96"
					},
					"t_uint256": {
						"encoding": "inplace",
						"label": "uint256",
						"numberOfBytes": "32"
					}
				}
			},
			"userdoc": {
				"kind": "user",
				"methods": {},
				"version": 1
			}
		}
	}
}