{
	"getter&setter.sol": {
		"basic": {
			"abi": [
				{
					"inputs": [],
					"name": "name",
					"outputs": [
						{
							"internalType": "string",
							"name": "",
							"type": "string"
						}
					],
					"stateMutability": "view",
					"type": "function"
				},
				{
					"inputs": [
						{
							"internalType": "string",
							"name": "_name",
							"type": "string"
						},
						{
							"internalType": "uint256",
							"name": "_age",
							"type": "uint256"
						}
					],
					"name": "setter",
					"outputs": [],
					"stateMutability": "nonpayable",
					"type": "function"
				}
			],
			"devdoc": {
				"kind": "dev",
				"methods": {},
				"version": 1
			},
			"evm": {
				"assembly": "    /* \"getter&setter.sol\":76:331  contract basic {\r... */\n  mstore(0x40, 0x80)\n    /* \"getter&setter.sol\":151:180  string public name = \"Browny\" */\n  mload(0x40)\n  dup1\n  0x40\n  add\n  0x40\n  mstore\n  dup1\n  0x06\n  dup2\n  mstore\n  0x20\n  add\n  0x42726f776e790000000000000000000000000000000000000000000000000000\n  dup2\n  mstore\n  pop\n  0x00\n  swap1\n  dup1\n  mload\n  swap1\n  0x20\n  add\n  swap1\n  tag_1\n  swap3\n  swap2\n  swap1\n  tag_2\n  jump\t// in\ntag_1:\n  pop\n    /* \"getter&setter.sol\":198:200  20 */\n  0x14\n    /* \"getter&setter.sol\":187:200  uint age = 20 */\n  0x01\n  sstore\n    /* \"getter&setter.sol\":76:331  contract basic {\r... */\n  callvalue\n  dup1\n  iszero\n  tag_3\n  jumpi\n  0x00\n  dup1\n  revert\ntag_3:\n  pop\n  jump(tag_4)\ntag_2:\n  dup3\n  dup1\n  sload\n  tag_5\n  swap1\n  tag_6\n  jump\t// in\ntag_5:\n  swap1\n  0x00\n  mstore\n  keccak256(0x00, 0x20)\n  swap1\n  0x1f\n  add\n  0x20\n  swap1\n  div\n  dup2\n  add\n  swap3\n  dup3\n  tag_8\n  jumpi\n  0x00\n  dup6\n  sstore\n  jump(tag_7)\ntag_8:\n  dup3\n  0x1f\n  lt\n  tag_9\n  jumpi\n  dup1\n  mload\n  not(0xff)\n  and\n  dup4\n  dup1\n  add\n  or\n  dup6\n  sstore\n  jump(tag_7)\ntag_9:\n  dup3\n  dup1\n  add\n  0x01\n  add\n  dup6\n  sstore\n  dup3\n  iszero\n  tag_7\n  jumpi\n  swap2\n  dup3\n  add\ntag_10:\n  dup3\n  dup2\n  gt\n  iszero\n  tag_11\n  jumpi\n  dup3\n  mload\n  dup3\n  sstore\n  swap2\n  0x20\n  add\n  swap2\n  swap1\n  0x01\n  add\n  swap1\n  jump(tag_10)\ntag_11:\ntag_7:\n  pop\n  swap1\n  pop\n  tag_12\n  swap2\n  swap1\n  tag_13\n  jump\t// in\ntag_12:\n  pop\n  swap1\n  jump\t// out\ntag_13:\ntag_14:\n  dup1\n  dup3\n  gt\n  iszero\n  tag_15\n  jumpi\n  0x00\n  dup2\n  0x00\n  swap1\n  sstore\n  pop\n  0x01\n  add\n  jump(tag_14)\ntag_15:\n  pop\n  swap1\n  jump\t// out\n    /* \"#utility.yul\":7:327   */\ntag_6:\n    /* \"#utility.yul\":51:57   */\n  0x00\n    /* \"#utility.yul\":88:89   */\n  0x02\n    /* \"#utility.yul\":82:86   */\n  dup3\n    /* \"#utility.yul\":78:90   */\n  div\n    /* \"#utility.yul\":68:90   */\n  swap1\n  pop\n    /* \"#utility.yul\":135:136   */\n  0x01\n    /* \"#utility.yul\":129:133   */\n  dup3\n    /* \"#utility.yul\":125:137   */\n  and\n    /* \"#utility.yul\":156:174   */\n  dup1\n    /* \"#utility.yul\":146:227   */\n  tag_18\n  jumpi\n    /* \"#utility.yul\":212:216   */\n  0x7f\n    /* \"#utility.yul\":204:210   */\n  dup3\n    /* \"#utility.yul\":200:217   */\n  and\n    /* \"#utility.yul\":190:217   */\n  swap2\n  pop\n    /* \"#utility.yul\":146:227   */\ntag_18:\n    /* \"#utility.yul\":274:276   */\n  0x20\n    /* \"#utility.yul\":266:272   */\n  dup3\n    /* \"#utility.yul\":263:277   */\n  lt\n    /* \"#utility.yul\":243:261   */\n  dup2\n    /* \"#utility.yul\":240:278   */\n  eq\n    /* \"#utility.yul\":237:321   */\n  iszero\n  tag_19\n  jumpi\n    /* \"#utility.yul\":293:311   */\n  tag_20\n  tag_21\n  jump\t// in\ntag_20:\n    /* \"#utility.yul\":237:321   */\ntag_19:\n    /* \"#utility.yul\":58:327   */\n  pop\n    /* \"#utility.yul\":7:327   */\n  swap2\n  swap1\n  pop\n  jump\t// out\n    /* \"#utility.yul\":333:513   */\ntag_21:\n    /* \"#utility.yul\":381:458   */\n  0x4e487b7100000000000000000000000000000000000000000000000000000000\n    /* \"#utility.yul\":378:379   */\n  0x00\n    /* \"#utility.yul\":371:459   */\n  mstore\n    /* \"#utility.yul\":478:482   */\n  0x22\n    /* \"#utility.yul\":475:476   */\n  0x04\n    /* \"#utility.yul\":468:483   */\n  mstore\n    /* \"#utility.yul\":502:506   */\n  0x24\n    /* \"#utility.yul\":499:500   */\n  0x00\n    /* \"#utility.yul\":492:507   */\n  revert\n    /* \"getter&setter.sol\":76:331  contract basic {\r... */\ntag_4:\n  dataSize(sub_0)\n  dup1\n  dataOffset(sub_0)\n  0x00\n  codecopy\n  0x00\n  return\nstop\n\nsub_0: assembly {\n        /* \"getter&setter.sol\":76:331  contract basic {\r... */\n      mstore(0x40, 0x80)\n      callvalue\n      dup1\n      iszero\n      tag_1\n      jumpi\n      0x00\n      dup1\n      revert\n    tag_1:\n      pop\n      jumpi(tag_2, lt(calldatasize, 0x04))\n      shr(0xe0, calldataload(0x00))\n      dup1\n      0x06fdde03\n      eq\n      tag_3\n      jumpi\n      dup1\n      0xf5dce133\n      eq\n      tag_4\n      jumpi\n    tag_2:\n      0x00\n      dup1\n      revert\n        /* \"getter&setter.sol\":151:180  string public name = \"Browny\" */\n    tag_3:\n      tag_5\n      tag_6\n      jump\t// in\n    tag_5:\n      mload(0x40)\n      tag_7\n      swap2\n      swap1\n      tag_8\n      jump\t// in\n    tag_7:\n      mload(0x40)\n      dup1\n      swap2\n      sub\n      swap1\n      return\n        /* \"getter&setter.sol\":209:316  function setter(string memory _name, uint _age) public {\r... */\n    tag_4:\n      tag_9\n      0x04\n      dup1\n      calldatasize\n      sub\n      dup2\n      add\n      swap1\n      tag_10\n      swap2\n      swap1\n      tag_11\n      jump\t// in\n    tag_10:\n      tag_12\n      jump\t// in\n    tag_9:\n      stop\n        /* \"getter&setter.sol\":151:180  string public name = \"Browny\" */\n    tag_6:\n      0x00\n      dup1\n      sload\n      tag_13\n      swap1\n      tag_14\n      jump\t// in\n    tag_13:\n      dup1\n      0x1f\n      add\n      0x20\n      dup1\n      swap2\n      div\n      mul\n      0x20\n      add\n      mload(0x40)\n      swap1\n      dup2\n      add\n      0x40\n      mstore\n      dup1\n      swap3\n      swap2\n      swap1\n      dup2\n      dup2\n      mstore\n      0x20\n      add\n      dup3\n      dup1\n      sload\n      tag_15\n      swap1\n      tag_14\n      jump\t// in\n    tag_15:\n      dup1\n      iszero\n      tag_16\n      jumpi\n      dup1\n      0x1f\n      lt\n      tag_17\n      jumpi\n      0x0100\n      dup1\n      dup4\n      sload\n      div\n      mul\n      dup4\n      mstore\n      swap2\n      0x20\n      add\n      swap2\n      jump(tag_16)\n    tag_17:\n      dup3\n      add\n      swap2\n      swap1\n      0x00\n      mstore\n      keccak256(0x00, 0x20)\n      swap1\n    tag_18:\n      dup2\n      sload\n      dup2\n      mstore\n      swap1\n      0x01\n      add\n      swap1\n      0x20\n      add\n      dup1\n      dup4\n      gt\n      tag_18\n      jumpi\n      dup3\n      swap1\n      sub\n      0x1f\n      and\n      dup3\n      add\n      swap2\n    tag_16:\n      pop\n      pop\n      pop\n      pop\n      pop\n      dup2\n      jump\t// out\n        /* \"getter&setter.sol\":209:316  function setter(string memory _name, uint _age) public {\r... */\n    tag_12:\n        /* \"getter&setter.sol\":282:287  _name */\n      dup2\n        /* \"getter&setter.sol\":275:279  name */\n      0x00\n        /* \"getter&setter.sol\":275:287  name = _name */\n      swap1\n      dup1\n      mload\n      swap1\n      0x20\n      add\n      swap1\n      tag_20\n      swap3\n      swap2\n      swap1\n      tag_21\n      jump\t// in\n    tag_20:\n      pop\n        /* \"getter&setter.sol\":304:308  _age */\n      dup1\n        /* \"getter&setter.sol\":298:301  age */\n      0x01\n        /* \"getter&setter.sol\":298:308  age = _age */\n      dup2\n      swap1\n      sstore\n      pop\n        /* \"getter&setter.sol\":209:316  function setter(string memory _name, uint _age) public {\r... */\n      pop\n      pop\n      jump\t// out\n    tag_21:\n      dup3\n      dup1\n      sload\n      tag_22\n      swap1\n      tag_14\n      jump\t// in\n    tag_22:\n      swap1\n      0x00\n      mstore\n      keccak256(0x00, 0x20)\n      swap1\n      0x1f\n      add\n      0x20\n      swap1\n      div\n      dup2\n      add\n      swap3\n      dup3\n      tag_24\n      jumpi\n      0x00\n      dup6\n      sstore\n      jump(tag_23)\n    tag_24:\n      dup3\n      0x1f\n      lt\n      tag_25\n      jumpi\n      dup1\n      mload\n      not(0xff)\n      and\n      dup4\n      dup1\n      add\n      or\n      dup6\n      sstore\n      jump(tag_23)\n    tag_25:\n      dup3\n      dup1\n      add\n      0x01\n      add\n      dup6\n      sstore\n      dup3\n      iszero\n      tag_23\n      jumpi\n      swap2\n      dup3\n      add\n    tag_26:\n      dup3\n      dup2\n      gt\n      iszero\n      tag_27\n      jumpi\n      dup3\n      mload\n      dup3\n      sstore\n      swap2\n      0x20\n      add\n      swap2\n      swap1\n      0x01\n      add\n      swap1\n      jump(tag_26)\n    tag_27:\n    tag_23:\n      pop\n      swap1\n      pop\n      tag_28\n      swap2\n      swap1\n      tag_29\n      jump\t// in\n    tag_28:\n      pop\n      swap1\n      jump\t// out\n    tag_29:\n    tag_30:\n      dup1\n      dup3\n      gt\n      iszero\n      tag_31\n      jumpi\n      0x00\n      dup2\n      0x00\n      swap1\n      sstore\n      pop\n      0x01\n      add\n      jump(tag_30)\n    tag_31:\n      pop\n      swap1\n      jump\t// out\n        /* \"#utility.yul\":7:419   */\n    tag_33:\n        /* \"#utility.yul\":85:90   */\n      0x00\n        /* \"#utility.yul\":110:176   */\n      tag_35\n        /* \"#utility.yul\":126:175   */\n      tag_36\n        /* \"#utility.yul\":168:174   */\n      dup5\n        /* \"#utility.yul\":126:175   */\n      tag_37\n      jump\t// in\n    tag_36:\n        /* \"#utility.yul\":110:176   */\n      tag_38\n      jump\t// in\n    tag_35:\n        /* \"#utility.yul\":101:176   */\n      swap1\n      pop\n        /* \"#utility.yul\":199:205   */\n      dup3\n        /* \"#utility.yul\":192:197   */\n      dup2\n        /* \"#utility.yul\":185:206   */\n      mstore\n        /* \"#utility.yul\":237:241   */\n      0x20\n        /* \"#utility.yul\":230:235   */\n      dup2\n        /* \"#utility.yul\":226:242   */\n      add\n        /* \"#utility.yul\":275:278   */\n      dup5\n        /* \"#utility.yul\":266:272   */\n      dup5\n        /* \"#utility.yul\":261:264   */\n      dup5\n        /* \"#utility.yul\":257:273   */\n      add\n        /* \"#utility.yul\":254:279   */\n      gt\n        /* \"#utility.yul\":251:363   */\n      iszero\n      tag_39\n      jumpi\n        /* \"#utility.yul\":282:361   */\n      tag_40\n      tag_41\n      jump\t// in\n    tag_40:\n        /* \"#utility.yul\":251:363   */\n    tag_39:\n        /* \"#utility.yul\":372:413   */\n      tag_42\n        /* \"#utility.yul\":406:412   */\n      dup5\n        /* \"#utility.yul\":401:404   */\n      dup3\n        /* \"#utility.yul\":396:399   */\n      dup6\n        /* \"#utility.yul\":372:413   */\n      tag_43\n      jump\t// in\n    tag_42:\n        /* \"#utility.yul\":91:419   */\n      pop\n        /* \"#utility.yul\":7:419   */\n      swap4\n      swap3\n      pop\n      pop\n      pop\n      jump\t// out\n        /* \"#utility.yul\":439:779   */\n    tag_44:\n        /* \"#utility.yul\":495:500   */\n      0x00\n        /* \"#utility.yul\":544:547   */\n      dup3\n        /* \"#utility.yul\":537:541   */\n      0x1f\n        /* \"#utility.yul\":529:535   */\n      dup4\n        /* \"#utility.yul\":525:542   */\n      add\n        /* \"#utility.yul\":521:548   */\n      slt\n        /* \"#utility.yul\":511:633   */\n      tag_46\n      jumpi\n        /* \"#utility.yul\":552:631   */\n      tag_47\n      tag_48\n      jump\t// in\n    tag_47:\n        /* \"#utility.yul\":511:633   */\n    tag_46:\n        /* \"#utility.yul\":669:675   */\n      dup2\n        /* \"#utility.yul\":656:676   */\n      calldataload\n        /* \"#utility.yul\":694:773   */\n      tag_49\n        /* \"#utility.yul\":769:772   */\n      dup5\n        /* \"#utility.yul\":761:767   */\n      dup3\n        /* \"#utility.yul\":754:758   */\n      0x20\n        /* \"#utility.yul\":746:752   */\n      dup7\n        /* \"#utility.yul\":742:759   */\n      add\n        /* \"#utility.yul\":694:773   */\n      tag_33\n      jump\t// in\n    tag_49:\n        /* \"#utility.yul\":685:773   */\n      swap2\n      pop\n        /* \"#utility.yul\":501:779   */\n      pop\n        /* \"#utility.yul\":439:779   */\n      swap3\n      swap2\n      pop\n      pop\n      jump\t// out\n        /* \"#utility.yul\":785:924   */\n    tag_50:\n        /* \"#utility.yul\":831:836   */\n      0x00\n        /* \"#utility.yul\":869:875   */\n      dup2\n        /* \"#utility.yul\":856:876   */\n      calldataload\n        /* \"#utility.yul\":847:876   */\n      swap1\n      pop\n        /* \"#utility.yul\":885:918   */\n      tag_52\n        /* \"#utility.yul\":912:917   */\n      dup2\n        /* \"#utility.yul\":885:918   */\n      tag_53\n      jump\t// in\n    tag_52:\n        /* \"#utility.yul\":785:924   */\n      swap3\n      swap2\n      pop\n      pop\n      jump\t// out\n        /* \"#utility.yul\":930:1584   */\n    tag_11:\n        /* \"#utility.yul\":1008:1014   */\n      0x00\n        /* \"#utility.yul\":1016:1022   */\n      dup1\n        /* \"#utility.yul\":1065:1067   */\n      0x40\n        /* \"#utility.yul\":1053:1062   */\n      dup4\n        /* \"#utility.yul\":1044:1051   */\n      dup6\n        /* \"#utility.yul\":1040:1063   */\n      sub\n        /* \"#utility.yul\":1036:1068   */\n      slt\n        /* \"#utility.yul\":1033:1152   */\n      iszero\n      tag_55\n      jumpi\n        /* \"#utility.yul\":1071:1150   */\n      tag_56\n      tag_57\n      jump\t// in\n    tag_56:\n        /* \"#utility.yul\":1033:1152   */\n    tag_55:\n        /* \"#utility.yul\":1219:1220   */\n      0x00\n        /* \"#utility.yul\":1208:1217   */\n      dup4\n        /* \"#utility.yul\":1204:1221   */\n      add\n        /* \"#utility.yul\":1191:1222   */\n      calldataload\n        /* \"#utility.yul\":1249:1267   */\n      0xffffffffffffffff\n        /* \"#utility.yul\":1241:1247   */\n      dup2\n        /* \"#utility.yul\":1238:1268   */\n      gt\n        /* \"#utility.yul\":1235:1352   */\n      iszero\n      tag_58\n      jumpi\n        /* \"#utility.yul\":1271:1350   */\n      tag_59\n      tag_60\n      jump\t// in\n    tag_59:\n        /* \"#utility.yul\":1235:1352   */\n    tag_58:\n        /* \"#utility.yul\":1376:1439   */\n      tag_61\n        /* \"#utility.yul\":1431:1438   */\n      dup6\n        /* \"#utility.yul\":1422:1428   */\n      dup3\n        /* \"#utility.yul\":1411:1420   */\n      dup7\n        /* \"#utility.yul\":1407:1429   */\n      add\n        /* \"#utility.yul\":1376:1439   */\n      tag_44\n      jump\t// in\n    tag_61:\n        /* \"#utility.yul\":1366:1439   */\n      swap3\n      pop\n        /* \"#utility.yul\":1162:1449   */\n      pop\n        /* \"#utility.yul\":1488:1490   */\n      0x20\n        /* \"#utility.yul\":1514:1567   */\n      tag_62\n        /* \"#utility.yul\":1559:1566   */\n      dup6\n        /* \"#utility.yul\":1550:1556   */\n      dup3\n        /* \"#utility.yul\":1539:1548   */\n      dup7\n        /* \"#utility.yul\":1535:1557   */\n      add\n        /* \"#utility.yul\":1514:1567   */\n      tag_50\n      jump\t// in\n    tag_62:\n        /* \"#utility.yul\":1504:1567   */\n      swap2\n      pop\n        /* \"#utility.yul\":1459:1577   */\n      pop\n        /* \"#utility.yul\":930:1584   */\n      swap3\n      pop\n      swap3\n      swap1\n      pop\n      jump\t// out\n        /* \"#utility.yul\":1590:1954   */\n    tag_63:\n        /* \"#utility.yul\":1678:1681   */\n      0x00\n        /* \"#utility.yul\":1706:1745   */\n      tag_65\n        /* \"#utility.yul\":1739:1744   */\n      dup3\n        /* \"#utility.yul\":1706:1745   */\n      tag_66\n      jump\t// in\n    tag_65:\n        /* \"#utility.yul\":1761:1832   */\n      tag_67\n        /* \"#utility.yul\":1825:1831   */\n      dup2\n        /* \"#utility.yul\":1820:1823   */\n      dup6\n        /* \"#utility.yul\":1761:1832   */\n      tag_68\n      jump\t// in\n    tag_67:\n        /* \"#utility.yul\":1754:1832   */\n      swap4\n      pop\n        /* \"#utility.yul\":1841:1893   */\n      tag_69\n        /* \"#utility.yul\":1886:1892   */\n      dup2\n        /* \"#utility.yul\":1881:1884   */\n      dup6\n        /* \"#utility.yul\":1874:1878   */\n      0x20\n        /* \"#utility.yul\":1867:1872   */\n      dup7\n        /* \"#utility.yul\":1863:1879   */\n      add\n        /* \"#utility.yul\":1841:1893   */\n      tag_70\n      jump\t// in\n    tag_69:\n        /* \"#utility.yul\":1918:1947   */\n      tag_71\n        /* \"#utility.yul\":1940:1946   */\n      dup2\n        /* \"#utility.yul\":1918:1947   */\n      tag_72\n      jump\t// in\n    tag_71:\n        /* \"#utility.yul\":1913:1916   */\n      dup5\n        /* \"#utility.yul\":1909:1948   */\n      add\n        /* \"#utility.yul\":1902:1948   */\n      swap2\n      pop\n        /* \"#utility.yul\":1682:1954   */\n      pop\n        /* \"#utility.yul\":1590:1954   */\n      swap3\n      swap2\n      pop\n      pop\n      jump\t// out\n        /* \"#utility.yul\":1960:2273   */\n    tag_8:\n        /* \"#utility.yul\":2073:2077   */\n      0x00\n        /* \"#utility.yul\":2111:2113   */\n      0x20\n        /* \"#utility.yul\":2100:2109   */\n      dup3\n        /* \"#utility.yul\":2096:2114   */\n      add\n        /* \"#utility.yul\":2088:2114   */\n      swap1\n      pop\n        /* \"#utility.yul\":2160:2169   */\n      dup2\n        /* \"#utility.yul\":2154:2158   */\n      dup2\n        /* \"#utility.yul\":2150:2170   */\n      sub\n        /* \"#utility.yul\":2146:2147   */\n      0x00\n        /* \"#utility.yul\":2135:2144   */\n      dup4\n        /* \"#utility.yul\":2131:2148   */\n      add\n        /* \"#utility.yul\":2124:2171   */\n      mstore\n        /* \"#utility.yul\":2188:2266   */\n      tag_74\n        /* \"#utility.yul\":2261:2265   */\n      dup2\n        /* \"#utility.yul\":2252:2258   */\n      dup5\n        /* \"#utility.yul\":2188:2266   */\n      tag_63\n      jump\t// in\n    tag_74:\n        /* \"#utility.yul\":2180:2266   */\n      swap1\n      pop\n        /* \"#utility.yul\":1960:2273   */\n      swap3\n      swap2\n      pop\n      pop\n      jump\t// out\n        /* \"#utility.yul\":2279:2408   */\n    tag_38:\n        /* \"#utility.yul\":2313:2319   */\n      0x00\n        /* \"#utility.yul\":2340:2360   */\n      tag_76\n      tag_77\n      jump\t// in\n    tag_76:\n        /* \"#utility.yul\":2330:2360   */\n      swap1\n      pop\n        /* \"#utility.yul\":2369:2402   */\n      tag_78\n        /* \"#utility.yul\":2397:2401   */\n      dup3\n        /* \"#utility.yul\":2389:2395   */\n      dup3\n        /* \"#utility.yul\":2369:2402   */\n      tag_79\n      jump\t// in\n    tag_78:\n        /* \"#utility.yul\":2279:2408   */\n      swap2\n      swap1\n      pop\n      jump\t// out\n        /* \"#utility.yul\":2414:2489   */\n    tag_77:\n        /* \"#utility.yul\":2447:2453   */\n      0x00\n        /* \"#utility.yul\":2480:2482   */\n      0x40\n        /* \"#utility.yul\":2474:2483   */\n      mload\n        /* \"#utility.yul\":2464:2483   */\n      swap1\n      pop\n        /* \"#utility.yul\":2414:2489   */\n      swap1\n      jump\t// out\n        /* \"#utility.yul\":2495:2803   */\n    tag_37:\n        /* \"#utility.yul\":2557:2561   */\n      0x00\n        /* \"#utility.yul\":2647:2665   */\n      0xffffffffffffffff\n        /* \"#utility.yul\":2639:2645   */\n      dup3\n        /* \"#utility.yul\":2636:2666   */\n      gt\n        /* \"#utility.yul\":2633:2689   */\n      iszero\n      tag_82\n      jumpi\n        /* \"#utility.yul\":2669:2687   */\n      tag_83\n      tag_84\n      jump\t// in\n    tag_83:\n        /* \"#utility.yul\":2633:2689   */\n    tag_82:\n        /* \"#utility.yul\":2707:2736   */\n      tag_85\n        /* \"#utility.yul\":2729:2735   */\n      dup3\n        /* \"#utility.yul\":2707:2736   */\n      tag_72\n      jump\t// in\n    tag_85:\n        /* \"#utility.yul\":2699:2736   */\n      swap1\n      pop\n        /* \"#utility.yul\":2791:2795   */\n      0x20\n        /* \"#utility.yul\":2785:2789   */\n      dup2\n        /* \"#utility.yul\":2781:2796   */\n      add\n        /* \"#utility.yul\":2773:2796   */\n      swap1\n      pop\n        /* \"#utility.yul\":2495:2803   */\n      swap2\n      swap1\n      pop\n      jump\t// out\n        /* \"#utility.yul\":2809:2908   */\n    tag_66:\n        /* \"#utility.yul\":2861:2867   */\n      0x00\n        /* \"#utility.yul\":2895:2900   */\n      dup2\n        /* \"#utility.yul\":2889:2901   */\n      mload\n        /* \"#utility.yul\":2879:2901   */\n      swap1\n      pop\n        /* \"#utility.yul\":2809:2908   */\n      swap2\n      swap1\n      pop\n      jump\t// out\n        /* \"#utility.yul\":2914:3083   */\n    tag_68:\n        /* \"#utility.yul\":2998:3009   */\n      0x00\n        /* \"#utility.yul\":3032:3038   */\n      dup3\n        /* \"#utility.yul\":3027:3030   */\n      dup3\n        /* \"#utility.yul\":3020:3039   */\n      mstore\n        /* \"#utility.yul\":3072:3076   */\n      0x20\n        /* \"#utility.yul\":3067:3070   */\n      dup3\n        /* \"#utility.yul\":3063:3077   */\n      add\n        /* \"#utility.yul\":3048:3077   */\n      swap1\n      pop\n        /* \"#utility.yul\":2914:3083   */\n      swap3\n      swap2\n      pop\n      pop\n      jump\t// out\n        /* \"#utility.yul\":3089:3166   */\n    tag_88:\n        /* \"#utility.yul\":3126:3133   */\n      0x00\n        /* \"#utility.yul\":3155:3160   */\n      dup2\n        /* \"#utility.yul\":3144:3160   */\n      swap1\n      pop\n        /* \"#utility.yul\":3089:3166   */\n      swap2\n      swap1\n      pop\n      jump\t// out\n        /* \"#utility.yul\":3172:3326   */\n    tag_43:\n        /* \"#utility.yul\":3256:3262   */\n      dup3\n        /* \"#utility.yul\":3251:3254   */\n      dup2\n        /* \"#utility.yul\":3246:3249   */\n      dup4\n        /* \"#utility.yul\":3233:3263   */\n      calldatacopy\n        /* \"#utility.yul\":3318:3319   */\n      0x00\n        /* \"#utility.yul\":3309:3315   */\n      dup4\n        /* \"#utility.yul\":3304:3307   */\n      dup4\n        /* \"#utility.yul\":3300:3316   */\n      add\n        /* \"#utility.yul\":3293:3320   */\n      mstore\n        /* \"#utility.yul\":3172:3326   */\n      pop\n      pop\n      pop\n      jump\t// out\n        /* \"#utility.yul\":3332:3639   */\n    tag_70:\n        /* \"#utility.yul\":3400:3401   */\n      0x00\n        /* \"#utility.yul\":3410:3523   */\n    tag_92:\n        /* \"#utility.yul\":3424:3430   */\n      dup4\n        /* \"#utility.yul\":3421:3422   */\n      dup2\n        /* \"#utility.yul\":3418:3431   */\n      lt\n        /* \"#utility.yul\":3410:3523   */\n      iszero\n      tag_94\n      jumpi\n        /* \"#utility.yul\":3509:3510   */\n      dup1\n        /* \"#utility.yul\":3504:3507   */\n      dup3\n        /* \"#utility.yul\":3500:3511   */\n      add\n        /* \"#utility.yul\":3494:3512   */\n      mload\n        /* \"#utility.yul\":3490:3491   */\n      dup2\n        /* \"#utility.yul\":3485:3488   */\n      dup5\n        /* \"#utility.yul\":3481:3492   */\n      add\n        /* \"#utility.yul\":3474:3513   */\n      mstore\n        /* \"#utility.yul\":3446:3448   */\n      0x20\n        /* \"#utility.yul\":3443:3444   */\n      dup2\n        /* \"#utility.yul\":3439:3449   */\n      add\n        /* \"#utility.yul\":3434:3449   */\n      swap1\n      pop\n        /* \"#utility.yul\":3410:3523   */\n      jump(tag_92)\n    tag_94:\n        /* \"#utility.yul\":3541:3547   */\n      dup4\n        /* \"#utility.yul\":3538:3539   */\n      dup2\n        /* \"#utility.yul\":3535:3548   */\n      gt\n        /* \"#utility.yul\":3532:3633   */\n      iszero\n      tag_95\n      jumpi\n        /* \"#utility.yul\":3621:3622   */\n      0x00\n        /* \"#utility.yul\":3612:3618   */\n      dup5\n        /* \"#utility.yul\":3607:3610   */\n      dup5\n        /* \"#utility.yul\":3603:3619   */\n      add\n        /* \"#utility.yul\":3596:3623   */\n      mstore\n        /* \"#utility.yul\":3532:3633   */\n    tag_95:\n        /* \"#utility.yul\":3381:3639   */\n      pop\n        /* \"#utility.yul\":3332:3639   */\n      pop\n      pop\n      pop\n      jump\t// out\n        /* \"#utility.yul\":3645:3965   */\n    tag_14:\n        /* \"#utility.yul\":3689:3695   */\n      0x00\n        /* \"#utility.yul\":3726:3727   */\n      0x02\n        /* \"#utility.yul\":3720:3724   */\n      dup3\n        /* \"#utility.yul\":3716:3728   */\n      div\n        /* \"#utility.yul\":3706:3728   */\n      swap1\n      pop\n        /* \"#utility.yul\":3773:3774   */\n      0x01\n        /* \"#utility.yul\":3767:3771   */\n      dup3\n        /* \"#utility.yul\":3763:3775   */\n      and\n        /* \"#utility.yul\":3794:3812   */\n      dup1\n        /* \"#utility.yul\":3784:3865   */\n      tag_97\n      jumpi\n        /* \"#utility.yul\":3850:3854   */\n      0x7f\n        /* \"#utility.yul\":3842:3848   */\n      dup3\n        /* \"#utility.yul\":3838:3855   */\n      and\n        /* \"#utility.yul\":3828:3855   */\n      swap2\n      pop\n        /* \"#utility.yul\":3784:3865   */\n    tag_97:\n        /* \"#utility.yul\":3912:3914   */\n      0x20\n        /* \"#utility.yul\":3904:3910   */\n      dup3\n        /* \"#utility.yul\":3901:3915   */\n      lt\n        /* \"#utility.yul\":3881:3899   */\n      dup2\n        /* \"#utility.yul\":3878:3916   */\n      eq\n        /* \"#utility.yul\":3875:3959   */\n      iszero\n      tag_98\n      jumpi\n        /* \"#utility.yul\":3931:3949   */\n      tag_99\n      tag_100\n      jump\t// in\n    tag_99:\n        /* \"#utility.yul\":3875:3959   */\n    tag_98:\n        /* \"#utility.yul\":3696:3965   */\n      pop\n        /* \"#utility.yul\":3645:3965   */\n      swap2\n      swap1\n      pop\n      jump\t// out\n        /* \"#utility.yul\":3971:4252   */\n    tag_79:\n        /* \"#utility.yul\":4054:4081   */\n      tag_102\n        /* \"#utility.yul\":4076:4080   */\n      dup3\n        /* \"#utility.yul\":4054:4081   */\n      tag_72\n      jump\t// in\n    tag_102:\n        /* \"#utility.yul\":4046:4052   */\n      dup2\n        /* \"#utility.yul\":4042:4082   */\n      add\n        /* \"#utility.yul\":4184:4190   */\n      dup2\n        /* \"#utility.yul\":4172:4182   */\n      dup2\n        /* \"#utility.yul\":4169:4191   */\n      lt\n        /* \"#utility.yul\":4148:4166   */\n      0xffffffffffffffff\n        /* \"#utility.yul\":4136:4146   */\n      dup3\n        /* \"#utility.yul\":4133:4167   */\n      gt\n        /* \"#utility.yul\":4130:4192   */\n      or\n        /* \"#utility.yul\":4127:4215   */\n      iszero\n      tag_103\n      jumpi\n        /* \"#utility.yul\":4195:4213   */\n      tag_104\n      tag_84\n      jump\t// in\n    tag_104:\n        /* \"#utility.yul\":4127:4215   */\n    tag_103:\n        /* \"#utility.yul\":4235:4245   */\n      dup1\n        /* \"#utility.yul\":4231:4233   */\n      0x40\n        /* \"#utility.yul\":4224:4246   */\n      mstore\n        /* \"#utility.yul\":4014:4252   */\n      pop\n        /* \"#utility.yul\":3971:4252   */\n      pop\n      pop\n      jump\t// out\n        /* \"#utility.yul\":4258:4438   */\n    tag_100:\n        /* \"#utility.yul\":4306:4383   */\n      0x4e487b7100000000000000000000000000000000000000000000000000000000\n        /* \"#utility.yul\":4303:4304   */\n      0x00\n        /* \"#utility.yul\":4296:4384   */\n      mstore\n        /* \"#utility.yul\":4403:4407   */\n      0x22\n        /* \"#utility.yul\":4400:4401   */\n      0x04\n        /* \"#utility.yul\":4393:4408   */\n      mstore\n        /* \"#utility.yul\":4427:4431   */\n      0x24\n        /* \"#utility.yul\":4424:4425   */\n      0x00\n        /* \"#utility.yul\":4417:4432   */\n      revert\n        /* \"#utility.yul\":4444:4624   */\n    tag_84:\n        /* \"#utility.yul\":4492:4569   */\n      0x4e487b7100000000000000000000000000000000000000000000000000000000\n        /* \"#utility.yul\":4489:4490   */\n      0x00\n        /* \"#utility.yul\":4482:4570   */\n      mstore\n        /* \"#utility.yul\":4589:4593   */\n      0x41\n        /* \"#utility.yul\":4586:4587   */\n      0x04\n        /* \"#utility.yul\":4579:4594   */\n      mstore\n        /* \"#utility.yul\":4613:4617   */\n      0x24\n        /* \"#utility.yul\":4610:4611   */\n      0x00\n        /* \"#utility.yul\":4603:4618   */\n      revert\n        /* \"#utility.yul\":4630:4747   */\n    tag_48:\n        /* \"#utility.yul\":4739:4740   */\n      0x00\n        /* \"#utility.yul\":4736:4737   */\n      dup1\n        /* \"#utility.yul\":4729:4741   */\n      revert\n        /* \"#utility.yul\":4753:4870   */\n    tag_41:\n        /* \"#utility.yul\":4862:4863   */\n      0x00\n        /* \"#utility.yul\":4859:4860   */\n      dup1\n        /* \"#utility.yul\":4852:4864   */\n      revert\n        /* \"#utility.yul\":4876:4993   */\n    tag_60:\n        /* \"#utility.yul\":4985:4986   */\n      0x00\n        /* \"#utility.yul\":4982:4983   */\n      dup1\n        /* \"#utility.yul\":4975:4987   */\n      revert\n        /* \"#utility.yul\":4999:5116   */\n    tag_57:\n        /* \"#utility.yul\":5108:5109   */\n      0x00\n        /* \"#utility.yul\":5105:5106   */\n      dup1\n        /* \"#utility.yul\":5098:5110   */\n      revert\n        /* \"#utility.yul\":5122:5224   */\n    tag_72:\n        /* \"#utility.yul\":5163:5169   */\n      0x00\n        /* \"#utility.yul\":5214:5216   */\n      0x1f\n        /* \"#utility.yul\":5210:5217   */\n      not\n        /* \"#utility.yul\":5205:5207   */\n      0x1f\n        /* \"#utility.yul\":5198:5203   */\n      dup4\n        /* \"#utility.yul\":5194:5208   */\n      add\n        /* \"#utility.yul\":5190:5218   */\n      and\n        /* \"#utility.yul\":5180:5218   */\n      swap1\n      pop\n        /* \"#utility.yul\":5122:5224   */\n      swap2\n      swap1\n      pop\n      jump\t// out\n        /* \"#utility.yul\":5230:5352   */\n    tag_53:\n        /* \"#utility.yul\":5303:5327   */\n      tag_113\n        /* \"#utility.yul\":5321:5326   */\n      dup2\n        /* \"#utility.yul\":5303:5327   */\n      tag_88\n      jump\t// in\n    tag_113:\n        /* \"#utility.yul\":5296:5301   */\n      dup2\n        /* \"#utility.yul\":5293:5328   */\n      eq\n        /* \"#utility.yul\":5283:5346   */\n      tag_114\n      jumpi\n        /* \"#utility.yul\":5342:5343   */\n      0x00\n        /* \"#utility.yul\":5339:5340   */\n      dup1\n        /* \"#utility.yul\":5332:5344   */\n      revert\n        /* \"#utility.yul\":5283:5346   */\n    tag_114:\n        /* \"#utility.yul\":5230:5352   */\n      pop\n      jump\t// out\n\n    auxdata: 0xa2646970667358221220ac81f6f06748bb15f0fb34cbd2d99c9871e73af3c6fa69c89c045f2a39e9cc2864736f6c63430008070033\n}\n",
				"bytecode": {
					"linkReferences": {},
					"object": "60806040526040518060400160405280600681526020017f42726f776e7900000000000000000000000000000000000000000000000000008152506000908051906020019061004f929190610067565b50601460015534801561006157600080fd5b5061016b565b8280546100739061010a565b90600052602060002090601f01602090048101928261009557600085556100dc565b82601f106100ae57805160ff19168380011785556100dc565b828001600101855582156100dc579182015b828111156100db5782518255916020019190600101906100c0565b5b5090506100e991906100ed565b5090565b5b808211156101065760008160009055506001016100ee565b5090565b6000600282049050600182168061012257607f821691505b602082108114156101365761013561013c565b5b50919050565b7f4e487b7100000000000000000000000000000000000000000000000000000000600052602260045260246000fd5b6104f58061017a6000396000f3fe608060405234801561001057600080fd5b50600436106100365760003560e01c806306fdde031461003b578063f5dce13314610059575b600080fd5b610043610075565b60405161005091906102e2565b60405180910390f35b610073600480360381019061006e919061024d565b610103565b005b60008054610082906103c2565b80601f01602080910402602001604051908101604052809291908181526020018280546100ae906103c2565b80156100fb5780601f106100d0576101008083540402835291602001916100fb565b820191906000526020600020905b8154815290600101906020018083116100de57829003601f168201915b505050505081565b8160009080519060200190610119929190610125565b50806001819055505050565b828054610131906103c2565b90600052602060002090601f016020900481019282610153576000855561019a565b82601f1061016c57805160ff191683800117855561019a565b8280016001018555821561019a579182015b8281111561019957825182559160200191906001019061017e565b5b5090506101a791906101ab565b5090565b5b808211156101c45760008160009055506001016101ac565b5090565b60006101db6101d684610329565b610304565b9050828152602081018484840111156101f7576101f6610488565b5b610202848285610380565b509392505050565b600082601f83011261021f5761021e610483565b5b813561022f8482602086016101c8565b91505092915050565b600081359050610247816104a8565b92915050565b6000806040838503121561026457610263610492565b5b600083013567ffffffffffffffff8111156102825761028161048d565b5b61028e8582860161020a565b925050602061029f85828601610238565b9150509250929050565b60006102b48261035a565b6102be8185610365565b93506102ce81856020860161038f565b6102d781610497565b840191505092915050565b600060208201905081810360008301526102fc81846102a9565b905092915050565b600061030e61031f565b905061031a82826103f4565b919050565b6000604051905090565b600067ffffffffffffffff82111561034457610343610454565b5b61034d82610497565b9050602081019050919050565b600081519050919050565b600082825260208201905092915050565b6000819050919050565b82818337600083830152505050565b60005b838110156103ad578082015181840152602081019050610392565b838111156103bc576000848401525b50505050565b600060028204905060018216806103da57607f821691505b602082108114156103ee576103ed610425565b5b50919050565b6103fd82610497565b810181811067ffffffffffffffff8211171561041c5761041b610454565b5b80604052505050565b7f4e487b7100000000000000000000000000000000000000000000000000000000600052602260045260246000fd5b7f4e487b7100000000000000000000000000000000000000000000000000000000600052604160045260246000fd5b600080fd5b600080fd5b600080fd5b600080fd5b6000601f19601f8301169050919050565b6104b181610376565b81146104bc57600080fd5b5056fea2646970667358221220ac81f6f06748bb15f0fb34cbd2d99c9871e73af3c6fa69c89c045f2a39e9cc2864736f6c63430008070033",
					"opcodes": "PUSH1 0x80 PUSH1 0x40 MSTORE PUSH1 0x40 MLOAD DUP1 PUSH1 0x40 ADD PUSH1 0x40 MSTORE DUP1 PUSH1 0x6 DUP2 MSTORE PUSH1 0x20 ADD PUSH32 0x42726F776E790000000000000000000000000000000000000000000000000000 DUP2 MSTORE POP PUSH1 0x0 SWAP1 DUP1 MLOAD SWAP1 PUSH1 0x20 ADD SWAP1 PUSH2 0x4F SWAP3 SWAP2 SWAP1 PUSH2 0x67 JUMP JUMPDEST POP PUSH1 0x14 PUSH1 0x1 SSTORE CALLVALUE DUP1 ISZERO PUSH2 0x61 JUMPI PUSH1 0x0 DUP1 REVERT JUMPDEST POP PUSH2 0x16B JUMP JUMPDEST DUP3 DUP1 SLOAD PUSH2 0x73 SWAP1 PUSH2 0x10A JUMP JUMPDEST SWAP1 PUSH1 0x0 MSTORE PUSH1 0x20 PUSH1 0x0 KECCAK256 SWAP1 PUSH1 0x1F ADD PUSH1 0x20 SWAP1 DIV DUP2 ADD SWAP3 DUP3 PUSH2 0x95 JUMPI PUSH1 0x0 DUP6 SSTORE PUSH2 0xDC JUMP JUMPDEST DUP3 PUSH1 0x1F LT PUSH2 0xAE JUMPI DUP1 MLOAD PUSH1 0xFF NOT AND DUP4 DUP1 ADD OR DUP6 SSTORE PUSH2 0xDC JUMP JUMPDEST DUP3 DUP1 ADD PUSH1 0x1 ADD DUP6 SSTORE DUP3 ISZERO PUSH2 0xDC JUMPI SWAP2 DUP3 ADD JUMPDEST DUP3 DUP2 GT ISZERO PUSH2 0xDB JUMPI DUP3 MLOAD DUP3 SSTORE SWAP2 PUSH1 0x20 ADD SWAP2 SWAP1 PUSH1 0x1 ADD SWAP1 PUSH2 0xC0 JUMP JUMPDEST JUMPDEST POP SWAP1 POP PUSH2 0xE9 SWAP2 SWAP1 PUSH2 0xED JUMP JUMPDEST POP SWAP1 JUMP JUMPDEST JUMPDEST DUP1 DUP3 GT ISZERO PUSH2 0x106 JUMPI PUSH1 0x0 DUP2 PUSH1 0x0 SWAP1 SSTORE POP PUSH1 0x1 ADD PUSH2 0xEE JUMP JUMPDEST POP SWAP1 JUMP JUMPDEST PUSH1 0x0 PUSH1 0x2 DUP3 DIV SWAP1 POP PUSH1 0x1 DUP3 AND DUP1 PUSH2 0x122 JUMPI PUSH1 0x7F DUP3 AND SWAP2 POP JUMPDEST PUSH1 0x20 DUP3 LT DUP2 EQ ISZERO PUSH2 0x136 JUMPI PUSH2 0x135 PUSH2 0x13C JUMP JUMPDEST JUMPDEST POP SWAP2 SWAP1 POP JUMP JUMPDEST PUSH32 0x4E487B7100000000000000000000000000000000000000000000000000000000 PUSH1 0x0 MSTORE PUSH1 0x22 PUSH1 0x4 MSTORE PUSH1 0x24 PUSH1 0x0 REVERT JUMPDEST PUSH2 0x4F5 DUP1 PUSH2 0x17A PUSH1 0x0 CODECOPY PUSH1 0x0 RETURN INVALID PUSH1 0x80 PUSH1 0x40 MSTORE CALLVALUE DUP1 ISZERO PUSH2 0x10 JUMPI PUSH1 0x0 DUP1 REVERT JUMPDEST POP PUSH1 0x4 CALLDATASIZE LT PUSH2 0x36 JUMPI PUSH1 0x0 CALLDATALOAD PUSH1 0xE0 SHR DUP1 PUSH4 0x6FDDE03 EQ PUSH2 0x3B JUMPI DUP1 PUSH4 0xF5DCE133 EQ PUSH2 0x59 JUMPI JUMPDEST PUSH1 0x0 DUP1 REVERT JUMPDEST PUSH2 0x43 PUSH2 0x75 JUMP JUMPDEST PUSH1 0x40 MLOAD PUSH2 0x50 SWAP2 SWAP1 PUSH2 0x2E2 JUMP JUMPDEST PUSH1 0x40 MLOAD DUP1 SWAP2 SUB SWAP1 RETURN JUMPDEST PUSH2 0x73 PUSH1 0x4 DUP1 CALLDATASIZE SUB DUP2 ADD SWAP1 PUSH2 0x6E SWAP2 SWAP1 PUSH2 0x24D JUMP JUMPDEST PUSH2 0x103 JUMP JUMPDEST STOP JUMPDEST PUSH1 0x0 DUP1 SLOAD PUSH2 0x82 SWAP1 PUSH2 0x3C2 JUMP JUMPDEST DUP1 PUSH1 0x1F ADD PUSH1 0x20 DUP1 SWAP2 DIV MUL PUSH1 0x20 ADD PUSH1 0x40 MLOAD SWAP1 DUP2 ADD PUSH1 0x40 MSTORE DUP1 SWAP3 SWAP2 SWAP1 DUP2 DUP2 MSTORE PUSH1 0x20 ADD DUP3 DUP1 SLOAD PUSH2 0xAE SWAP1 PUSH2 0x3C2 JUMP JUMPDEST DUP1 ISZERO PUSH2 0xFB JUMPI DUP1 PUSH1 0x1F LT PUSH2 0xD0 JUMPI PUSH2 0x100 DUP1 DUP4 SLOAD DIV MUL DUP4 MSTORE SWAP2 PUSH1 0x20 ADD SWAP2 PUSH2 0xFB JUMP JUMPDEST DUP3 ADD SWAP2 SWAP1 PUSH1 0x0 MSTORE PUSH1 0x20 PUSH1 0x0 KECCAK256 SWAP1 JUMPDEST DUP2 SLOAD DUP2 MSTORE SWAP1 PUSH1 0x1 ADD SWAP1 PUSH1 0x20 ADD DUP1 DUP4 GT PUSH2 0xDE JUMPI DUP3 SWAP1 SUB PUSH1 0x1F AND DUP3 ADD SWAP2 JUMPDEST POP POP POP POP POP DUP2 JUMP JUMPDEST DUP2 PUSH1 0x0 SWAP1 DUP1 MLOAD SWAP1 PUSH1 0x20 ADD SWAP1 PUSH2 0x119 SWAP3 SWAP2 SWAP1 PUSH2 0x125 JUMP JUMPDEST POP DUP1 PUSH1 0x1 DUP2 SWAP1 SSTORE POP POP POP JUMP JUMPDEST DUP3 DUP1 SLOAD PUSH2 0x131 SWAP1 PUSH2 0x3C2 JUMP JUMPDEST SWAP1 PUSH1 0x0 MSTORE PUSH1 0x20 PUSH1 0x0 KECCAK256 SWAP1 PUSH1 0x1F ADD PUSH1 0x20 SWAP1 DIV DUP2 ADD SWAP3 DUP3 PUSH2 0x153 JUMPI PUSH1 0x0 DUP6 SSTORE PUSH2 0x19A JUMP JUMPDEST DUP3 PUSH1 0x1F LT PUSH2 0x16C JUMPI DUP1 MLOAD PUSH1 0xFF NOT AND DUP4 DUP1 ADD OR DUP6 SSTORE PUSH2 0x19A JUMP JUMPDEST DUP3 DUP1 ADD PUSH1 0x1 ADD DUP6 SSTORE DUP3 ISZERO PUSH2 0x19A JUMPI SWAP2 DUP3 ADD JUMPDEST DUP3 DUP2 GT ISZERO PUSH2 0x199 JUMPI DUP3 MLOAD DUP3 SSTORE SWAP2 PUSH1 0x20 ADD SWAP2 SWAP1 PUSH1 0x1 ADD SWAP1 PUSH2 0x17E JUMP JUMPDEST JUMPDEST POP SWAP1 POP PUSH2 0x1A7 SWAP2 SWAP1 PUSH2 0x1AB JUMP JUMPDEST POP SWAP1 JUMP JUMPDEST JUMPDEST DUP1 DUP3 GT ISZERO PUSH2 0x1C4 JUMPI PUSH1 0x0 DUP2 PUSH1 0x0 SWAP1 SSTORE POP PUSH1 0x1 ADD PUSH2 0x1AC JUMP JUMPDEST POP SWAP1 JUMP JUMPDEST PUSH1 0x0 PUSH2 0x1DB PUSH2 0x1D6 DUP5 PUSH2 0x329 JUMP JUMPDEST PUSH2 0x304 JUMP JUMPDEST SWAP1 POP DUP3 DUP2 MSTORE PUSH1 0x20 DUP2 ADD DUP5 DUP5 DUP5 ADD GT ISZERO PUSH2 0x1F7 JUMPI PUSH2 0x1F6 PUSH2 0x488 JUMP JUMPDEST JUMPDEST PUSH2 0x202 DUP5 DUP3 DUP6 PUSH2 0x380 JUMP JUMPDEST POP SWAP4 SWAP3 POP POP POP JUMP JUMPDEST PUSH1 0x0 DUP3 PUSH1 0x1F DUP4 ADD SLT PUSH2 0x21F JUMPI PUSH2 0x21E PUSH2 0x483 JUMP JUMPDEST JUMPDEST DUP2 CALLDATALOAD PUSH2 0x22F DUP5 DUP3 PUSH1 0x20 DUP7 ADD PUSH2 0x1C8 JUMP JUMPDEST SWAP2 POP POP SWAP3 SWAP2 POP POP JUMP JUMPDEST PUSH1 0x0 DUP2 CALLDATALOAD SWAP1 POP PUSH2 0x247 DUP2 PUSH2 0x4A8 JUMP JUMPDEST SWAP3 SWAP2 POP POP JUMP JUMPDEST PUSH1 0x0 DUP1 PUSH1 0x40 DUP4 DUP6 SUB SLT ISZERO PUSH2 0x264 JUMPI PUSH2 0x263 PUSH2 0x492 JUMP JUMPDEST JUMPDEST PUSH1 0x0 DUP4 ADD CALLDATALOAD PUSH8 0xFFFFFFFFFFFFFFFF DUP2 GT ISZERO PUSH2 0x282 JUMPI PUSH2 0x281 PUSH2 0x48D JUMP JUMPDEST JUMPDEST PUSH2 0x28E DUP6 DUP3 DUP7 ADD PUSH2 0x20A JUMP JUMPDEST SWAP3 POP POP PUSH1 0x20 PUSH2 0x29F DUP6 DUP3 DUP7 ADD PUSH2 0x238 JUMP JUMPDEST SWAP2 POP POP SWAP3 POP SWAP3 SWAP1 POP JUMP JUMPDEST PUSH1 0x0 PUSH2 0x2B4 DUP3 PUSH2 0x35A JUMP JUMPDEST PUSH2 0x2BE DUP2 DUP6 PUSH2 0x365 JUMP JUMPDEST SWAP4 POP PUSH2 0x2CE DUP2 DUP6 PUSH1 0x20 DUP7 ADD PUSH2 0x38F JUMP JUMPDEST PUSH2 0x2D7 DUP2 PUSH2 0x497 JUMP JUMPDEST DUP5 ADD SWAP2 POP POP SWAP3 SWAP2 POP POP JUMP JUMPDEST PUSH1 0x0 PUSH1 0x20 DUP3 ADD SWAP1 POP DUP2 DUP2 SUB PUSH1 0x0 DUP4 ADD MSTORE PUSH2 0x2FC DUP2 DUP5 PUSH2 0x2A9 JUMP JUMPDEST SWAP1 POP SWAP3 SWAP2 POP POP JUMP JUMPDEST PUSH1 0x0 PUSH2 0x30E PUSH2 0x31F JUMP JUMPDEST SWAP1 POP PUSH2 0x31A DUP3 DUP3 PUSH2 0x3F4 JUMP JUMPDEST SWAP2 SWAP1 POP JUMP JUMPDEST PUSH1 0x0 PUSH1 0x40 MLOAD SWAP1 POP SWAP1 JUMP JUMPDEST PUSH1 0x0 PUSH8 0xFFFFFFFFFFFFFFFF DUP3 GT ISZERO PUSH2 0x344 JUMPI PUSH2 0x343 PUSH2 0x454 JUMP JUMPDEST JUMPDEST PUSH2 0x34D DUP3 PUSH2 0x497 JUMP JUMPDEST SWAP1 POP PUSH1 0x20 DUP2 ADD SWAP1 POP SWAP2 SWAP1 POP JUMP JUMPDEST PUSH1 0x0 DUP2 MLOAD SWAP1 POP SWAP2 SWAP1 POP JUMP JUMPDEST PUSH1 0x0 DUP3 DUP3 MSTORE PUSH1 0x20 DUP3 ADD SWAP1 POP SWAP3 SWAP2 POP POP JUMP JUMPDEST PUSH1 0x0 DUP2 SWAP1 POP SWAP2 SWAP1 POP JUMP JUMPDEST DUP3 DUP2 DUP4 CALLDATACOPY PUSH1 0x0 DUP4 DUP4 ADD MSTORE POP POP POP JUMP JUMPDEST PUSH1 0x0 JUMPDEST DUP4 DUP2 LT ISZERO PUSH2 0x3AD JUMPI DUP1 DUP3 ADD MLOAD DUP2 DUP5 ADD MSTORE PUSH1 0x20 DUP2 ADD SWAP1 POP PUSH2 0x392 JUMP JUMPDEST DUP4 DUP2 GT ISZERO PUSH2 0x3BC JUMPI PUSH1 0x0 DUP5 DUP5 ADD MSTORE JUMPDEST POP POP POP POP JUMP JUMPDEST PUSH1 0x0 PUSH1 0x2 DUP3 DIV SWAP1 POP PUSH1 0x1 DUP3 AND DUP1 PUSH2 0x3DA JUMPI PUSH1 0x7F DUP3 AND SWAP2 POP JUMPDEST PUSH1 0x20 DUP3 LT DUP2 EQ ISZERO PUSH2 0x3EE JUMPI PUSH2 0x3ED PUSH2 0x425 JUMP JUMPDEST JUMPDEST POP SWAP2 SWAP1 POP JUMP JUMPDEST PUSH2 0x3FD DUP3 PUSH2 0x497 JUMP JUMPDEST DUP2 ADD DUP2 DUP2 LT PUSH8 0xFFFFFFFFFFFFFFFF DUP3 GT OR ISZERO PUSH2 0x41C JUMPI PUSH2 0x41B PUSH2 0x454 JUMP JUMPDEST JUMPDEST DUP1 PUSH1 0x40 MSTORE POP POP POP JUMP JUMPDEST PUSH32 0x4E487B7100000000000000000000000000000000000000000000000000000000 PUSH1 0x0 MSTORE PUSH1 0x22 PUSH1 0x4 MSTORE PUSH1 0x24 PUSH1 0x0 REVERT JUMPDEST PUSH32 0x4E487B7100000000000000000000000000000000000000000000000000000000 PUSH1 0x0 MSTORE PUSH1 0x41 PUSH1 0x4 MSTORE PUSH1 0x24 PUSH1 0x0 REVERT JUMPDEST PUSH1 0x0 DUP1 REVERT JUMPDEST PUSH1 0x0 DUP1 REVERT JUMPDEST PUSH1 0x0 DUP1 REVERT JUMPDEST PUSH1 0x0 DUP1 REVERT JUMPDEST PUSH1 0x0 PUSH1 0x1F NOT PUSH1 0x1F DUP4 ADD AND SWAP1 POP SWAP2 SWAP1 POP JUMP JUMPDEST PUSH2 0x4B1 DUP2 PUSH2 0x376 JUMP JUMPDEST DUP2 EQ PUSH2 0x4BC JUMPI PUSH1 0x0 DUP1 REVERT JUMPDEST POP JUMP INVALID LOG2 PUSH5 0x6970667358 0x22 SLT KECCAK256 0xAC DUP2 0xF6 CREATE PUSH8 0x48BB15F0FB34CBD2 0xD9 SWAP13 SWAP9 PUSH18 0xE73AF3C6FA69C89C045F2A39E9CC2864736F PUSH13 0x63430008070033000000000000 "
				},
				"gasEstimates": {
					"creation": {
						"codeDepositCost": "253800",
						"executionCost": "infinite",
						"totalCost": "infinite"
					},
					"external": {
						"name()": "infinite",
						"setter(string,uint256)": "infinite"
					}
				},
				"methodIdentifiers": {
					"name()": "06fdde03",
					"setter(string,uint256)": "f5dce133"
				}
			},
			"storageLayout": {
				"storage": [
					{
						"astId": 4,
						"contract": "getter&setter.sol:basic",
						"label": "name",
						"offset": 0,
						"slot": "0",
						"type": "t_string_storage"
					},
					{
						"astId": 7,
						"contract": "getter&setter.sol:basic",
						"label": "age",
						"offset": 0,
						"slot": "1",
						"type": "t_uint256"
					}
				],
				"types": {
					"t_string_storage": {
						"encoding": "bytes",
						"label": "string",
						"numberOfBytes": "32"
					},
					"t_uint256": {
						"encoding": "inplace",
						"label": "uint256",
						"numberOfBytes": "32"
					}
				}
			},
			"userdoc": {
				"kind": "user",
				"methods": {},
				"version": 1
			}
		}
	}
}