{
	"Enums.sol": {
		"Enum": {
			"abi": [
				{
					"inputs": [
						{
							"internalType": "enum Enum.States",
							"name": "_state",
							"type": "uint8"
						}
					],
					"name": "setState",
					"outputs": [],
					"stateMutability": "nonpayable",
					"type": "function"
				},
				{
					"inputs": [],
					"name": "state",
					"outputs": [
						{
							"internalType": "enum Enum.States",
							"name": "",
							"type": "uint8"
						}
					],
					"stateMutability": "view",
					"type": "function"
				}
			],
			"devdoc": {
				"kind": "dev",
				"methods": {},
				"version": 1
			},
			"evm": {
				"assembly": "    /* \"Enums.sol\":74:434  contract Enum{\r... */\n  mstore(0x40, 0x80)\n  callvalue\n  dup1\n  iszero\n  tag_1\n  jumpi\n  0x00\n  dup1\n  revert\ntag_1:\n  pop\n  dataSize(sub_0)\n  dup1\n  dataOffset(sub_0)\n  0x00\n  codecopy\n  0x00\n  return\nstop\n\nsub_0: assembly {\n        /* \"Enums.sol\":74:434  contract Enum{\r... */\n      mstore(0x40, 0x80)\n      callvalue\n      dup1\n      iszero\n      tag_1\n      jumpi\n      0x00\n      dup1\n      revert\n    tag_1:\n      pop\n      jumpi(tag_2, lt(calldatasize, 0x04))\n      shr(0xe0, calldataload(0x00))\n      dup1\n      0x56de96db\n      eq\n      tag_3\n      jumpi\n      dup1\n      0xc19d93fb\n      eq\n      tag_4\n      jumpi\n    tag_2:\n      0x00\n      dup1\n      revert\n        /* \"Enums.sol\":358:431  function setState(States _state) public {\r... */\n    tag_3:\n      tag_5\n      0x04\n      dup1\n      calldatasize\n      sub\n      dup2\n      add\n      swap1\n      tag_6\n      swap2\n      swap1\n      tag_7\n      jump\t// in\n    tag_6:\n      tag_8\n      jump\t// in\n    tag_5:\n      stop\n        /* \"Enums.sol\":275:294  States public state */\n    tag_4:\n      tag_9\n      tag_10\n      jump\t// in\n    tag_9:\n      mload(0x40)\n      tag_11\n      swap2\n      swap1\n      tag_12\n      jump\t// in\n    tag_11:\n      mload(0x40)\n      dup1\n      swap2\n      sub\n      swap1\n      return\n        /* \"Enums.sol\":358:431  function setState(States _state) public {\r... */\n    tag_8:\n        /* \"Enums.sol\":417:423  _state */\n      dup1\n        /* \"Enums.sol\":409:414  state */\n      0x00\n      dup1\n        /* \"Enums.sol\":409:423  state = _state */\n      0x0100\n      exp\n      dup2\n      sload\n      dup2\n      0xff\n      mul\n      not\n      and\n      swap1\n      dup4\n      0x02\n      dup2\n      gt\n      iszero\n      tag_14\n      jumpi\n      tag_15\n      tag_16\n      jump\t// in\n    tag_15:\n    tag_14:\n      mul\n      or\n      swap1\n      sstore\n      pop\n        /* \"Enums.sol\":358:431  function setState(States _state) public {\r... */\n      pop\n      jump\t// out\n        /* \"Enums.sol\":275:294  States public state */\n    tag_10:\n      0x00\n      dup1\n      sload\n      swap1\n      0x0100\n      exp\n      swap1\n      div\n      0xff\n      and\n      dup2\n      jump\t// out\n        /* \"#utility.yul\":7:162   */\n    tag_18:\n        /* \"#utility.yul\":61:66   */\n      0x00\n        /* \"#utility.yul\":99:105   */\n      dup2\n        /* \"#utility.yul\":86:106   */\n      calldataload\n        /* \"#utility.yul\":77:106   */\n      swap1\n      pop\n        /* \"#utility.yul\":115:156   */\n      tag_20\n        /* \"#utility.yul\":150:155   */\n      dup2\n        /* \"#utility.yul\":115:156   */\n      tag_21\n      jump\t// in\n    tag_20:\n        /* \"#utility.yul\":7:162   */\n      swap3\n      swap2\n      pop\n      pop\n      jump\t// out\n        /* \"#utility.yul\":168:513   */\n    tag_7:\n        /* \"#utility.yul\":235:241   */\n      0x00\n        /* \"#utility.yul\":284:286   */\n      0x20\n        /* \"#utility.yul\":272:281   */\n      dup3\n        /* \"#utility.yul\":263:270   */\n      dup5\n        /* \"#utility.yul\":259:282   */\n      sub\n        /* \"#utility.yul\":255:287   */\n      slt\n        /* \"#utility.yul\":252:371   */\n      iszero\n      tag_23\n      jumpi\n        /* \"#utility.yul\":290:369   */\n      tag_24\n      tag_25\n      jump\t// in\n    tag_24:\n        /* \"#utility.yul\":252:371   */\n    tag_23:\n        /* \"#utility.yul\":410:411   */\n      0x00\n        /* \"#utility.yul\":435:496   */\n      tag_26\n        /* \"#utility.yul\":488:495   */\n      dup5\n        /* \"#utility.yul\":479:485   */\n      dup3\n        /* \"#utility.yul\":468:477   */\n      dup6\n        /* \"#utility.yul\":464:486   */\n      add\n        /* \"#utility.yul\":435:496   */\n      tag_18\n      jump\t// in\n    tag_26:\n        /* \"#utility.yul\":425:496   */\n      swap2\n      pop\n        /* \"#utility.yul\":381:506   */\n      pop\n        /* \"#utility.yul\":168:513   */\n      swap3\n      swap2\n      pop\n      pop\n      jump\t// out\n        /* \"#utility.yul\":519:662   */\n    tag_27:\n        /* \"#utility.yul\":612:655   */\n      tag_29\n        /* \"#utility.yul\":649:654   */\n      dup2\n        /* \"#utility.yul\":612:655   */\n      tag_30\n      jump\t// in\n    tag_29:\n        /* \"#utility.yul\":607:610   */\n      dup3\n        /* \"#utility.yul\":600:656   */\n      mstore\n        /* \"#utility.yul\":519:662   */\n      pop\n      pop\n      jump\t// out\n        /* \"#utility.yul\":668:902   */\n    tag_12:\n        /* \"#utility.yul\":767:771   */\n      0x00\n        /* \"#utility.yul\":805:807   */\n      0x20\n        /* \"#utility.yul\":794:803   */\n      dup3\n        /* \"#utility.yul\":790:808   */\n      add\n        /* \"#utility.yul\":782:808   */\n      swap1\n      pop\n        /* \"#utility.yul\":818:895   */\n      tag_32\n        /* \"#utility.yul\":892:893   */\n      0x00\n        /* \"#utility.yul\":881:890   */\n      dup4\n        /* \"#utility.yul\":877:894   */\n      add\n        /* \"#utility.yul\":868:874   */\n      dup5\n        /* \"#utility.yul\":818:895   */\n      tag_27\n      jump\t// in\n    tag_32:\n        /* \"#utility.yul\":668:902   */\n      swap3\n      swap2\n      pop\n      pop\n      jump\t// out\n        /* \"#utility.yul\":989:1116   */\n    tag_35:\n        /* \"#utility.yul\":1034:1041   */\n      0x00\n        /* \"#utility.yul\":1063:1068   */\n      dup2\n        /* \"#utility.yul\":1052:1068   */\n      swap1\n      pop\n        /* \"#utility.yul\":1069:1110   */\n      tag_37\n        /* \"#utility.yul\":1104:1109   */\n      dup3\n        /* \"#utility.yul\":1069:1110   */\n      tag_38\n      jump\t// in\n    tag_37:\n        /* \"#utility.yul\":989:1116   */\n      swap2\n      swap1\n      pop\n      jump\t// out\n        /* \"#utility.yul\":1122:1249   */\n    tag_30:\n        /* \"#utility.yul\":1178:1187   */\n      0x00\n        /* \"#utility.yul\":1211:1243   */\n      tag_40\n        /* \"#utility.yul\":1237:1242   */\n      dup3\n        /* \"#utility.yul\":1211:1243   */\n      tag_35\n      jump\t// in\n    tag_40:\n        /* \"#utility.yul\":1198:1243   */\n      swap1\n      pop\n        /* \"#utility.yul\":1122:1249   */\n      swap2\n      swap1\n      pop\n      jump\t// out\n        /* \"#utility.yul\":1255:1435   */\n    tag_16:\n        /* \"#utility.yul\":1303:1380   */\n      0x4e487b7100000000000000000000000000000000000000000000000000000000\n        /* \"#utility.yul\":1300:1301   */\n      0x00\n        /* \"#utility.yul\":1293:1381   */\n      mstore\n        /* \"#utility.yul\":1400:1404   */\n      0x21\n        /* \"#utility.yul\":1397:1398   */\n      0x04\n        /* \"#utility.yul\":1390:1405   */\n      mstore\n        /* \"#utility.yul\":1424:1428   */\n      0x24\n        /* \"#utility.yul\":1421:1422   */\n      0x00\n        /* \"#utility.yul\":1414:1429   */\n      revert\n        /* \"#utility.yul\":1564:1681   */\n    tag_25:\n        /* \"#utility.yul\":1673:1674   */\n      0x00\n        /* \"#utility.yul\":1670:1671   */\n      dup1\n        /* \"#utility.yul\":1663:1675   */\n      revert\n        /* \"#utility.yul\":1687:1800   */\n    tag_38:\n        /* \"#utility.yul\":1768:1769   */\n      0x03\n        /* \"#utility.yul\":1761:1766   */\n      dup2\n        /* \"#utility.yul\":1758:1770   */\n      lt\n        /* \"#utility.yul\":1748:1794   */\n      tag_46\n      jumpi\n        /* \"#utility.yul\":1774:1792   */\n      tag_47\n      tag_16\n      jump\t// in\n    tag_47:\n        /* \"#utility.yul\":1748:1794   */\n    tag_46:\n        /* \"#utility.yul\":1687:1800   */\n      pop\n      jump\t// out\n        /* \"#utility.yul\":1806:1913   */\n    tag_21:\n        /* \"#utility.yul\":1887:1888   */\n      0x03\n        /* \"#utility.yul\":1880:1885   */\n      dup2\n        /* \"#utility.yul\":1877:1889   */\n      lt\n        /* \"#utility.yul\":1867:1907   */\n      tag_49\n      jumpi\n        /* \"#utility.yul\":1903:1904   */\n      0x00\n        /* \"#utility.yul\":1900:1901   */\n      dup1\n        /* \"#utility.yul\":1893:1905   */\n      revert\n        /* \"#utility.yul\":1867:1907   */\n    tag_49:\n        /* \"#utility.yul\":1806:1913   */\n      pop\n      jump\t// out\n\n    auxdata: 0xa2646970667358221220c34cc5e5d3c9703bddf232adeef27e137c840f4495975e2a170b9ad776427c1a64736f6c63430008070033\n}\n",
				"bytecode": {
					"linkReferences": {},
					"object": "608060405234801561001057600080fd5b506101d1806100206000396000f3fe608060405234801561001057600080fd5b50600436106100365760003560e01c806356de96db1461003b578063c19d93fb14610057575b600080fd5b610055600480360381019061005091906100c7565b610075565b005b61005f6100a1565b60405161006c9190610103565b60405180910390f35b806000806101000a81548160ff0219169083600281111561009957610098610143565b5b021790555050565b60008054906101000a900460ff1681565b6000813590506100c18161018b565b92915050565b6000602082840312156100dd576100dc610172565b5b60006100eb848285016100b2565b91505092915050565b6100fd81610131565b82525050565b600060208201905061011860008301846100f4565b92915050565b600081905061012c82610177565b919050565b600061013c8261011e565b9050919050565b7f4e487b7100000000000000000000000000000000000000000000000000000000600052602160045260246000fd5b600080fd5b6003811061018857610187610143565b5b50565b6003811061019857600080fd5b5056fea2646970667358221220c34cc5e5d3c9703bddf232adeef27e137c840f4495975e2a170b9ad776427c1a64736f6c63430008070033",
					"opcodes": "PUSH1 0x80 PUSH1 0x40 MSTORE CALLVALUE DUP1 ISZERO PUSH2 0x10 JUMPI PUSH1 0x0 DUP1 REVERT JUMPDEST POP PUSH2 0x1D1 DUP1 PUSH2 0x20 PUSH1 0x0 CODECOPY PUSH1 0x0 RETURN INVALID PUSH1 0x80 PUSH1 0x40 MSTORE CALLVALUE DUP1 ISZERO PUSH2 0x10 JUMPI PUSH1 0x0 DUP1 REVERT JUMPDEST POP PUSH1 0x4 CALLDATASIZE LT PUSH2 0x36 JUMPI PUSH1 0x0 CALLDATALOAD PUSH1 0xE0 SHR DUP1 PUSH4 0x56DE96DB EQ PUSH2 0x3B JUMPI DUP1 PUSH4 0xC19D93FB EQ PUSH2 0x57 JUMPI JUMPDEST PUSH1 0x0 DUP1 REVERT JUMPDEST PUSH2 0x55 PUSH1 0x4 DUP1 CALLDATASIZE SUB DUP2 ADD SWAP1 PUSH2 0x50 SWAP2 SWAP1 PUSH2 0xC7 JUMP JUMPDEST PUSH2 0x75 JUMP JUMPDEST STOP JUMPDEST PUSH2 0x5F PUSH2 0xA1 JUMP JUMPDEST PUSH1 0x40 MLOAD PUSH2 0x6C SWAP2 SWAP1 PUSH2 0x103 JUMP JUMPDEST PUSH1 0x40 MLOAD DUP1 SWAP2 SUB SWAP1 RETURN JUMPDEST DUP1 PUSH1 0x0 DUP1 PUSH2 0x100 EXP DUP2 SLOAD DUP2 PUSH1 0xFF MUL NOT AND SWAP1 DUP4 PUSH1 0x2 DUP2 GT ISZERO PUSH2 0x99 JUMPI PUSH2 0x98 PUSH2 0x143 JUMP JUMPDEST JUMPDEST MUL OR SWAP1 SSTORE POP POP JUMP JUMPDEST PUSH1 0x0 DUP1 SLOAD SWAP1 PUSH2 0x100 EXP SWAP1 DIV PUSH1 0xFF AND DUP2 JUMP JUMPDEST PUSH1 0x0 DUP2 CALLDATALOAD SWAP1 POP PUSH2 0xC1 DUP2 PUSH2 0x18B JUMP JUMPDEST SWAP3 SWAP2 POP POP JUMP JUMPDEST PUSH1 0x0 PUSH1 0x20 DUP3 DUP5 SUB SLT ISZERO PUSH2 0xDD JUMPI PUSH2 0xDC PUSH2 0x172 JUMP JUMPDEST JUMPDEST PUSH1 0x0 PUSH2 0xEB DUP5 DUP3 DUP6 ADD PUSH2 0xB2 JUMP JUMPDEST SWAP2 POP POP SWAP3 SWAP2 POP POP JUMP JUMPDEST PUSH2 0xFD DUP2 PUSH2 0x131 JUMP JUMPDEST DUP3 MSTORE POP POP JUMP JUMPDEST PUSH1 0x0 PUSH1 0x20 DUP3 ADD SWAP1 POP PUSH2 0x118 PUSH1 0x0 DUP4 ADD DUP5 PUSH2 0xF4 JUMP JUMPDEST SWAP3 SWAP2 POP POP JUMP JUMPDEST PUSH1 0x0 DUP2 SWAP1 POP PUSH2 0x12C DUP3 PUSH2 0x177 JUMP JUMPDEST SWAP2 SWAP1 POP JUMP JUMPDEST PUSH1 0x0 PUSH2 0x13C DUP3 PUSH2 0x11E JUMP JUMPDEST SWAP1 POP SWAP2 SWAP1 POP JUMP JUMPDEST PUSH32 0x4E487B7100000000000000000000000000000000000000000000000000000000 PUSH1 0x0 MSTORE PUSH1 0x21 PUSH1 0x4 MSTORE PUSH1 0x24 PUSH1 0x0 REVERT JUMPDEST PUSH1 0x0 DUP1 REVERT JUMPDEST PUSH1 0x3 DUP2 LT PUSH2 0x188 JUMPI PUSH2 0x187 PUSH2 0x143 JUMP JUMPDEST JUMPDEST POP JUMP JUMPDEST PUSH1 0x3 DUP2 LT PUSH2 0x198 JUMPI PUSH1 0x0 DUP1 REVERT JUMPDEST POP JUMP INVALID LOG2 PUSH5 0x6970667358 0x22 SLT KECCAK256 0xC3 0x4C 0xC5 0xE5 0xD3 0xC9 PUSH17 0x3BDDF232ADEEF27E137C840F4495975E2A OR SIGNEXTEND SWAP11 0xD7 PUSH23 0x427C1A64736F6C63430008070033000000000000000000 "
				},
				"gasEstimates": {
					"creation": {
						"codeDepositCost": "93000",
						"executionCost": "141",
						"totalCost": "93141"
					},
					"external": {
						"setState(uint8)": "24628",
						"state()": "2557"
					}
				},
				"methodIdentifiers": {
					"setState(uint8)": "56de96db",
					"state()": "c19d93fb"
				}
			},
			"storageLayout": {
				"storage": [
					{
						"astId": 8,
						"contract": "Enums.sol:Enum",
						"label": "state",
						"offset": 0,
						"slot": "0",
						"type": "t_enum(States)5"
					}
				],
				"types": {
					"t_enum(States)5": {
						"encoding": "inplace",
						"label": "enum Enum.States",
						"numberOfBytes": "1"
					}
				}
			},
			"userdoc": {
				"kind": "user",
				"methods": {},
				"version": 1
			}
		}
	}
}