{
	"Structs&Ennum.sol": {
		"Customer": {
			"abi": [
				{
					"inputs": [
						{
							"internalType": "string",
							"name": "_name",
							"type": "string"
						},
						{
							"internalType": "uint256",
							"name": "_value",
							"type": "uint256"
						}
					],
					"stateMutability": "nonpayable",
					"type": "constructor"
				},
				{
					"inputs": [
						{
							"internalType": "string",
							"name": "_name",
							"type": "string"
						},
						{
							"internalType": "uint256",
							"name": "_value",
							"type": "uint256"
						}
					],
					"name": "newSubB",
					"outputs": [],
					"stateMutability": "nonpayable",
					"type": "function"
				},
				{
					"inputs": [],
					"name": "subBusiness",
					"outputs": [
						{
							"internalType": "string",
							"name": "name",
							"type": "string"
						},
						{
							"internalType": "uint256",
							"name": "value",
							"type": "uint256"
						},
						{
							"internalType": "address",
							"name": "addr",
							"type": "address"
						}
					],
					"stateMutability": "view",
					"type": "function"
				}
			],
			"devdoc": {
				"kind": "dev",
				"methods": {},
				"version": 1
			},
			"evm": {
				"assembly": "    /* \"Structs&Ennum.sol\":152:824  contract Customer {\r... */\n  mstore(0x40, 0x80)\n    /* \"Structs&Ennum.sol\":339:501  constructor( string memory _name, uint _value ){\r... */\n  callvalue\n  dup1\n  iszero\n  tag_1\n  jumpi\n  0x00\n  dup1\n  revert\ntag_1:\n  pop\n  mload(0x40)\n  sub(codesize, bytecodeSize)\n  dup1\n  bytecodeSize\n  dup4\n  codecopy\n  dup2\n  dup2\n  add\n  0x40\n  mstore\n  dup2\n  add\n  swap1\n  tag_2\n  swap2\n  swap1\n  tag_3\n  jump\t// in\ntag_2:\n    /* \"Structs&Ennum.sol\":414:419  _name */\n  dup2\n    /* \"Structs&Ennum.sol\":395:406  subBusiness */\n  0x00\n    /* \"Structs&Ennum.sol\":395:411  subBusiness.name */\n  dup1\n  add\n    /* \"Structs&Ennum.sol\":395:419  subBusiness.name = _name */\n  swap1\n  dup1\n  mload\n  swap1\n  0x20\n  add\n  swap1\n  tag_6\n  swap3\n  swap2\n  swap1\n  tag_7\n  jump\t// in\ntag_6:\n  pop\n    /* \"Structs&Ennum.sol\":448:454  _value */\n  dup1\n    /* \"Structs&Ennum.sol\":428:439  subBusiness */\n  0x00\n    /* \"Structs&Ennum.sol\":428:445  subBusiness.value */\n  0x01\n  add\n    /* \"Structs&Ennum.sol\":428:454  subBusiness.value = _value */\n  dup2\n  swap1\n  sstore\n  pop\n    /* \"Structs&Ennum.sol\":482:492  msg.sender */\n  caller\n    /* \"Structs&Ennum.sol\":463:474  subBusiness */\n  0x00\n    /* \"Structs&Ennum.sol\":463:479  subBusiness.addr */\n  0x02\n  add\n  0x00\n    /* \"Structs&Ennum.sol\":463:492  subBusiness.addr = msg.sender */\n  0x0100\n  exp\n  dup2\n  sload\n  dup2\n  0xffffffffffffffffffffffffffffffffffffffff\n  mul\n  not\n  and\n  swap1\n  dup4\n  0xffffffffffffffffffffffffffffffffffffffff\n  and\n  mul\n  or\n  swap1\n  sstore\n  pop\n    /* \"Structs&Ennum.sol\":339:501  constructor( string memory _name, uint _value ){\r... */\n  pop\n  pop\n    /* \"Structs&Ennum.sol\":152:824  contract Customer {\r... */\n  jump(tag_8)\ntag_7:\n  dup3\n  dup1\n  sload\n  tag_9\n  swap1\n  tag_10\n  jump\t// in\ntag_9:\n  swap1\n  0x00\n  mstore\n  keccak256(0x00, 0x20)\n  swap1\n  0x1f\n  add\n  0x20\n  swap1\n  div\n  dup2\n  add\n  swap3\n  dup3\n  tag_12\n  jumpi\n  0x00\n  dup6\n  sstore\n  jump(tag_11)\ntag_12:\n  dup3\n  0x1f\n  lt\n  tag_13\n  jumpi\n  dup1\n  mload\n  not(0xff)\n  and\n  dup4\n  dup1\n  add\n  or\n  dup6\n  sstore\n  jump(tag_11)\ntag_13:\n  dup3\n  dup1\n  add\n  0x01\n  add\n  dup6\n  sstore\n  dup3\n  iszero\n  tag_11\n  jumpi\n  swap2\n  dup3\n  add\ntag_14:\n  dup3\n  dup2\n  gt\n  iszero\n  tag_15\n  jumpi\n  dup3\n  mload\n  dup3\n  sstore\n  swap2\n  0x20\n  add\n  swap2\n  swap1\n  0x01\n  add\n  swap1\n  jump(tag_14)\ntag_15:\ntag_11:\n  pop\n  swap1\n  pop\n  tag_16\n  swap2\n  swap1\n  tag_17\n  jump\t// in\ntag_16:\n  pop\n  swap1\n  jump\t// out\ntag_17:\ntag_18:\n  dup1\n  dup3\n  gt\n  iszero\n  tag_19\n  jumpi\n  0x00\n  dup2\n  0x00\n  swap1\n  sstore\n  pop\n  0x01\n  add\n  jump(tag_18)\ntag_19:\n  pop\n  swap1\n  jump\t// out\n    /* \"#utility.yul\":7:428   */\ntag_21:\n    /* \"#utility.yul\":96:101   */\n  0x00\n    /* \"#utility.yul\":121:187   */\n  tag_23\n    /* \"#utility.yul\":137:186   */\n  tag_24\n    /* \"#utility.yul\":179:185   */\n  dup5\n    /* \"#utility.yul\":137:186   */\n  tag_25\n  jump\t// in\ntag_24:\n    /* \"#utility.yul\":121:187   */\n  tag_26\n  jump\t// in\ntag_23:\n    /* \"#utility.yul\":112:187   */\n  swap1\n  pop\n    /* \"#utility.yul\":210:216   */\n  dup3\n    /* \"#utility.yul\":203:208   */\n  dup2\n    /* \"#utility.yul\":196:217   */\n  mstore\n    /* \"#utility.yul\":248:252   */\n  0x20\n    /* \"#utility.yul\":241:246   */\n  dup2\n    /* \"#utility.yul\":237:253   */\n  add\n    /* \"#utility.yul\":286:289   */\n  dup5\n    /* \"#utility.yul\":277:283   */\n  dup5\n    /* \"#utility.yul\":272:275   */\n  dup5\n    /* \"#utility.yul\":268:284   */\n  add\n    /* \"#utility.yul\":265:290   */\n  gt\n    /* \"#utility.yul\":262:374   */\n  iszero\n  tag_27\n  jumpi\n    /* \"#utility.yul\":293:372   */\n  tag_28\n  tag_29\n  jump\t// in\ntag_28:\n    /* \"#utility.yul\":262:374   */\ntag_27:\n    /* \"#utility.yul\":383:422   */\n  tag_30\n    /* \"#utility.yul\":415:421   */\n  dup5\n    /* \"#utility.yul\":410:413   */\n  dup3\n    /* \"#utility.yul\":405:408   */\n  dup6\n    /* \"#utility.yul\":383:422   */\n  tag_31\n  jump\t// in\ntag_30:\n    /* \"#utility.yul\":102:428   */\n  pop\n    /* \"#utility.yul\":7:428   */\n  swap4\n  swap3\n  pop\n  pop\n  pop\n  jump\t// out\n    /* \"#utility.yul\":448:803   */\ntag_32:\n    /* \"#utility.yul\":515:520   */\n  0x00\n    /* \"#utility.yul\":564:567   */\n  dup3\n    /* \"#utility.yul\":557:561   */\n  0x1f\n    /* \"#utility.yul\":549:555   */\n  dup4\n    /* \"#utility.yul\":545:562   */\n  add\n    /* \"#utility.yul\":541:568   */\n  slt\n    /* \"#utility.yul\":531:653   */\n  tag_34\n  jumpi\n    /* \"#utility.yul\":572:651   */\n  tag_35\n  tag_36\n  jump\t// in\ntag_35:\n    /* \"#utility.yul\":531:653   */\ntag_34:\n    /* \"#utility.yul\":682:688   */\n  dup2\n    /* \"#utility.yul\":676:689   */\n  mload\n    /* \"#utility.yul\":707:797   */\n  tag_37\n    /* \"#utility.yul\":793:796   */\n  dup5\n    /* \"#utility.yul\":785:791   */\n  dup3\n    /* \"#utility.yul\":778:782   */\n  0x20\n    /* \"#utility.yul\":770:776   */\n  dup7\n    /* \"#utility.yul\":766:783   */\n  add\n    /* \"#utility.yul\":707:797   */\n  tag_21\n  jump\t// in\ntag_37:\n    /* \"#utility.yul\":698:797   */\n  swap2\n  pop\n    /* \"#utility.yul\":521:803   */\n  pop\n    /* \"#utility.yul\":448:803   */\n  swap3\n  swap2\n  pop\n  pop\n  jump\t// out\n    /* \"#utility.yul\":809:952   */\ntag_38:\n    /* \"#utility.yul\":866:871   */\n  0x00\n    /* \"#utility.yul\":897:903   */\n  dup2\n    /* \"#utility.yul\":891:904   */\n  mload\n    /* \"#utility.yul\":882:904   */\n  swap1\n  pop\n    /* \"#utility.yul\":913:946   */\n  tag_40\n    /* \"#utility.yul\":940:945   */\n  dup2\n    /* \"#utility.yul\":913:946   */\n  tag_41\n  jump\t// in\ntag_40:\n    /* \"#utility.yul\":809:952   */\n  swap3\n  swap2\n  pop\n  pop\n  jump\t// out\n    /* \"#utility.yul\":958:1638   */\ntag_3:\n    /* \"#utility.yul\":1047:1053   */\n  0x00\n    /* \"#utility.yul\":1055:1061   */\n  dup1\n    /* \"#utility.yul\":1104:1106   */\n  0x40\n    /* \"#utility.yul\":1092:1101   */\n  dup4\n    /* \"#utility.yul\":1083:1090   */\n  dup6\n    /* \"#utility.yul\":1079:1102   */\n  sub\n    /* \"#utility.yul\":1075:1107   */\n  slt\n    /* \"#utility.yul\":1072:1191   */\n  iszero\n  tag_43\n  jumpi\n    /* \"#utility.yul\":1110:1189   */\n  tag_44\n  tag_45\n  jump\t// in\ntag_44:\n    /* \"#utility.yul\":1072:1191   */\ntag_43:\n    /* \"#utility.yul\":1251:1252   */\n  0x00\n    /* \"#utility.yul\":1240:1249   */\n  dup4\n    /* \"#utility.yul\":1236:1253   */\n  add\n    /* \"#utility.yul\":1230:1254   */\n  mload\n    /* \"#utility.yul\":1281:1299   */\n  0xffffffffffffffff\n    /* \"#utility.yul\":1273:1279   */\n  dup2\n    /* \"#utility.yul\":1270:1300   */\n  gt\n    /* \"#utility.yul\":1267:1384   */\n  iszero\n  tag_46\n  jumpi\n    /* \"#utility.yul\":1303:1382   */\n  tag_47\n  tag_48\n  jump\t// in\ntag_47:\n    /* \"#utility.yul\":1267:1384   */\ntag_46:\n    /* \"#utility.yul\":1408:1482   */\n  tag_49\n    /* \"#utility.yul\":1474:1481   */\n  dup6\n    /* \"#utility.yul\":1465:1471   */\n  dup3\n    /* \"#utility.yul\":1454:1463   */\n  dup7\n    /* \"#utility.yul\":1450:1472   */\n  add\n    /* \"#utility.yul\":1408:1482   */\n  tag_32\n  jump\t// in\ntag_49:\n    /* \"#utility.yul\":1398:1482   */\n  swap3\n  pop\n    /* \"#utility.yul\":1201:1492   */\n  pop\n    /* \"#utility.yul\":1531:1533   */\n  0x20\n    /* \"#utility.yul\":1557:1621   */\n  tag_50\n    /* \"#utility.yul\":1613:1620   */\n  dup6\n    /* \"#utility.yul\":1604:1610   */\n  dup3\n    /* \"#utility.yul\":1593:1602   */\n  dup7\n    /* \"#utility.yul\":1589:1611   */\n  add\n    /* \"#utility.yul\":1557:1621   */\n  tag_38\n  jump\t// in\ntag_50:\n    /* \"#utility.yul\":1547:1621   */\n  swap2\n  pop\n    /* \"#utility.yul\":1502:1631   */\n  pop\n    /* \"#utility.yul\":958:1638   */\n  swap3\n  pop\n  swap3\n  swap1\n  pop\n  jump\t// out\n    /* \"#utility.yul\":1644:1773   */\ntag_26:\n    /* \"#utility.yul\":1678:1684   */\n  0x00\n    /* \"#utility.yul\":1705:1725   */\n  tag_52\n  tag_53\n  jump\t// in\ntag_52:\n    /* \"#utility.yul\":1695:1725   */\n  swap1\n  pop\n    /* \"#utility.yul\":1734:1767   */\n  tag_54\n    /* \"#utility.yul\":1762:1766   */\n  dup3\n    /* \"#utility.yul\":1754:1760   */\n  dup3\n    /* \"#utility.yul\":1734:1767   */\n  tag_55\n  jump\t// in\ntag_54:\n    /* \"#utility.yul\":1644:1773   */\n  swap2\n  swap1\n  pop\n  jump\t// out\n    /* \"#utility.yul\":1779:1854   */\ntag_53:\n    /* \"#utility.yul\":1812:1818   */\n  0x00\n    /* \"#utility.yul\":1845:1847   */\n  0x40\n    /* \"#utility.yul\":1839:1848   */\n  mload\n    /* \"#utility.yul\":1829:1848   */\n  swap1\n  pop\n    /* \"#utility.yul\":1779:1854   */\n  swap1\n  jump\t// out\n    /* \"#utility.yul\":1860:2168   */\ntag_25:\n    /* \"#utility.yul\":1922:1926   */\n  0x00\n    /* \"#utility.yul\":2012:2030   */\n  0xffffffffffffffff\n    /* \"#utility.yul\":2004:2010   */\n  dup3\n    /* \"#utility.yul\":2001:2031   */\n  gt\n    /* \"#utility.yul\":1998:2054   */\n  iszero\n  tag_58\n  jumpi\n    /* \"#utility.yul\":2034:2052   */\n  tag_59\n  tag_60\n  jump\t// in\ntag_59:\n    /* \"#utility.yul\":1998:2054   */\ntag_58:\n    /* \"#utility.yul\":2072:2101   */\n  tag_61\n    /* \"#utility.yul\":2094:2100   */\n  dup3\n    /* \"#utility.yul\":2072:2101   */\n  tag_62\n  jump\t// in\ntag_61:\n    /* \"#utility.yul\":2064:2101   */\n  swap1\n  pop\n    /* \"#utility.yul\":2156:2160   */\n  0x20\n    /* \"#utility.yul\":2150:2154   */\n  dup2\n    /* \"#utility.yul\":2146:2161   */\n  add\n    /* \"#utility.yul\":2138:2161   */\n  swap1\n  pop\n    /* \"#utility.yul\":1860:2168   */\n  swap2\n  swap1\n  pop\n  jump\t// out\n    /* \"#utility.yul\":2174:2251   */\ntag_63:\n    /* \"#utility.yul\":2211:2218   */\n  0x00\n    /* \"#utility.yul\":2240:2245   */\n  dup2\n    /* \"#utility.yul\":2229:2245   */\n  swap1\n  pop\n    /* \"#utility.yul\":2174:2251   */\n  swap2\n  swap1\n  pop\n  jump\t// out\n    /* \"#utility.yul\":2257:2564   */\ntag_31:\n    /* \"#utility.yul\":2325:2326   */\n  0x00\n    /* \"#utility.yul\":2335:2448   */\ntag_66:\n    /* \"#utility.yul\":2349:2355   */\n  dup4\n    /* \"#utility.yul\":2346:2347   */\n  dup2\n    /* \"#utility.yul\":2343:2356   */\n  lt\n    /* \"#utility.yul\":2335:2448   */\n  iszero\n  tag_68\n  jumpi\n    /* \"#utility.yul\":2434:2435   */\n  dup1\n    /* \"#utility.yul\":2429:2432   */\n  dup3\n    /* \"#utility.yul\":2425:2436   */\n  add\n    /* \"#utility.yul\":2419:2437   */\n  mload\n    /* \"#utility.yul\":2415:2416   */\n  dup2\n    /* \"#utility.yul\":2410:2413   */\n  dup5\n    /* \"#utility.yul\":2406:2417   */\n  add\n    /* \"#utility.yul\":2399:2438   */\n  mstore\n    /* \"#utility.yul\":2371:2373   */\n  0x20\n    /* \"#utility.yul\":2368:2369   */\n  dup2\n    /* \"#utility.yul\":2364:2374   */\n  add\n    /* \"#utility.yul\":2359:2374   */\n  swap1\n  pop\n    /* \"#utility.yul\":2335:2448   */\n  jump(tag_66)\ntag_68:\n    /* \"#utility.yul\":2466:2472   */\n  dup4\n    /* \"#utility.yul\":2463:2464   */\n  dup2\n    /* \"#utility.yul\":2460:2473   */\n  gt\n    /* \"#utility.yul\":2457:2558   */\n  iszero\n  tag_69\n  jumpi\n    /* \"#utility.yul\":2546:2547   */\n  0x00\n    /* \"#utility.yul\":2537:2543   */\n  dup5\n    /* \"#utility.yul\":2532:2535   */\n  dup5\n    /* \"#utility.yul\":2528:2544   */\n  add\n    /* \"#utility.yul\":2521:2548   */\n  mstore\n    /* \"#utility.yul\":2457:2558   */\ntag_69:\n    /* \"#utility.yul\":2306:2564   */\n  pop\n    /* \"#utility.yul\":2257:2564   */\n  pop\n  pop\n  pop\n  jump\t// out\n    /* \"#utility.yul\":2570:2890   */\ntag_10:\n    /* \"#utility.yul\":2614:2620   */\n  0x00\n    /* \"#utility.yul\":2651:2652   */\n  0x02\n    /* \"#utility.yul\":2645:2649   */\n  dup3\n    /* \"#utility.yul\":2641:2653   */\n  div\n    /* \"#utility.yul\":2631:2653   */\n  swap1\n  pop\n    /* \"#utility.yul\":2698:2699   */\n  0x01\n    /* \"#utility.yul\":2692:2696   */\n  dup3\n    /* \"#utility.yul\":2688:2700   */\n  and\n    /* \"#utility.yul\":2719:2737   */\n  dup1\n    /* \"#utility.yul\":2709:2790   */\n  tag_71\n  jumpi\n    /* \"#utility.yul\":2775:2779   */\n  0x7f\n    /* \"#utility.yul\":2767:2773   */\n  dup3\n    /* \"#utility.yul\":2763:2780   */\n  and\n    /* \"#utility.yul\":2753:2780   */\n  swap2\n  pop\n    /* \"#utility.yul\":2709:2790   */\ntag_71:\n    /* \"#utility.yul\":2837:2839   */\n  0x20\n    /* \"#utility.yul\":2829:2835   */\n  dup3\n    /* \"#utility.yul\":2826:2840   */\n  lt\n    /* \"#utility.yul\":2806:2824   */\n  dup2\n    /* \"#utility.yul\":2803:2841   */\n  eq\n    /* \"#utility.yul\":2800:2884   */\n  iszero\n  tag_72\n  jumpi\n    /* \"#utility.yul\":2856:2874   */\n  tag_73\n  tag_74\n  jump\t// in\ntag_73:\n    /* \"#utility.yul\":2800:2884   */\ntag_72:\n    /* \"#utility.yul\":2621:2890   */\n  pop\n    /* \"#utility.yul\":2570:2890   */\n  swap2\n  swap1\n  pop\n  jump\t// out\n    /* \"#utility.yul\":2896:3177   */\ntag_55:\n    /* \"#utility.yul\":2979:3006   */\n  tag_76\n    /* \"#utility.yul\":3001:3005   */\n  dup3\n    /* \"#utility.yul\":2979:3006   */\n  tag_62\n  jump\t// in\ntag_76:\n    /* \"#utility.yul\":2971:2977   */\n  dup2\n    /* \"#utility.yul\":2967:3007   */\n  add\n    /* \"#utility.yul\":3109:3115   */\n  dup2\n    /* \"#utility.yul\":3097:3107   */\n  dup2\n    /* \"#utility.yul\":3094:3116   */\n  lt\n    /* \"#utility.yul\":3073:3091   */\n  0xffffffffffffffff\n    /* \"#utility.yul\":3061:3071   */\n  dup3\n    /* \"#utility.yul\":3058:3092   */\n  gt\n    /* \"#utility.yul\":3055:3117   */\n  or\n    /* \"#utility.yul\":3052:3140   */\n  iszero\n  tag_77\n  jumpi\n    /* \"#utility.yul\":3120:3138   */\n  tag_78\n  tag_60\n  jump\t// in\ntag_78:\n    /* \"#utility.yul\":3052:3140   */\ntag_77:\n    /* \"#utility.yul\":3160:3170   */\n  dup1\n    /* \"#utility.yul\":3156:3158   */\n  0x40\n    /* \"#utility.yul\":3149:3171   */\n  mstore\n    /* \"#utility.yul\":2939:3177   */\n  pop\n    /* \"#utility.yul\":2896:3177   */\n  pop\n  pop\n  jump\t// out\n    /* \"#utility.yul\":3183:3363   */\ntag_74:\n    /* \"#utility.yul\":3231:3308   */\n  0x4e487b7100000000000000000000000000000000000000000000000000000000\n    /* \"#utility.yul\":3228:3229   */\n  0x00\n    /* \"#utility.yul\":3221:3309   */\n  mstore\n    /* \"#utility.yul\":3328:3332   */\n  0x22\n    /* \"#utility.yul\":3325:3326   */\n  0x04\n    /* \"#utility.yul\":3318:3333   */\n  mstore\n    /* \"#utility.yul\":3352:3356   */\n  0x24\n    /* \"#utility.yul\":3349:3350   */\n  0x00\n    /* \"#utility.yul\":3342:3357   */\n  revert\n    /* \"#utility.yul\":3369:3549   */\ntag_60:\n    /* \"#utility.yul\":3417:3494   */\n  0x4e487b7100000000000000000000000000000000000000000000000000000000\n    /* \"#utility.yul\":3414:3415   */\n  0x00\n    /* \"#utility.yul\":3407:3495   */\n  mstore\n    /* \"#utility.yul\":3514:3518   */\n  0x41\n    /* \"#utility.yul\":3511:3512   */\n  0x04\n    /* \"#utility.yul\":3504:3519   */\n  mstore\n    /* \"#utility.yul\":3538:3542   */\n  0x24\n    /* \"#utility.yul\":3535:3536   */\n  0x00\n    /* \"#utility.yul\":3528:3543   */\n  revert\n    /* \"#utility.yul\":3555:3672   */\ntag_36:\n    /* \"#utility.yul\":3664:3665   */\n  0x00\n    /* \"#utility.yul\":3661:3662   */\n  dup1\n    /* \"#utility.yul\":3654:3666   */\n  revert\n    /* \"#utility.yul\":3678:3795   */\ntag_29:\n    /* \"#utility.yul\":3787:3788   */\n  0x00\n    /* \"#utility.yul\":3784:3785   */\n  dup1\n    /* \"#utility.yul\":3777:3789   */\n  revert\n    /* \"#utility.yul\":3801:3918   */\ntag_48:\n    /* \"#utility.yul\":3910:3911   */\n  0x00\n    /* \"#utility.yul\":3907:3908   */\n  dup1\n    /* \"#utility.yul\":3900:3912   */\n  revert\n    /* \"#utility.yul\":3924:4041   */\ntag_45:\n    /* \"#utility.yul\":4033:4034   */\n  0x00\n    /* \"#utility.yul\":4030:4031   */\n  dup1\n    /* \"#utility.yul\":4023:4035   */\n  revert\n    /* \"#utility.yul\":4047:4149   */\ntag_62:\n    /* \"#utility.yul\":4088:4094   */\n  0x00\n    /* \"#utility.yul\":4139:4141   */\n  0x1f\n    /* \"#utility.yul\":4135:4142   */\n  not\n    /* \"#utility.yul\":4130:4132   */\n  0x1f\n    /* \"#utility.yul\":4123:4128   */\n  dup4\n    /* \"#utility.yul\":4119:4133   */\n  add\n    /* \"#utility.yul\":4115:4143   */\n  and\n    /* \"#utility.yul\":4105:4143   */\n  swap1\n  pop\n    /* \"#utility.yul\":4047:4149   */\n  swap2\n  swap1\n  pop\n  jump\t// out\n    /* \"#utility.yul\":4155:4277   */\ntag_41:\n    /* \"#utility.yul\":4228:4252   */\n  tag_87\n    /* \"#utility.yul\":4246:4251   */\n  dup2\n    /* \"#utility.yul\":4228:4252   */\n  tag_63\n  jump\t// in\ntag_87:\n    /* \"#utility.yul\":4221:4226   */\n  dup2\n    /* \"#utility.yul\":4218:4253   */\n  eq\n    /* \"#utility.yul\":4208:4271   */\n  tag_88\n  jumpi\n    /* \"#utility.yul\":4267:4268   */\n  0x00\n    /* \"#utility.yul\":4264:4265   */\n  dup1\n    /* \"#utility.yul\":4257:4269   */\n  revert\n    /* \"#utility.yul\":4208:4271   */\ntag_88:\n    /* \"#utility.yul\":4155:4277   */\n  pop\n  jump\t// out\n    /* \"Structs&Ennum.sol\":152:824  contract Customer {\r... */\ntag_8:\n  dataSize(sub_0)\n  dup1\n  dataOffset(sub_0)\n  0x00\n  codecopy\n  0x00\n  return\nstop\n\nsub_0: assembly {\n        /* \"Structs&Ennum.sol\":152:824  contract Customer {\r... */\n      mstore(0x40, 0x80)\n      callvalue\n      dup1\n      iszero\n      tag_1\n      jumpi\n      0x00\n      dup1\n      revert\n    tag_1:\n      pop\n      jumpi(tag_2, lt(calldatasize, 0x04))\n      shr(0xe0, calldataload(0x00))\n      dup1\n      0x46372ebd\n      eq\n      tag_3\n      jumpi\n      dup1\n      0x4ab664cb\n      eq\n      tag_4\n      jumpi\n    tag_2:\n      0x00\n      dup1\n      revert\n        /* \"Structs&Ennum.sol\":228:255  Business public subBusiness */\n    tag_3:\n      tag_5\n      tag_6\n      jump\t// in\n    tag_5:\n      mload(0x40)\n      tag_7\n      swap4\n      swap3\n      swap2\n      swap1\n      tag_8\n      jump\t// in\n    tag_7:\n      mload(0x40)\n      dup1\n      swap2\n      sub\n      swap1\n      return\n        /* \"Structs&Ennum.sol\":587:817  function newSubB(string memory _name, uint _value) public {\r... */\n    tag_4:\n      tag_9\n      0x04\n      dup1\n      calldatasize\n      sub\n      dup2\n      add\n      swap1\n      tag_10\n      swap2\n      swap1\n      tag_11\n      jump\t// in\n    tag_10:\n      tag_12\n      jump\t// in\n    tag_9:\n      stop\n        /* \"Structs&Ennum.sol\":228:255  Business public subBusiness */\n    tag_6:\n      0x00\n      dup1\n      0x00\n      add\n      dup1\n      sload\n      tag_13\n      swap1\n      tag_14\n      jump\t// in\n    tag_13:\n      dup1\n      0x1f\n      add\n      0x20\n      dup1\n      swap2\n      div\n      mul\n      0x20\n      add\n      mload(0x40)\n      swap1\n      dup2\n      add\n      0x40\n      mstore\n      dup1\n      swap3\n      swap2\n      swap1\n      dup2\n      dup2\n      mstore\n      0x20\n      add\n      dup3\n      dup1\n      sload\n      tag_15\n      swap1\n      tag_14\n      jump\t// in\n    tag_15:\n      dup1\n      iszero\n      tag_16\n      jumpi\n      dup1\n      0x1f\n      lt\n      tag_17\n      jumpi\n      0x0100\n      dup1\n      dup4\n      sload\n      div\n      mul\n      dup4\n      mstore\n      swap2\n      0x20\n      add\n      swap2\n      jump(tag_16)\n    tag_17:\n      dup3\n      add\n      swap2\n      swap1\n      0x00\n      mstore\n      keccak256(0x00, 0x20)\n      swap1\n    tag_18:\n      dup2\n      sload\n      dup2\n      mstore\n      swap1\n      0x01\n      add\n      swap1\n      0x20\n      add\n      dup1\n      dup4\n      gt\n      tag_18\n      jumpi\n      dup3\n      swap1\n      sub\n      0x1f\n      and\n      dup3\n      add\n      swap2\n    tag_16:\n      pop\n      pop\n      pop\n      pop\n      pop\n      swap1\n      dup1\n      0x01\n      add\n      sload\n      swap1\n      dup1\n      0x02\n      add\n      0x00\n      swap1\n      sload\n      swap1\n      0x0100\n      exp\n      swap1\n      div\n      0xffffffffffffffffffffffffffffffffffffffff\n      and\n      swap1\n      pop\n      dup4\n      jump\t// out\n        /* \"Structs&Ennum.sol\":587:817  function newSubB(string memory _name, uint _value) public {\r... */\n    tag_12:\n        /* \"Structs&Ennum.sol\":656:683  Business memory subBusiness */\n      0x00\n        /* \"Structs&Ennum.sol\":686:795  Business({\r... */\n      mload(0x40)\n      dup1\n      0x60\n      add\n      0x40\n      mstore\n      dup1\n        /* \"Structs&Ennum.sol\":717:722  _name */\n      dup5\n        /* \"Structs&Ennum.sol\":686:795  Business({\r... */\n      dup2\n      mstore\n      0x20\n      add\n        /* \"Structs&Ennum.sol\":745:751  _value */\n      dup4\n        /* \"Structs&Ennum.sol\":686:795  Business({\r... */\n      dup2\n      mstore\n      0x20\n      add\n        /* \"Structs&Ennum.sol\":773:783  msg.sender */\n      caller\n        /* \"Structs&Ennum.sol\":686:795  Business({\r... */\n      0xffffffffffffffffffffffffffffffffffffffff\n      and\n      dup2\n      mstore\n      pop\n        /* \"Structs&Ennum.sol\":656:795  Business memory subBusiness = Business({\r... */\n      swap1\n      pop\n        /* \"Structs&Ennum.sol\":645:817  {\r... */\n      pop\n        /* \"Structs&Ennum.sol\":587:817  function newSubB(string memory _name, uint _value) public {\r... */\n      pop\n      pop\n      jump\t// out\n        /* \"#utility.yul\":7:419   */\n    tag_21:\n        /* \"#utility.yul\":85:90   */\n      0x00\n        /* \"#utility.yul\":110:176   */\n      tag_23\n        /* \"#utility.yul\":126:175   */\n      tag_24\n        /* \"#utility.yul\":168:174   */\n      dup5\n        /* \"#utility.yul\":126:175   */\n      tag_25\n      jump\t// in\n    tag_24:\n        /* \"#utility.yul\":110:176   */\n      tag_26\n      jump\t// in\n    tag_23:\n        /* \"#utility.yul\":101:176   */\n      swap1\n      pop\n        /* \"#utility.yul\":199:205   */\n      dup3\n        /* \"#utility.yul\":192:197   */\n      dup2\n        /* \"#utility.yul\":185:206   */\n      mstore\n        /* \"#utility.yul\":237:241   */\n      0x20\n        /* \"#utility.yul\":230:235   */\n      dup2\n        /* \"#utility.yul\":226:242   */\n      add\n        /* \"#utility.yul\":275:278   */\n      dup5\n        /* \"#utility.yul\":266:272   */\n      dup5\n        /* \"#utility.yul\":261:264   */\n      dup5\n        /* \"#utility.yul\":257:273   */\n      add\n        /* \"#utility.yul\":254:279   */\n      gt\n        /* \"#utility.yul\":251:363   */\n      iszero\n      tag_27\n      jumpi\n        /* \"#utility.yul\":282:361   */\n      tag_28\n      tag_29\n      jump\t// in\n    tag_28:\n        /* \"#utility.yul\":251:363   */\n    tag_27:\n        /* \"#utility.yul\":372:413   */\n      tag_30\n        /* \"#utility.yul\":406:412   */\n      dup5\n        /* \"#utility.yul\":401:404   */\n      dup3\n        /* \"#utility.yul\":396:399   */\n      dup6\n        /* \"#utility.yul\":372:413   */\n      tag_31\n      jump\t// in\n    tag_30:\n        /* \"#utility.yul\":91:419   */\n      pop\n        /* \"#utility.yul\":7:419   */\n      swap4\n      swap3\n      pop\n      pop\n      pop\n      jump\t// out\n        /* \"#utility.yul\":439:779   */\n    tag_32:\n        /* \"#utility.yul\":495:500   */\n      0x00\n        /* \"#utility.yul\":544:547   */\n      dup3\n        /* \"#utility.yul\":537:541   */\n      0x1f\n        /* \"#utility.yul\":529:535   */\n      dup4\n        /* \"#utility.yul\":525:542   */\n      add\n        /* \"#utility.yul\":521:548   */\n      slt\n        /* \"#utility.yul\":511:633   */\n      tag_34\n      jumpi\n        /* \"#utility.yul\":552:631   */\n      tag_35\n      tag_36\n      jump\t// in\n    tag_35:\n        /* \"#utility.yul\":511:633   */\n    tag_34:\n        /* \"#utility.yul\":669:675   */\n      dup2\n        /* \"#utility.yul\":656:676   */\n      calldataload\n        /* \"#utility.yul\":694:773   */\n      tag_37\n        /* \"#utility.yul\":769:772   */\n      dup5\n        /* \"#utility.yul\":761:767   */\n      dup3\n        /* \"#utility.yul\":754:758   */\n      0x20\n        /* \"#utility.yul\":746:752   */\n      dup7\n        /* \"#utility.yul\":742:759   */\n      add\n        /* \"#utility.yul\":694:773   */\n      tag_21\n      jump\t// in\n    tag_37:\n        /* \"#utility.yul\":685:773   */\n      swap2\n      pop\n        /* \"#utility.yul\":501:779   */\n      pop\n        /* \"#utility.yul\":439:779   */\n      swap3\n      swap2\n      pop\n      pop\n      jump\t// out\n        /* \"#utility.yul\":785:924   */\n    tag_38:\n        /* \"#utility.yul\":831:836   */\n      0x00\n        /* \"#utility.yul\":869:875   */\n      dup2\n        /* \"#utility.yul\":856:876   */\n      calldataload\n        /* \"#utility.yul\":847:876   */\n      swap1\n      pop\n        /* \"#utility.yul\":885:918   */\n      tag_40\n        /* \"#utility.yul\":912:917   */\n      dup2\n        /* \"#utility.yul\":885:918   */\n      tag_41\n      jump\t// in\n    tag_40:\n        /* \"#utility.yul\":785:924   */\n      swap3\n      swap2\n      pop\n      pop\n      jump\t// out\n        /* \"#utility.yul\":930:1584   */\n    tag_11:\n        /* \"#utility.yul\":1008:1014   */\n      0x00\n        /* \"#utility.yul\":1016:1022   */\n      dup1\n        /* \"#utility.yul\":1065:1067   */\n      0x40\n        /* \"#utility.yul\":1053:1062   */\n      dup4\n        /* \"#utility.yul\":1044:1051   */\n      dup6\n        /* \"#utility.yul\":1040:1063   */\n      sub\n        /* \"#utility.yul\":1036:1068   */\n      slt\n        /* \"#utility.yul\":1033:1152   */\n      iszero\n      tag_43\n      jumpi\n        /* \"#utility.yul\":1071:1150   */\n      tag_44\n      tag_45\n      jump\t// in\n    tag_44:\n        /* \"#utility.yul\":1033:1152   */\n    tag_43:\n        /* \"#utility.yul\":1219:1220   */\n      0x00\n        /* \"#utility.yul\":1208:1217   */\n      dup4\n        /* \"#utility.yul\":1204:1221   */\n      add\n        /* \"#utility.yul\":1191:1222   */\n      calldataload\n        /* \"#utility.yul\":1249:1267   */\n      0xffffffffffffffff\n        /* \"#utility.yul\":1241:1247   */\n      dup2\n        /* \"#utility.yul\":1238:1268   */\n      gt\n        /* \"#utility.yul\":1235:1352   */\n      iszero\n      tag_46\n      jumpi\n        /* \"#utility.yul\":1271:1350   */\n      tag_47\n      tag_48\n      jump\t// in\n    tag_47:\n        /* \"#utility.yul\":1235:1352   */\n    tag_46:\n        /* \"#utility.yul\":1376:1439   */\n      tag_49\n        /* \"#utility.yul\":1431:1438   */\n      dup6\n        /* \"#utility.yul\":1422:1428   */\n      dup3\n        /* \"#utility.yul\":1411:1420   */\n      dup7\n        /* \"#utility.yul\":1407:1429   */\n      add\n        /* \"#utility.yul\":1376:1439   */\n      tag_32\n      jump\t// in\n    tag_49:\n        /* \"#utility.yul\":1366:1439   */\n      swap3\n      pop\n        /* \"#utility.yul\":1162:1449   */\n      pop\n        /* \"#utility.yul\":1488:1490   */\n      0x20\n        /* \"#utility.yul\":1514:1567   */\n      tag_50\n        /* \"#utility.yul\":1559:1566   */\n      dup6\n        /* \"#utility.yul\":1550:1556   */\n      dup3\n        /* \"#utility.yul\":1539:1548   */\n      dup7\n        /* \"#utility.yul\":1535:1557   */\n      add\n        /* \"#utility.yul\":1514:1567   */\n      tag_38\n      jump\t// in\n    tag_50:\n        /* \"#utility.yul\":1504:1567   */\n      swap2\n      pop\n        /* \"#utility.yul\":1459:1577   */\n      pop\n        /* \"#utility.yul\":930:1584   */\n      swap3\n      pop\n      swap3\n      swap1\n      pop\n      jump\t// out\n        /* \"#utility.yul\":1590:1708   */\n    tag_51:\n        /* \"#utility.yul\":1677:1701   */\n      tag_53\n        /* \"#utility.yul\":1695:1700   */\n      dup2\n        /* \"#utility.yul\":1677:1701   */\n      tag_54\n      jump\t// in\n    tag_53:\n        /* \"#utility.yul\":1672:1675   */\n      dup3\n        /* \"#utility.yul\":1665:1702   */\n      mstore\n        /* \"#utility.yul\":1590:1708   */\n      pop\n      pop\n      jump\t// out\n        /* \"#utility.yul\":1714:2078   */\n    tag_55:\n        /* \"#utility.yul\":1802:1805   */\n      0x00\n        /* \"#utility.yul\":1830:1869   */\n      tag_57\n        /* \"#utility.yul\":1863:1868   */\n      dup3\n        /* \"#utility.yul\":1830:1869   */\n      tag_58\n      jump\t// in\n    tag_57:\n        /* \"#utility.yul\":1885:1956   */\n      tag_59\n        /* \"#utility.yul\":1949:1955   */\n      dup2\n        /* \"#utility.yul\":1944:1947   */\n      dup6\n        /* \"#utility.yul\":1885:1956   */\n      tag_60\n      jump\t// in\n    tag_59:\n        /* \"#utility.yul\":1878:1956   */\n      swap4\n      pop\n        /* \"#utility.yul\":1965:2017   */\n      tag_61\n        /* \"#utility.yul\":2010:2016   */\n      dup2\n        /* \"#utility.yul\":2005:2008   */\n      dup6\n        /* \"#utility.yul\":1998:2002   */\n      0x20\n        /* \"#utility.yul\":1991:1996   */\n      dup7\n        /* \"#utility.yul\":1987:2003   */\n      add\n        /* \"#utility.yul\":1965:2017   */\n      tag_62\n      jump\t// in\n    tag_61:\n        /* \"#utility.yul\":2042:2071   */\n      tag_63\n        /* \"#utility.yul\":2064:2070   */\n      dup2\n        /* \"#utility.yul\":2042:2071   */\n      tag_64\n      jump\t// in\n    tag_63:\n        /* \"#utility.yul\":2037:2040   */\n      dup5\n        /* \"#utility.yul\":2033:2072   */\n      add\n        /* \"#utility.yul\":2026:2072   */\n      swap2\n      pop\n        /* \"#utility.yul\":1806:2078   */\n      pop\n        /* \"#utility.yul\":1714:2078   */\n      swap3\n      swap2\n      pop\n      pop\n      jump\t// out\n        /* \"#utility.yul\":2084:2202   */\n    tag_65:\n        /* \"#utility.yul\":2171:2195   */\n      tag_67\n        /* \"#utility.yul\":2189:2194   */\n      dup2\n        /* \"#utility.yul\":2171:2195   */\n      tag_68\n      jump\t// in\n    tag_67:\n        /* \"#utility.yul\":2166:2169   */\n      dup3\n        /* \"#utility.yul\":2159:2196   */\n      mstore\n        /* \"#utility.yul\":2084:2202   */\n      pop\n      pop\n      jump\t// out\n        /* \"#utility.yul\":2208:2741   */\n    tag_8:\n        /* \"#utility.yul\":2377:2381   */\n      0x00\n        /* \"#utility.yul\":2415:2417   */\n      0x60\n        /* \"#utility.yul\":2404:2413   */\n      dup3\n        /* \"#utility.yul\":2400:2418   */\n      add\n        /* \"#utility.yul\":2392:2418   */\n      swap1\n      pop\n        /* \"#utility.yul\":2464:2473   */\n      dup2\n        /* \"#utility.yul\":2458:2462   */\n      dup2\n        /* \"#utility.yul\":2454:2474   */\n      sub\n        /* \"#utility.yul\":2450:2451   */\n      0x00\n        /* \"#utility.yul\":2439:2448   */\n      dup4\n        /* \"#utility.yul\":2435:2452   */\n      add\n        /* \"#utility.yul\":2428:2475   */\n      mstore\n        /* \"#utility.yul\":2492:2570   */\n      tag_70\n        /* \"#utility.yul\":2565:2569   */\n      dup2\n        /* \"#utility.yul\":2556:2562   */\n      dup7\n        /* \"#utility.yul\":2492:2570   */\n      tag_55\n      jump\t// in\n    tag_70:\n        /* \"#utility.yul\":2484:2570   */\n      swap1\n      pop\n        /* \"#utility.yul\":2580:2652   */\n      tag_71\n        /* \"#utility.yul\":2648:2650   */\n      0x20\n        /* \"#utility.yul\":2637:2646   */\n      dup4\n        /* \"#utility.yul\":2633:2651   */\n      add\n        /* \"#utility.yul\":2624:2630   */\n      dup6\n        /* \"#utility.yul\":2580:2652   */\n      tag_65\n      jump\t// in\n    tag_71:\n        /* \"#utility.yul\":2662:2734   */\n      tag_72\n        /* \"#utility.yul\":2730:2732   */\n      0x40\n        /* \"#utility.yul\":2719:2728   */\n      dup4\n        /* \"#utility.yul\":2715:2733   */\n      add\n        /* \"#utility.yul\":2706:2712   */\n      dup5\n        /* \"#utility.yul\":2662:2734   */\n      tag_51\n      jump\t// in\n    tag_72:\n        /* \"#utility.yul\":2208:2741   */\n      swap5\n      swap4\n      pop\n      pop\n      pop\n      pop\n      jump\t// out\n        /* \"#utility.yul\":2747:2876   */\n    tag_26:\n        /* \"#utility.yul\":2781:2787   */\n      0x00\n        /* \"#utility.yul\":2808:2828   */\n      tag_74\n      tag_75\n      jump\t// in\n    tag_74:\n        /* \"#utility.yul\":2798:2828   */\n      swap1\n      pop\n        /* \"#utility.yul\":2837:2870   */\n      tag_76\n        /* \"#utility.yul\":2865:2869   */\n      dup3\n        /* \"#utility.yul\":2857:2863   */\n      dup3\n        /* \"#utility.yul\":2837:2870   */\n      tag_77\n      jump\t// in\n    tag_76:\n        /* \"#utility.yul\":2747:2876   */\n      swap2\n      swap1\n      pop\n      jump\t// out\n        /* \"#utility.yul\":2882:2957   */\n    tag_75:\n        /* \"#utility.yul\":2915:2921   */\n      0x00\n        /* \"#utility.yul\":2948:2950   */\n      0x40\n        /* \"#utility.yul\":2942:2951   */\n      mload\n        /* \"#utility.yul\":2932:2951   */\n      swap1\n      pop\n        /* \"#utility.yul\":2882:2957   */\n      swap1\n      jump\t// out\n        /* \"#utility.yul\":2963:3271   */\n    tag_25:\n        /* \"#utility.yul\":3025:3029   */\n      0x00\n        /* \"#utility.yul\":3115:3133   */\n      0xffffffffffffffff\n        /* \"#utility.yul\":3107:3113   */\n      dup3\n        /* \"#utility.yul\":3104:3134   */\n      gt\n        /* \"#utility.yul\":3101:3157   */\n      iszero\n      tag_80\n      jumpi\n        /* \"#utility.yul\":3137:3155   */\n      tag_81\n      tag_82\n      jump\t// in\n    tag_81:\n        /* \"#utility.yul\":3101:3157   */\n    tag_80:\n        /* \"#utility.yul\":3175:3204   */\n      tag_83\n        /* \"#utility.yul\":3197:3203   */\n      dup3\n        /* \"#utility.yul\":3175:3204   */\n      tag_64\n      jump\t// in\n    tag_83:\n        /* \"#utility.yul\":3167:3204   */\n      swap1\n      pop\n        /* \"#utility.yul\":3259:3263   */\n      0x20\n        /* \"#utility.yul\":3253:3257   */\n      dup2\n        /* \"#utility.yul\":3249:3264   */\n      add\n        /* \"#utility.yul\":3241:3264   */\n      swap1\n      pop\n        /* \"#utility.yul\":2963:3271   */\n      swap2\n      swap1\n      pop\n      jump\t// out\n        /* \"#utility.yul\":3277:3376   */\n    tag_58:\n        /* \"#utility.yul\":3329:3335   */\n      0x00\n        /* \"#utility.yul\":3363:3368   */\n      dup2\n        /* \"#utility.yul\":3357:3369   */\n      mload\n        /* \"#utility.yul\":3347:3369   */\n      swap1\n      pop\n        /* \"#utility.yul\":3277:3376   */\n      swap2\n      swap1\n      pop\n      jump\t// out\n        /* \"#utility.yul\":3382:3551   */\n    tag_60:\n        /* \"#utility.yul\":3466:3477   */\n      0x00\n        /* \"#utility.yul\":3500:3506   */\n      dup3\n        /* \"#utility.yul\":3495:3498   */\n      dup3\n        /* \"#utility.yul\":3488:3507   */\n      mstore\n        /* \"#utility.yul\":3540:3544   */\n      0x20\n        /* \"#utility.yul\":3535:3538   */\n      dup3\n        /* \"#utility.yul\":3531:3545   */\n      add\n        /* \"#utility.yul\":3516:3545   */\n      swap1\n      pop\n        /* \"#utility.yul\":3382:3551   */\n      swap3\n      swap2\n      pop\n      pop\n      jump\t// out\n        /* \"#utility.yul\":3557:3653   */\n    tag_54:\n        /* \"#utility.yul\":3594:3601   */\n      0x00\n        /* \"#utility.yul\":3623:3647   */\n      tag_87\n        /* \"#utility.yul\":3641:3646   */\n      dup3\n        /* \"#utility.yul\":3623:3647   */\n      tag_88\n      jump\t// in\n    tag_87:\n        /* \"#utility.yul\":3612:3647   */\n      swap1\n      pop\n        /* \"#utility.yul\":3557:3653   */\n      swap2\n      swap1\n      pop\n      jump\t// out\n        /* \"#utility.yul\":3659:3785   */\n    tag_88:\n        /* \"#utility.yul\":3696:3703   */\n      0x00\n        /* \"#utility.yul\":3736:3778   */\n      0xffffffffffffffffffffffffffffffffffffffff\n        /* \"#utility.yul\":3729:3734   */\n      dup3\n        /* \"#utility.yul\":3725:3779   */\n      and\n        /* \"#utility.yul\":3714:3779   */\n      swap1\n      pop\n        /* \"#utility.yul\":3659:3785   */\n      swap2\n      swap1\n      pop\n      jump\t// out\n        /* \"#utility.yul\":3791:3868   */\n    tag_68:\n        /* \"#utility.yul\":3828:3835   */\n      0x00\n        /* \"#utility.yul\":3857:3862   */\n      dup2\n        /* \"#utility.yul\":3846:3862   */\n      swap1\n      pop\n        /* \"#utility.yul\":3791:3868   */\n      swap2\n      swap1\n      pop\n      jump\t// out\n        /* \"#utility.yul\":3874:4028   */\n    tag_31:\n        /* \"#utility.yul\":3958:3964   */\n      dup3\n        /* \"#utility.yul\":3953:3956   */\n      dup2\n        /* \"#utility.yul\":3948:3951   */\n      dup4\n        /* \"#utility.yul\":3935:3965   */\n      calldatacopy\n        /* \"#utility.yul\":4020:4021   */\n      0x00\n        /* \"#utility.yul\":4011:4017   */\n      dup4\n        /* \"#utility.yul\":4006:4009   */\n      dup4\n        /* \"#utility.yul\":4002:4018   */\n      add\n        /* \"#utility.yul\":3995:4022   */\n      mstore\n        /* \"#utility.yul\":3874:4028   */\n      pop\n      pop\n      pop\n      jump\t// out\n        /* \"#utility.yul\":4034:4341   */\n    tag_62:\n        /* \"#utility.yul\":4102:4103   */\n      0x00\n        /* \"#utility.yul\":4112:4225   */\n    tag_93:\n        /* \"#utility.yul\":4126:4132   */\n      dup4\n        /* \"#utility.yul\":4123:4124   */\n      dup2\n        /* \"#utility.yul\":4120:4133   */\n      lt\n        /* \"#utility.yul\":4112:4225   */\n      iszero\n      tag_95\n      jumpi\n        /* \"#utility.yul\":4211:4212   */\n      dup1\n        /* \"#utility.yul\":4206:4209   */\n      dup3\n        /* \"#utility.yul\":4202:4213   */\n      add\n        /* \"#utility.yul\":4196:4214   */\n      mload\n        /* \"#utility.yul\":4192:4193   */\n      dup2\n        /* \"#utility.yul\":4187:4190   */\n      dup5\n        /* \"#utility.yul\":4183:4194   */\n      add\n        /* \"#utility.yul\":4176:4215   */\n      mstore\n        /* \"#utility.yul\":4148:4150   */\n      0x20\n        /* \"#utility.yul\":4145:4146   */\n      dup2\n        /* \"#utility.yul\":4141:4151   */\n      add\n        /* \"#utility.yul\":4136:4151   */\n      swap1\n      pop\n        /* \"#utility.yul\":4112:4225   */\n      jump(tag_93)\n    tag_95:\n        /* \"#utility.yul\":4243:4249   */\n      dup4\n        /* \"#utility.yul\":4240:4241   */\n      dup2\n        /* \"#utility.yul\":4237:4250   */\n      gt\n        /* \"#utility.yul\":4234:4335   */\n      iszero\n      tag_96\n      jumpi\n        /* \"#utility.yul\":4323:4324   */\n      0x00\n        /* \"#utility.yul\":4314:4320   */\n      dup5\n        /* \"#utility.yul\":4309:4312   */\n      dup5\n        /* \"#utility.yul\":4305:4321   */\n      add\n        /* \"#utility.yul\":4298:4325   */\n      mstore\n        /* \"#utility.yul\":4234:4335   */\n    tag_96:\n        /* \"#utility.yul\":4083:4341   */\n      pop\n        /* \"#utility.yul\":4034:4341   */\n      pop\n      pop\n      pop\n      jump\t// out\n        /* \"#utility.yul\":4347:4667   */\n    tag_14:\n        /* \"#utility.yul\":4391:4397   */\n      0x00\n        /* \"#utility.yul\":4428:4429   */\n      0x02\n        /* \"#utility.yul\":4422:4426   */\n      dup3\n        /* \"#utility.yul\":4418:4430   */\n      div\n        /* \"#utility.yul\":4408:4430   */\n      swap1\n      pop\n        /* \"#utility.yul\":4475:4476   */\n      0x01\n        /* \"#utility.yul\":4469:4473   */\n      dup3\n        /* \"#utility.yul\":4465:4477   */\n      and\n        /* \"#utility.yul\":4496:4514   */\n      dup1\n        /* \"#utility.yul\":4486:4567   */\n      tag_98\n      jumpi\n        /* \"#utility.yul\":4552:4556   */\n      0x7f\n        /* \"#utility.yul\":4544:4550   */\n      dup3\n        /* \"#utility.yul\":4540:4557   */\n      and\n        /* \"#utility.yul\":4530:4557   */\n      swap2\n      pop\n        /* \"#utility.yul\":4486:4567   */\n    tag_98:\n        /* \"#utility.yul\":4614:4616   */\n      0x20\n        /* \"#utility.yul\":4606:4612   */\n      dup3\n        /* \"#utility.yul\":4603:4617   */\n      lt\n        /* \"#utility.yul\":4583:4601   */\n      dup2\n        /* \"#utility.yul\":4580:4618   */\n      eq\n        /* \"#utility.yul\":4577:4661   */\n      iszero\n      tag_99\n      jumpi\n        /* \"#utility.yul\":4633:4651   */\n      tag_100\n      tag_101\n      jump\t// in\n    tag_100:\n        /* \"#utility.yul\":4577:4661   */\n    tag_99:\n        /* \"#utility.yul\":4398:4667   */\n      pop\n        /* \"#utility.yul\":4347:4667   */\n      swap2\n      swap1\n      pop\n      jump\t// out\n        /* \"#utility.yul\":4673:4954   */\n    tag_77:\n        /* \"#utility.yul\":4756:4783   */\n      tag_103\n        /* \"#utility.yul\":4778:4782   */\n      dup3\n        /* \"#utility.yul\":4756:4783   */\n      tag_64\n      jump\t// in\n    tag_103:\n        /* \"#utility.yul\":4748:4754   */\n      dup2\n        /* \"#utility.yul\":4744:4784   */\n      add\n        /* \"#utility.yul\":4886:4892   */\n      dup2\n        /* \"#utility.yul\":4874:4884   */\n      dup2\n        /* \"#utility.yul\":4871:4893   */\n      lt\n        /* \"#utility.yul\":4850:4868   */\n      0xffffffffffffffff\n        /* \"#utility.yul\":4838:4848   */\n      dup3\n        /* \"#utility.yul\":4835:4869   */\n      gt\n        /* \"#utility.yul\":4832:4894   */\n      or\n        /* \"#utility.yul\":4829:4917   */\n      iszero\n      tag_104\n      jumpi\n        /* \"#utility.yul\":4897:4915   */\n      tag_105\n      tag_82\n      jump\t// in\n    tag_105:\n        /* \"#utility.yul\":4829:4917   */\n    tag_104:\n        /* \"#utility.yul\":4937:4947   */\n      dup1\n        /* \"#utility.yul\":4933:4935   */\n      0x40\n        /* \"#utility.yul\":4926:4948   */\n      mstore\n        /* \"#utility.yul\":4716:4954   */\n      pop\n        /* \"#utility.yul\":4673:4954   */\n      pop\n      pop\n      jump\t// out\n        /* \"#utility.yul\":4960:5140   */\n    tag_101:\n        /* \"#utility.yul\":5008:5085   */\n      0x4e487b7100000000000000000000000000000000000000000000000000000000\n        /* \"#utility.yul\":5005:5006   */\n      0x00\n        /* \"#utility.yul\":4998:5086   */\n      mstore\n        /* \"#utility.yul\":5105:5109   */\n      0x22\n        /* \"#utility.yul\":5102:5103   */\n      0x04\n        /* \"#utility.yul\":5095:5110   */\n      mstore\n        /* \"#utility.yul\":5129:5133   */\n      0x24\n        /* \"#utility.yul\":5126:5127   */\n      0x00\n        /* \"#utility.yul\":5119:5134   */\n      revert\n        /* \"#utility.yul\":5146:5326   */\n    tag_82:\n        /* \"#utility.yul\":5194:5271   */\n      0x4e487b7100000000000000000000000000000000000000000000000000000000\n        /* \"#utility.yul\":5191:5192   */\n      0x00\n        /* \"#utility.yul\":5184:5272   */\n      mstore\n        /* \"#utility.yul\":5291:5295   */\n      0x41\n        /* \"#utility.yul\":5288:5289   */\n      0x04\n        /* \"#utility.yul\":5281:5296   */\n      mstore\n        /* \"#utility.yul\":5315:5319   */\n      0x24\n        /* \"#utility.yul\":5312:5313   */\n      0x00\n        /* \"#utility.yul\":5305:5320   */\n      revert\n        /* \"#utility.yul\":5332:5449   */\n    tag_36:\n        /* \"#utility.yul\":5441:5442   */\n      0x00\n        /* \"#utility.yul\":5438:5439   */\n      dup1\n        /* \"#utility.yul\":5431:5443   */\n      revert\n        /* \"#utility.yul\":5455:5572   */\n    tag_29:\n        /* \"#utility.yul\":5564:5565   */\n      0x00\n        /* \"#utility.yul\":5561:5562   */\n      dup1\n        /* \"#utility.yul\":5554:5566   */\n      revert\n        /* \"#utility.yul\":5578:5695   */\n    tag_48:\n        /* \"#utility.yul\":5687:5688   */\n      0x00\n        /* \"#utility.yul\":5684:5685   */\n      dup1\n        /* \"#utility.yul\":5677:5689   */\n      revert\n        /* \"#utility.yul\":5701:5818   */\n    tag_45:\n        /* \"#utility.yul\":5810:5811   */\n      0x00\n        /* \"#utility.yul\":5807:5808   */\n      dup1\n        /* \"#utility.yul\":5800:5812   */\n      revert\n        /* \"#utility.yul\":5824:5926   */\n    tag_64:\n        /* \"#utility.yul\":5865:5871   */\n      0x00\n        /* \"#utility.yul\":5916:5918   */\n      0x1f\n        /* \"#utility.yul\":5912:5919   */\n      not\n        /* \"#utility.yul\":5907:5909   */\n      0x1f\n        /* \"#utility.yul\":5900:5905   */\n      dup4\n        /* \"#utility.yul\":5896:5910   */\n      add\n        /* \"#utility.yul\":5892:5920   */\n      and\n        /* \"#utility.yul\":5882:5920   */\n      swap1\n      pop\n        /* \"#utility.yul\":5824:5926   */\n      swap2\n      swap1\n      pop\n      jump\t// out\n        /* \"#utility.yul\":5932:6054   */\n    tag_41:\n        /* \"#utility.yul\":6005:6029   */\n      tag_114\n        /* \"#utility.yul\":6023:6028   */\n      dup2\n        /* \"#utility.yul\":6005:6029   */\n      tag_68\n      jump\t// in\n    tag_114:\n        /* \"#utility.yul\":5998:6003   */\n      dup2\n        /* \"#utility.yul\":5995:6030   */\n      eq\n        /* \"#utility.yul\":5985:6048   */\n      tag_115\n      jumpi\n        /* \"#utility.yul\":6044:6045   */\n      0x00\n        /* \"#utility.yul\":6041:6042   */\n      dup1\n        /* \"#utility.yul\":6034:6046   */\n      revert\n        /* \"#utility.yul\":5985:6048   */\n    tag_115:\n        /* \"#utility.yul\":5932:6054   */\n      pop\n      jump\t// out\n\n    auxdata: 0xa26469706673582212205cc62405dca7d0bd8408a25f50763c9c0c8178f5e6607183a5c2aeb7966c578a64736f6c63430008070033\n}\n",
				"bytecode": {
					"linkReferences": {},
					"object": "60806040523480156200001157600080fd5b5060405162000915380380620009158339818101604052810190620000379190620001ed565b8160008001908051906020019062000051929190620000a8565b508060006001018190555033600060020160006101000a81548173ffffffffffffffffffffffffffffffffffffffff021916908373ffffffffffffffffffffffffffffffffffffffff1602179055505050620003fb565b828054620000b690620002f2565b90600052602060002090601f016020900481019282620000da576000855562000126565b82601f10620000f557805160ff191683800117855562000126565b8280016001018555821562000126579182015b828111156200012557825182559160200191906001019062000108565b5b50905062000135919062000139565b5090565b5b80821115620001545760008160009055506001016200013a565b5090565b60006200016f62000169846200027c565b62000253565b9050828152602081018484840111156200018e576200018d620003c1565b5b6200019b848285620002bc565b509392505050565b600082601f830112620001bb57620001ba620003bc565b5b8151620001cd84826020860162000158565b91505092915050565b600081519050620001e781620003e1565b92915050565b60008060408385031215620002075762000206620003cb565b5b600083015167ffffffffffffffff811115620002285762000227620003c6565b5b6200023685828601620001a3565b92505060206200024985828601620001d6565b9150509250929050565b60006200025f62000272565b90506200026d828262000328565b919050565b6000604051905090565b600067ffffffffffffffff8211156200029a57620002996200038d565b5b620002a582620003d0565b9050602081019050919050565b6000819050919050565b60005b83811015620002dc578082015181840152602081019050620002bf565b83811115620002ec576000848401525b50505050565b600060028204905060018216806200030b57607f821691505b602082108114156200032257620003216200035e565b5b50919050565b6200033382620003d0565b810181811067ffffffffffffffff821117156200035557620003546200038d565b5b80604052505050565b7f4e487b7100000000000000000000000000000000000000000000000000000000600052602260045260246000fd5b7f4e487b7100000000000000000000000000000000000000000000000000000000600052604160045260246000fd5b600080fd5b600080fd5b600080fd5b600080fd5b6000601f19601f8301169050919050565b620003ec81620002b2565b8114620003f857600080fd5b50565b61050a806200040b6000396000f3fe608060405234801561001057600080fd5b50600436106100365760003560e01c806346372ebd1461003b5780634ab664cb1461005b575b600080fd5b610043610077565b604051610052939291906102a9565b60405180910390f35b610075600480360381019061007091906101f6565b610137565b005b6000806000018054610088906103d7565b80601f01602080910402602001604051908101604052809291908181526020018280546100b4906103d7565b80156101015780601f106100d657610100808354040283529160200191610101565b820191906000526020600020905b8154815290600101906020018083116100e457829003601f168201915b5050505050908060010154908060020160009054906101000a900473ffffffffffffffffffffffffffffffffffffffff16905083565b600060405180606001604052808481526020018381526020013373ffffffffffffffffffffffffffffffffffffffff168152509050505050565b600061018461017f8461030c565b6102e7565b9050828152602081018484840111156101a05761019f61049d565b5b6101ab848285610395565b509392505050565b600082601f8301126101c8576101c7610498565b5b81356101d8848260208601610171565b91505092915050565b6000813590506101f0816104bd565b92915050565b6000806040838503121561020d5761020c6104a7565b5b600083013567ffffffffffffffff81111561022b5761022a6104a2565b5b610237858286016101b3565b9250506020610248858286016101e1565b9150509250929050565b61025b81610359565b82525050565b600061026c8261033d565b6102768185610348565b93506102868185602086016103a4565b61028f816104ac565b840191505092915050565b6102a38161038b565b82525050565b600060608201905081810360008301526102c38186610261565b90506102d2602083018561029a565b6102df6040830184610252565b949350505050565b60006102f1610302565b90506102fd8282610409565b919050565b6000604051905090565b600067ffffffffffffffff82111561032757610326610469565b5b610330826104ac565b9050602081019050919050565b600081519050919050565b600082825260208201905092915050565b60006103648261036b565b9050919050565b600073ffffffffffffffffffffffffffffffffffffffff82169050919050565b6000819050919050565b82818337600083830152505050565b60005b838110156103c25780820151818401526020810190506103a7565b838111156103d1576000848401525b50505050565b600060028204905060018216806103ef57607f821691505b602082108114156104035761040261043a565b5b50919050565b610412826104ac565b810181811067ffffffffffffffff8211171561043157610430610469565b5b80604052505050565b7f4e487b7100000000000000000000000000000000000000000000000000000000600052602260045260246000fd5b7f4e487b7100000000000000000000000000000000000000000000000000000000600052604160045260246000fd5b600080fd5b600080fd5b600080fd5b600080fd5b6000601f19601f8301169050919050565b6104c68161038b565b81146104d157600080fd5b5056fea26469706673582212205cc62405dca7d0bd8408a25f50763c9c0c8178f5e6607183a5c2aeb7966c578a64736f6c63430008070033",
					"opcodes": "PUSH1 0x80 PUSH1 0x40 MSTORE CALLVALUE DUP1 ISZERO PUSH3 0x11 JUMPI PUSH1 0x0 DUP1 REVERT JUMPDEST POP PUSH1 0x40 MLOAD PUSH3 0x915 CODESIZE SUB DUP1 PUSH3 0x915 DUP4 CODECOPY DUP2 DUP2 ADD PUSH1 0x40 MSTORE DUP2 ADD SWAP1 PUSH3 0x37 SWAP2 SWAP1 PUSH3 0x1ED JUMP JUMPDEST DUP2 PUSH1 0x0 DUP1 ADD SWAP1 DUP1 MLOAD SWAP1 PUSH1 0x20 ADD SWAP1 PUSH3 0x51 SWAP3 SWAP2 SWAP1 PUSH3 0xA8 JUMP JUMPDEST POP DUP1 PUSH1 0x0 PUSH1 0x1 ADD DUP2 SWAP1 SSTORE POP CALLER PUSH1 0x0 PUSH1 0x2 ADD PUSH1 0x0 PUSH2 0x100 EXP DUP2 SLOAD DUP2 PUSH20 0xFFFFFFFFFFFFFFFFFFFFFFFFFFFFFFFFFFFFFFFF MUL NOT AND SWAP1 DUP4 PUSH20 0xFFFFFFFFFFFFFFFFFFFFFFFFFFFFFFFFFFFFFFFF AND MUL OR SWAP1 SSTORE POP POP POP PUSH3 0x3FB JUMP JUMPDEST DUP3 DUP1 SLOAD PUSH3 0xB6 SWAP1 PUSH3 0x2F2 JUMP JUMPDEST SWAP1 PUSH1 0x0 MSTORE PUSH1 0x20 PUSH1 0x0 KECCAK256 SWAP1 PUSH1 0x1F ADD PUSH1 0x20 SWAP1 DIV DUP2 ADD SWAP3 DUP3 PUSH3 0xDA JUMPI PUSH1 0x0 DUP6 SSTORE PUSH3 0x126 JUMP JUMPDEST DUP3 PUSH1 0x1F LT PUSH3 0xF5 JUMPI DUP1 MLOAD PUSH1 0xFF NOT AND DUP4 DUP1 ADD OR DUP6 SSTORE PUSH3 0x126 JUMP JUMPDEST DUP3 DUP1 ADD PUSH1 0x1 ADD DUP6 SSTORE DUP3 ISZERO PUSH3 0x126 JUMPI SWAP2 DUP3 ADD JUMPDEST DUP3 DUP2 GT ISZERO PUSH3 0x125 JUMPI DUP3 MLOAD DUP3 SSTORE SWAP2 PUSH1 0x20 ADD SWAP2 SWAP1 PUSH1 0x1 ADD SWAP1 PUSH3 0x108 JUMP JUMPDEST JUMPDEST POP SWAP1 POP PUSH3 0x135 SWAP2 SWAP1 PUSH3 0x139 JUMP JUMPDEST POP SWAP1 JUMP JUMPDEST JUMPDEST DUP1 DUP3 GT ISZERO PUSH3 0x154 JUMPI PUSH1 0x0 DUP2 PUSH1 0x0 SWAP1 SSTORE POP PUSH1 0x1 ADD PUSH3 0x13A JUMP JUMPDEST POP SWAP1 JUMP JUMPDEST PUSH1 0x0 PUSH3 0x16F PUSH3 0x169 DUP5 PUSH3 0x27C JUMP JUMPDEST PUSH3 0x253 JUMP JUMPDEST SWAP1 POP DUP3 DUP2 MSTORE PUSH1 0x20 DUP2 ADD DUP5 DUP5 DUP5 ADD GT ISZERO PUSH3 0x18E JUMPI PUSH3 0x18D PUSH3 0x3C1 JUMP JUMPDEST JUMPDEST PUSH3 0x19B DUP5 DUP3 DUP6 PUSH3 0x2BC JUMP JUMPDEST POP SWAP4 SWAP3 POP POP POP JUMP JUMPDEST PUSH1 0x0 DUP3 PUSH1 0x1F DUP4 ADD SLT PUSH3 0x1BB JUMPI PUSH3 0x1BA PUSH3 0x3BC JUMP JUMPDEST JUMPDEST DUP2 MLOAD PUSH3 0x1CD DUP5 DUP3 PUSH1 0x20 DUP7 ADD PUSH3 0x158 JUMP JUMPDEST SWAP2 POP POP SWAP3 SWAP2 POP POP JUMP JUMPDEST PUSH1 0x0 DUP2 MLOAD SWAP1 POP PUSH3 0x1E7 DUP2 PUSH3 0x3E1 JUMP JUMPDEST SWAP3 SWAP2 POP POP JUMP JUMPDEST PUSH1 0x0 DUP1 PUSH1 0x40 DUP4 DUP6 SUB SLT ISZERO PUSH3 0x207 JUMPI PUSH3 0x206 PUSH3 0x3CB JUMP JUMPDEST JUMPDEST PUSH1 0x0 DUP4 ADD MLOAD PUSH8 0xFFFFFFFFFFFFFFFF DUP2 GT ISZERO PUSH3 0x228 JUMPI PUSH3 0x227 PUSH3 0x3C6 JUMP JUMPDEST JUMPDEST PUSH3 0x236 DUP6 DUP3 DUP7 ADD PUSH3 0x1A3 JUMP JUMPDEST SWAP3 POP POP PUSH1 0x20 PUSH3 0x249 DUP6 DUP3 DUP7 ADD PUSH3 0x1D6 JUMP JUMPDEST SWAP2 POP POP SWAP3 POP SWAP3 SWAP1 POP JUMP JUMPDEST PUSH1 0x0 PUSH3 0x25F PUSH3 0x272 JUMP JUMPDEST SWAP1 POP PUSH3 0x26D DUP3 DUP3 PUSH3 0x328 JUMP JUMPDEST SWAP2 SWAP1 POP JUMP JUMPDEST PUSH1 0x0 PUSH1 0x40 MLOAD SWAP1 POP SWAP1 JUMP JUMPDEST PUSH1 0x0 PUSH8 0xFFFFFFFFFFFFFFFF DUP3 GT ISZERO PUSH3 0x29A JUMPI PUSH3 0x299 PUSH3 0x38D JUMP JUMPDEST JUMPDEST PUSH3 0x2A5 DUP3 PUSH3 0x3D0 JUMP JUMPDEST SWAP1 POP PUSH1 0x20 DUP2 ADD SWAP1 POP SWAP2 SWAP1 POP JUMP JUMPDEST PUSH1 0x0 DUP2 SWAP1 POP SWAP2 SWAP1 POP JUMP JUMPDEST PUSH1 0x0 JUMPDEST DUP4 DUP2 LT ISZERO PUSH3 0x2DC JUMPI DUP1 DUP3 ADD MLOAD DUP2 DUP5 ADD MSTORE PUSH1 0x20 DUP2 ADD SWAP1 POP PUSH3 0x2BF JUMP JUMPDEST DUP4 DUP2 GT ISZERO PUSH3 0x2EC JUMPI PUSH1 0x0 DUP5 DUP5 ADD MSTORE JUMPDEST POP POP POP POP JUMP JUMPDEST PUSH1 0x0 PUSH1 0x2 DUP3 DIV SWAP1 POP PUSH1 0x1 DUP3 AND DUP1 PUSH3 0x30B JUMPI PUSH1 0x7F DUP3 AND SWAP2 POP JUMPDEST PUSH1 0x20 DUP3 LT DUP2 EQ ISZERO PUSH3 0x322 JUMPI PUSH3 0x321 PUSH3 0x35E JUMP JUMPDEST JUMPDEST POP SWAP2 SWAP1 POP JUMP JUMPDEST PUSH3 0x333 DUP3 PUSH3 0x3D0 JUMP JUMPDEST DUP2 ADD DUP2 DUP2 LT PUSH8 0xFFFFFFFFFFFFFFFF DUP3 GT OR ISZERO PUSH3 0x355 JUMPI PUSH3 0x354 PUSH3 0x38D JUMP JUMPDEST JUMPDEST DUP1 PUSH1 0x40 MSTORE POP POP POP JUMP JUMPDEST PUSH32 0x4E487B7100000000000000000000000000000000000000000000000000000000 PUSH1 0x0 MSTORE PUSH1 0x22 PUSH1 0x4 MSTORE PUSH1 0x24 PUSH1 0x0 REVERT JUMPDEST PUSH32 0x4E487B7100000000000000000000000000000000000000000000000000000000 PUSH1 0x0 MSTORE PUSH1 0x41 PUSH1 0x4 MSTORE PUSH1 0x24 PUSH1 0x0 REVERT JUMPDEST PUSH1 0x0 DUP1 REVERT JUMPDEST PUSH1 0x0 DUP1 REVERT JUMPDEST PUSH1 0x0 DUP1 REVERT JUMPDEST PUSH1 0x0 DUP1 REVERT JUMPDEST PUSH1 0x0 PUSH1 0x1F NOT PUSH1 0x1F DUP4 ADD AND SWAP1 POP SWAP2 SWAP1 POP JUMP JUMPDEST PUSH3 0x3EC DUP2 PUSH3 0x2B2 JUMP JUMPDEST DUP2 EQ PUSH3 0x3F8 JUMPI PUSH1 0x0 DUP1 REVERT JUMPDEST POP JUMP JUMPDEST PUSH2 0x50A DUP1 PUSH3 0x40B PUSH1 0x0 CODECOPY PUSH1 0x0 RETURN INVALID PUSH1 0x80 PUSH1 0x40 MSTORE CALLVALUE DUP1 ISZERO PUSH2 0x10 JUMPI PUSH1 0x0 DUP1 REVERT JUMPDEST POP PUSH1 0x4 CALLDATASIZE LT PUSH2 0x36 JUMPI PUSH1 0x0 CALLDATALOAD PUSH1 0xE0 SHR DUP1 PUSH4 0x46372EBD EQ PUSH2 0x3B JUMPI DUP1 PUSH4 0x4AB664CB EQ PUSH2 0x5B JUMPI JUMPDEST PUSH1 0x0 DUP1 REVERT JUMPDEST PUSH2 0x43 PUSH2 0x77 JUMP JUMPDEST PUSH1 0x40 MLOAD PUSH2 0x52 SWAP4 SWAP3 SWAP2 SWAP1 PUSH2 0x2A9 JUMP JUMPDEST PUSH1 0x40 MLOAD DUP1 SWAP2 SUB SWAP1 RETURN JUMPDEST PUSH2 0x75 PUSH1 0x4 DUP1 CALLDATASIZE SUB DUP2 ADD SWAP1 PUSH2 0x70 SWAP2 SWAP1 PUSH2 0x1F6 JUMP JUMPDEST PUSH2 0x137 JUMP JUMPDEST STOP JUMPDEST PUSH1 0x0 DUP1 PUSH1 0x0 ADD DUP1 SLOAD PUSH2 0x88 SWAP1 PUSH2 0x3D7 JUMP JUMPDEST DUP1 PUSH1 0x1F ADD PUSH1 0x20 DUP1 SWAP2 DIV MUL PUSH1 0x20 ADD PUSH1 0x40 MLOAD SWAP1 DUP2 ADD PUSH1 0x40 MSTORE DUP1 SWAP3 SWAP2 SWAP1 DUP2 DUP2 MSTORE PUSH1 0x20 ADD DUP3 DUP1 SLOAD PUSH2 0xB4 SWAP1 PUSH2 0x3D7 JUMP JUMPDEST DUP1 ISZERO PUSH2 0x101 JUMPI DUP1 PUSH1 0x1F LT PUSH2 0xD6 JUMPI PUSH2 0x100 DUP1 DUP4 SLOAD DIV MUL DUP4 MSTORE SWAP2 PUSH1 0x20 ADD SWAP2 PUSH2 0x101 JUMP JUMPDEST DUP3 ADD SWAP2 SWAP1 PUSH1 0x0 MSTORE PUSH1 0x20 PUSH1 0x0 KECCAK256 SWAP1 JUMPDEST DUP2 SLOAD DUP2 MSTORE SWAP1 PUSH1 0x1 ADD SWAP1 PUSH1 0x20 ADD DUP1 DUP4 GT PUSH2 0xE4 JUMPI DUP3 SWAP1 SUB PUSH1 0x1F AND DUP3 ADD SWAP2 JUMPDEST POP POP POP POP POP SWAP1 DUP1 PUSH1 0x1 ADD SLOAD SWAP1 DUP1 PUSH1 0x2 ADD PUSH1 0x0 SWAP1 SLOAD SWAP1 PUSH2 0x100 EXP SWAP1 DIV PUSH20 0xFFFFFFFFFFFFFFFFFFFFFFFFFFFFFFFFFFFFFFFF AND SWAP1 POP DUP4 JUMP JUMPDEST PUSH1 0x0 PUSH1 0x40 MLOAD DUP1 PUSH1 0x60 ADD PUSH1 0x40 MSTORE DUP1 DUP5 DUP2 MSTORE PUSH1 0x20 ADD DUP4 DUP2 MSTORE PUSH1 0x20 ADD CALLER PUSH20 0xFFFFFFFFFFFFFFFFFFFFFFFFFFFFFFFFFFFFFFFF AND DUP2 MSTORE POP SWAP1 POP POP POP POP JUMP JUMPDEST PUSH1 0x0 PUSH2 0x184 PUSH2 0x17F DUP5 PUSH2 0x30C JUMP JUMPDEST PUSH2 0x2E7 JUMP JUMPDEST SWAP1 POP DUP3 DUP2 MSTORE PUSH1 0x20 DUP2 ADD DUP5 DUP5 DUP5 ADD GT ISZERO PUSH2 0x1A0 JUMPI PUSH2 0x19F PUSH2 0x49D JUMP JUMPDEST JUMPDEST PUSH2 0x1AB DUP5 DUP3 DUP6 PUSH2 0x395 JUMP JUMPDEST POP SWAP4 SWAP3 POP POP POP JUMP JUMPDEST PUSH1 0x0 DUP3 PUSH1 0x1F DUP4 ADD SLT PUSH2 0x1C8 JUMPI PUSH2 0x1C7 PUSH2 0x498 JUMP JUMPDEST JUMPDEST DUP2 CALLDATALOAD PUSH2 0x1D8 DUP5 DUP3 PUSH1 0x20 DUP7 ADD PUSH2 0x171 JUMP JUMPDEST SWAP2 POP POP SWAP3 SWAP2 POP POP JUMP JUMPDEST PUSH1 0x0 DUP2 CALLDATALOAD SWAP1 POP PUSH2 0x1F0 DUP2 PUSH2 0x4BD JUMP JUMPDEST SWAP3 SWAP2 POP POP JUMP JUMPDEST PUSH1 0x0 DUP1 PUSH1 0x40 DUP4 DUP6 SUB SLT ISZERO PUSH2 0x20D JUMPI PUSH2 0x20C PUSH2 0x4A7 JUMP JUMPDEST JUMPDEST PUSH1 0x0 DUP4 ADD CALLDATALOAD PUSH8 0xFFFFFFFFFFFFFFFF DUP2 GT ISZERO PUSH2 0x22B JUMPI PUSH2 0x22A PUSH2 0x4A2 JUMP JUMPDEST JUMPDEST PUSH2 0x237 DUP6 DUP3 DUP7 ADD PUSH2 0x1B3 JUMP JUMPDEST SWAP3 POP POP PUSH1 0x20 PUSH2 0x248 DUP6 DUP3 DUP7 ADD PUSH2 0x1E1 JUMP JUMPDEST SWAP2 POP POP SWAP3 POP SWAP3 SWAP1 POP JUMP JUMPDEST PUSH2 0x25B DUP2 PUSH2 0x359 JUMP JUMPDEST DUP3 MSTORE POP POP JUMP JUMPDEST PUSH1 0x0 PUSH2 0x26C DUP3 PUSH2 0x33D JUMP JUMPDEST PUSH2 0x276 DUP2 DUP6 PUSH2 0x348 JUMP JUMPDEST SWAP4 POP PUSH2 0x286 DUP2 DUP6 PUSH1 0x20 DUP7 ADD PUSH2 0x3A4 JUMP JUMPDEST PUSH2 0x28F DUP2 PUSH2 0x4AC JUMP JUMPDEST DUP5 ADD SWAP2 POP POP SWAP3 SWAP2 POP POP JUMP JUMPDEST PUSH2 0x2A3 DUP2 PUSH2 0x38B JUMP JUMPDEST DUP3 MSTORE POP POP JUMP JUMPDEST PUSH1 0x0 PUSH1 0x60 DUP3 ADD SWAP1 POP DUP2 DUP2 SUB PUSH1 0x0 DUP4 ADD MSTORE PUSH2 0x2C3 DUP2 DUP7 PUSH2 0x261 JUMP JUMPDEST SWAP1 POP PUSH2 0x2D2 PUSH1 0x20 DUP4 ADD DUP6 PUSH2 0x29A JUMP JUMPDEST PUSH2 0x2DF PUSH1 0x40 DUP4 ADD DUP5 PUSH2 0x252 JUMP JUMPDEST SWAP5 SWAP4 POP POP POP POP JUMP JUMPDEST PUSH1 0x0 PUSH2 0x2F1 PUSH2 0x302 JUMP JUMPDEST SWAP1 POP PUSH2 0x2FD DUP3 DUP3 PUSH2 0x409 JUMP JUMPDEST SWAP2 SWAP1 POP JUMP JUMPDEST PUSH1 0x0 PUSH1 0x40 MLOAD SWAP1 POP SWAP1 JUMP JUMPDEST PUSH1 0x0 PUSH8 0xFFFFFFFFFFFFFFFF DUP3 GT ISZERO PUSH2 0x327 JUMPI PUSH2 0x326 PUSH2 0x469 JUMP JUMPDEST JUMPDEST PUSH2 0x330 DUP3 PUSH2 0x4AC JUMP JUMPDEST SWAP1 POP PUSH1 0x20 DUP2 ADD SWAP1 POP SWAP2 SWAP1 POP JUMP JUMPDEST PUSH1 0x0 DUP2 MLOAD SWAP1 POP SWAP2 SWAP1 POP JUMP JUMPDEST PUSH1 0x0 DUP3 DUP3 MSTORE PUSH1 0x20 DUP3 ADD SWAP1 POP SWAP3 SWAP2 POP POP JUMP JUMPDEST PUSH1 0x0 PUSH2 0x364 DUP3 PUSH2 0x36B JUMP JUMPDEST SWAP1 POP SWAP2 SWAP1 POP JUMP JUMPDEST PUSH1 0x0 PUSH20 0xFFFFFFFFFFFFFFFFFFFFFFFFFFFFFFFFFFFFFFFF DUP3 AND SWAP1 POP SWAP2 SWAP1 POP JUMP JUMPDEST PUSH1 0x0 DUP2 SWAP1 POP SWAP2 SWAP1 POP JUMP JUMPDEST DUP3 DUP2 DUP4 CALLDATACOPY PUSH1 0x0 DUP4 DUP4 ADD MSTORE POP POP POP JUMP JUMPDEST PUSH1 0x0 JUMPDEST DUP4 DUP2 LT ISZERO PUSH2 0x3C2 JUMPI DUP1 DUP3 ADD MLOAD DUP2 DUP5 ADD MSTORE PUSH1 0x20 DUP2 ADD SWAP1 POP PUSH2 0x3A7 JUMP JUMPDEST DUP4 DUP2 GT ISZERO PUSH2 0x3D1 JUMPI PUSH1 0x0 DUP5 DUP5 ADD MSTORE JUMPDEST POP POP POP POP JUMP JUMPDEST PUSH1 0x0 PUSH1 0x2 DUP3 DIV SWAP1 POP PUSH1 0x1 DUP3 AND DUP1 PUSH2 0x3EF JUMPI PUSH1 0x7F DUP3 AND SWAP2 POP JUMPDEST PUSH1 0x20 DUP3 LT DUP2 EQ ISZERO PUSH2 0x403 JUMPI PUSH2 0x402 PUSH2 0x43A JUMP JUMPDEST JUMPDEST POP SWAP2 SWAP1 POP JUMP JUMPDEST PUSH2 0x412 DUP3 PUSH2 0x4AC JUMP JUMPDEST DUP2 ADD DUP2 DUP2 LT PUSH8 0xFFFFFFFFFFFFFFFF DUP3 GT OR ISZERO PUSH2 0x431 JUMPI PUSH2 0x430 PUSH2 0x469 JUMP JUMPDEST JUMPDEST DUP1 PUSH1 0x40 MSTORE POP POP POP JUMP JUMPDEST PUSH32 0x4E487B7100000000000000000000000000000000000000000000000000000000 PUSH1 0x0 MSTORE PUSH1 0x22 PUSH1 0x4 MSTORE PUSH1 0x24 PUSH1 0x0 REVERT JUMPDEST PUSH32 0x4E487B7100000000000000000000000000000000000000000000000000000000 PUSH1 0x0 MSTORE PUSH1 0x41 PUSH1 0x4 MSTORE PUSH1 0x24 PUSH1 0x0 REVERT JUMPDEST PUSH1 0x0 DUP1 REVERT JUMPDEST PUSH1 0x0 DUP1 REVERT JUMPDEST PUSH1 0x0 DUP1 REVERT JUMPDEST PUSH1 0x0 DUP1 REVERT JUMPDEST PUSH1 0x0 PUSH1 0x1F NOT PUSH1 0x1F DUP4 ADD AND SWAP1 POP SWAP2 SWAP1 POP JUMP JUMPDEST PUSH2 0x4C6 DUP2 PUSH2 0x38B JUMP JUMPDEST DUP2 EQ PUSH2 0x4D1 JUMPI PUSH1 0x0 DUP1 REVERT JUMPDEST POP JUMP INVALID LOG2 PUSH5 0x6970667358 0x22 SLT KECCAK256 0x5C 0xC6 0x24 SDIV 0xDC 0xA7 0xD0 0xBD DUP5 ADDMOD LOG2 0x5F POP PUSH23 0x3C9C0C8178F5E6607183A5C2AEB7966C578A64736F6C63 NUMBER STOP ADDMOD SMOD STOP CALLER "
				},
				"gasEstimates": {
					"creation": {
						"codeDepositCost": "258000",
						"executionCost": "infinite",
						"totalCost": "infinite"
					},
					"external": {
						"newSubB(string,uint256)": "infinite",
						"subBusiness()": "infinite"
					}
				},
				"methodIdentifiers": {
					"newSubB(string,uint256)": "4ab664cb",
					"subBusiness()": "46372ebd"
				}
			},
			"storageLayout": {
				"storage": [
					{
						"astId": 11,
						"contract": "Structs&Ennum.sol:Customer",
						"label": "subBusiness",
						"offset": 0,
						"slot": "0",
						"type": "t_struct(Business)8_storage"
					}
				],
				"types": {
					"t_address": {
						"encoding": "inplace",
						"label": "address",
						"numberOfBytes": "20"
					},
					"t_string_storage": {
						"encoding": "bytes",
						"label": "string",
						"numberOfBytes": "32"
					},
					"t_struct(Business)8_storage": {
						"encoding": "inplace",
						"label": "struct Business",
						"members": [
							{
								"astId": 3,
								"contract": "Structs&Ennum.sol:Customer",
								"label": "name",
								"offset": 0,
								"slot": "0",
								"type": "t_string_storage"
							},
							{
								"astId": 5,
								"contract": "Structs&Ennum.sol:Customer",
								"label": "value",
								"offset": 0,
								"slot": "1",
								"type": "t_uint256"
							},
							{
								"astId": 7,
								"contract": "Structs&Ennum.sol:Customer",
								"label": "addr",
								"offset": 0,
								"slot": "2",
								"type": "t_address"
							}
						],
						"numberOfBytes": "96"
					},
					"t_uint256": {
						"encoding": "inplace",
						"label": "uint256",
						"numberOfBytes": "32"
					}
				}
			},
			"userdoc": {
				"kind": "user",
				"methods": {},
				"version": 1
			}
		}
	}
}