{
	"Structs.sol": {
		"Struct": {
			"abi": [
				{
					"inputs": [
						{
							"internalType": "string",
							"name": "_name",
							"type": "string"
						}
					],
					"name": "setTodo",
					"outputs": [],
					"stateMutability": "nonpayable",
					"type": "function"
				},
				{
					"inputs": [
						{
							"internalType": "uint256",
							"name": "",
							"type": "uint256"
						}
					],
					"name": "todos",
					"outputs": [
						{
							"internalType": "string",
							"name": "name",
							"type": "string"
						},
						{
							"internalType": "bool",
							"name": "completed",
							"type": "bool"
						}
					],
					"stateMutability": "view",
					"type": "function"
				}
			],
			"devdoc": {
				"kind": "dev",
				"methods": {},
				"version": 1
			},
			"evm": {
				"assembly": "    /* \"Structs.sol\":61:795  contract Struct {\r... */\n  mstore(0x40, 0x80)\n  callvalue\n  dup1\n  iszero\n  tag_1\n  jumpi\n  0x00\n  dup1\n  revert\ntag_1:\n  pop\n  dataSize(sub_0)\n  dup1\n  dataOffset(sub_0)\n  0x00\n  codecopy\n  0x00\n  return\nstop\n\nsub_0: assembly {\n        /* \"Structs.sol\":61:795  contract Struct {\r... */\n      mstore(0x40, 0x80)\n      callvalue\n      dup1\n      iszero\n      tag_1\n      jumpi\n      0x00\n      dup1\n      revert\n    tag_1:\n      pop\n      jumpi(tag_2, lt(calldatasize, 0x04))\n      shr(0xe0, calldataload(0x00))\n      dup1\n      0xb9abac74\n      eq\n      tag_3\n      jumpi\n      dup1\n      0xbc8bc2b4\n      eq\n      tag_4\n      jumpi\n    tag_2:\n      0x00\n      dup1\n      revert\n        /* \"Structs.sol\":311:784  function setTodo(string memory _name) public{\r... */\n    tag_3:\n      tag_5\n      0x04\n      dup1\n      calldatasize\n      sub\n      dup2\n      add\n      swap1\n      tag_6\n      swap2\n      swap1\n      tag_7\n      jump\t// in\n    tag_6:\n      tag_8\n      jump\t// in\n    tag_5:\n      stop\n        /* \"Structs.sol\":277:300  TodoItem[] public todos */\n    tag_4:\n      tag_9\n      0x04\n      dup1\n      calldatasize\n      sub\n      dup2\n      add\n      swap1\n      tag_10\n      swap2\n      swap1\n      tag_11\n      jump\t// in\n    tag_10:\n      tag_12\n      jump\t// in\n    tag_9:\n      mload(0x40)\n      tag_13\n      swap3\n      swap2\n      swap1\n      tag_14\n      jump\t// in\n    tag_13:\n      mload(0x40)\n      dup1\n      swap2\n      sub\n      swap1\n      return\n        /* \"Structs.sol\":311:784  function setTodo(string memory _name) public{\r... */\n    tag_8:\n        /* \"Structs.sol\":470:475  todos */\n      0x00\n        /* \"Structs.sol\":481:502  TodoItem(_name, true) */\n      mload(0x40)\n      dup1\n      0x40\n      add\n      0x40\n      mstore\n      dup1\n        /* \"Structs.sol\":490:495  _name */\n      dup4\n        /* \"Structs.sol\":481:502  TodoItem(_name, true) */\n      dup2\n      mstore\n      0x20\n      add\n        /* \"Structs.sol\":497:501  true */\n      0x01\n        /* \"Structs.sol\":481:502  TodoItem(_name, true) */\n      iszero\n      iszero\n      dup2\n      mstore\n      pop\n        /* \"Structs.sol\":470:503  todos.push(TodoItem(_name, true)) */\n      swap1\n      dup1\n      0x01\n      dup2\n      sload\n      add\n      dup1\n      dup3\n      sstore\n      dup1\n      swap2\n      pop\n      pop\n      0x01\n      swap1\n      sub\n      swap1\n      0x00\n      mstore\n      keccak256(0x00, 0x20)\n      swap1\n      0x02\n      mul\n      add\n      0x00\n      swap1\n      swap2\n      swap1\n      swap2\n      swap1\n      swap2\n      pop\n      0x00\n      dup3\n      add\n      mload\n      dup2\n      0x00\n      add\n      swap1\n      dup1\n      mload\n      swap1\n      0x20\n      add\n      swap1\n      tag_17\n      swap3\n      swap2\n      swap1\n      tag_18\n      jump\t// in\n    tag_17:\n      pop\n      0x20\n      dup3\n      add\n      mload\n      dup2\n      0x01\n      add\n      exp(0x0100, 0x00)\n      dup2\n      sload\n      dup2\n      0xff\n      mul\n      not\n      and\n      swap1\n      dup4\n      iszero\n      iszero\n      mul\n      or\n      swap1\n      sstore\n      pop\n      pop\n      pop\n        /* \"Structs.sol\":311:784  function setTodo(string memory _name) public{\r... */\n      pop\n      jump\t// out\n        /* \"Structs.sol\":277:300  TodoItem[] public todos */\n    tag_12:\n      0x00\n      dup2\n      dup2\n      sload\n      dup2\n      lt\n      tag_19\n      jumpi\n      0x00\n      dup1\n      revert\n    tag_19:\n      swap1\n      0x00\n      mstore\n      keccak256(0x00, 0x20)\n      swap1\n      0x02\n      mul\n      add\n      0x00\n      swap2\n      pop\n      swap1\n      pop\n      dup1\n      0x00\n      add\n      dup1\n      sload\n      tag_21\n      swap1\n      tag_22\n      jump\t// in\n    tag_21:\n      dup1\n      0x1f\n      add\n      0x20\n      dup1\n      swap2\n      div\n      mul\n      0x20\n      add\n      mload(0x40)\n      swap1\n      dup2\n      add\n      0x40\n      mstore\n      dup1\n      swap3\n      swap2\n      swap1\n      dup2\n      dup2\n      mstore\n      0x20\n      add\n      dup3\n      dup1\n      sload\n      tag_23\n      swap1\n      tag_22\n      jump\t// in\n    tag_23:\n      dup1\n      iszero\n      tag_24\n      jumpi\n      dup1\n      0x1f\n      lt\n      tag_25\n      jumpi\n      0x0100\n      dup1\n      dup4\n      sload\n      div\n      mul\n      dup4\n      mstore\n      swap2\n      0x20\n      add\n      swap2\n      jump(tag_24)\n    tag_25:\n      dup3\n      add\n      swap2\n      swap1\n      0x00\n      mstore\n      keccak256(0x00, 0x20)\n      swap1\n    tag_26:\n      dup2\n      sload\n      dup2\n      mstore\n      swap1\n      0x01\n      add\n      swap1\n      0x20\n      add\n      dup1\n      dup4\n      gt\n      tag_26\n      jumpi\n      dup3\n      swap1\n      sub\n      0x1f\n      and\n      dup3\n      add\n      swap2\n    tag_24:\n      pop\n      pop\n      pop\n      pop\n      pop\n      swap1\n      dup1\n      0x01\n      add\n      0x00\n      swap1\n      sload\n      swap1\n      0x0100\n      exp\n      swap1\n      div\n      0xff\n      and\n      swap1\n      pop\n      dup3\n      jump\t// out\n    tag_18:\n      dup3\n      dup1\n      sload\n      tag_27\n      swap1\n      tag_22\n      jump\t// in\n    tag_27:\n      swap1\n      0x00\n      mstore\n      keccak256(0x00, 0x20)\n      swap1\n      0x1f\n      add\n      0x20\n      swap1\n      div\n      dup2\n      add\n      swap3\n      dup3\n      tag_29\n      jumpi\n      0x00\n      dup6\n      sstore\n      jump(tag_28)\n    tag_29:\n      dup3\n      0x1f\n      lt\n      tag_30\n      jumpi\n      dup1\n      mload\n      not(0xff)\n      and\n      dup4\n      dup1\n      add\n      or\n      dup6\n      sstore\n      jump(tag_28)\n    tag_30:\n      dup3\n      dup1\n      add\n      0x01\n      add\n      dup6\n      sstore\n      dup3\n      iszero\n      tag_28\n      jumpi\n      swap2\n      dup3\n      add\n    tag_31:\n      dup3\n      dup2\n      gt\n      iszero\n      tag_32\n      jumpi\n      dup3\n      mload\n      dup3\n      sstore\n      swap2\n      0x20\n      add\n      swap2\n      swap1\n      0x01\n      add\n      swap1\n      jump(tag_31)\n    tag_32:\n    tag_28:\n      pop\n      swap1\n      pop\n      tag_33\n      swap2\n      swap1\n      tag_34\n      jump\t// in\n    tag_33:\n      pop\n      swap1\n      jump\t// out\n    tag_34:\n    tag_35:\n      dup1\n      dup3\n      gt\n      iszero\n      tag_36\n      jumpi\n      0x00\n      dup2\n      0x00\n      swap1\n      sstore\n      pop\n      0x01\n      add\n      jump(tag_35)\n    tag_36:\n      pop\n      swap1\n      jump\t// out\n        /* \"#utility.yul\":7:419   */\n    tag_38:\n        /* \"#utility.yul\":85:90   */\n      0x00\n        /* \"#utility.yul\":110:176   */\n      tag_40\n        /* \"#utility.yul\":126:175   */\n      tag_41\n        /* \"#utility.yul\":168:174   */\n      dup5\n        /* \"#utility.yul\":126:175   */\n      tag_42\n      jump\t// in\n    tag_41:\n        /* \"#utility.yul\":110:176   */\n      tag_43\n      jump\t// in\n    tag_40:\n        /* \"#utility.yul\":101:176   */\n      swap1\n      pop\n        /* \"#utility.yul\":199:205   */\n      dup3\n        /* \"#utility.yul\":192:197   */\n      dup2\n        /* \"#utility.yul\":185:206   */\n      mstore\n        /* \"#utility.yul\":237:241   */\n      0x20\n        /* \"#utility.yul\":230:235   */\n      dup2\n        /* \"#utility.yul\":226:242   */\n      add\n        /* \"#utility.yul\":275:278   */\n      dup5\n        /* \"#utility.yul\":266:272   */\n      dup5\n        /* \"#utility.yul\":261:264   */\n      dup5\n        /* \"#utility.yul\":257:273   */\n      add\n        /* \"#utility.yul\":254:279   */\n      gt\n        /* \"#utility.yul\":251:363   */\n      iszero\n      tag_44\n      jumpi\n        /* \"#utility.yul\":282:361   */\n      tag_45\n      tag_46\n      jump\t// in\n    tag_45:\n        /* \"#utility.yul\":251:363   */\n    tag_44:\n        /* \"#utility.yul\":372:413   */\n      tag_47\n        /* \"#utility.yul\":406:412   */\n      dup5\n        /* \"#utility.yul\":401:404   */\n      dup3\n        /* \"#utility.yul\":396:399   */\n      dup6\n        /* \"#utility.yul\":372:413   */\n      tag_48\n      jump\t// in\n    tag_47:\n        /* \"#utility.yul\":91:419   */\n      pop\n        /* \"#utility.yul\":7:419   */\n      swap4\n      swap3\n      pop\n      pop\n      pop\n      jump\t// out\n        /* \"#utility.yul\":439:779   */\n    tag_49:\n        /* \"#utility.yul\":495:500   */\n      0x00\n        /* \"#utility.yul\":544:547   */\n      dup3\n        /* \"#utility.yul\":537:541   */\n      0x1f\n        /* \"#utility.yul\":529:535   */\n      dup4\n        /* \"#utility.yul\":525:542   */\n      add\n        /* \"#utility.yul\":521:548   */\n      slt\n        /* \"#utility.yul\":511:633   */\n      tag_51\n      jumpi\n        /* \"#utility.yul\":552:631   */\n      tag_52\n      tag_53\n      jump\t// in\n    tag_52:\n        /* \"#utility.yul\":511:633   */\n    tag_51:\n        /* \"#utility.yul\":669:675   */\n      dup2\n        /* \"#utility.yul\":656:676   */\n      calldataload\n        /* \"#utility.yul\":694:773   */\n      tag_54\n        /* \"#utility.yul\":769:772   */\n      dup5\n        /* \"#utility.yul\":761:767   */\n      dup3\n        /* \"#utility.yul\":754:758   */\n      0x20\n        /* \"#utility.yul\":746:752   */\n      dup7\n        /* \"#utility.yul\":742:759   */\n      add\n        /* \"#utility.yul\":694:773   */\n      tag_38\n      jump\t// in\n    tag_54:\n        /* \"#utility.yul\":685:773   */\n      swap2\n      pop\n        /* \"#utility.yul\":501:779   */\n      pop\n        /* \"#utility.yul\":439:779   */\n      swap3\n      swap2\n      pop\n      pop\n      jump\t// out\n        /* \"#utility.yul\":785:924   */\n    tag_55:\n        /* \"#utility.yul\":831:836   */\n      0x00\n        /* \"#utility.yul\":869:875   */\n      dup2\n        /* \"#utility.yul\":856:876   */\n      calldataload\n        /* \"#utility.yul\":847:876   */\n      swap1\n      pop\n        /* \"#utility.yul\":885:918   */\n      tag_57\n        /* \"#utility.yul\":912:917   */\n      dup2\n        /* \"#utility.yul\":885:918   */\n      tag_58\n      jump\t// in\n    tag_57:\n        /* \"#utility.yul\":785:924   */\n      swap3\n      swap2\n      pop\n      pop\n      jump\t// out\n        /* \"#utility.yul\":930:1439   */\n    tag_7:\n        /* \"#utility.yul\":999:1005   */\n      0x00\n        /* \"#utility.yul\":1048:1050   */\n      0x20\n        /* \"#utility.yul\":1036:1045   */\n      dup3\n        /* \"#utility.yul\":1027:1034   */\n      dup5\n        /* \"#utility.yul\":1023:1046   */\n      sub\n        /* \"#utility.yul\":1019:1051   */\n      slt\n        /* \"#utility.yul\":1016:1135   */\n      iszero\n      tag_60\n      jumpi\n        /* \"#utility.yul\":1054:1133   */\n      tag_61\n      tag_62\n      jump\t// in\n    tag_61:\n        /* \"#utility.yul\":1016:1135   */\n    tag_60:\n        /* \"#utility.yul\":1202:1203   */\n      0x00\n        /* \"#utility.yul\":1191:1200   */\n      dup3\n        /* \"#utility.yul\":1187:1204   */\n      add\n        /* \"#utility.yul\":1174:1205   */\n      calldataload\n        /* \"#utility.yul\":1232:1250   */\n      0xffffffffffffffff\n        /* \"#utility.yul\":1224:1230   */\n      dup2\n        /* \"#utility.yul\":1221:1251   */\n      gt\n        /* \"#utility.yul\":1218:1335   */\n      iszero\n      tag_63\n      jumpi\n        /* \"#utility.yul\":1254:1333   */\n      tag_64\n      tag_65\n      jump\t// in\n    tag_64:\n        /* \"#utility.yul\":1218:1335   */\n    tag_63:\n        /* \"#utility.yul\":1359:1422   */\n      tag_66\n        /* \"#utility.yul\":1414:1421   */\n      dup5\n        /* \"#utility.yul\":1405:1411   */\n      dup3\n        /* \"#utility.yul\":1394:1403   */\n      dup6\n        /* \"#utility.yul\":1390:1412   */\n      add\n        /* \"#utility.yul\":1359:1422   */\n      tag_49\n      jump\t// in\n    tag_66:\n        /* \"#utility.yul\":1349:1422   */\n      swap2\n      pop\n        /* \"#utility.yul\":1145:1432   */\n      pop\n        /* \"#utility.yul\":930:1439   */\n      swap3\n      swap2\n      pop\n      pop\n      jump\t// out\n        /* \"#utility.yul\":1445:1774   */\n    tag_11:\n        /* \"#utility.yul\":1504:1510   */\n      0x00\n        /* \"#utility.yul\":1553:1555   */\n      0x20\n        /* \"#utility.yul\":1541:1550   */\n      dup3\n        /* \"#utility.yul\":1532:1539   */\n      dup5\n        /* \"#utility.yul\":1528:1551   */\n      sub\n        /* \"#utility.yul\":1524:1556   */\n      slt\n        /* \"#utility.yul\":1521:1640   */\n      iszero\n      tag_68\n      jumpi\n        /* \"#utility.yul\":1559:1638   */\n      tag_69\n      tag_62\n      jump\t// in\n    tag_69:\n        /* \"#utility.yul\":1521:1640   */\n    tag_68:\n        /* \"#utility.yul\":1679:1680   */\n      0x00\n        /* \"#utility.yul\":1704:1757   */\n      tag_70\n        /* \"#utility.yul\":1749:1756   */\n      dup5\n        /* \"#utility.yul\":1740:1746   */\n      dup3\n        /* \"#utility.yul\":1729:1738   */\n      dup6\n        /* \"#utility.yul\":1725:1747   */\n      add\n        /* \"#utility.yul\":1704:1757   */\n      tag_55\n      jump\t// in\n    tag_70:\n        /* \"#utility.yul\":1694:1757   */\n      swap2\n      pop\n        /* \"#utility.yul\":1650:1767   */\n      pop\n        /* \"#utility.yul\":1445:1774   */\n      swap3\n      swap2\n      pop\n      pop\n      jump\t// out\n        /* \"#utility.yul\":1780:1889   */\n    tag_71:\n        /* \"#utility.yul\":1861:1882   */\n      tag_73\n        /* \"#utility.yul\":1876:1881   */\n      dup2\n        /* \"#utility.yul\":1861:1882   */\n      tag_74\n      jump\t// in\n    tag_73:\n        /* \"#utility.yul\":1856:1859   */\n      dup3\n        /* \"#utility.yul\":1849:1883   */\n      mstore\n        /* \"#utility.yul\":1780:1889   */\n      pop\n      pop\n      jump\t// out\n        /* \"#utility.yul\":1895:2259   */\n    tag_75:\n        /* \"#utility.yul\":1983:1986   */\n      0x00\n        /* \"#utility.yul\":2011:2050   */\n      tag_77\n        /* \"#utility.yul\":2044:2049   */\n      dup3\n        /* \"#utility.yul\":2011:2050   */\n      tag_78\n      jump\t// in\n    tag_77:\n        /* \"#utility.yul\":2066:2137   */\n      tag_79\n        /* \"#utility.yul\":2130:2136   */\n      dup2\n        /* \"#utility.yul\":2125:2128   */\n      dup6\n        /* \"#utility.yul\":2066:2137   */\n      tag_80\n      jump\t// in\n    tag_79:\n        /* \"#utility.yul\":2059:2137   */\n      swap4\n      pop\n        /* \"#utility.yul\":2146:2198   */\n      tag_81\n        /* \"#utility.yul\":2191:2197   */\n      dup2\n        /* \"#utility.yul\":2186:2189   */\n      dup6\n        /* \"#utility.yul\":2179:2183   */\n      0x20\n        /* \"#utility.yul\":2172:2177   */\n      dup7\n        /* \"#utility.yul\":2168:2184   */\n      add\n        /* \"#utility.yul\":2146:2198   */\n      tag_82\n      jump\t// in\n    tag_81:\n        /* \"#utility.yul\":2223:2252   */\n      tag_83\n        /* \"#utility.yul\":2245:2251   */\n      dup2\n        /* \"#utility.yul\":2223:2252   */\n      tag_84\n      jump\t// in\n    tag_83:\n        /* \"#utility.yul\":2218:2221   */\n      dup5\n        /* \"#utility.yul\":2214:2253   */\n      add\n        /* \"#utility.yul\":2207:2253   */\n      swap2\n      pop\n        /* \"#utility.yul\":1987:2259   */\n      pop\n        /* \"#utility.yul\":1895:2259   */\n      swap3\n      swap2\n      pop\n      pop\n      jump\t// out\n        /* \"#utility.yul\":2265:2676   */\n    tag_14:\n        /* \"#utility.yul\":2400:2404   */\n      0x00\n        /* \"#utility.yul\":2438:2440   */\n      0x40\n        /* \"#utility.yul\":2427:2436   */\n      dup3\n        /* \"#utility.yul\":2423:2441   */\n      add\n        /* \"#utility.yul\":2415:2441   */\n      swap1\n      pop\n        /* \"#utility.yul\":2487:2496   */\n      dup2\n        /* \"#utility.yul\":2481:2485   */\n      dup2\n        /* \"#utility.yul\":2477:2497   */\n      sub\n        /* \"#utility.yul\":2473:2474   */\n      0x00\n        /* \"#utility.yul\":2462:2471   */\n      dup4\n        /* \"#utility.yul\":2458:2475   */\n      add\n        /* \"#utility.yul\":2451:2498   */\n      mstore\n        /* \"#utility.yul\":2515:2593   */\n      tag_86\n        /* \"#utility.yul\":2588:2592   */\n      dup2\n        /* \"#utility.yul\":2579:2585   */\n      dup6\n        /* \"#utility.yul\":2515:2593   */\n      tag_75\n      jump\t// in\n    tag_86:\n        /* \"#utility.yul\":2507:2593   */\n      swap1\n      pop\n        /* \"#utility.yul\":2603:2669   */\n      tag_87\n        /* \"#utility.yul\":2665:2667   */\n      0x20\n        /* \"#utility.yul\":2654:2663   */\n      dup4\n        /* \"#utility.yul\":2650:2668   */\n      add\n        /* \"#utility.yul\":2641:2647   */\n      dup5\n        /* \"#utility.yul\":2603:2669   */\n      tag_71\n      jump\t// in\n    tag_87:\n        /* \"#utility.yul\":2265:2676   */\n      swap4\n      swap3\n      pop\n      pop\n      pop\n      jump\t// out\n        /* \"#utility.yul\":2682:2811   */\n    tag_43:\n        /* \"#utility.yul\":2716:2722   */\n      0x00\n        /* \"#utility.yul\":2743:2763   */\n      tag_89\n      tag_90\n      jump\t// in\n    tag_89:\n        /* \"#utility.yul\":2733:2763   */\n      swap1\n      pop\n        /* \"#utility.yul\":2772:2805   */\n      tag_91\n        /* \"#utility.yul\":2800:2804   */\n      dup3\n        /* \"#utility.yul\":2792:2798   */\n      dup3\n        /* \"#utility.yul\":2772:2805   */\n      tag_92\n      jump\t// in\n    tag_91:\n        /* \"#utility.yul\":2682:2811   */\n      swap2\n      swap1\n      pop\n      jump\t// out\n        /* \"#utility.yul\":2817:2892   */\n    tag_90:\n        /* \"#utility.yul\":2850:2856   */\n      0x00\n        /* \"#utility.yul\":2883:2885   */\n      0x40\n        /* \"#utility.yul\":2877:2886   */\n      mload\n        /* \"#utility.yul\":2867:2886   */\n      swap1\n      pop\n        /* \"#utility.yul\":2817:2892   */\n      swap1\n      jump\t// out\n        /* \"#utility.yul\":2898:3206   */\n    tag_42:\n        /* \"#utility.yul\":2960:2964   */\n      0x00\n        /* \"#utility.yul\":3050:3068   */\n      0xffffffffffffffff\n        /* \"#utility.yul\":3042:3048   */\n      dup3\n        /* \"#utility.yul\":3039:3069   */\n      gt\n        /* \"#utility.yul\":3036:3092   */\n      iszero\n      tag_95\n      jumpi\n        /* \"#utility.yul\":3072:3090   */\n      tag_96\n      tag_97\n      jump\t// in\n    tag_96:\n        /* \"#utility.yul\":3036:3092   */\n    tag_95:\n        /* \"#utility.yul\":3110:3139   */\n      tag_98\n        /* \"#utility.yul\":3132:3138   */\n      dup3\n        /* \"#utility.yul\":3110:3139   */\n      tag_84\n      jump\t// in\n    tag_98:\n        /* \"#utility.yul\":3102:3139   */\n      swap1\n      pop\n        /* \"#utility.yul\":3194:3198   */\n      0x20\n        /* \"#utility.yul\":3188:3192   */\n      dup2\n        /* \"#utility.yul\":3184:3199   */\n      add\n        /* \"#utility.yul\":3176:3199   */\n      swap1\n      pop\n        /* \"#utility.yul\":2898:3206   */\n      swap2\n      swap1\n      pop\n      jump\t// out\n        /* \"#utility.yul\":3212:3311   */\n    tag_78:\n        /* \"#utility.yul\":3264:3270   */\n      0x00\n        /* \"#utility.yul\":3298:3303   */\n      dup2\n        /* \"#utility.yul\":3292:3304   */\n      mload\n        /* \"#utility.yul\":3282:3304   */\n      swap1\n      pop\n        /* \"#utility.yul\":3212:3311   */\n      swap2\n      swap1\n      pop\n      jump\t// out\n        /* \"#utility.yul\":3317:3486   */\n    tag_80:\n        /* \"#utility.yul\":3401:3412   */\n      0x00\n        /* \"#utility.yul\":3435:3441   */\n      dup3\n        /* \"#utility.yul\":3430:3433   */\n      dup3\n        /* \"#utility.yul\":3423:3442   */\n      mstore\n        /* \"#utility.yul\":3475:3479   */\n      0x20\n        /* \"#utility.yul\":3470:3473   */\n      dup3\n        /* \"#utility.yul\":3466:3480   */\n      add\n        /* \"#utility.yul\":3451:3480   */\n      swap1\n      pop\n        /* \"#utility.yul\":3317:3486   */\n      swap3\n      swap2\n      pop\n      pop\n      jump\t// out\n        /* \"#utility.yul\":3492:3582   */\n    tag_74:\n        /* \"#utility.yul\":3526:3533   */\n      0x00\n        /* \"#utility.yul\":3569:3574   */\n      dup2\n        /* \"#utility.yul\":3562:3575   */\n      iszero\n        /* \"#utility.yul\":3555:3576   */\n      iszero\n        /* \"#utility.yul\":3544:3576   */\n      swap1\n      pop\n        /* \"#utility.yul\":3492:3582   */\n      swap2\n      swap1\n      pop\n      jump\t// out\n        /* \"#utility.yul\":3588:3665   */\n    tag_102:\n        /* \"#utility.yul\":3625:3632   */\n      0x00\n        /* \"#utility.yul\":3654:3659   */\n      dup2\n        /* \"#utility.yul\":3643:3659   */\n      swap1\n      pop\n        /* \"#utility.yul\":3588:3665   */\n      swap2\n      swap1\n      pop\n      jump\t// out\n        /* \"#utility.yul\":3671:3825   */\n    tag_48:\n        /* \"#utility.yul\":3755:3761   */\n      dup3\n        /* \"#utility.yul\":3750:3753   */\n      dup2\n        /* \"#utility.yul\":3745:3748   */\n      dup4\n        /* \"#utility.yul\":3732:3762   */\n      calldatacopy\n        /* \"#utility.yul\":3817:3818   */\n      0x00\n        /* \"#utility.yul\":3808:3814   */\n      dup4\n        /* \"#utility.yul\":3803:3806   */\n      dup4\n        /* \"#utility.yul\":3799:3815   */\n      add\n        /* \"#utility.yul\":3792:3819   */\n      mstore\n        /* \"#utility.yul\":3671:3825   */\n      pop\n      pop\n      pop\n      jump\t// out\n        /* \"#utility.yul\":3831:4138   */\n    tag_82:\n        /* \"#utility.yul\":3899:3900   */\n      0x00\n        /* \"#utility.yul\":3909:4022   */\n    tag_106:\n        /* \"#utility.yul\":3923:3929   */\n      dup4\n        /* \"#utility.yul\":3920:3921   */\n      dup2\n        /* \"#utility.yul\":3917:3930   */\n      lt\n        /* \"#utility.yul\":3909:4022   */\n      iszero\n      tag_108\n      jumpi\n        /* \"#utility.yul\":4008:4009   */\n      dup1\n        /* \"#utility.yul\":4003:4006   */\n      dup3\n        /* \"#utility.yul\":3999:4010   */\n      add\n        /* \"#utility.yul\":3993:4011   */\n      mload\n        /* \"#utility.yul\":3989:3990   */\n      dup2\n        /* \"#utility.yul\":3984:3987   */\n      dup5\n        /* \"#utility.yul\":3980:3991   */\n      add\n        /* \"#utility.yul\":3973:4012   */\n      mstore\n        /* \"#utility.yul\":3945:3947   */\n      0x20\n        /* \"#utility.yul\":3942:3943   */\n      dup2\n        /* \"#utility.yul\":3938:3948   */\n      add\n        /* \"#utility.yul\":3933:3948   */\n      swap1\n      pop\n        /* \"#utility.yul\":3909:4022   */\n      jump(tag_106)\n    tag_108:\n        /* \"#utility.yul\":4040:4046   */\n      dup4\n        /* \"#utility.yul\":4037:4038   */\n      dup2\n        /* \"#utility.yul\":4034:4047   */\n      gt\n        /* \"#utility.yul\":4031:4132   */\n      iszero\n      tag_109\n      jumpi\n        /* \"#utility.yul\":4120:4121   */\n      0x00\n        /* \"#utility.yul\":4111:4117   */\n      dup5\n        /* \"#utility.yul\":4106:4109   */\n      dup5\n        /* \"#utility.yul\":4102:4118   */\n      add\n        /* \"#utility.yul\":4095:4122   */\n      mstore\n        /* \"#utility.yul\":4031:4132   */\n    tag_109:\n        /* \"#utility.yul\":3880:4138   */\n      pop\n        /* \"#utility.yul\":3831:4138   */\n      pop\n      pop\n      pop\n      jump\t// out\n        /* \"#utility.yul\":4144:4464   */\n    tag_22:\n        /* \"#utility.yul\":4188:4194   */\n      0x00\n        /* \"#utility.yul\":4225:4226   */\n      0x02\n        /* \"#utility.yul\":4219:4223   */\n      dup3\n        /* \"#utility.yul\":4215:4227   */\n      div\n        /* \"#utility.yul\":4205:4227   */\n      swap1\n      pop\n        /* \"#utility.yul\":4272:4273   */\n      0x01\n        /* \"#utility.yul\":4266:4270   */\n      dup3\n        /* \"#utility.yul\":4262:4274   */\n      and\n        /* \"#utility.yul\":4293:4311   */\n      dup1\n        /* \"#utility.yul\":4283:4364   */\n      tag_111\n      jumpi\n        /* \"#utility.yul\":4349:4353   */\n      0x7f\n        /* \"#utility.yul\":4341:4347   */\n      dup3\n        /* \"#utility.yul\":4337:4354   */\n      and\n        /* \"#utility.yul\":4327:4354   */\n      swap2\n      pop\n        /* \"#utility.yul\":4283:4364   */\n    tag_111:\n        /* \"#utility.yul\":4411:4413   */\n      0x20\n        /* \"#utility.yul\":4403:4409   */\n      dup3\n        /* \"#utility.yul\":4400:4414   */\n      lt\n        /* \"#utility.yul\":4380:4398   */\n      dup2\n        /* \"#utility.yul\":4377:4415   */\n      eq\n        /* \"#utility.yul\":4374:4458   */\n      iszero\n      tag_112\n      jumpi\n        /* \"#utility.yul\":4430:4448   */\n      tag_113\n      tag_114\n      jump\t// in\n    tag_113:\n        /* \"#utility.yul\":4374:4458   */\n    tag_112:\n        /* \"#utility.yul\":4195:4464   */\n      pop\n        /* \"#utility.yul\":4144:4464   */\n      swap2\n      swap1\n      pop\n      jump\t// out\n        /* \"#utility.yul\":4470:4751   */\n    tag_92:\n        /* \"#utility.yul\":4553:4580   */\n      tag_116\n        /* \"#utility.yul\":4575:4579   */\n      dup3\n        /* \"#utility.yul\":4553:4580   */\n      tag_84\n      jump\t// in\n    tag_116:\n        /* \"#utility.yul\":4545:4551   */\n      dup2\n        /* \"#utility.yul\":4541:4581   */\n      add\n        /* \"#utility.yul\":4683:4689   */\n      dup2\n        /* \"#utility.yul\":4671:4681   */\n      dup2\n        /* \"#utility.yul\":4668:4690   */\n      lt\n        /* \"#utility.yul\":4647:4665   */\n      0xffffffffffffffff\n        /* \"#utility.yul\":4635:4645   */\n      dup3\n        /* \"#utility.yul\":4632:4666   */\n      gt\n        /* \"#utility.yul\":4629:4691   */\n      or\n        /* \"#utility.yul\":4626:4714   */\n      iszero\n      tag_117\n      jumpi\n        /* \"#utility.yul\":4694:4712   */\n      tag_118\n      tag_97\n      jump\t// in\n    tag_118:\n        /* \"#utility.yul\":4626:4714   */\n    tag_117:\n        /* \"#utility.yul\":4734:4744   */\n      dup1\n        /* \"#utility.yul\":4730:4732   */\n      0x40\n        /* \"#utility.yul\":4723:4745   */\n      mstore\n        /* \"#utility.yul\":4513:4751   */\n      pop\n        /* \"#utility.yul\":4470:4751   */\n      pop\n      pop\n      jump\t// out\n        /* \"#utility.yul\":4757:4937   */\n    tag_114:\n        /* \"#utility.yul\":4805:4882   */\n      0x4e487b7100000000000000000000000000000000000000000000000000000000\n        /* \"#utility.yul\":4802:4803   */\n      0x00\n        /* \"#utility.yul\":4795:4883   */\n      mstore\n        /* \"#utility.yul\":4902:4906   */\n      0x22\n        /* \"#utility.yul\":4899:4900   */\n      0x04\n        /* \"#utility.yul\":4892:4907   */\n      mstore\n        /* \"#utility.yul\":4926:4930   */\n      0x24\n        /* \"#utility.yul\":4923:4924   */\n      0x00\n        /* \"#utility.yul\":4916:4931   */\n      revert\n        /* \"#utility.yul\":4943:5123   */\n    tag_97:\n        /* \"#utility.yul\":4991:5068   */\n      0x4e487b7100000000000000000000000000000000000000000000000000000000\n        /* \"#utility.yul\":4988:4989   */\n      0x00\n        /* \"#utility.yul\":4981:5069   */\n      mstore\n        /* \"#utility.yul\":5088:5092   */\n      0x41\n        /* \"#utility.yul\":5085:5086   */\n      0x04\n        /* \"#utility.yul\":5078:5093   */\n      mstore\n        /* \"#utility.yul\":5112:5116   */\n      0x24\n        /* \"#utility.yul\":5109:5110   */\n      0x00\n        /* \"#utility.yul\":5102:5117   */\n      revert\n        /* \"#utility.yul\":5129:5246   */\n    tag_53:\n        /* \"#utility.yul\":5238:5239   */\n      0x00\n        /* \"#utility.yul\":5235:5236   */\n      dup1\n        /* \"#utility.yul\":5228:5240   */\n      revert\n        /* \"#utility.yul\":5252:5369   */\n    tag_46:\n        /* \"#utility.yul\":5361:5362   */\n      0x00\n        /* \"#utility.yul\":5358:5359   */\n      dup1\n        /* \"#utility.yul\":5351:5363   */\n      revert\n        /* \"#utility.yul\":5375:5492   */\n    tag_65:\n        /* \"#utility.yul\":5484:5485   */\n      0x00\n        /* \"#utility.yul\":5481:5482   */\n      dup1\n        /* \"#utility.yul\":5474:5486   */\n      revert\n        /* \"#utility.yul\":5498:5615   */\n    tag_62:\n        /* \"#utility.yul\":5607:5608   */\n      0x00\n        /* \"#utility.yul\":5604:5605   */\n      dup1\n        /* \"#utility.yul\":5597:5609   */\n      revert\n        /* \"#utility.yul\":5621:5723   */\n    tag_84:\n        /* \"#utility.yul\":5662:5668   */\n      0x00\n        /* \"#utility.yul\":5713:5715   */\n      0x1f\n        /* \"#utility.yul\":5709:5716   */\n      not\n        /* \"#utility.yul\":5704:5706   */\n      0x1f\n        /* \"#utility.yul\":5697:5702   */\n      dup4\n        /* \"#utility.yul\":5693:5707   */\n      add\n        /* \"#utility.yul\":5689:5717   */\n      and\n        /* \"#utility.yul\":5679:5717   */\n      swap1\n      pop\n        /* \"#utility.yul\":5621:5723   */\n      swap2\n      swap1\n      pop\n      jump\t// out\n        /* \"#utility.yul\":5729:5851   */\n    tag_58:\n        /* \"#utility.yul\":5802:5826   */\n      tag_127\n        /* \"#utility.yul\":5820:5825   */\n      dup2\n        /* \"#utility.yul\":5802:5826   */\n      tag_102\n      jump\t// in\n    tag_127:\n        /* \"#utility.yul\":5795:5800   */\n      dup2\n        /* \"#utility.yul\":5792:5827   */\n      eq\n        /* \"#utility.yul\":5782:5845   */\n      tag_128\n      jumpi\n        /* \"#utility.yul\":5841:5842   */\n      0x00\n        /* \"#utility.yul\":5838:5839   */\n      dup1\n        /* \"#utility.yul\":5831:5843   */\n      revert\n        /* \"#utility.yul\":5782:5845   */\n    tag_128:\n        /* \"#utility.yul\":5729:5851   */\n      pop\n      jump\t// out\n\n    auxdata: 0xa2646970667358221220937606be5ae9536d02c259c5ed96934be821974a078c56e52bbffcabee7add5c64736f6c63430008070033\n}\n",
				"bytecode": {
					"linkReferences": {},
					"object": "608060405234801561001057600080fd5b506105e9806100206000396000f3fe608060405234801561001057600080fd5b50600436106100365760003560e01c8063b9abac741461003b578063bc8bc2b414610057575b600080fd5b610055600480360381019061005091906102fe565b610088565b005b610071600480360381019061006c9190610347565b61010d565b60405161007f9291906103bc565b60405180910390f35b6000604051806040016040528083815260200160011515815250908060018154018082558091505060019003906000526020600020906002020160009091909190915060008201518160000190805190602001906100e79291906101d6565b5060208201518160010160006101000a81548160ff021916908315150217905550505050565b6000818154811061011d57600080fd5b9060005260206000209060020201600091509050806000018054610140906104b6565b80601f016020809104026020016040519081016040528092919081815260200182805461016c906104b6565b80156101b95780601f1061018e576101008083540402835291602001916101b9565b820191906000526020600020905b81548152906001019060200180831161019c57829003601f168201915b5050505050908060010160009054906101000a900460ff16905082565b8280546101e2906104b6565b90600052602060002090601f016020900481019282610204576000855561024b565b82601f1061021d57805160ff191683800117855561024b565b8280016001018555821561024b579182015b8281111561024a57825182559160200191906001019061022f565b5b509050610258919061025c565b5090565b5b8082111561027557600081600090555060010161025d565b5090565b600061028c61028784610411565b6103ec565b9050828152602081018484840111156102a8576102a761057c565b5b6102b3848285610474565b509392505050565b600082601f8301126102d0576102cf610577565b5b81356102e0848260208601610279565b91505092915050565b6000813590506102f88161059c565b92915050565b60006020828403121561031457610313610586565b5b600082013567ffffffffffffffff81111561033257610331610581565b5b61033e848285016102bb565b91505092915050565b60006020828403121561035d5761035c610586565b5b600061036b848285016102e9565b91505092915050565b61037d8161045e565b82525050565b600061038e82610442565b610398818561044d565b93506103a8818560208601610483565b6103b18161058b565b840191505092915050565b600060408201905081810360008301526103d68185610383565b90506103e56020830184610374565b9392505050565b60006103f6610407565b905061040282826104e8565b919050565b6000604051905090565b600067ffffffffffffffff82111561042c5761042b610548565b5b6104358261058b565b9050602081019050919050565b600081519050919050565b600082825260208201905092915050565b60008115159050919050565b6000819050919050565b82818337600083830152505050565b60005b838110156104a1578082015181840152602081019050610486565b838111156104b0576000848401525b50505050565b600060028204905060018216806104ce57607f821691505b602082108114156104e2576104e1610519565b5b50919050565b6104f18261058b565b810181811067ffffffffffffffff821117156105105761050f610548565b5b80604052505050565b7f4e487b7100000000000000000000000000000000000000000000000000000000600052602260045260246000fd5b7f4e487b7100000000000000000000000000000000000000000000000000000000600052604160045260246000fd5b600080fd5b600080fd5b600080fd5b600080fd5b6000601f19601f8301169050919050565b6105a58161046a565b81146105b057600080fd5b5056fea2646970667358221220937606be5ae9536d02c259c5ed96934be821974a078c56e52bbffcabee7add5c64736f6c63430008070033",
					"opcodes": "PUSH1 0x80 PUSH1 0x40 MSTORE CALLVALUE DUP1 ISZERO PUSH2 0x10 JUMPI PUSH1 0x0 DUP1 REVERT JUMPDEST POP PUSH2 0x5E9 DUP1 PUSH2 0x20 PUSH1 0x0 CODECOPY PUSH1 0x0 RETURN INVALID PUSH1 0x80 PUSH1 0x40 MSTORE CALLVALUE DUP1 ISZERO PUSH2 0x10 JUMPI PUSH1 0x0 DUP1 REVERT JUMPDEST POP PUSH1 0x4 CALLDATASIZE LT PUSH2 0x36 JUMPI PUSH1 0x0 CALLDATALOAD PUSH1 0xE0 SHR DUP1 PUSH4 0xB9ABAC74 EQ PUSH2 0x3B JUMPI DUP1 PUSH4 0xBC8BC2B4 EQ PUSH2 0x57 JUMPI JUMPDEST PUSH1 0x0 DUP1 REVERT JUMPDEST PUSH2 0x55 PUSH1 0x4 DUP1 CALLDATASIZE SUB DUP2 ADD SWAP1 PUSH2 0x50 SWAP2 SWAP1 PUSH2 0x2FE JUMP JUMPDEST PUSH2 0x88 JUMP JUMPDEST STOP JUMPDEST PUSH2 0x71 PUSH1 0x4 DUP1 CALLDATASIZE SUB DUP2 ADD SWAP1 PUSH2 0x6C SWAP2 SWAP1 PUSH2 0x347 JUMP JUMPDEST PUSH2 0x10D JUMP JUMPDEST PUSH1 0x40 MLOAD PUSH2 0x7F SWAP3 SWAP2 SWAP1 PUSH2 0x3BC JUMP JUMPDEST PUSH1 0x40 MLOAD DUP1 SWAP2 SUB SWAP1 RETURN JUMPDEST PUSH1 0x0 PUSH1 0x40 MLOAD DUP1 PUSH1 0x40 ADD PUSH1 0x40 MSTORE DUP1 DUP4 DUP2 MSTORE PUSH1 0x20 ADD PUSH1 0x1 ISZERO ISZERO DUP2 MSTORE POP SWAP1 DUP1 PUSH1 0x1 DUP2 SLOAD ADD DUP1 DUP3 SSTORE DUP1 SWAP2 POP POP PUSH1 0x1 SWAP1 SUB SWAP1 PUSH1 0x0 MSTORE PUSH1 0x20 PUSH1 0x0 KECCAK256 SWAP1 PUSH1 0x2 MUL ADD PUSH1 0x0 SWAP1 SWAP2 SWAP1 SWAP2 SWAP1 SWAP2 POP PUSH1 0x0 DUP3 ADD MLOAD DUP2 PUSH1 0x0 ADD SWAP1 DUP1 MLOAD SWAP1 PUSH1 0x20 ADD SWAP1 PUSH2 0xE7 SWAP3 SWAP2 SWAP1 PUSH2 0x1D6 JUMP JUMPDEST POP PUSH1 0x20 DUP3 ADD MLOAD DUP2 PUSH1 0x1 ADD PUSH1 0x0 PUSH2 0x100 EXP DUP2 SLOAD DUP2 PUSH1 0xFF MUL NOT AND SWAP1 DUP4 ISZERO ISZERO MUL OR SWAP1 SSTORE POP POP POP POP JUMP JUMPDEST PUSH1 0x0 DUP2 DUP2 SLOAD DUP2 LT PUSH2 0x11D JUMPI PUSH1 0x0 DUP1 REVERT JUMPDEST SWAP1 PUSH1 0x0 MSTORE PUSH1 0x20 PUSH1 0x0 KECCAK256 SWAP1 PUSH1 0x2 MUL ADD PUSH1 0x0 SWAP2 POP SWAP1 POP DUP1 PUSH1 0x0 ADD DUP1 SLOAD PUSH2 0x140 SWAP1 PUSH2 0x4B6 JUMP JUMPDEST DUP1 PUSH1 0x1F ADD PUSH1 0x20 DUP1 SWAP2 DIV MUL PUSH1 0x20 ADD PUSH1 0x40 MLOAD SWAP1 DUP2 ADD PUSH1 0x40 MSTORE DUP1 SWAP3 SWAP2 SWAP1 DUP2 DUP2 MSTORE PUSH1 0x20 ADD DUP3 DUP1 SLOAD PUSH2 0x16C SWAP1 PUSH2 0x4B6 JUMP JUMPDEST DUP1 ISZERO PUSH2 0x1B9 JUMPI DUP1 PUSH1 0x1F LT PUSH2 0x18E JUMPI PUSH2 0x100 DUP1 DUP4 SLOAD DIV MUL DUP4 MSTORE SWAP2 PUSH1 0x20 ADD SWAP2 PUSH2 0x1B9 JUMP JUMPDEST DUP3 ADD SWAP2 SWAP1 PUSH1 0x0 MSTORE PUSH1 0x20 PUSH1 0x0 KECCAK256 SWAP1 JUMPDEST DUP2 SLOAD DUP2 MSTORE SWAP1 PUSH1 0x1 ADD SWAP1 PUSH1 0x20 ADD DUP1 DUP4 GT PUSH2 0x19C JUMPI DUP3 SWAP1 SUB PUSH1 0x1F AND DUP3 ADD SWAP2 JUMPDEST POP POP POP POP POP SWAP1 DUP1 PUSH1 0x1 ADD PUSH1 0x0 SWAP1 SLOAD SWAP1 PUSH2 0x100 EXP SWAP1 DIV PUSH1 0xFF AND SWAP1 POP DUP3 JUMP JUMPDEST DUP3 DUP1 SLOAD PUSH2 0x1E2 SWAP1 PUSH2 0x4B6 JUMP JUMPDEST SWAP1 PUSH1 0x0 MSTORE PUSH1 0x20 PUSH1 0x0 KECCAK256 SWAP1 PUSH1 0x1F ADD PUSH1 0x20 SWAP1 DIV DUP2 ADD SWAP3 DUP3 PUSH2 0x204 JUMPI PUSH1 0x0 DUP6 SSTORE PUSH2 0x24B JUMP JUMPDEST DUP3 PUSH1 0x1F LT PUSH2 0x21D JUMPI DUP1 MLOAD PUSH1 0xFF NOT AND DUP4 DUP1 ADD OR DUP6 SSTORE PUSH2 0x24B JUMP JUMPDEST DUP3 DUP1 ADD PUSH1 0x1 ADD DUP6 SSTORE DUP3 ISZERO PUSH2 0x24B JUMPI SWAP2 DUP3 ADD JUMPDEST DUP3 DUP2 GT ISZERO PUSH2 0x24A JUMPI DUP3 MLOAD DUP3 SSTORE SWAP2 PUSH1 0x20 ADD SWAP2 SWAP1 PUSH1 0x1 ADD SWAP1 PUSH2 0x22F JUMP JUMPDEST JUMPDEST POP SWAP1 POP PUSH2 0x258 SWAP2 SWAP1 PUSH2 0x25C JUMP JUMPDEST POP SWAP1 JUMP JUMPDEST JUMPDEST DUP1 DUP3 GT ISZERO PUSH2 0x275 JUMPI PUSH1 0x0 DUP2 PUSH1 0x0 SWAP1 SSTORE POP PUSH1 0x1 ADD PUSH2 0x25D JUMP JUMPDEST POP SWAP1 JUMP JUMPDEST PUSH1 0x0 PUSH2 0x28C PUSH2 0x287 DUP5 PUSH2 0x411 JUMP JUMPDEST PUSH2 0x3EC JUMP JUMPDEST SWAP1 POP DUP3 DUP2 MSTORE PUSH1 0x20 DUP2 ADD DUP5 DUP5 DUP5 ADD GT ISZERO PUSH2 0x2A8 JUMPI PUSH2 0x2A7 PUSH2 0x57C JUMP JUMPDEST JUMPDEST PUSH2 0x2B3 DUP5 DUP3 DUP6 PUSH2 0x474 JUMP JUMPDEST POP SWAP4 SWAP3 POP POP POP JUMP JUMPDEST PUSH1 0x0 DUP3 PUSH1 0x1F DUP4 ADD SLT PUSH2 0x2D0 JUMPI PUSH2 0x2CF PUSH2 0x577 JUMP JUMPDEST JUMPDEST DUP2 CALLDATALOAD PUSH2 0x2E0 DUP5 DUP3 PUSH1 0x20 DUP7 ADD PUSH2 0x279 JUMP JUMPDEST SWAP2 POP POP SWAP3 SWAP2 POP POP JUMP JUMPDEST PUSH1 0x0 DUP2 CALLDATALOAD SWAP1 POP PUSH2 0x2F8 DUP2 PUSH2 0x59C JUMP JUMPDEST SWAP3 SWAP2 POP POP JUMP JUMPDEST PUSH1 0x0 PUSH1 0x20 DUP3 DUP5 SUB SLT ISZERO PUSH2 0x314 JUMPI PUSH2 0x313 PUSH2 0x586 JUMP JUMPDEST JUMPDEST PUSH1 0x0 DUP3 ADD CALLDATALOAD PUSH8 0xFFFFFFFFFFFFFFFF DUP2 GT ISZERO PUSH2 0x332 JUMPI PUSH2 0x331 PUSH2 0x581 JUMP JUMPDEST JUMPDEST PUSH2 0x33E DUP5 DUP3 DUP6 ADD PUSH2 0x2BB JUMP JUMPDEST SWAP2 POP POP SWAP3 SWAP2 POP POP JUMP JUMPDEST PUSH1 0x0 PUSH1 0x20 DUP3 DUP5 SUB SLT ISZERO PUSH2 0x35D JUMPI PUSH2 0x35C PUSH2 0x586 JUMP JUMPDEST JUMPDEST PUSH1 0x0 PUSH2 0x36B DUP5 DUP3 DUP6 ADD PUSH2 0x2E9 JUMP JUMPDEST SWAP2 POP POP SWAP3 SWAP2 POP POP JUMP JUMPDEST PUSH2 0x37D DUP2 PUSH2 0x45E JUMP JUMPDEST DUP3 MSTORE POP POP JUMP JUMPDEST PUSH1 0x0 PUSH2 0x38E DUP3 PUSH2 0x442 JUMP JUMPDEST PUSH2 0x398 DUP2 DUP6 PUSH2 0x44D JUMP JUMPDEST SWAP4 POP PUSH2 0x3A8 DUP2 DUP6 PUSH1 0x20 DUP7 ADD PUSH2 0x483 JUMP JUMPDEST PUSH2 0x3B1 DUP2 PUSH2 0x58B JUMP JUMPDEST DUP5 ADD SWAP2 POP POP SWAP3 SWAP2 POP POP JUMP JUMPDEST PUSH1 0x0 PUSH1 0x40 DUP3 ADD SWAP1 POP DUP2 DUP2 SUB PUSH1 0x0 DUP4 ADD MSTORE PUSH2 0x3D6 DUP2 DUP6 PUSH2 0x383 JUMP JUMPDEST SWAP1 POP PUSH2 0x3E5 PUSH1 0x20 DUP4 ADD DUP5 PUSH2 0x374 JUMP JUMPDEST SWAP4 SWAP3 POP POP POP JUMP JUMPDEST PUSH1 0x0 PUSH2 0x3F6 PUSH2 0x407 JUMP JUMPDEST SWAP1 POP PUSH2 0x402 DUP3 DUP3 PUSH2 0x4E8 JUMP JUMPDEST SWAP2 SWAP1 POP JUMP JUMPDEST PUSH1 0x0 PUSH1 0x40 MLOAD SWAP1 POP SWAP1 JUMP JUMPDEST PUSH1 0x0 PUSH8 0xFFFFFFFFFFFFFFFF DUP3 GT ISZERO PUSH2 0x42C JUMPI PUSH2 0x42B PUSH2 0x548 JUMP JUMPDEST JUMPDEST PUSH2 0x435 DUP3 PUSH2 0x58B JUMP JUMPDEST SWAP1 POP PUSH1 0x20 DUP2 ADD SWAP1 POP SWAP2 SWAP1 POP JUMP JUMPDEST PUSH1 0x0 DUP2 MLOAD SWAP1 POP SWAP2 SWAP1 POP JUMP JUMPDEST PUSH1 0x0 DUP3 DUP3 MSTORE PUSH1 0x20 DUP3 ADD SWAP1 POP SWAP3 SWAP2 POP POP JUMP JUMPDEST PUSH1 0x0 DUP2 ISZERO ISZERO SWAP1 POP SWAP2 SWAP1 POP JUMP JUMPDEST PUSH1 0x0 DUP2 SWAP1 POP SWAP2 SWAP1 POP JUMP JUMPDEST DUP3 DUP2 DUP4 CALLDATACOPY PUSH1 0x0 DUP4 DUP4 ADD MSTORE POP POP POP JUMP JUMPDEST PUSH1 0x0 JUMPDEST DUP4 DUP2 LT ISZERO PUSH2 0x4A1 JUMPI DUP1 DUP3 ADD MLOAD DUP2 DUP5 ADD MSTORE PUSH1 0x20 DUP2 ADD SWAP1 POP PUSH2 0x486 JUMP JUMPDEST DUP4 DUP2 GT ISZERO PUSH2 0x4B0 JUMPI PUSH1 0x0 DUP5 DUP5 ADD MSTORE JUMPDEST POP POP POP POP JUMP JUMPDEST PUSH1 0x0 PUSH1 0x2 DUP3 DIV SWAP1 POP PUSH1 0x1 DUP3 AND DUP1 PUSH2 0x4CE JUMPI PUSH1 0x7F DUP3 AND SWAP2 POP JUMPDEST PUSH1 0x20 DUP3 LT DUP2 EQ ISZERO PUSH2 0x4E2 JUMPI PUSH2 0x4E1 PUSH2 0x519 JUMP JUMPDEST JUMPDEST POP SWAP2 SWAP1 POP JUMP JUMPDEST PUSH2 0x4F1 DUP3 PUSH2 0x58B JUMP JUMPDEST DUP2 ADD DUP2 DUP2 LT PUSH8 0xFFFFFFFFFFFFFFFF DUP3 GT OR ISZERO PUSH2 0x510 JUMPI PUSH2 0x50F PUSH2 0x548 JUMP JUMPDEST JUMPDEST DUP1 PUSH1 0x40 MSTORE POP POP POP JUMP JUMPDEST PUSH32 0x4E487B7100000000000000000000000000000000000000000000000000000000 PUSH1 0x0 MSTORE PUSH1 0x22 PUSH1 0x4 MSTORE PUSH1 0x24 PUSH1 0x0 REVERT JUMPDEST PUSH32 0x4E487B7100000000000000000000000000000000000000000000000000000000 PUSH1 0x0 MSTORE PUSH1 0x41 PUSH1 0x4 MSTORE PUSH1 0x24 PUSH1 0x0 REVERT JUMPDEST PUSH1 0x0 DUP1 REVERT JUMPDEST PUSH1 0x0 DUP1 REVERT JUMPDEST PUSH1 0x0 DUP1 REVERT JUMPDEST PUSH1 0x0 DUP1 REVERT JUMPDEST PUSH1 0x0 PUSH1 0x1F NOT PUSH1 0x1F DUP4 ADD AND SWAP1 POP SWAP2 SWAP1 POP JUMP JUMPDEST PUSH2 0x5A5 DUP2 PUSH2 0x46A JUMP JUMPDEST DUP2 EQ PUSH2 0x5B0 JUMPI PUSH1 0x0 DUP1 REVERT JUMPDEST POP JUMP INVALID LOG2 PUSH5 0x6970667358 0x22 SLT KECCAK256 SWAP4 PUSH23 0x6BE5AE9536D02C259C5ED96934BE821974A078C56E52B 0xBF 0xFC 0xAB 0xEE PUSH27 0xDD5C64736F6C634300080700330000000000000000000000000000 "
				},
				"gasEstimates": {
					"creation": {
						"codeDepositCost": "302600",
						"executionCost": "343",
						"totalCost": "302943"
					},
					"external": {
						"setTodo(string)": "infinite",
						"todos(uint256)": "infinite"
					}
				},
				"methodIdentifiers": {
					"setTodo(string)": "b9abac74",
					"todos(uint256)": "bc8bc2b4"
				}
			},
			"storageLayout": {
				"storage": [
					{
						"astId": 10,
						"contract": "Structs.sol:Struct",
						"label": "todos",
						"offset": 0,
						"slot": "0",
						"type": "t_array(t_struct(TodoItem)6_storage)dyn_storage"
					}
				],
				"types": {
					"t_array(t_struct(TodoItem)6_storage)dyn_storage": {
						"base": "t_struct(TodoItem)6_storage",
						"encoding": "dynamic_array",
						"label": "struct Struct.TodoItem[]",
						"numberOfBytes": "32"
					},
					"t_bool": {
						"encoding": "inplace",
						"label": "bool",
						"numberOfBytes": "1"
					},
					"t_string_storage": {
						"encoding": "bytes",
						"label": "string",
						"numberOfBytes": "32"
					},
					"t_struct(TodoItem)6_storage": {
						"encoding": "inplace",
						"label": "struct Struct.TodoItem",
						"members": [
							{
								"astId": 3,
								"contract": "Structs.sol:Struct",
								"label": "name",
								"offset": 0,
								"slot": "0",
								"type": "t_string_storage"
							},
							{
								"astId": 5,
								"contract": "Structs.sol:Struct",
								"label": "completed",
								"offset": 0,
								"slot": "1",
								"type": "t_bool"
							}
						],
						"numberOfBytes": "64"
					}
				}
			},
			"userdoc": {
				"kind": "user",
				"methods": {},
				"version": 1
			}
		}
	}
}