{
	"data": {
		"bytecode": {
			"linkReferences": {},
			"object": "608060405234801561001057600080fd5b5060cf8061001f6000396000f3fe60806040526004361060295760003560e01c80630e29df2214603157806312065fe014603957602f565b36602f57005b005b6037605f565b005b348015604457600080fd5b50604b6061565b604051605691906076565b60405180910390f35b565b600047905090565b607081608f565b82525050565b6000602082019050608960008301846069565b92915050565b600081905091905056fea2646970667358221220e887c2a73665bc3f22d99ace54adc1c95eb50b565a2edeacf8ffdc6c518b74e864736f6c63430008070033",
			"opcodes": "PUSH1 0x80 PUSH1 0x40 MSTORE CALLVALUE DUP1 ISZERO PUSH2 0x10 JUMPI PUSH1 0x0 DUP1 REVERT JUMPDEST POP PUSH1 0xCF DUP1 PUSH2 0x1F PUSH1 0x0 CODECOPY PUSH1 0x0 RETURN INVALID PUSH1 0x80 PUSH1 0x40 MSTORE PUSH1 0x4 CALLDATASIZE LT PUSH1 0x29 JUMPI PUSH1 0x0 CALLDATALOAD PUSH1 0xE0 SHR DUP1 PUSH4 0xE29DF22 EQ PUSH1 0x31 JUMPI DUP1 PUSH4 0x12065FE0 EQ PUSH1 0x39 JUMPI PUSH1 0x2F JUMP JUMPDEST CALLDATASIZE PUSH1 0x2F JUMPI STOP JUMPDEST STOP JUMPDEST PUSH1 0x37 PUSH1 0x5F JUMP JUMPDEST STOP JUMPDEST CALLVALUE DUP1 ISZERO PUSH1 0x44 JUMPI PUSH1 0x0 DUP1 REVERT JUMPDEST POP PUSH1 0x4B PUSH1 0x61 JUMP JUMPDEST PUSH1 0x40 MLOAD PUSH1 0x56 SWAP2 SWAP1 PUSH1 0x76 JUMP JUMPDEST PUSH1 0x40 MLOAD DUP1 SWAP2 SUB SWAP1 RETURN JUMPDEST JUMP JUMPDEST PUSH1 0x0 SELFBALANCE SWAP1 POP SWAP1 JUMP JUMPDEST PUSH1 0x70 DUP2 PUSH1 0x8F JUMP JUMPDEST DUP3 MSTORE POP POP JUMP JUMPDEST PUSH1 0x0 PUSH1 0x20 DUP3 ADD SWAP1 POP PUSH1 0x89 PUSH1 0x0 DUP4 ADD DUP5 PUSH1 0x69 JUMP JUMPDEST SWAP3 SWAP2 POP POP JUMP JUMPDEST PUSH1 0x0 DUP2 SWAP1 POP SWAP2 SWAP1 POP JUMP INVALID LOG2 PUSH5 0x6970667358 0x22 SLT KECCAK256 0xE8 DUP8 0xC2 0xA7 CALLDATASIZE PUSH6 0xBC3F22D99ACE SLOAD 0xAD 0xC1 0xC9 0x5E 0xB5 SIGNEXTEND JUMP GAS 0x2E 0xDE 0xAC 0xF8 SELFDESTRUCT 0xDC PUSH13 0x518B74E864736F6C6343000807 STOP CALLER "
		},
		"gasEstimates": {
			"creation": {
				"codeDepositCost": "41400",
				"executionCost": "93",
				"totalCost": "41493"
			},
			"external": {
				"": "107",
				"getBalance()": "339",
				"sendEther()": "98"
			}
		},
		"methodIdentifiers": {
			"getBalance()": "12065fe0",
			"sendEther()": "0e29df22"
		}
	},
	"abi": [
		{
			"stateMutability": "payable",
			"type": "fallback"
		},
		{
			"inputs": [],
			"name": "getBalance",
			"outputs": [
				{
					"internalType": "uint256",
					"name": "",
					"type": "uint256"
				}
			],
			"stateMutability": "view",
			"type": "function"
		},
		{
			"inputs": [],
			"name": "sendEther",
			"outputs": [],
			"stateMutability": "payable",
			"type": "function"
		},
		{
			"stateMutability": "payable",
			"type": "receive"
		}
	]
}